:020000040800F2
:1000000080900020950200086DE70008E59B00083D
:100010000DE700085D2300085950010800000000AA
:10002000000000000000000000000000592A010844
:100030007342000800000000A50C0108A53B010860
:10004000AF020008AF020008AF020008AF020008CC
:10005000AF020008AF020008AF020008AF020008BC
:10006000AF020008AF020008AF020008AF020008AC
:10007000AF020008AF020008AF020008AF0200089C
:10008000AF020008AF020008AF020008AF0200088C
:10009000AF020008AF020008AF020008AF0200087C
:1000A000AF020008AF020008AF020008AF0200086C
:1000B000AF020008B5400108AF020008AF02000817
:1000C000AF020008AF020008AF020008AF0200084C
:1000D000AF020008D94D0108AF020008AF020008C6
:1000E000AF020008AF020008AF020008AF0200082C
:1000F000AF020008AF020008AF020008AF0200081C
:10010000AF020008AF020008BD450108AF020008B9
:10011000AF020008AF020008F1450108AF02000875
:1001200095400008AF020008AF020008AF020008C7
:10013000AF020008AF020008AF020008AF020008DB
:10014000AF020008AF020008AF0200084DEF000840
:10015000AF020008AF020008AF020008AF020008BB
:10016000AF020008AF020008AF020008AF020008AB
:10017000AF020008AF020008AF020008AF0200089B
:10018000AF020008AF02000800F002F800F072F8B9
:100190000AA090E8000C82448344AAF10107DA45E2
:1001A00001D100F067F8AFF2090EBAE80F0013F0C2
:1001B000010F18BFFB1A43F001031847CC3C0400A1
:1001C000EC3C04000A444FF0000C10F8013B13F023
:1001D000070408BF10F8014B1D1108BF10F8015BA0
:1001E000641E05D010F8016B641E01F8016BF9D193
:1001F00013F0080F1EBF10F8014BAD1C0C1B09D1EA
:100200006D1E58BF01F801CBFAD505E014F8016B5B
:1002100001F8016B6D1EF9D59142D6D370470000ED
:100220000023002400250026103A28BF78C1FBD8FF
:10023000520728BF30C148BF0B607047662926F0BF
:10024000C684642900F08480002070471FB526F022
:10025000B4FC00F0CFFD04000020002125F06AFF6F
:10026000401C60600020002125F04EFFE0601FBDB3
:1002700010B510BD00F00AFF1146FFF7E7FF25F0AB
:100280005DFB00F036FF03B4FFF7F2FF03BC00F0A4
:1002900077FF00000948804709480047FEE7FEE76E
:1002A000FEE7FEE7FEE7FEE7FEE7FEE7FEE7FEE726
:1002B00004480549054A064B704700006D3C01089B
:1002C00089010008808A002080900020808C002016
:1002D000808C00200FB41CB5074B06AA7B446946EE
:1002E0000090059800F0CBFC0020694600F0DAFC95
:1002F0001CBC5DF814FB0000C509000070B5044685
:1003000085690068C10601D5302600E02026C007B7
:1003100008D070BDD4E9012130469047206A00F131
:10032000010020626D1EF5D570BD70B5044685696B
:100330000068C00708D170BDD4E901212020904792
:10034000206A00F1010020626D1EF5D570BD00002D
:100350002DE9F0410746002510687529394616A495
:1003600011D0AFF30080002803DAC0F1000013A41D
:1003700007E039688A0701D511A402E0490704D5CE
:1003800010A4012501E0AFF3008000210A2307F14A
:10039000240607E0B0FBF3F203FB12003030705488
:1003A0001046491C0028F5D12B4622463846BDE8A8
:1003B000F04100F0F3B90000000000002D00000043
:1003C0002B000000200000002DE9F05F0446894664
:1003D0004FF0000ADFF828B1FB44C0F820A0204607
:1003E000E168884700287CD0252806D0D4E901217F
:1003F0009047206A401C2062F1E700255F462046B6
:10040000E16888472028064608DB312E06D207EB34
:10041000060010F8200C08B10543F0E7A80701D545
:1004200025F00405C4F81CA00027C4F818A02A2E43
:1004300009D0304625F034F938B304EB8708303E54
:10044000C8F8186019E059F8041B204604EB87022D
:100450009161E1688847012F064618D1E0690028BC
:1004600020DA25F020051DE0D8F8180000EB800008
:1004700006EB40003038C8F818002046E16888478D
:10048000064625F00DF90028EED1012F0AD02E2EB8
:1004900008D12046E16888477F1C0646022F45F0B8
:1004A0002005C4DBA069002803DA404245F00105BD
:1004B000A061E80701D025F0100596B1A6F1410032
:1004C000192802D8203645F400654A4631462046B0
:1004D00025604D46FFF7B2FE60B1012807D0ED1D43
:1004E00000E009E025F0070000F1080977E705F1D1
:1004F000040974E7304679E7206ABDE8F09F000000
:10050000D839040070B5064600F044F90468054681
:1005100030460A22002100F0CAFB2C6070BD40EA80
:100520000103024630B59B0710D14FF0013400E0C3
:1005300008C208C91D1B9D4315EAC41FF8D013F05B
:10054000FF0102F8011B0DD01B0AF8E711F8013B6F
:10055000002B02F8013B05D011F8013B002B02F8FB
:10056000013BF3D130BD10B5431C02E010F8011B74
:1005700071B18107FAD14FF0013202C88C1A8C4355
:1005800014EAC211F9D0C01A0A0603D0C01E10BD69
:10059000C01A10BD0A0401D0801E10BD0902FCD093
:1005A000401E10BD421E12F8013F002BFBD111F876
:1005B000013B002B02F8013BF9D17047032A40F2BE
:1005C000308010F0030C00F0158011F8013BBCF1F5
:1005D000020F624498BF11F801CB00F8013B38BF0D
:1005E00011F8013BA2F1040298BF00F801CB38BF1B
:1005F00000F8013B11F0030300F06780083AC0F0F7
:10060000088051F8043B083A51F804CBA0E80810E0
:10061000F5E7121D5CBF51F8043B40F8043BAFF313
:100620000080D20724BF11F8013B11F801CB48BF6D
:1006300011F8012B24BF00F8013B00F801CB48BFA3
:1006400000F8012B7047431A28BF9A427FF6B6AFD5
:10065000032A1044114440F2268010F0030F1EBFFD
:1006600011F8013D521E00F8013D10F0030F7FF418
:10067000F6AF11F0030300F06583083AC0F00B8079
:1006800051F8043D083A51F804CD40F8043D40F8D3
:1006900004CDFFF7F3BF121D5CBF51F8043D40F8D5
:1006A000043DAFF30080D20724BF11F8013D11F8DB
:1006B00001CD48BF11F8012C24BF00F8013D00F81E
:1006C00001CD48BF00F8012C704710B5203AC0F0AA
:1006D0000B80B1E81850203AA0E81850B1E8185043
:1006E000A0E81850BFF4F5AF5FEA027C24BFB1E880
:1006F0001850A0E8185044BF18C918C0BDE81040F1
:100700005FEA827C24BF51F8043B40F8043B08BFF9
:100710007047D20728BF31F8023B48BF11F8012BC0
:1007200028BF20F8023B48BF00F8012B704702F0B9
:10073000FF0343EA032242EA024200F02FBB4FF0DC
:10074000000200B5134694469646203922BFA0E821
:100750000C50A0E80C50B1F12001BFF4F7AF09072D
:1007600028BFA0E80C5048BF0CC05DF804EB89001E
:1007700028BF40F8042B08BF704748BF20F8022B61
:1007800011F0804F18BF00F8012B70477047704779
:1007900070470000004870471C8A00202DE9F04790
:1007A0000D4604469246994600F1240801688806E1
:1007B00004D5E06921F01001216000E00120A84289
:1007C00002DDA0EB050700E00027A16907EB0502A9
:1007D00002EB0900A1EB0000A0612068C00602D472
:1007E0002046FFF78BFD002608E0D4E901211AF826
:1007F00006009047206A401C761C20624E45F4DBC0
:100800002068C0060AD52046FFF778FD06E0D4E947
:10081000012130209047206A401C2062381EA7F139
:100820000107F4DC07E0D4E9012118F8050090473E
:10083000206A401C2062281EA5F10105F3DC204639
:10084000FFF773FD2068000602D50220BDE8F0879F
:100850000120FBE770472DE9FF4F0C461E464FF085
:10086000FF378BB0D2E90001DDF860800A908A463C
:10087000C1F30A5505B93D46002108464FF0000076
:10088000BAF1000F00F4400005DA00EB80004FF4ED
:10089000400101EA50004FEA9059B9F1010F00DD23
:1008A000B9460A9850EA4A000FD044F61050A5F213
:1008B000FF3545432F14B8F1000F1FD07542291E94
:1008C0001FDD4846C9F100021CE0B8F1010F4FF0EE
:1008D000000001D1F24307E0302101E02154401C27
:1008E000B042FBDB30460022002121540B99C1F8B5
:1008F0000880C1E900200FB0BDE8F08FBD1B6D1C62
:10090000DDE74A4600DA694206A800F04DFB06AB77
:1009100007CB03AB07C350460A9900F038FC8DE8BB
:100920000700A0F500501F3800900398002D09DD46
:1009300042F21F014A46084403A90390684600F0AA
:1009400097FE08E0A0F500504A461F3803A903901F
:10095000684600F0A1FE8DE807000004000C03D0FB
:100960004FF0FF30410800E01046B8F1000F03D00F
:100970000022009215461FE0751E06D400F03EFAD4
:1009800002F1300262556D1EF8D5B34601220843CC
:1009900002D000227F1C04E02078302801D1002200
:1009A0007F1E002A099786D01DE0112D07DA00F07E
:1009B00025FA303262556D1C50EA0102F5D1084328
:1009C0000FD10021681E05E0235C625C6354491C62
:1009D0002254401E8142F7DBAB46A81B401E099003
:1009E00001E0009848B1002004F80B000B98099A28
:1009F000C0F80880C0E9002B7DE711264FF0000801
:100A000059E72DE9F04F88460446D21D22F0070130
:100A100091B0D1E90001CDE90A011EF08FFC024638
:100A20000B98C00F01D02D2007E02068810701D569
:100A30002B2002E0202101EAC000032A099001D006
:100A4000072A05DB03464146204600F01DFA0EE169
:100A50002068800601D5E06900E00620B8F1650F46
:100A6000814606D0B8F1660F18D0B8F1670F72D181
:100A700032E00020B9F1110F009001DB112301E0F9
:100A800009F101030AAA01A90CA8FFF7E4FEDDE9B8
:100A90000C70002609F10105834648E001204B4611
:100AA00000904FF000470AAA01A90CA8FFF7D3FE57
:100AB000DDE90C050E990026AB4619B909F10101D3
:100AC00000EB0105B9EB050003D4C0F1FF3609F1D5
:100AD0000105A5EB09002BE0B9F1010F01DA4FF098
:100AE00001090020B9F1110F0090484601DD1123E2
:100AF00000E003460AAA01A90CA8FFF7ACFEDDE955
:100B00000C704D4600268346206800070AD4AB458A
:100B100000DA5D4601A8012D04DD411911F8011C20
:100B2000302907D04F4502DA17F1040F04DA01200B
:100B3000824610E06D1EEEE7002F02DCED1B3E4406
:100B400003E0781CA84200DD0546A7EB060000F193
:100B5000010A4FF000472068000703D4AA4501DBD3
:100B60004FF0FF3A0021B7F1004F0DF143088DF827
:100B7000431022D002202B23002F01DA7F422D23A5
:100B80000A22011EA0F1010000DC4FB197FBF2F137
:100B900002FB117C0F460CF1300C08F801CDF0E798
:100BA000A8F1010003702168090501D5452100E085
:100BB0006521A0F1010800F8011C09980FA9A1EB1B
:100BC000080707F1070700B1012000EB050101EB61
:100BD000EA70A1693844A1EB0000A0F10100A06116
:100BE0002068C00602D42046FFF788FB099830B180
:100BF000D4E901219047206A00F1010020622068B9
:100C0000C00620D52046FFF779FB1CE0002E04DB50
:100C1000B34502DD01A8805D00E03020D4E9012168
:100C20009047206A761C401CBAF1010A20620AD162
:100C300000F0E0F8C0680168405CD4E90121904709
:100C4000206A401C2062281EA5F10105DEDC07E0B9
:100C5000D4E9012118F8010B9047206A401C20625A
:100C6000381EA7F10107F3DC2046FFF75EFB0220E8
:100C700011B041E601694A1C02610878704700B56D
:100C80008FB0CDE901310021059105497944CDE9C5
:100C9000031011466846FFF797FB0FB000BD000038
:100CA000E5FFFFFF0A6802F8010B0A6070472DE9B3
:100CB000F0470F46914680460446002614F8015B33
:100CC0002DB100F08FF80068405DC007F6D12B2DE4
:100CD00002D02D2D18D0641E4A463946204600F019
:100CE00013F927B13968A14201D1C7F800804FF04C
:100CF000020471050BD54042002803DDFFF74AFDD1
:100D00000460A007BDE8F08746F48066E4E70028A9
:100D1000F8DAFFF73FFD04606FF00040F2E7431A96
:100D200028BF9A427FF6D1AC104410F0030F114453
:100D30001EBF11F8013D521E00F8013D10F0030FD7
:100D40007FF4F6AF103AC0F00A8010B531E91850C0
:100D5000103A20E91850BFF4F9AFBDE8104053072E
:100D600024BF31E9081020E9081044BF51F8043DC0
:100D700040F8043D12F0030F08BF7047D20728BFA8
:100D800031F8023D48BF11F8012C28BF20F8023D80
:100D900048BF00F8012C70474FF000020429C0F052
:100DA000128010F0030C3FF4CCACCCF1040CBCF17D
:100DB000020F18BF00F8012BA8BF20F8022BA1EBEF
:100DC0000C01FFF7BEBC5FEAC17C24BF00F8012B19
:100DD00000F8012B48BF00F8012B7047004870470E
:100DE0001C8A002010B500F005F8001D10BD00BFE2
:100DF00045530200004870473C8A002030B5B0F1EE
:100E00000A024FEA900E71F100034EEA817EB0EBC8
:100E10000E0061EB91014FEA101E4EEA017E10EBCD
:100E20000E0041EB11114FEA102E4EEA016E10EB4D
:100E30000E0041EB11214FEA104E4EEA014E10EB2D
:100E40000E0041EB1141401841F100014FEAD00082
:100E500040EA41704FEAD10110EB80054FEA81046E
:100E600044EA907444EB01046D1944EB0404521BF2
:100E7000A3414FF0000348BF0A3200D530BD401CEB
:100E800041F1000130BD00002DE9F04104461F464C
:100E900003260168072A01F4006004DB08B116A5E7
:100EA00005E016A503E008B115A500E015A521F0A1
:100EB00010002060A069C01EA0610FB1401EA0619B
:100EC0002046FFF71BFA4FB1D4E90121384690477D
:100ED000206A401C2062C01C206206E0206AFAE7FB
:100EE000D4E9012115F8010B9047761EF8D220466F
:100EF000FFF71BFABDE8F0814E414E006E616E00B7
:100F0000494E4600696E66002DE9F05F82468B46C9
:100F1000154600270AF10104B9460078302801D0AF
:100F20009DB113E014F8010B0127782803D058284D
:100F300001D045B10AE00DB1102D07D1002714F8FA
:100F4000010B102502E0082500E00A250026B04626
:100F50000EE005FB080005FB06F101271FFA80F8EB
:100F600001EB1046B6F5803F00D3B94614F8010BEB
:100F7000294600F0B0F80028EBDABBF1000F05D0ED
:100F80000FB1641E00E05446CBF80040B9F1000FE9
:100F900006D0FFF7FFFB02210160C81EBDE8F09FED
:100FA00048EA0640FAE700002DE9F0478146164678
:100FB0008AB035487844D0E9002380680092CDE9B2
:100FC0000130314878440C38D0E90223006903929B
:100FD0004FF03702CDE9043041F69B30014491FBDC
:100FE000F2F0A0F1800502FB10141B3C02D5644214
:100FF000012000E00020DFF890A080460027FA449E
:10100000AAF1C60A0DE0E00709D03246684607EBB0
:1010100047010AEB810100F03FFB8DE807006410F7
:101020007F1C002CEFD1184F7F44B43F17E0E80736
:1010300013D007EB04100DF1180A90E80E00AAE88F
:101040000E00C068F04201D198190890324606A9F6
:1010500003A800F021FB03AB07C36D10641C002D37
:10106000E5D132466946B8F1000F03A802D000F07E
:10107000FFFA01E000F010FBC9E90001C9F80820FF
:101080000AB0BDE8F08700008C2E04007546FFF71B
:10109000A5FEAE4605006946534620F0070085468A
:1010A00018B020B5FFF704F9BDE820404FF0000666
:1010B0004FF000074FF000084FF0000B21F0070140
:1010C000AC46ACE8C009ACE8C009ACE8C009ACE883
:1010D000C0098D4670473A2800D2303820F02002EF
:1010E000412A01D3A2F13700884201D34FF0FF30EB
:1010F00070470446AFF300802046FFF7C4F80000B5
:101100004FF0013C50F8042B51F8043B9A4221D196
:10111000A2EB0C03934313EACC1317D150F8042B22
:1011200051F8043B9A4215D1A2EB0C03934313EA06
:10113000CC130BD150F8042B51F8043B9A4209D13F
:10114000A2EB0C03934313EACC13DBD04FF0000067
:10115000704700BFD01A01BAB1FA81F101F018014D
:1011600022FA01F0CB40C1F12001DBB2C0B2C01ABB
:101170002CFA01F3D11A914311EAC311E6D1704759
:1011800001491820ABBEFEE72600020070475FEA67
:10119000400C08BF91F0000F4FEA8C234FEAC122A8
:1011A00043EA51514FEA1C5018BF00F5F0404FEA96
:1011B000300018BF41F000415FEA6C5C00F029800C
:1011C000BCF1FF3F08BF40F080407047130C06BFE2
:1011D00012044FF0100C4FF0000C130E04BF12025B
:1011E0000CF1080C130F04BF12010CF1040C930F47
:1011F00004BF92000CF1020CD30F04BF52000CF19B
:10120000010C11464FF00002A0F11F00A0EB0C00F2
:10121000704711F0004F08BF704731F000413FF4B4
:10122000D5AF0B0C06BF09044FF0100C4FF0000CAB
:101230000B0E04BF09020CF1080C0B0F04BF0901CF
:101240000CF1040C8B0F04BF89000CF1020CCB0FC6
:1012500004BF49000CF1010CCCF12003A0EB0C0001
:1012600022FA03F302FA0CF241EA030100F1010051
:10127000704720F07F4C80EA030023F07F47ACEBFF
:10128000070303F57C5300F0004003F1FF032DE951
:1012900080494FEA154B09B44FEA144325EA0B4E37
:1012A00024EA03480FF2042606EB132749083E7888
:1012B0005FEA320203FB0667C7F5000707FB06F685
:1012C0004FEA54374FEAD64606F1020607FB066C92
:1012D000CCF1005C4FEA1C472CEA074C07FB06F4F4
:1012E0000CFB06F504EB15464FEA961634BF0020BA
:1012F0004FF000404FEAD13706FB07FC4FEA1C4C89
:101300000CFB0BF7D21B03FB0CF761EB07010CFB8B
:101310000EF7B0EB074072EB17420CFB08F734BF37
:10132000A2EB0742B2EB074261EB17414FEA0C44D4
:101330004FEA910706FB07FC4FEA1C4C0CFB0BF72E
:10134000B0EBC74072EB573203FB0CF734BFA2EB94
:10135000C742B2EBC74261EB57310CFB0EF7B0EB63
:10136000C70072EB57720CFB08F734BFA2EBC70241
:10137000B2EBC70261EB5771039F4FEA816141EA0B
:10138000921104EBCC044FEAD1374FEA826206FB9C
:1013900007FC42EA90124FEA80604FEA1C4C0CFBBB
:1013A0000BF7D21B03FB0CF761EB07010CFB0EF7ED
:1013B000B0EB074072EB17420CFB08F734BFA2EB0F
:1013C0000742B2EB074261EB17414FEA8C554FEAF7
:1013D000910704EB9C2406FB07FC4FEA1C4C0CFB1A
:1013E0000BF7B0EBC74072EB573203FB0CF734BF7F
:1013F000A2EBC742B2EBC74261EB57310CFB0EF7D1
:10140000B0EBC70072EB57720CFB08F734BFA2EBCE
:10141000C702B2EBC70261EB577115EB4C254FEADF
:10142000816141EA92114FEA82624FEAD13742EA82
:10143000901206FB07FC44F100044FEA80604FEA7B
:101440001C4C0CFB0BF7D21B03FB0CF761EB0701E9
:101450000CFB0EF7B0EB074072EB17420CFB08F7E2
:1014600034BFA2EB0742B2EB074261EB174115EB29
:101470001C154FEA813141EA92414FEA823242EA39
:1014800090424FEA80304FEA0C7644F1000448EA7B
:1014900003434EEA0B484FF0000EB2EB080C71EB21
:1014A000030724BF624639464EEB0E0E4FF0000B89
:1014B0000018524149414BEB0B0BB2EB080C71EB9E
:1014C00003077BF1000B24BF624639464EEB0E0E3C
:1014D0004FF0000B0018524149414BEB0B0BB2EBA4
:1014E000080C71EB03077BF1000B24BF6246394601
:1014F0004EEB0E0E51EA020718BF46F0010616EB3E
:101500000E7655F1000254F1000103D5BDE88901C2
:10151000BDE80088BDE88901BDE80048B619524120
:1015200041EB0101A3F10103704780807F7E7D7C48
:101530007B7A7978777676757473727171706F6E65
:101540006E6D6C6C6B6A6A69686867666665646410
:10155000636362616160605F5F5E5E5D5D5C5C5B9A
:101560005B5A5A5959585857575656555555545409
:10157000535352525251515050504F4F4F4E4E4D67
:101580004D4D4C4C4C4B4B4B4A4A4A4949494848B3
:1015900048474747474646464545454444444443F3
:1015A00043434342424242414141002B26D477000B
:1015B00021D01CB54FEA370703B44FF010004FF0AD
:1015C00010014FF000000FBCBDE810400BF1010B03
:1015D000BBF1010F08BF5FEA170722BF12F101023A
:1015E00011F101014FF0004143F1000300F0004010
:1015F00043EA00007047F9D35708DAE746EA06469F
:1016000013F1400F4FEA16461FDD13F1200FDFBF25
:1016100016430A46002120335B42C8D0C3F120079D
:1016200046EA064602FA07F74FEA164646EA070672
:10163000C3F1200722FA03F201FA07F721FA03F1B6
:101640004FF0000342EA0702B1E746EA020646EA23
:1016500006464FEA164646EA0106BCBF46EA06467B
:10166000360C4FF000034FF000024FF000019EE7F0
:101670002DE9C048934630B491E8380007C831EAF4
:10168000400C48BF34EA430C03D5FFF7F2FDFFF7E7
:101690008CFFF0BCBDE800882DE9C048934630B40B
:1016A00091E8380007C810F0804F08BF13F0804F52
:1016B00003D100F005F8FFF778FFF0BCBDE8008823
:1016C00020F07F4780EA030023F07F4C07EB0C03F8
:1016D000A3F57C5300F00040A3F1FE0392F0000F4D
:1016E00000F0B38095F0000F00F077802DE90149FC
:1016F0004FEA11404FEA144621EA004800FB06FC7D
:1017000024EA064708FB06F607FB08F800FB07F784
:1017100018EB06484CEB164C4FEA124B18EB0748F7
:101720004FEA15464CEB174022EA0B4E0BFB06FC2A
:1017300025EA06470EFB06F607FB0EFE0BFB07F736
:101740001EEB064E4CEB164C4FF000061EEB074E00
:101750004CEB174B18EB0B0840F1000018EB0E0B8D
:1017600058EB000840F100008F1A4FF000013CBF19
:10177000C943661B14BFB5EB040C00213CBFC94331
:10178000F61B4FEA17444EEA8E0E27EA04454FEA4D
:101790001C4704FB07622CEA074C05FB07F70CFB10
:1017A00005F604FB0CFC16EB074642EB174216EB62
:1017B0000C4642EB1C421BEB060658EB0202414171
:1017C00046EA9E0601D5BDE80189B619524141EBB2
:1017D0000101A3F10103BDE801894FEA14454FEA75
:1017E000114724EA054621EA074C05FB07F406FBEE
:1017F00007F70CFB06F105FB0CFC11EB074144EB72
:1018000017444FEA124711EB0C4144EB1C4422EA07
:10181000074C05FB07F206FB07F70CFB06F605FB7A
:101820000CFC16EB074642EB174216EB0C4642EB5C
:101830001C456A1854F1000148BF7047B61952415F
:1018400041EB0101A3F10103704795F0000F37D080
:101850004FEA11424FEA144721EA024624EA074CB4
:1018600002FB07F106FB07F70CFB06F402FB0CFC7E
:1018700014EB074441EB17414FEA154714EB0C44B6
:1018800041EB1C4125EA074C02FB07F506FB07F775
:101890000CFB06F602FB0CFC16EB074645EB174566
:1018A00016EB0C4645EB1C42121951F1000148BFE2
:1018B0007047B619524141EB0101A3F10103704792
:1018C0004FEA14454FEA114724EA054621EA074C3E
:1018D00005FB07F106FB07F70CFB06F24FF00006CD
:1018E00005FB0CFC12EB074241EB174112EB0C42DB
:1018F00051EB1C4148BF7047921841EB0101A3F125
:10190000010370472DE9F0419CB001210F023846D8
:101910000FF06CFA012188050FF044FA2026019699
:1019200003258DF8085000248DF80B40DFF85C810A
:1019300001A9404604F01CFA402001908DF808509F
:101940008DF80B4001A9404604F012FA10200190D6
:101950008DF808508DF80B40DFF8348101A940461E
:1019600004F006FA01968DF808508DF80B4001A995
:10197000404604F0FDF9012601968DF808508DF8D7
:101980000B40DFF8108101A9404604F0F1F9022074
:1019900001908DF808508DF80B4001A9404604F0E5
:1019A000E7F903943C4804903C48059006944FF4B2
:1019B000967007900894B002099040000A90800049
:1019C0000B900C9700010D900E940F9610941194AB
:1019D000334D03A9284602F0A9FB0121284602F055
:1019E00081FB01221021284602F087FB02F03CFB1C
:1019F000294D01214C3D284600F0C6F9129413945C
:101A00001494159412A800F0A7F916948DF85C6050
:101A10008DF85D6019941A9406208DF86C0016A953
:101A2000284600F0C7F9042301220521284600F0CA
:101A3000E7F9002302220621284600F0E1F90023FD
:101A400003220821284600F0DBF9002304220921A3
:101A5000284600F0D5F9002305220E21284600F083
:101A6000CFF9002306220F21284600F0C9F90121F1
:101A7000284600F065F9284600F000FA01212846C2
:101A800000F08DF91CB0BDE8F081000000000240BC
:101A900000080240000402404C2001407009002070
:101AA000106402402DE9F04F0020A24A4FF00609D1
:101AB00002F5167402F5487502F5617602F57A773B
:101AC00002F52F7C9C4902F24C484FF4967E4CE084
:101AD000B0FBF9F309FB130353B1012B12D0022B16
:101AE0001AD0032B22D0042B2AD0052B32D03AE077
:101AF00032F810B091F800A00AF101030B7024F83D
:101B00001AB030E032F810B091F801A00AF10103E8
:101B10004B7028F81AB026E032F810B091F802A005
:101B20000AF101038B7025F81AB01CE032F810B0EE
:101B300091F803A00AF10103CB702CF81AB012E05F
:101B400032F810B091F804A00AF101030B7127F8E4
:101B50001AB008E032F810B091F805A00AF10103BC
:101B60004B7126F81AB0401C80B27045B0D30022E9
:101B70000A704A708A70CA700A714A7191460020D0
:101B800004E034F810309944401CC0B23228F8D335
:101B9000C879DFF8A8A13223282807D2B9FBF3F0CF
:101BA000CC792AF814004FF0000910E0002401203D
:101BB00004E03AF810904C44401CC0B22728F8D3F7
:101BC0002720B4FBF0F048824FF00009CA71C879B1
:101BD000401CC871002004E035F81040A144401CAE
:101BE000C0B23228F8D38879DFF850A11224AAF1C4
:101BF000280A142806D2B9FBF3F08D792AF81500CB
:101C000000250EE00025012004E03AF810904D4434
:101C1000401CC0B21328F8D3B5FBF4F0C8810025EE
:101C20008A718879401C8871002004E036F8109091
:101C30004D44401CC0B23228F8D3487ADFF8FC90FB
:101C4000132609F1A009142806D2B5FBF3F04D7A4A
:101C500029F8150000250EE00025012004E039F8E0
:101C600010A05544401CC0B21328F8D3B5FBF6F0C1
:101C7000088200254A72487A401C4872002004E01D
:101C800037F810904D44401CC0B23228F8D3087A7F
:101C90002A4F7837142806D2B5FBF3F00D7A27F8CF
:101CA000150000250EE00025012004E037F8109013
:101CB0004D44401CC0B21328F8D3B5FBF6F0C882DF
:101CC00000250A72087A401C0872002004E03CF8E3
:101CD00010603544401CC0B23228F8D3887A174EC1
:101CE0005036142806D2B5FBF3F08A7A26F8120093
:101CF00000240EE00025012004E036F810703D4479
:101D0000401CC0B21328F8D3B5FBF4F0888200243D
:101D10008A72887A401C8872002004E038F810200B
:101D20001444401CC0B23228F8D3B4FBF3F08881CD
:101D3000BDE8F08F700900204A000020480E002006
:101D400021B1816841F0010181607047816821F013
:101D5000010181607047000010B5094C22680949F3
:101D600002EA0102D0E9001341EA0301D0E902309E
:101D700043EA000341EA030141EA0201216010BD88
:101D800004230140E030FCFF21B1816841F48071FF
:101D900081607047816821F480718160704721B152
:101DA000816841F4007181607047816821F400719D
:101DB0008160704730B542680F4B1A400C790B6850
:101DC00042EA04221343436083680C4A1340D1E97A
:101DD000034222434D798C6844EA450422431A4366
:101DE0008260C26A22F47002097D491EC9B242EAC9
:101DF0000151C16230BD0000FFFEFFFCFDF7FFC0D6
:101E000070B5072609290ED9D0F80CC0A1F10A0433
:101E100004EB4404A6402CEA060CA3404CEA030C55
:101E2000C0F80CC007E0056901EB4104A640B543CA
:101E3000A3401D4305611F23072A09D2446B521E8C
:101E400002EB820293409C4391400C43446370BD7B
:101E50000D2A09D2046BD21F02EB820293409C43ED
:101E600091400C43046370BDC46A0D3A02EB8202D8
:101E700093409C4391400C43C46270BD816841F023
:101E8000804181607047002800DC40427047417803
:101E9000007841EA0020704705484FF4006100686F
:101EA0000206044801D403F0B9BF03F0B5BF000037
:101EB00034000020000402400549086840F0040096
:101EC000044B00221A8020F0800008607047000058
:101ED000340000206A00002038B5456804460146F9
:101EE000284613F0DDF800282AD02068304A0F2851
:101EF00019D006DC0B2824D00C2810D00E2851D184
:101F00002FE0112802D028284CD145E09268002A01
:101F100016D02146284601B0BDE830401047214682
:101F200028465268F7E7284604F0C0FE0090406E4D
:101F30000468684604F004FF002C01D02846A0473E
:101F400038BD284604F0B2FE0090683004F016FE5A
:101F5000009803216C3004F019FE684604F0F0FE8E
:101F600020E0E168486809680D2902D0202913D1D2
:101F700005E0002810DD284619F0F8FF06E00028EB
:101F800004DD2846BDE8384019F0F0BF2846BDE81A
:101F9000384002211AF000B8E06818B9002128463C
:101FA00000F097F92046BDE8384013F0EDBC000082
:101FB00040020020F0B5044685B08069B4F90850AD
:101FC000668A0027CDE90265CDE900170490B4F9CF
:101FD0000C00B4F91060C118B4F90A00B4F90E503D
:101FE000104433462A4600F007F80546616800F0C1
:101FF00079F905B02846F0BDF0B585B00C46DDE9AD
:102000000D514C31DFF850C0DDE90A67CDE902C15E
:102010002146CDE9006713F007FC040018D004F056
:1020200045FE10222946049013F05EFA04983022EF
:102030000A493430FEF749FB084D04990C3D2868E5
:10204000486604A804F07CFE28684168204688475A
:1020500005B02046F0BD0000D91E00084C0200204B
:10206000F0B5044680688B4989B051F8205060680B
:1020700000287DD0052804D006287AD0122879D1EE
:10208000AEE0E86900284FD095E80E008DE80F001B
:1020900004F110010FC907F07BF9002655F826005E
:1020A00006F0E0F9A169E8690A1A2169014460694A
:1020B000304405F07DFBA169E8690A1A21690144F1
:1020C000E069801B05F074FBE169E8690A1A61693F
:1020D00001442069304405F00BFCE169E8690A1A03
:1020E00061690144A069801B05F002FC761C022E88
:1020F000D4DBA86806F0B6F9E069E9696669431AB5
:1021000020694218521E3144801C05F05BFCE169D5
:10211000E869A2690B1A61690144101A401C921EF9
:1021200005F050FCEE6913E05FF0000655F826005C
:1021300006F098F9E069831BA069821B6069811928
:102140002069304405F096FB761C022EEEDB022659
:10215000D5E90301CDE900016169E0690844431054
:10216000A069891C821B2069304405F0C9FA02E08D
:1021700089E012E08AE0D5E90501CDE90001E369D3
:1021800060690121184401EB6001A0699B1E821B5C
:102190002069304405F0B4FA78E0206804F086FD48
:1021A0000490206814F020FC40B1A06808B1002021
:1021B00008E00498006F28B1012003E00498406F04
:1021C00000B10220049901EB8000C56E04A804F060
:1021D000B7FD00231A462846216805F043F855E06C
:1021E000206804F063FD0490866EEEB3B0F95C7075
:1021F000A168D1B3032942D05FF0000100EB810157
:10220000406D0C6C06F038F9204606F02BF905A855
:1022100005F028FCBDF81410A88B0144ADF814108B
:10222000BDF81810081AADF81800BDF81600801C8B
:10223000ADF81600BDF81A00801EADF81A0004981B
:102240005E30B0F90220B0F9001005A806F068F879
:1022500004A804F075FD022006F04EF9304604F0A3
:1022600025FD3A4605A901E00BE006E0079005F0E0
:10227000F1F807A804F064FD08E00121BEE702219F
:10228000BCE704A8F6E7206814F072F809B0002053
:10229000F0BD000018070408044A0349116004490E
:1022A0004A6A4862104670477C02002040020020C3
:1022B0004C02002038B50D46040009D004F0F6FCAD
:1022C00000904565684604F03BFD204613F053FE40
:1022D00038BD4FF480720029114601D012F06ABF58
:1022E00012F0BBBE2DE9FF410E4605004FF0010480
:1022F0001CD004F0DBFC0190876E01A8009704F06D
:102300001FFD3146684607F023FB78B10098002492
:10231000B84208D0284604F0C9FC019000998166B3
:1023200001A804F00DFD284613F025FE04B0204658
:10233000BDE8F081F8B515460C4606000DD004F056
:10234000B5FC0090032C02D200EB840005646846C3
:1023500004F0F6FC304613F00EFEF8BDFEE7000078
:102360002DE9F05F7C4D29787C486FF07046193973
:102370003711826940F66F044FF4076840F6770919
:1023800040F6780A40F6710B0C2925D2DFE801F0FF
:10239000062645642424242483A324C4814621469C
:1023A000104613F0FFFB04463146204611F026FD8F
:1023B0003946204611F074FD4146D9F8180013F053
:1023C000F1FB04466649204611F018FD0021204625
:1023D00011F066FD1A202870BDE8F09F4146804646
:1023E000104613F0DFFB04463146204611F006FD8F
:1023F0003946204611F054FD4946D8F8180013F02C
:10240000D1FB04465649204611F0F8FC0021204635
:1024100011F046FD1B202870DEE780464946104635
:1024200013F0C0FB04463146204611F0E7FC394664
:10243000204611F035FD5146D8F8180013F0B2FBD4
:1024400004464749204611F0D9FC0021204611F0EE
:1024500027FD1C202870BFE780465146104613F028
:10246000A1FB04463146204611F0C8FC39462046FF
:1024700011F016FD5946D8F8180013F093FB0446E6
:102480003749204611F0BAFC0021204611F008FD22
:1024900021202870A0E780465946104613F082FBA1
:1024A00004463146204611F0A9FC3946204611F079
:1024B000F7FC40F67901D8F8180013F073FB0446D6
:1024C0002749204611F09AFC0021204611F0E8FC33
:1024D0002220287080E7804640F67901104613F0EC
:1024E00061FB04463146204611F088FC39462046FF
:1024F00011F0D6FC40F67201D8F8180013F052FB28
:1025000004461749204611F079FC0021204611F0BD
:10251000C7FC242028705FE7814640F67201104610
:1025200013F040FB80463146404611F067FC3946C7
:10253000404611F0B5FC2146D9F8180013F032FBE3
:1025400004460749204611F059FC0021204611F0AD
:10255000A7FC192028703FE71A010020780100200D
:10256000FFFFBF002DE9F0432DED028B83B0FD4846
:102570000178FD4A9FEDFD0ADFF8F883FC4D002746
:102580000126D8F81800192947D0DFEDFB0A1A29CF
:102590007DD0FA4A1B297BD01C2939D198F80E101E
:1025A00040F6780340F67C09022972D098F80E10A4
:1025B00001292DD1D18800EE101AB8EE400A80EE24
:1025C000208A194613F0EEFA0446287800287DD0B8
:1025D000EB49204611F02DFCEAA1204611F03BFC0E
:1025E0004946D8F8180013F0DDFA044618EE100A30
:1025F00024F072FA41EC100BE5A153EC102B01A86A
:10260000FDF768FE01A9204611F025FC88F80E7040
:1026100003B0BDEC028BBDE8F08398F80B1040F6D8
:102620006F0340F67309012937D098F80B1002297F
:10263000EED1B2F8401000EE901AF8EE600A80EE8B
:10264000808A194613F0AEFA0446287800285DD037
:10265000CB49204611F0EDFBCFA1204611F0FBFB4A
:102660004946D8F8180013F09DFA044618EE100AEF
:1026700024F032FA41EC100BC5A153EC102B01A849
:10268000FDF728FE01A9204611F0E5FB02E046E037
:10269000C2E03AE188F80B60BAE7D18F00EE901AF9
:1026A000F8EE600A80EE808A194613F07BFA044641
:1026B000287810B3B249204611F0BBFBB9A12046DF
:1026C00011F0C9FB4946D8F8180000E0CCE113F03E
:1026D00069FA044618EE100A24F0FEF941EC100BDA
:1026E000ABA153EC102B01A8FDF7F4FD01A9204686
:1026F00011F0B1FB88F80B708AE7AD49204611F064
:1027000098FBACA1204611F0A6FBDBE7A8492046C8
:1027100011F08FFBABA1204611F09DFBA0E798F8CC
:102720000C104FF4076340F67409022933D098F86F
:102730000C100129B0D1B2F8441000EE101AB8EE16
:10274000400A80EE208A194613F02CFA04462878B5
:10275000002858D08A49204611F06BFB9DA12046E5
:1027600011F079FB4946D8F8180013F01BFA04461B
:1027700018EE100A24F0B0F941EC100B84A153ECD0
:10278000102B01A8FDF7A6FD01A9204611F063FB5F
:1027900088F80C703CE7B2F8461000EE101AB8EE5C
:1027A000400A80EE208A194613F0FCF90446287886
:1027B00000B37349204611F03CFB89A1204611F07B
:1027C0004AFB4946D8F8180013F0ECF9044618EE15
:1027D000100A24F081F941EC100B6DA153EC102B81
:1027E00001A8FDF777FD01A9204611F034FB88F818
:1027F0000C600DE76E49204611F01BFB7BA12046C3
:1028000011F029FBDDE76A49204611F012FB7BA19C
:10281000204611F020FBA5E798F80D3040F677012F
:1028200040F67B09022B31D098F80D30012BB1D145
:10283000128800EE902AF8EE600A80EE808A13F08B
:10284000B1F904462878002856D04D49204611F0A9
:10285000F0FA6EA1204611F0FEFA4946D8F81800A9
:1028600013F0A0F9044618EE100A24F035F941ECF3
:10287000100B47A153EC102B01A8FDF72BFD01A96C
:10288000204611F0E8FA88F80D70C1E6528800EE93
:10289000902AF8EE600A80EE808A13F083F90446ED
:1028A000287800B33649204611F0C3FA5AA12046D1
:1028B00011F0D1FA4946D8F8180013F073F904461C
:1028C00018EE100A24F008F941EC100B30A153EC7B
:1028D000102B01A8FDF7FEFC01A9204611F0BBFA60
:1028E00088F80D6094E63249204611F0A2FA4DA115
:1028F000204611F0B0FADDE72D49204611F099FA93
:102900004CA1204611F0A7FAA7E7118900EE101A92
:10291000B8EE400A80EE208A194613F043F90446C7
:102920002878F0B11649204611F083FA45A12046D7
:1029300011F091FA4946D8F8180013F033F904461B
:1029400018EE100A24F0C8F841EC100B10A153EC5B
:10295000102B01A8FDF7BEFC01A9204611F07BFA5F
:1029600076E078E01A010020540F00200000C842F1
:10297000190100207801002000007A44D08700204F
:1029800078E503084375746F6666204331000000E4
:10299000252E3266000000004F7574707574205645
:1029A000320000004F7574707574205631000000BD
:1029B000ECC80308E8BE93E587BAE794B5E58E8BCB
:1029C00031000000E8BE93E587BAE794B5E58E8B49
:1029D000320000004C696D6974696E6720433100F4
:1029E0004C696D6974696E6720433200E99990E51E
:1029F00088B6E794B5E6B58132000000E99990E524
:102A000088B6E794B5E6B581310000004375746F70
:102A100066662056310000004375746F6666205666
:102A200032000000E688AAE6ADA2E794B5E58E8BF9
:102A300032000000E688AAE6ADA2E794B5E58E8BE9
:102A4000310000004375746F666620433200000059
:102A500088F80E60DCE50949204611F0EAF908A182
:102A6000204611F0F8F965E70449204611F0E1F934
:102A700007A1204611F0EFF9B2E50000ECC8030809
:102A8000E688AAE6ADA2E794B5E6B581320000007B
:102A9000E688AAE6ADA2E794B5E6B581310000006C
:102AA0002DE9F0432DED028B83B0FD480178FD4AFE
:102AB0009FEDFD0ADFF8F883FC4D01260227D8F8C8
:102AC0001800192947D0DFEDFB0A1A297ED0FA4AEF
:102AD0001B297CD01C2939D198F80E1040F67803B8
:102AE00040F67C09002974D098F80E1001292DD1E8
:102AF000518900EE101AB8EE400A80EE208A19467D
:102B000013F050F80446287800287DD0EB49204681
:102B100011F08FF9EAA1204611F09DF94946D8F845
:102B2000180013F03FF8044618EE100A23F0D4FF03
:102B300041EC100BE5A153EC102B01A8FDF7CAFBEB
:102B400001A9204611F087F988F80E7003B0BDEC9A
:102B5000028BBDE8F08398F80B1040F66F0340F647
:102B60007309A9B398F80B100129EFD1B2F84210FC
:102B700000EE901AF8EE600A80EE808A194613F093
:102B800011F80446287800285ED0CC49204611F080
:102B900050F9D0A1204611F05EF94946D8F8180046
:102BA00013F000F8044618EE100A23F095FF41ECEC
:102BB000100BC6A153EC102B01A8FDF78BFB01A94C
:102BC000204611F048F988F80B70BFE745E0C1E0F6
:102BD00000E038E1B2F8401000EE901AF8EE600A1A
:102BE00080EE808A194612F0DDFF0446287810B383
:102BF000B249204611F01DF9B9A1204611F02BF978
:102C00004946D8F8180000E0CCE112F0CBFF0446AA
:102C100018EE100A23F060FF41EC100BABA153EC4F
:102C2000102B01A8FDF756FB01A9204611F013F95E
:102C300088F80B608AE7AD49204611F0FAF8ACA19C
:102C4000204611F008F9DBE7A849204611F0F1F819
:102C5000ABA1204611F0FFF89FE798F80C104FF455
:102C6000076340F6740999B398F80C100129ACD1A8
:102C7000B2F8481000EE101AB8EE400A80EE208A32
:102C8000194612F08FFF04462878002859D08B4946
:102C9000204611F0CEF89EA1204611F0DCF84946FE
:102CA000D8F8180012F07EFF044618EE100A23F040
:102CB00013FF41EC100B85A153EC102B01A8FDF77D
:102CC00009FB01A9204611F0C6F888F80C703DE711
:102CD000FFE7B2F8461000EE101AB8EE400A80EE98
:102CE000208A194612F05EFF0446287800B3734923
:102CF000204611F09EF889A1204611F0ACF8494613
:102D0000D8F8180012F04EFF044618EE100A23F00F
:102D1000E3FE41EC100B6DA153EC102B01A8FDF765
:102D2000D9FA01A9204611F096F888F80C600DE751
:102D30006E49204611F07DF87BA1204611F08BF8FA
:102D4000DDE76A49204611F074F87BA1204611F0B6
:102D500082F8A4E798F80D3040F6770140F67B0939
:102D60008BB398F80D30012BB1D1928800EE902AE8
:102D7000F8EE600A80EE808A12F014FF044628788C
:102D8000002857D04D49204611F053F86EA1204637
:102D900011F061F84946D8F8180012F003FF044614
:102DA00018EE100A23F098FE41EC100B47A153ECEB
:102DB000102B01A8FDF78EFA01A9204611F04BF85F
:102DC00088F80D70C2E6FFE7528800EE902AF8EE10
:102DD000600A80EE808A12F0E5FE0446287800B38F
:102DE0003649204611F025F85AA1204611F033F853
:102DF0004946D8F8180012F0D5FE044618EE100A1D
:102E000023F06AFE41EC100B30A153EC102B01A80B
:102E1000FDF760FA01A9204611F01DF888F80D6051
:102E200094E63249204611F004F84DA1204611F0F5
:102E300012F8DDE72D49204610F0FBFF4CA120469B
:102E400011F009F8A6E7118900EE101AB8EE400A51
:102E500080EE208A194612F0A5FE04462878F0B1CB
:102E60001649204610F0E5FF45A1204610F0F3FF7B
:102E70004946D8F8180012F095FE044618EE100ADC
:102E800023F02AFE41EC100B10A153EC102B01A8EB
:102E9000FDF720FA01A9204610F0DDFF76E078E08A
:102EA0001A010020540F00200000C8421901002020
:102EB0007801002000007A44D087002078E50308DC
:102EC0004375746F6666204333000000252E32661A
:102ED000000000004F7574707574205633000000B8
:102EE0004F7574707574205632000000ECC80308EA
:102EF000E8BE93E587BAE794B5E58E8B3200000013
:102F0000E8BE93E587BAE794B5E58E8B3300000001
:102F10004C696D6974696E67204333004C696D6953
:102F200074696E6720433200E99990E588B6E794AA
:102F3000B5E6B58132000000E99990E588B6E794DE
:102F4000B5E6B581330000004375746F66662056A0
:102F5000330000004375746F66662056320000002F
:102F6000E688AAE6ADA2E794B5E58E8B32000000B4
:102F7000E688AAE6ADA2E794B5E58E8B33000000A3
:102F80004375746F666620433200000088F80E6057
:102F9000DCE50949204610F04CFF08A1204610F05E
:102FA0005AFF65E70449204610F043FF07A1204679
:102FB00010F051FFB2E50000ECC80308E688AAE66D
:102FC000ADA2E794B5E6B58132000000E688AAE636
:102FD000ADA2E794B5E6B581330000002DE9F05FBE
:102FE0007D4D29787D48193940F66F0782696FF069
:102FF00070464FF4076840F6770940F6780A40F6C5
:10300000710B40F679040C2926D2DFE801F006277F
:1030100047662525252585A425C33946074610463C
:1030200012F0C0FD04463146204610F0E7FE6FF076
:103030007F41204610F034FF40F67201B86912F06B
:10304000B1FD04466649204610F0D8FE0021204616
:1030500010F026FF24202870BDE8F09F41468046EE
:10306000104612F09FFD04463146204610F0C6FE81
:103070006FF07F41204610F013FF3946D8F8180052
:1030800012F090FD04465649204610F0B7FE00218C
:10309000204610F005FF19202870DDE70746494655
:1030A000104612F07FFD04463146204610F0A6FE81
:1030B0006FF07F41204610F0F3FE4146B86912F0F0
:1030C00071FD04464649204610F098FE0021204636
:1030D00010F0E6FE1A202870BEE70746514610465B
:1030E00012F060FD04463146204610F087FE6FF076
:1030F0007F41204610F0D4FE4946B86912F052FDD7
:1031000004463749204610F079FE0021204610F091
:10311000C7FE1B2028709FE707465946104612F04D
:1031200041FD04463146204610F068FE6FF07F41B5
:10313000204610F0B5FE5146B86912F033FD044642
:103140002749204610F05AFE0021204610F0A8FE24
:103150001C20287080E707462146104612F022FD09
:1031600004463146204610F049FE6FF07F4120466C
:1031700010F096FE5946B86912F014FD044618493D
:10318000204610F03BFE0021204610F089FE212051
:10319000287061E7804640F67201104612F002FD89
:1031A00007463146384610F029FE6FF07F41384619
:1031B00010F076FE2146D8F8180012F0F3FC044611
:1031C0000749204610F01AFE0021204610F068FE44
:1031D0002220287040E700001A010020780100201A
:1031E000FFFFBF002DE9F04F2DED068B83B0F848AF
:1031F000408E00EE100AB8EE400ADFEDF60A80EECF
:10320000208AF348808E00EE100AB8EE400ADFED07
:10321000F10AC0EE208AEE48C08E00EE100AB8EE29
:10322000400ADFEDEC0A80EE209AE948008F00EEBC
:10323000100AB8EE400ADFEDE70AC0EE209AE64831
:103240000178E64D1939E64E40F66F0840F67309ED
:1032500001244FF4076A9FEDE3AAE448E24F40F6E9
:10326000770B8069102932D2DFE801F00890FDFC6D
:1032700036BAFBFAF9F8F7F6F5F4F3F24146DB4F0C
:1032800012F090FC06466FF07041304610F0B6FD2B
:103290006FF07F41304610F003FE4946B86912F0E6
:1032A00081FC0646D249304610F0A8FD0021304688
:1032B00010F0F6FD0020CF4A002102E01154401C1E
:1032C000C0B20528FAD3C4491D2008702C7003B081
:1032D000BDEC068BBDE8F08F4946DFF8109312F085
:1032E00061FC07466FF07041384610F087FD6FF0C3
:1032F0007F41384610F0D4FD99F80B0040B199F8A1
:103300000B00012808D099F80B00022809D00CE026
:10331000AF48C18F418008E0AD48B0F8401041800F
:1033200003E0AB48B0F842104180A948408800EE65
:10333000100AF8EE400A9FEDA71A80EE810A10EEFF
:10334000100A23F0C9FB41EC100BABA153EC102B7E
:1033500001A8FCF7BFFF01A9384610F07CFD4146EB
:10336000D9F8180012F01EFC0746A149384610F0A3
:1033700045FD0021384610F093FD9749192008704B
:103380002C700020307013F08DFDA0E75146974D52
:1033900012F008FC04466FF07041204610F02EFD3C
:1033A0006FF07F41204610F07BFD0020914A002104
:1033B00002E01154401CC0B20528FAD340F6740153
:1033C000A86912F0EFFB04468949204610F016FD6B
:1033D0000021204610F064FD7F491E20087076E72A
:1033E00040F67401DFF8048212F0DCFB07466FF050
:1033F0007041384610F002FD6FF07F41384610F002
:103400004FFD98F80C0040B198F80C00012809D045
:1034100098F80C0002280AD00DE06D48B0F844106E
:10342000818008E06A48B0F84610818003E068486F
:10343000B0F8481081806648828841F288318A421B
:1034400000D98180808800EE100AF8EE400A0BE077
:10345000EEE188E1FFE05AE09BE2BEE158E11FE2C5
:10346000B9E248E2CCE028E080EE8A0A10EE100AC9
:1034700023F032FB41EC100B5FA153EC102B01A8A1
:10348000FCF728FF01A9384610F0E5FC5146D8F8B2
:10349000180012F087FB07465549384610F0AEFC7D
:1034A0000021384610F0FCFC4B491A2008702C70A3
:1034B0000020307013F0F6FC09E759464B4D12F02E
:1034C00071FB04466FF07041204610F097FC6FF0DE
:1034D0007F41204610F0E4FC00204649002202E033
:1034E0000A54401CC0B20528FAD340F67B01A869F3
:1034F00012F058FB04463E49204610F07FFC0021A4
:10350000204610F0CDFC344925200870DFE640F657
:103510007B01DFF8D88012F045FB81466FF07041E7
:10352000484610F06BFC6FF07F41484610F0B8FC45
:1035300098F80D0040B198F80D0001280ED098F8C9
:103540000D00022814D01CE03888DFED220A00EEBE
:10355000100AB8EE400A80EE208A12E07888DFED8B
:103560001D0A00EE100AB8EE400A80EE208A08E03C
:10357000B888DFED180A00EE100AB8EE400A80EEB7
:10358000208A18EE100A23F0A7FA41EC100B1AA1BA
:1035900053EC102B01A8FCF79DFE01A9484610F042
:1035A0005AFC5946D8F8180012F0FCFA07461049A0
:1035B000384610F023FC0021384610F071FC064913
:1035C0001B2008702C700020307013F06BFC7EE61E
:1035D000540F00200000C8421A0100200C010020F6
:1035E0000D01002000007A44D087002078010020DF
:1035F000FFFFBF0048010020252E326600000000BA
:1036000040F67801FE4D12F0CDFA04466FF070419D
:10361000204610F0F3FB6FF07F41204610F040FC95
:103620000020F849002202E00A54401CC0B20528DC
:10363000FAD340F67C01A86912F0B4FA0446F249C4
:10364000204610F0DBFB0021204610F029FCEF495A
:10365000262008703BE640F67C01DFF8A49312F0C8
:10366000A1FA80466FF07041404610F0C7FB6FF042
:103670007F41404610F014FC99F80E0040B199F8D3
:103680000E0001280CD099F80E00022810D016E088
:10369000F88800EE100AB8EE400AC0EE0A8A0EE082
:1036A000388900EE100AB8EE400AC0EE0A8A06E039
:1036B000788900EE100AB8EE400AC0EE0A8A18EEC9
:1036C000900A23F009FA41EC100B53EC102BAFF2E7
:1036D000D80101A8FCF7FEFD01A9404610F0BBFB94
:1036E00040F67801D9F8180012F05CFA0746C6498E
:1036F000384610F083FB0021384610F0D1FBC34957
:103700001C2008702C700020307013F0CBFBDEE51D
:1037100040F67901BA4D12F045FA04466FF0704157
:10372000204610F06BFB6FF07F41204610F0B8FB95
:103730000020B44A002102E01154401CC0B2052808
:10374000FAD340F67D01A86912F02CFA0446AE497E
:10375000204610F053FB0021204610F0A1FBAB499E
:1037600027200870B3E540F67D01DFF8948212F05F
:1037700019FA07466FF07041384610F03FFB6FF0C2
:103780007F41384610F08CFB19EE100A23F0A4F9A3
:1037900041EC100B53EC102BAFF2A41101A8FCF775
:1037A00099FD01A9384610F056FB40F67901D8F88A
:1037B000180012F0F7F907469349384610F01EFB3F
:1037C0000021384610F06CFB9049222008702C70C4
:1037D0000020307013F066FB79E540F67A01884DE1
:1037E00012F0E0F904466FF07041204610F006FB3D
:1037F0006FF07F41204610F053FB0020814A0021EA
:1038000002E01154401CC0B20528FAD340F67E01F4
:10381000A86912F0C7F904467B49204610F0EEFA79
:103820000021204610F03CFB7849282008704EE526
:1038300040F67E01DFF8C88112F0B4F907466FF058
:103840007041384610F0DAFA6FF07F41384610F0D8
:1038500027FB19EE900A23F03FF941EC100B53ECD3
:10386000102BAFF26C2101A8FCF734FD01A93846FA
:1038700010F0F1FA40F67A01D8F8180012F092F937
:1038800007466149384610F0B9FA0021384610F071
:1038900007FB5E49232008702C700020307016E56D
:1038A00040F67101564D12F07DF904466FF07041FB
:1038B000204610F0A3FA6FF07F41204610F0F0FA96
:1038C0000020504A002102E01154401CC0B20528DB
:1038D000FAD340F67501A86912F064F904464A4922
:1038E000204610F08BFA0021204610F0D9FA474903
:1038F0001F200870EBE440F67501DFF8048112F038
:1039000051F907466FF07041384610F077FA6FF0C2
:103910007F41384610F0C4FA3D48B0F8521001819A
:10392000018940F2DC52914201D9002101810089D4
:1039300000EE100AF8EE400A1FEDDA1A80EE810A56
:1039400010EE100A23F0C8F841EC100B53EC102BCA
:10395000AFF25C3101A8FCF7BDFC01A9384610F0BC
:103960007AFA40F67101D8F8180012F01BF90746F0
:103970002549384610F042FA0021384610F090FAF6
:103980002249212008702C700020307013F08AFA30
:103990009DE440F672011A4D12F004F904466FF0EE
:1039A0007041204610F02AFA6FF07F41204610F057
:1039B00077FA40F67601A86912F0F4F80446124945
:1039C000204610F01BFA0021204610F069FA0F493A
:1039D000202008707BE440F67601DFF8248012F0A6
:1039E000E1F807466FF07041384610F007FA6FF0C3
:1039F0007F41384610F054FA40F672010AE00000A8
:103A00007801002048010020FFFFBF001A010020BC
:103A1000540F0020D8F8180012F0C4F807460849DF
:103A2000384610F0EBF90021384610F039FA054914
:103A3000242008702C700020307013F033FA46E414
:103A4000FFFFBF001A01002070B5134D69792846A9
:103A5000124E806940F6990201290FD0114612F0EA
:103A6000A1F804466FF07041204610F0C7F93146C6
:103A7000204610F015FA2F20287070BD114612F064
:103A800091F804463146204610F0B8F92046BDE8CA
:103A90007040002110F004BA9C010020FFFFBF001D
:103AA0002DE9FF470446006810B112F09DFF68B190
:103AB0000022314850F8221060680A2841D007DC03
:103AC000F0B306280DD0072854D106E00122F0E714
:103AD00012280AD019284DD137E0204614F046F9B3
:103AE00048E0204615F0D0FA44E0206803F0DEF804
:103AF0000290B0F9548090F85650476C466B02A87B
:103B000003F01EF9206800F039F88146684612F08B
:103B100021F8BDF8001009EB05000844ADF80000DD
:103B2000246A304604F0A8FC022004F0E5FC384684
:103B300004F098FC42466946204603F08BFC19E0ED
:103B400007E0204615F08CFD14E0886904B0BDE85C
:103B5000F087206812F00CFC206803F0A7F80390AF
:103B6000B0F90610B0F90220891A491CC16703A8F0
:103B700003F0E6F80020E9E72807040838B503F069
:103B800095F80090C46F684603F0DAF8204638BD17
:103B9000044A034911600449CA69C8611046704764
:103BA00008030020D0060020D406002000B589B00C
:103BB00024216846FCF7C3FD1920019003480068E2
:103BC000806841686846884709B000BDD00600207B
:103BD00070B5FF22FF230A4C04F5807508E010F849
:103BE00001CB8CEA020C14F80C205A4015F80C306A
:103BF0000E00A1F1010189B2F1D143EA022070BDAA
:103C0000D26B02081CB51B49012008701A4A192101
:103C100011701A4900240C70194908701948C18F95
:103C20004180B0F844108180B0F8521001811648EC
:103C30000470164804707021682010F016FE4FF4CE
:103C40008051134802F0E8F84FF40051114802F097
:103C5000E3F80221104802F0E1F811F097FF034663
:103C600000940E4A27210E48019403F017FA0D49DB
:103C700088611CBD0E0100201A0100207000002088
:103C80007A000020540F0020500100200401002081
:103C9000000C02400004024000080240D51A02084D
:103CA00010620308780100201CB50E48002404703F
:103CB0000D4804700D4804707021682010F0D5FD87
:103CC0004FF480510A4802F0A7F811F05FFF034655
:103CD0000094084A07210848019403F0DFF90749D6
:103CE00008601CBD0E0100207A000020700000203A
:103CF000000C02409D1602084C610308640100207C
:103D00007CB5134D1320A8730320A87011490870C7
:103D100000242C7210480470104804704FF40051B5
:103D20000F4802F079F802210E4802F077F80E48A9
:103D3000818D01810D48047011F028FF0346009425
:103D40000B4A1A210B48019403F0A8F9A8627CBD24
:103D50000C0100207A000020500100200401002006
:103D60000004024000080240540F002070000020B0
:103D700059FE0108CC6F02081CB5154905200870D2
:103D8000144800240470144804707021682010F056
:103D90006CFD12480470124804704FF480511148B1
:103DA00002F03AF84FF400510F4802F035F80221C2
:103DB0000E4802F033F811F0E9FE034600940C4A75
:103DC00020210C48019403F069F90B4948601CBD9F
:103DD0000E0100201A010020700000205001002078
:103DE00004010020000C02400004024000080240D0
:103DF0008938020854660308940100201CB508495C
:103E00000620087011F0C2FE0346002000900190C9
:103E1000044A0121044803F041F9044948601CBDEB
:103E20000E0100201D160208647402085C010020C7
:103E30001CB5174902200870164908701649092058
:103E40000870164800240470154804701548B0F82E
:103E500050104180B0F8541081807021682010F01B
:103E600004FD4FF48051104801F0D6FF02210F48A5
:103E700001F0D4FF11F08AFE034600940C4A12218F
:103E80000C48019403F00AF90B4948601CBD00007E
:103E90000E0100207A0000201A010020700000208E
:103EA00050010020540F0020000C02400008024086
:103EB0002DF60108D46D0208040100201CB5164936
:103EC0000420087015490870154917200870154816
:103ED000B0F84A1001811448002404704FF40051D6
:103EE000124801F099FF124804707021682010F008
:103EF000BCFC4FF480510F4801F08EFF11F046FEDC
:103F0000034600940C4A10210C48019403F0C6F8B3
:103F10000B4948601CBD00000E0100207A00002003
:103F20001A010020540F0020040100200004024068
:103F300070000020000C0240C54D0208A472020867
:103F4000500100207CB511F021FE002403460094AE
:103F50000C4A12210C48019403F0A0F80B4DA86103
:103F60000B4804700B49072008700B4804700B487D
:103F700000784FF400510A4801F04EFF2F202870BE
:103F8000A8697CBD11470208D46903089C01002080
:103F9000700000200E0100205001002004010020CC
:103FA00000040240054B0122824019B118681043F9
:103FB000186070471868904318607047007400409C
:103FC00010B586B0012148070CF004FF10200090C6
:103FD00003208DF8040000248DF8074069460C4842
:103FE00001F0C6FE029403944FF430600490022066
:103FF000059002A9002000F00DF801210020FFF734
:10400000D1FF0121002000F01FF806B010BD000014
:104010000000024030B5084C236840F6FE72824032
:104020009343D1E900252A43D1E902510D432A43A4
:1040300082401A43226030BD00740040014A10449F
:1040400081607047007400400209064B01209040D7
:1040500019B11968014319607047196881431960E3
:10406000704700000474004008B538208DF8000047
:1040700003208DF801008DF8020001208DF8030067
:1040800068460AF075FB08BD0148006870470000EB
:104090005403002010B50549054800F00DF8054807
:1040A000016841F00201016010BD00002080001095
:1040B0001064024034000020074A904201D20748B1
:1040C00001E005481038064A8B0001EA020101D5DB
:1040D000C160704781607047106402400060024018
:1040E0007D0F7D0F21B1016841F001010160704732
:1040F000016821F00101016070470B0609D522B16A
:10410000436943F08003436103E0436923F0800384
:104110004361802905D001F01E011AB102680A43EB
:104120000260704702688A430260704730B50368D6
:10413000124A1340CC680A682243D1E905452C4352
:104140002243CC6922430C6A22434C6A22438C6A84
:1041500022434C6B22438C6B22431A430260426918
:1041600022F00703D1E90B2422431A4342610A6972
:1041700042604A6882608968C16030BD3F801CF03F
:10418000F8B50546006802F091FD0090448ED0F825
:104190008860684602F0D4FD06B1012604F00104EF
:1041A000286812F021FC0EB1002006E00CB10120BD
:1041B00003E008B1022000E003201B4951F8201061
:1041C000686858B302280CD0052802D0122828D1DC
:1041D00003E0284613F0F6FD23E0284615F0D5FE4F
:1041E0001FE06A69E8694FF0FF33801AA0F1080206
:1041F00003EB6204421CAB69001B4510A3EB620693
:10420000C86904F02FF906E03219311B284603F083
:10421000CFFA641E6D1C002CF6DA02E0286812F05A
:10422000A7F80020F8BD000088070408044A0349E5
:10423000116004490A6B0863104670475803002058
:10424000100700201407002038B50D46002402F0A6
:104250002DFD0090C06B294602F00AFE0546684617
:1042600002F06EFD1DB1284602F020FD04462046F6
:1042700038BD704730B504464FF47A7502E02846E1
:1042800000F006F82300A4F1010084B2F7D130BD9C
:1042900000220BE0042100BF00BF00BF00BF00BF31
:1042A000491E0904090CF6D1521C92B28242F1D384
:1042B0007047000010B52DED028B24490A78244C7C
:1042C000B2EE048A022AE0681FD00978032939D1A6
:1042D000204991ED000A20EE080ABDEEC00A10EE5A
:1042E000101A09B201F072FE1B4890ED000A20EE90
:1042F000080ABDEEC00A10EE100A01B22069BDEC3A
:10430000028BBDE8104001F061BE144991ED000A36
:1043100020EE080ABDEEC00A10EE101A09B201F034
:1043200055FE0F4890ED000A20EE080ABDEEC00AC7
:1043300010EE100A01B22069BDEC028BBDE81040FE
:1043400001F044BEBDEC028B10BD00007B000020DC
:1043500064010020280000203000002024000020FC
:104360002C00002010B5044621F098FAA02021F07E
:1043700067FA21F0C3FA68B9204621F061FA21F00A
:10438000BDFA38B921F08AFAA12021F059FA21F0BA
:10439000B5FA18B121F09EFA002010BD21F02EFAD6
:1043A000034C207021F012FA21F094FA207810BD0D
:1043B0006800002070B50120FFF7D4FFFE4C20609C
:1043C0002068000220600220FFF7CCFF216808442B
:1043D00020602068000220600320FFF7C3FF2168EF
:1043E000084420602068000220600420FFF7BAFF24
:1043F0002168084420604020FFF7B4FF2062206A53
:10440000000220624120FFF7ADFF216A08442062CC
:10441000206A000220624220FFF7A4FF216A0844BC
:104420002062206A000220624320FFF79BFF216A7E
:10443000084420620520FFF795FF60606068000275
:1044400060600620FFF78EFF616808446060606866
:10445000000260600720FFF785FF61680844606024
:104460006068000260600820FFF77CFF6168084414
:1044700060603320FFF776FFA060A0680002A060B4
:104480003420FFF76FFFA1680844A060A068000215
:10449000A0603520FFF766FFA1680844A060A0680F
:1044A0000002A0603620FFF75DFFA1680844A0600D
:1044B0000920FFF757FFE060E0680002E0600A2093
:1044C000FFF750FFE1680844E060E0680002E06048
:1044D0000B20FFF747FFE1680844E060E068000256
:1044E000E0600C20FFF73EFFE1680844E0609420A4
:1044F000FFF738FF6062606A000260629520FFF794
:1045000031FF616A08446062606A0002606296205E
:10451000FFF728FF616A08446062606A0002606217
:104520009720FFF71FFF616A084460620D20FFF7C4
:1045300019FFA24D28802888000228800E20FFF74E
:1045400011FF2988084428804420FFF70BFF2883A7
:10455000288B000228834520FFF704FF298B08449D
:1045600028830F20FFF7FEFE6880688800026880BD
:104570001020FFF7F7FE6988084468803720FFF7AE
:10458000F1FEA880A8880002A8803820FFF7EAFE84
:10459000A9880844A8801120FFF7E4FEE880E88895
:1045A0000002E8801220FFF7DDFEE9880844E88079
:1045B0009820FFF7D7FE6883688B000268839920F4
:1045C000FFF7D0FE698B084468831320FFF7CAFE0B
:1045D00028814620FFF7C6FEE8821420FFF7C2FEBE
:1045E00020612069000220611520FFF7BBFE2169D0
:1045F000084420612069000220611620FFF7B2FE06
:104600002169084420612069000220611720FFF71A
:10461000A9FE2169084420611820FFF7A3FE60610C
:104620006069000260611920FFF79CFE616908441F
:1046300060616069000260611A20FFF793FE6169A2
:10464000084460616069000260611B20FFF78AFE18
:104650006169084460613920FFF784FEA061A069A8
:104660000002A0613A20FFF77DFEA1690844A06125
:10467000A0690002A0613B20FFF774FEA169084415
:10468000A061A0690002A0613C20FFF76BFEA16958
:104690000844A0611C20FFF765FE6881688900025C
:1046A00068811D20FFF75EFE6989084468811E202D
:1046B000FFF758FEA881A8890002A8811F20FFF7F4
:1046C00051FEA9890844A8813D20FFF74BFEE881EF
:1046D000E8890002E8813E20FFF744FEE9890844AA
:1046E000E8812020FFF73EFE68822120FFF73AFE96
:1046F0002882288A000228822220FFF733FE298A96
:10470000084428822320FFF72DFEE061E0690002C3
:10471000E0612420FFF726FEE1690844E061E069DA
:104720000002E0612520FFF71DFEE1690844E06119
:10473000E0690002E0612620FFF714FEE169084409
:10474000E0612720FFF70EFEA8822A20FFF70AFE6D
:104750001B4C20802088000220802B20FFF702FEC7
:104760002188084420802C20FFF7FCFDA080A08831
:104770000002A0802D20FFF7F5FDA1880844A0804D
:10478000A4F150044FF02800FFF7ECFD0D4D2880F8
:104790002888000228802920FFF7E4FD29880844A2
:1047A00028802F20FFF7DEFD074908705620FFF70D
:1047B000D9FD064908700BE02C0F0020100F0020D7
:1047C000A40F0020C20000208D0000201001002056
:1047D0005520FFF7C7FDDC4908707420FFF7C2FDC4
:1047E000DA4908705720FFF7BDFDD94908705820F5
:1047F000FFF7B8FDD74908705920FFF7B3FDD64938
:1048000008705A20FFF7AEFDD44908805B20FFF7FF
:10481000A9FDD34908805C20FFF7A4FDD149088099
:104820005D20FFF79FFDD04908805E20FFF79AFDCD
:10483000CE4908705F20FFF795FDCD4908706020D4
:10484000FFF790FDCB4908706120FFF78BFDCA4947
:1048500008706220FFF786FDC84908706320FFF7E3
:1048600081FDC74908706420FFF77CFDC5490870C9
:104870006520FFF777FDC44908706620FFF772FDD9
:10488000C24908706720FFF76DFDC14908706820B4
:10489000FFF768FDBF4908706920FFF763FDBE4957
:1048A00008707520FFF75EFDBC4908803020FFF7D7
:1048B00059FDBB4908703120FFF754FDB949087014
:1048C0003220FFF74FFDB849087008780A2801D94F
:1048D000002008704720FFF745FD24F81C0F2088B2
:1048E000000220804820FFF73DFD218808442080F9
:1048F0004920FFF737FD60806088000260804A2011
:10490000FFF730FD6188084460804B20FFF72AFDE7
:10491000A080A0880002A0804C20FFF723FDA18882
:104920000844A0804D20FFF71DFDE080E0880002D4
:10493000E0804E20FFF716FDE1880844E0804F201C
:10494000FFF710FD20812089000220815020FFF711
:1049500009FD2189084420815120FFF703FD608172
:104960006089000260815220FFF7FCFC61890844E5
:1049700060815320FFF7F6FCE085E08D0002E085C2
:104980005420FFF7EFFCE18D0844E0857020FFF72D
:10499000E9FC2082208A000220827120FFF7E2FCDD
:1049A000218A084420827220FFF7DCFC6082608A42
:1049B000000260827320FFF7D5FC618A08446082A0
:1049C0007620FFF7CFFC6084608C00026084772043
:1049D000FFF7C8FC618C084460847C20FFF7C2FCB0
:1049E000A084A08C0002A0847D20FFF7BBFCA18CDA
:1049F0000844A0847E20FFF7B5FCE084E08C000230
:104A0000E0847F20FFF7AEFCE18C0844E084862040
:104A1000FFF7A8FC654D28802888000228808720A1
:104A2000FFF7A0FC2988084428808820FFF79AFC1B
:104A300068806888000268808920FFF793FC698895
:104A4000084468808A20FFF78DFCA880A8880002AF
:104A5000A8808B20FFF786FCA9880844A8807820CE
:104A6000FFF780FC2085208D000220857920FFF74C
:104A700079FC218D084420858020FFF773FC608538
:104A8000608D000260858120FFF76CFC618D084419
:104A900060858220FFF766FCA085A08D0002A085BE
:104AA0008320FFF75FFCA18D0844A085A4F11C04BE
:104AB0004FF08C00FFF756FCE880E8880002E880A1
:104AC0008D20FFF74FFCE9880844E8808E20FFF72F
:104AD00049FC28812889000228818F20FFF742FCA9
:104AE0002989084428819020FFF73CFC6881688967
:104AF000000268819120FFF735FC698908446881CC
:104B00008420FFF72FFC2A4908707A20FFF72AFC3F
:104B100004F13604A083A08B4FEA0020A0834FF05D
:104B20007B00FFF71FFCA18B0844A0839220FFF7B6
:104B300019FC20802088000220809320FFF712FCBF
:104B400021880844208070BD0F0100201901002039
:104B5000940100209501002018010020AC010020E4
:104B6000AE010020B0010020B20100209D01002014
:104B70009E0100209F010020A0010020A201002032
:104B8000A3010020A4010020A5010020A60100200F
:104B9000A7010020A8010020A90100201C0100207D
:104BA0008E0000209200002090000020D08700207E
:104BB0007801002070B505460E4620F08BFE0024DB
:104BC00009E020F06BFEA02020F03AFE20F096FED7
:104BD00018B1641CA4B2642CF3D3B4F57A7F0DD061
:104BE000E8B220F02DFE20F089FE38B9304620F0E2
:104BF00027FE20F083FE08B920F06CFEBDE870406F
:104C000020F068BE2DE9F041044694B0006800F041
:104C1000B7F908B1D94D01E0D84D2C356068152899
:104C20001ED00CDC0B281FD004DC00287ED0052809
:104C30007DD12EE10E287BD01228F9D141E1162832
:104C400006D0172808D0182808D01C28F0D109E071
:104C5000E86914B0BDE8F081286AFAE7686AF8E705
:104C6000A86AF6E76869F4E720680B901C200C90AE
:104C7000206802F01BF80390016D0BA888470646D8
:104C800003A802F05DF8022E0EDB95E807008DE820
:104C90000700D4E904023346A16904F047FB206908
:104CA0008719A069801B2BE0286803F0DBFB2169D2
:104CB000E8690A18521E606902F07AFDA269E86983
:104CC000111A491C606902F073FD676920697F1C35
:104CD000394602F0AFFD3946A06902F0ABFD6868C5
:104CE00003F0C0FB20693946401C02F0A3FDA06917
:104CF0003946401E02F09EFD2769A069BF1C801E38
:104D00008046286803F0AEFB42463946606902F0EF
:104D10004FFD686803F0A6FB60694246401C3946B7
:104D200002F046FD686A02280FDD02E015E1AFE0FF
:104D300000E1A86803F096FB61696A6A881C8B1819
:104D400001465B1E4246384627E0296AB14226DD0D
:104D50006069022E074600F1020801DB374401E0DA
:104D600007F10207206901DB304401E000F1020095
:104D700022693B460A44A2F10102414602F022FEAA
:104D8000022E02DBA069821B01E0A269921EA069CB
:104D9000E9693B46401A401C414602F013FE022ED0
:104DA00002DB6069064401E06669B61CE7692868B1
:104DB0007F1E03F057FB3A463146206902F098FD0A
:104DC0003A463146A06902F093FDE7696868BF1E64
:104DD00003F048FB20693A46401C314602F088FD4A
:104DE000A0693A46401E314602F082FDE869022879
:104DF00002DC286A022823DDA86A022802DDE169B4
:104E00000F1A01E0E769BF1EA86803F02BFBE969F0
:104E1000022909DD20693B46421800F1020C521EAE
:104E20003146604602F0CEFD286A022808DDA269FC
:104E3000E8693B46101A401C921E314602F0C2FD42
:104E4000286803F00FFBD4E90620216902F0B0FCCA
:104E5000686803F007FBA2692169E069521E491CDA
:104E6000401E02F0A5FCA86A022811DD2669A1698E
:104E7000E469B61C271AA1F102087F1CA41EA868C9
:104E800003F0F0FA234642463946304602F09AFDD6
:104E900072E0208A06B2ADF81460A08A01B2ADF8C3
:104EA0001610208B02B2ADF81820A08B03B2ADF81B
:104EB0001A30D5E90304CDE90004304602F020FCA5
:104EC0005AE0208A298B0844ADF81400A08AADF876
:104ED0001600208B298B401AADF81800A08BADF876
:104EE0001A00206801F0E2FE0390006FF0B102208A
:104EF00003F002FB039991F87C00C0F3C00001EBC2
:104F00008000006C03F0AEFA0398406B03F0B4FA33
:104F10000398006F01F0CAFE03990A90B1F95A2074
:104F200005A902F097FA0AA801F00AFF03A801F008
:104F300007FF21E0208AADF81400A08AADF8160022
:104F4000208BADF81800A08BADF81A00A86803F00C
:104F500089FA05A802F05AFD0EE0206801F0A6FECD
:104F6000039030F85A1F41F00C01018003A801F0B2
:104F7000E7FE206811F0FCF900206AE62804002012
:104F800038B5002450B101F091FE009090F87C00FB
:104F9000000700D50124684601F0D2FE204638BD46
:104FA00030B504468BB0006801F080FE009090F8A8
:104FB0007C10246A006FC1F3C00508B101F076FED1
:104FC0000690E068029020690390A088401EADF82A
:104FD0001000E089ADF812002089401CADF81400E3
:104FE000608AADF81600BDF80800401CADF8080056
:104FF000BDF80A00401CADF80A00BDF80C00401EC8
:10500000ADF80C000098406B03F036FA009808AA3F
:1050100002A9B0F95A30069803F010FD009800EB91
:105020008500806B08F0E2FC009800EB8500006CC6
:1050300008F014FD08AB02AA04A9069810F07AF94A
:10504000684601F07DFE069810B106A801F078FED2
:105050000BB0002030BD0000074A0649054B116027
:10506000064A083BD16958601B68C2E90630084609
:10507000704700001C040020500700205407002047
:1050800038B50D46040009D001F010FE0090056609
:10509000684601F055FE204610F06DFF38BD2DE941
:1050A000F34F85B000270C46B846059801F0FEFD89
:1050B0000090C06D0121856805982A689047824656
:1050C0002A6803210598904704902A6802210598D0
:1050D000904703902A68002105989047064600985B
:1050E00011F008FB8346009811F00BFB81460098F5
:1050F00090F83210890601D5B0F9588000F036F8E2
:1051000005460098C06E10B110F06AFE0746258073
:105110006780A4F804A0049AABEB020006EB080237
:10512000401E2A4420813A44E280039BA9EB0302FB
:10513000521E6281A4F80CA020827019E681401EE4
:105140006082684601F0FCFDB4F90C000190B4F9EE
:105150001000029002AA01A9059800F039F8019800
:10516000A0810298208207B0BDE8F08F10B50146FB
:10517000002091F83220920607D5B1F9540000289A
:1051800003D1486B02F0C0FC801C10BD70B58AB022
:105190000C46054601F08AFD0990C06D866809A895
:1051A00001F0CEFD009534B1012C06D0022C0BD0BD
:1051B000032C04D10AE0182000E016200190716849
:1051C000684688470AB070BD1520F7E71720F5E755
:1051D0002DE9FC4790468946044601F067FD0090A2
:1051E000C16D056868468E6801F0AAFD326800212D
:1051F000204690470646204610F0DCFC2F1404465B
:105200002DB227E001F052FD0190B0F90010B0F985
:105210000420B0F90230491B521BDB1BB34212D1F0
:1052200090F82800000607D5D8F8000088420ADB6D
:10523000491EC8F8001006E0D9F80000904202DCD0
:10524000521CC9F8002001A801F07AFD204610F098
:1052500041FD0446002CD5D1BDE8FC874FF020422B
:1052600002EB800021B1016841F00101016070474B
:105270000168024A1140016070470000FEFF0F0004
:1052800030B5D0E901121143D0E903231A43114389
:1052900042690368114382691143C2691143026A7A
:1052A0001143426A1143826A1143C26A1143026B7D
:1052B00011434FF0204242F823108168082906D19B
:1052C000016802EB81010B6843F040030B60416B06
:1052D000D1E9003443EA04138C68CD68240244EA1F
:1052E000054423430C6943EA04534C69896943EA42
:1052F00004630B430168491C42F82130C16AB1F5CF
:10530000804F07D000686FF0704102EB8000C0F85A
:10531000041130BD816B0068D1E9003443EA041305
:105320008C680D69240244EA055423434C69896959
:1053300043EA046302EB80000B43C0F8043130BD44
:1053400070B5B14C2068010E0120FFF733FC2068D6
:10535000C0F307410220FFF72DFC2068C0F30721AE
:105360000320FFF727FC2068C1B20420FFF722FCCE
:105370006068010E0520FFF71DFC6068C0F307415F
:105380000620FFF717FC6068C0F307210720FFF72E
:1053900011FC6068C1B20820FFF70CFCA068010E88
:1053A0003320FFF707FCA068C0F307413420FFF764
:1053B00001FCA068C0F307213520FFF7FBFBA068C4
:1053C000C1B23620FFF7F6FBE068010E0920FFF7B7
:1053D000F1FBE068C0F307410A20FFF7EBFBE06850
:1053E000C0F307210B20FFF7E5FBE068C1B20C20FA
:1053F000FFF7E0FB606A010E9420FFF7DBFB606AB9
:10540000C0F307419520FFF7D5FB606AC0F3072181
:105410009620FFF7CFFB606AC1B29720FFF7CAFB67
:10542000206A010E4020FFF7C5FB206AC0F3074148
:105430004120FFF7BFFB206AC0F307214220FFF79E
:10544000B9FB206AC1B24320FFF7B4FB6F4D288837
:10545000010A0D20FFF7AEFB2888C1B20E20FFF72E
:10546000A9FB6888010A0F20FFF7A4FB6888C1B276
:105470001020FFF79FFBA888010A3720FFF79AFB4F
:10548000A888C1B23820FFF795FBE888010A1120EF
:10549000FFF790FBE888C1B21220FFF78BFB688B07
:1054A000010A9820FFF786FB688BC1B29920FFF7AD
:1054B00081FB288B010A4420FFF77CFB288BC1B2BB
:1054C0004520FFF777FB2889C1B21320FFF772FB55
:1054D000E88AC1B24620FFF76DFB2069010E142057
:1054E000FFF768FB2069C0F307411520FFF762FB57
:1054F0002069C0F307211620FFF75CFB2069C1B2C9
:105500001720FFF757FB6069010E1820FFF752FBC9
:105510006069C0F307411920FFF74CFB6069C0F3D5
:1055200007211A20FFF746FB6069C1B21B20FFF775
:1055300041FBA069010E3920FFF73CFBA069C0F3D5
:1055400007413A20FFF736FBA069C0F307213B2053
:10555000FFF730FBA069C1B23C20FFF72BFB688945
:10556000010A1C20FFF726FB6889C1B21D20FFF746
:1055700021FBA889010A1E20FFF71CFBA889C1B2E4
:105580001F20FFF717FBE889010A3D20FFF712FBF8
:10559000E889C1B23E20FFF70DFB688AC1B2202026
:1055A000FFF708FB288A010A2120FFF703FB288A5E
:1055B000C1B22220FFF7FEFAE069010E2320FFF7B7
:1055C000F9FAE069C0F307412420FFF7F3FAE06934
:1055D000C0F307212520FFF7EDFAE069C1B22620CC
:1055E000FFF7E8FAA88AC1B22720FFF7E3FA084CD0
:1055F0002088010A2820FFF7DDFA2088BDE87040E6
:10560000C1B22920FFF7D6BA2C0F0020100F0020BE
:10561000C20000202DE9F0430446C56887B09046DB
:105620008946002002F026FF064625B1287910B1F0
:1056300046F0020001E026F0020002F01BFF2069A4
:10564000012558B1D4E902128DE82600039563883C
:105650002288046841464846A0471EE0124F134B7B
:10566000214638681B68427CE068984730B9E0887A
:10567000012801D0002001E03868806BA288E3880F
:10568000A1680095CDE90410CDE902320195638847
:1056900022884146484607F0CBFD07B03046BDE8BA
:1056A000F04302F0E7BE0000E0010020D801002036
:1056B0001CB50024019401AC009400F0E7F81CBD77
:1056C0002DE9FF4F83B0814606988A46A0EB0A0871
:1056D000109E00200090A2EB09043568934654EA1E
:1056E000080018D02046FCF7CEFB07464046FCF7E2
:1056F000CAFB87420BDA2046444680464846D146DC
:1057000082465846DDF818B0069001200090002C23
:1057100007DD204606E007B04846BDE8F04F00F040
:105720003BB96042A0420AD04846D9466442C8F11B
:10573000000883464FF0FF37DDF818A000E001278E
:105740005148B8F1000F11D004EBD4714FEA610B4E
:1057500001DACBF1000B4C480068807E88B3002F43
:1057600002DA30682044306000257BE0009900298F
:10577000016821D0897E11B10027804615E007B06D
:105780005A4649465046BDE8F04F07F0B5BE284698
:105790006D1C18F029FF38B9D8F8000009EB070193
:1057A000C06E4268504690477F1CA742EFDD6D1ED9
:1057B000356007B0BDE8F08F8A7E1AB100278046B9
:1057C00017E019E0C86E5A465146036807B04846CC
:1057D000BDE8F04F184728466D1C18F005FF38B992
:1057E000D8F8001009EB0700C96E4A685146904787
:1057F0007F1CA742EFDDDAE700250FE008FB05B0CC
:1058000090FBF4F101EB0A00009951B11E4A09EB3B
:1058100005011268D26E526890476D1CA542EDDDFD
:10582000C7E7194909EB05030968C96E4A680146CB
:105830001846F1E708FB05B090FBF4F101EB0A0014
:10584000019030683844306018F0CEFE48B90098B6
:1058500090B10D4809EB05010068C06E42680198DF
:1058600090476D1CA542E5DD3068002F01DA204429
:105870003060C01B30609CE7034909EB05000968F4
:10588000C96E4A680199EBE7E00100202DE9FF4766
:105890000F4640491646804609680C981D460A7E08
:1058A000012A1CD0A8EB0600791B50EA01031CD08A
:1058B000A2F1010919F074FE00F58060824604F03F
:1058C00035F900FB09F4504604F034F900FB09F106
:1058D000002C0CDAC4F50070801240420AE00090FF
:1058E000324639464046FFF7EBFEBDE8FF8704F538
:1058F0000074A012002904DAC1F5007189124C422B
:1059000002E001F500718C12002804DD411C01EB5E
:10591000D171491003E000EBD0714910401E00EB3B
:10592000D0704210002C04DD601C00EBD0704010E1
:1059300003E004EBD4704010641E04EBD47308EB56
:105940000104ADF800403C18ADF80240A8EB020499
:105950005B10B21AADF80440ADF808203144FC1ACF
:10596000EA1AADF80C102844ADF80A20ADF80E0084
:105970000023ADF806401A460421684600F07AF884
:105980003946404614F0FEF92946304614F0FAF93B
:10599000ABE70000E0010020064A13681A7E012AE6
:1059A00005D0521E02EBD272521000F005B8DA6E2A
:1059B00052681047E00100202DE9F05F0646884656
:1059C00040F2C32050434FF47A7190FBF1F702FB91
:1059D00002F002EBD27100EB610B254914467F1CEB
:1059E00009683244301BC96E0B684146984701254F
:1059F0003AE000BF05FB05F004FB040159451CDD3E
:105A0000BC4219DD1A4B06EB050AA6EB05091B681B
:105A1000AAF1010208EB0401DB6E09F101001B6829
:105A20009847134BAAF10102A8EB04011B6809F186
:105A30000100DB6E1B689847641E0D4806EB040AE4
:105A4000A6EB0409006808EB05015246C06E036826
:105A5000484698470648A8EB050152460068C06EC4
:105A60000368484698476D1CBD42C3DDBDE8F09F02
:105A7000E00100202DE9FF4F40F6FF740F4666421B
:105A800083B09B46814600210BE000BF09EB8100FB
:105A9000B0F90200A04200DA0446B04200DD06463A
:105AA000491CB942F2DB68480068406900280DD003
:105AB000B0F906101A46A1EB0B01B14200DA0E460E
:105AC000B0F90200801AA04200DD0446B5E0DFF81C
:105AD0007CA100200546CAF8000089E0781E8542B6
