:020000040800F2
:10000000508F00209502000835D30008BD930008EA
:10001000D5D2000855230008ED3501080000000086
:100020000000000000000000000000004D13010867
:100030006B4000080000000035F800089924010812
:10004000AF020008AF020008AF020008AF020008CC
:10005000AF020008AF020008AF020008AF020008BC
:10006000AF020008AF020008AF020008AF020008AC
:10007000AF020008AF020008AF020008AF0200089C
:10008000AF020008AF020008AF020008AF0200088C
:10009000AF020008AF020008AF020008AF0200087C
:1000A000AF020008AF020008AF020008AF0200086C
:1000B000AF020008A9290108AF020008AF0200083A
:1000C000AF020008AF020008AF020008AF0200084C
:1000D000AF02000835330108AF020008AF02000884
:1000E000AF020008AF020008AF020008AF0200082C
:1000F000AF020008AF020008AF020008AF0200081C
:10010000AF020008AF020008AF020008AF0200080B
:10011000AF020008AF020008452C0108AF0200083A
:100120008D3E0008AF020008AF020008AF020008D1
:10013000AF020008AF020008AF020008AF020008DB
:10014000AF020008AF020008AF02000841DB000860
:10015000AF020008AF020008AF020008AF020008BB
:10016000AF020008AF020008AF020008AF020008AB
:10017000AF020008AF020008AF020008AF0200089B
:10018000AF020008AF02000800F002F800F072F8B9
:100190000AA090E8000C82448344AAF10107DA45E2
:1001A00001D100F067F8AFF2090EBAE80F0013F0C2
:1001B000010F18BFFB1A43F001031847402A030040
:1001C000602A03000A444FF0000C10F8013B13F0C2
:1001D000070408BF10F8014B1D1108BF10F8015BA0
:1001E000641E05D010F8016B641E01F8016BF9D193
:1001F00013F0080F1EBF10F8014BAD1C0C1B09D1EA
:100200006D1E58BF01F801CBFAD505E014F8016B5B
:1002100001F8016B6D1EF9D59142D6D370470000ED
:100220000023002400250026103A28BF78C1FBD8FF
:10023000520728BF30C148BF0B607047662924F0C1
:100240000883642900F08480002070471FB524F0E3
:10025000F6FA00F0CFFD04000020002123F0ACFDF1
:10026000401C60600020002123F090FDE0601FBD75
:1002700010B510BD00F00AFF1146FFF7E7FF23F0AD
:10028000B7F900F036FF03B4FFF7F2FF03BC00F04C
:1002900077FF00000948804709480047FEE7FEE76E
:1002A000FEE7FEE7FEE7FEE7FEE7FEE7FEE7FEE726
:1002B00004480549054A064B7047000061250108BE
:1002C0008901000850890020508F0020508B0020A9
:1002D000508B00200FB41CB5074B06AA7B4469461F
:1002E0000090059800F0CBFC0020694600F0DAFC95
:1002F0001CBC5DF814FB0000C509000070B5044685
:1003000085690068C10601D5302600E02026C007B7
:1003100008D070BDD4E9012130469047206A00F131
:10032000010020626D1EF5D570BD70B5044685696B
:100330000068C00708D170BDD4E901212020904792
:10034000206A00F1010020626D1EF5D570BD00002D
:100350002DE9F0410746002510687529394616A495
:1003600011D0AFF30080002803DAC0F1000013A41D
:1003700007E039688A0701D511A402E0490704D5CE
:1003800010A4012501E0AFF3008000210A2307F14A
:10039000240607E0B0FBF3F203FB12003030705488
:1003A0001046491C0028F5D12B4622463846BDE8A8
:1003B000F04100F0F3B90000000000002D00000043
:1003C0002B000000200000002DE9F05F0446894664
:1003D0004FF0000ADFF828B1FB44C0F820A0204607
:1003E000E168884700287CD0252806D0D4E901217F
:1003F0009047206A401C2062F1E700255F462046B6
:10040000E16888472028064608DB312E06D207EB34
:10041000060010F8200C08B10543F0E7A80701D545
:1004200025F00405C4F81CA00027C4F818A02A2E43
:1004300009D0304622F08EFF38B304EB8708303EF7
:10044000C8F8186019E059F8041B204604EB87022D
:100450009161E1688847012F064618D1E0690028BC
:1004600020DA25F020051DE0D8F8180000EB800008
:1004700006EB40003038C8F818002046E16888478D
:10048000064622F067FF0028EED1012F0AD02E2E5B
:1004900008D12046E16888477F1C0646022F45F0B8
:1004A0002005C4DBA069002803DA404245F00105BD
:1004B000A061E80701D025F0100596B1A6F1410032
:1004C000192802D8203645F400654A4631462046B0
:1004D00025604D46FFF7B2FE60B1012807D0ED1D43
:1004E00000E009E025F0070000F1080977E705F1D1
:1004F000040974E7304679E7206ABDE8F09F000000
:100500004C27030070B5064600F044F90468054620
:1005100030460A22002100F0CAFB2C6070BD40EA80
:100520000103024630B59B0710D14FF0013400E0C3
:1005300008C208C91D1B9D4315EAC41FF8D013F05B
:10054000FF0102F8011B0DD01B0AF8E711F8013B6F
:10055000002B02F8013B05D011F8013B002B02F8FB
:10056000013BF3D130BD10B5431C02E010F8011B74
:1005700071B18107FAD14FF0013202C88C1A8C4355
:1005800014EAC211F9D0C01A0A0603D0C01E10BD69
:10059000C01A10BD0A0401D0801E10BD0902FCD093
:1005A000401E10BD421E12F8013F002BFBD111F876
:1005B000013B002B02F8013BF9D17047032A40F2BE
:1005C000308010F0030C00F0158011F8013BBCF1F5
:1005D000020F624498BF11F801CB00F8013B38BF0D
:1005E00011F8013BA2F1040298BF00F801CB38BF1B
:1005F00000F8013B11F0030300F06780083AC0F0F7
:10060000088051F8043B083A51F804CBA0E80810E0
:10061000F5E7121D5CBF51F8043B40F8043BAFF313
:100620000080D20724BF11F8013B11F801CB48BF6D
:1006300011F8012B24BF00F8013B00F801CB48BFA3
:1006400000F8012B7047431A28BF9A427FF6B6AFD5
:10065000032A1044114440F2268010F0030F1EBFFD
:1006600011F8013D521E00F8013D10F0030F7FF418
:10067000F6AF11F0030300F06583083AC0F00B8079
:1006800051F8043D083A51F804CD40F8043D40F8D3
:1006900004CDFFF7F3BF121D5CBF51F8043D40F8D5
:1006A000043DAFF30080D20724BF11F8013D11F8DB
:1006B00001CD48BF11F8012C24BF00F8013D00F81E
:1006C00001CD48BF00F8012C704710B5203AC0F0AA
:1006D0000B80B1E81850203AA0E81850B1E8185043
:1006E000A0E81850BFF4F5AF5FEA027C24BFB1E880
:1006F0001850A0E8185044BF18C918C0BDE81040F1
:100700005FEA827C24BF51F8043B40F8043B08BFF9
:100710007047D20728BF31F8023B48BF11F8012BC0
:1007200028BF20F8023B48BF00F8012B704702F0B9
:10073000FF0343EA032242EA024200F02FBB4FF0DC
:10074000000200B5134694469646203922BFA0E821
:100750000C50A0E80C50B1F12001BFF4F7AF09072D
:1007600028BFA0E80C5048BF0CC05DF804EB89001E
:1007700028BF40F8042B08BF704748BF20F8022B61
:1007800011F0804F18BF00F8012B70477047704779
:100790007047000000487047F08800202DE9F047BE
:1007A0000D4604469246994600F1240801688806E1
:1007B00004D5E06921F01001216000E00120A84289
:1007C00002DDA0EB050700E00027A16907EB0502A9
:1007D00002EB0900A1EB0000A0612068C00602D472
:1007E0002046FFF78BFD002608E0D4E901211AF826
:1007F00006009047206A401C761C20624E45F4DBC0
:100800002068C0060AD52046FFF778FD06E0D4E947
:10081000012130209047206A401C2062381EA7F139
:100820000107F4DC07E0D4E9012118F8050090473E
:10083000206A401C2062281EA5F10105F3DC204639
:10084000FFF773FD2068000602D50220BDE8F0879F
:100850000120FBE770472DE9FF4F0C461E464FF085
:10086000FF378BB0D2E90001DDF860800A908A463C
:10087000C1F30A5505B93D46002108464FF0000076
:10088000BAF1000F00F4400005DA00EB80004FF4ED
:10089000400101EA50004FEA9059B9F1010F00DD23
:1008A000B9460A9850EA4A000FD044F61050A5F213
:1008B000FF3545432F14B8F1000F1FD07542291E94
:1008C0001FDD4846C9F100021CE0B8F1010F4FF0EE
:1008D000000001D1F24307E0302101E02154401C27
:1008E000B042FBDB30460022002121540B99C1F8B5
:1008F0000880C1E900200FB0BDE8F08FBD1B6D1C62
:10090000DDE74A4600DA694206A800F04DFB06AB77
:1009100007CB03AB07C350460A9900F038FC8DE8BB
:100920000700A0F500501F3800900398002D09DD46
:1009300042F21F014A46084403A90390684600F0AA
:1009400097FE08E0A0F500504A461F3803A903901F
:10095000684600F0A1FE8DE807000004000C03D0FB
:100960004FF0FF30410800E01046B8F1000F03D00F
:100970000022009215461FE0751E06D400F03EFAD4
:1009800002F1300262556D1EF8D5B34601220843CC
:1009900002D000227F1C04E02078302801D1002200
:1009A0007F1E002A099786D01DE0112D07DA00F07E
:1009B00025FA303262556D1C50EA0102F5D1084328
:1009C0000FD10021681E05E0235C625C6354491C62
:1009D0002254401E8142F7DBAB46A81B401E099003
:1009E00001E0009848B1002004F80B000B98099A28
:1009F000C0F80880C0E9002B7DE711264FF0000801
:100A000059E72DE9F04F88460446D21D22F0070130
:100A100091B0D1E90001CDE90A011CF0C5FD024603
:100A20000B98C00F01D02D2007E02068810701D569
:100A30002B2002E0202101EAC000032A099001D006
:100A4000072A05DB03464146204600F01DFA0EE169
:100A50002068800601D5E06900E00620B8F1650F46
:100A6000814606D0B8F1660F18D0B8F1670F72D181
:100A700032E00020B9F1110F009001DB112301E0F9
:100A800009F101030AAA01A90CA8FFF7E4FEDDE9B8
:100A90000C70002609F10105834648E001204B4611
:100AA00000904FF000470AAA01A90CA8FFF7D3FE57
:100AB000DDE90C050E990026AB4619B909F10101D3
:100AC00000EB0105B9EB050003D4C0F1FF3609F1D5
:100AD0000105A5EB09002BE0B9F1010F01DA4FF098
:100AE00001090020B9F1110F0090484601DD1123E2
:100AF00000E003460AAA01A90CA8FFF7ACFEDDE955
:100B00000C704D4600268346206800070AD4AB458A
:100B100000DA5D4601A8012D04DD411911F8011C20
:100B2000302907D04F4502DA17F1040F04DA01200B
:100B3000824610E06D1EEEE7002F02DCED1B3E4406
:100B400003E0781CA84200DD0546A7EB060000F193
:100B5000010A4FF000472068000703D4AA4501DBD3
:100B60004FF0FF3A0021B7F1004F0DF143088DF827
:100B7000431022D002202B23002F01DA7F422D23A5
:100B80000A22011EA0F1010000DC4FB197FBF2F137
:100B900002FB117C0F460CF1300C08F801CDF0E798
:100BA000A8F1010003702168090501D5452100E085
:100BB0006521A0F1010800F8011C09980FA9A1EB1B
:100BC000080707F1070700B1012000EB050101EB61
:100BD000EA70A1693844A1EB0000A0F10100A06116
:100BE0002068C00602D42046FFF788FB099830B180
:100BF000D4E901219047206A00F1010020622068B9
:100C0000C00620D52046FFF779FB1CE0002E04DB50
:100C1000B34502DD01A8805D00E03020D4E9012168
:100C20009047206A761C401CBAF1010A20620AD162
:100C300000F0E0F8C0680168405CD4E90121904709
:100C4000206A401C2062281EA5F10105DEDC07E0B9
:100C5000D4E9012118F8010B9047206A401C20625A
:100C6000381EA7F10107F3DC2046FFF75EFB0220E8
:100C700011B041E601694A1C02610878704700B56D
:100C80008FB0CDE901310021059105497944CDE9C5
:100C9000031011466846FFF797FB0FB000BD000038
:100CA000E5FFFFFF0A6802F8010B0A6070472DE9B3
:100CB000F0470F46914680460446002614F8015B33
:100CC0002DB100F08FF80068405DC007F6D12B2DE4
:100CD00002D02D2D18D0641E4A463946204600F019
:100CE00013F927B13968A14201D1C7F800804FF04C
:100CF000020471050BD54042002803DDFFF74AFDD1
:100D00000460A007BDE8F08746F48066E4E70028A9
:100D1000F8DAFFF73FFD04606FF00040F2E7431A96
:100D200028BF9A427FF6D1AC104410F0030F114453
:100D30001EBF11F8013D521E00F8013D10F0030FD7
:100D40007FF4F6AF103AC0F00A8010B531E91850C0
:100D5000103A20E91850BFF4F9AFBDE8104053072E
:100D600024BF31E9081020E9081044BF51F8043DC0
:100D700040F8043D12F0030F08BF7047D20728BFA8
:100D800031F8023D48BF11F8012C28BF20F8023D80
:100D900048BF00F8012C70474FF000020429C0F052
:100DA000128010F0030C3FF4CCACCCF1040CBCF17D
:100DB000020F18BF00F8012BA8BF20F8022BA1EBEF
:100DC0000C01FFF7BEBC5FEAC17C24BF00F8012B19
:100DD00000F8012B48BF00F8012B7047004870470E
:100DE000F088002010B500F005F8001D10BD00BF10
:100DF000C92F0200004870471089002030B5B0F1BB
:100E00000A024FEA900E71F100034EEA817EB0EBC8
:100E10000E0061EB91014FEA101E4EEA017E10EBCD
:100E20000E0041EB11114FEA102E4EEA016E10EB4D
:100E30000E0041EB11214FEA104E4EEA014E10EB2D
:100E40000E0041EB1141401841F100014FEAD00082
:100E500040EA41704FEAD10110EB80054FEA81046E
:100E600044EA907444EB01046D1944EB0404521BF2
:100E7000A3414FF0000348BF0A3200D530BD401CEB
:100E800041F1000130BD00002DE9F04104461F464C
:100E900003260168072A01F4006004DB08B116A5E7
:100EA00005E016A503E008B115A500E015A521F0A1
:100EB00010002060A069C01EA0610FB1401EA0619B
:100EC0002046FFF71BFA4FB1D4E90121384690477D
:100ED000206A401C2062C01C206206E0206AFAE7FB
:100EE000D4E9012115F8010B9047761EF8D220466F
:100EF000FFF71BFABDE8F0814E414E006E616E00B7
:100F0000494E4600696E66002DE9F05F82468B46C9
:100F1000154600270AF10104B9460078302801D0AF
:100F20009DB113E014F8010B0127782803D058284D
:100F300001D045B10AE00DB1102D07D1002714F8FA
:100F4000010B102502E0082500E00A250026B04626
:100F50000EE005FB080005FB06F101271FFA80F8EB
:100F600001EB1046B6F5803F00D3B94614F8010BEB
:100F7000294600F0B0F80028EBDABBF1000F05D0ED
:100F80000FB1641E00E05446CBF80040B9F1000FE9
:100F900006D0FFF7FFFB02210160C81EBDE8F09FED
:100FA00048EA0640FAE700002DE9F0478146164678
:100FB0008AB035487844D0E9002380680092CDE9B2
:100FC0000130314878440C38D0E90223006903929B
:100FD0004FF03702CDE9043041F69B30014491FBDC
:100FE000F2F0A0F1800502FB10141B3C02D5644214
:100FF000012000E00020DFF890A080460027FA449E
:10100000AAF1C60A0DE0E00709D03246684607EBB0
:1010100047010AEB810100F03FFB8DE807006410F7
:101020007F1C002CEFD1184F7F44B43F17E0E80736
:1010300013D007EB04100DF1180A90E80E00AAE88F
:101040000E00C068F04201D198190890324606A9F6
:1010500003A800F021FB03AB07C36D10641C002D37
:10106000E5D132466946B8F1000F03A802D000F07E
:10107000FFFA01E000F010FBC9E90001C9F80820FF
:101080000AB0BDE8F0870000001C03007546FFF7BA
:10109000A5FEAE4605006946534620F0070085468A
:1010A00018B020B5FFF704F9BDE820404FF0000666
:1010B0004FF000074FF000084FF0000B21F0070140
:1010C000AC46ACE8C009ACE8C009ACE8C009ACE883
:1010D000C0098D4670473A2800D2303820F02002EF
:1010E000412A01D3A2F13700884201D34FF0FF30EB
:1010F00070470446AFF300802046FFF7C4F80000B5
:101100004FF0013C50F8042B51F8043B9A4221D196
:10111000A2EB0C03934313EACC1317D150F8042B22
:1011200051F8043B9A4215D1A2EB0C03934313EA06
:10113000CC130BD150F8042B51F8043B9A4209D13F
:10114000A2EB0C03934313EACC13DBD04FF0000067
:10115000704700BFD01A01BAB1FA81F101F018014D
:1011600022FA01F0CB40C1F12001DBB2C0B2C01ABB
:101170002CFA01F3D11A914311EAC311E6D1704759
:1011800001491820ABBEFEE72600020070475FEA67
:10119000400C08BF91F0000F4FEA8C234FEAC122A8
:1011A00043EA51514FEA1C5018BF00F5F0404FEA96
:1011B000300018BF41F000415FEA6C5C00F029800C
:1011C000BCF1FF3F08BF40F080407047130C06BFE2
:1011D00012044FF0100C4FF0000C130E04BF12025B
:1011E0000CF1080C130F04BF12010CF1040C930F47
:1011F00004BF92000CF1020CD30F04BF52000CF19B
:10120000010C11464FF00002A0F11F00A0EB0C00F2
:10121000704711F0004F08BF704731F000413FF4B4
:10122000D5AF0B0C06BF09044FF0100C4FF0000CAB
:101230000B0E04BF09020CF1080C0B0F04BF0901CF
:101240000CF1040C8B0F04BF89000CF1020CCB0FC6
:1012500004BF49000CF1010CCCF12003A0EB0C0001
:1012600022FA03F302FA0CF241EA030100F1010051
:10127000704720F07F4C80EA030023F07F47ACEBFF
:10128000070303F57C5300F0004003F1FF032DE951
:1012900080494FEA154B09B44FEA144325EA0B4E37
:1012A00024EA03480FF2042606EB132749083E7888
:1012B0005FEA320203FB0667C7F5000707FB06F685
:1012C0004FEA54374FEAD64606F1020607FB066C92
:1012D000CCF1005C4FEA1C472CEA074C07FB06F4F4
:1012E0000CFB06F504EB15464FEA961634BF0020BA
:1012F0004FF000404FEAD13706FB07FC4FEA1C4C89
:101300000CFB0BF7D21B03FB0CF761EB07010CFB8B
:101310000EF7B0EB074072EB17420CFB08F734BF37
:10132000A2EB0742B2EB074261EB17414FEA0C44D4
:101330004FEA910706FB07FC4FEA1C4C0CFB0BF72E
:10134000B0EBC74072EB573203FB0CF734BFA2EB94
:10135000C742B2EBC74261EB57310CFB0EF7B0EB63
:10136000C70072EB57720CFB08F734BFA2EBC70241
:10137000B2EBC70261EB5771039F4FEA816141EA0B
:10138000921104EBCC044FEAD1374FEA826206FB9C
:1013900007FC42EA90124FEA80604FEA1C4C0CFBBB
:1013A0000BF7D21B03FB0CF761EB07010CFB0EF7ED
:1013B000B0EB074072EB17420CFB08F734BFA2EB0F
:1013C0000742B2EB074261EB17414FEA8C554FEAF7
:1013D000910704EB9C2406FB07FC4FEA1C4C0CFB1A
:1013E0000BF7B0EBC74072EB573203FB0CF734BF7F
:1013F000A2EBC742B2EBC74261EB57310CFB0EF7D1
:10140000B0EBC70072EB57720CFB08F734BFA2EBCE
:10141000C702B2EBC70261EB577115EB4C254FEADF
:10142000816141EA92114FEA82624FEAD13742EA82
:10143000901206FB07FC44F100044FEA80604FEA7B
:101440001C4C0CFB0BF7D21B03FB0CF761EB0701E9
:101450000CFB0EF7B0EB074072EB17420CFB08F7E2
:1014600034BFA2EB0742B2EB074261EB174115EB29
:101470001C154FEA813141EA92414FEA823242EA39
:1014800090424FEA80304FEA0C7644F1000448EA7B
:1014900003434EEA0B484FF0000EB2EB080C71EB21
:1014A000030724BF624639464EEB0E0E4FF0000B89
:1014B0000018524149414BEB0B0BB2EB080C71EB9E
:1014C00003077BF1000B24BF624639464EEB0E0E3C
:1014D0004FF0000B0018524149414BEB0B0BB2EBA4
:1014E000080C71EB03077BF1000B24BF6246394601
:1014F0004EEB0E0E51EA020718BF46F0010616EB3E
:101500000E7655F1000254F1000103D5BDE88901C2
:10151000BDE80088BDE88901BDE80048B619524120
:1015200041EB0101A3F10103704780807F7E7D7C48
:101530007B7A7978777676757473727171706F6E65
:101540006E6D6C6C6B6A6A69686867666665646410
:10155000636362616160605F5F5E5E5D5D5C5C5B9A
:101560005B5A5A5959585857575656555555545409
:10157000535352525251515050504F4F4F4E4E4D67
:101580004D4D4C4C4C4B4B4B4A4A4A4949494848B3
:1015900048474747474646464545454444444443F3
:1015A00043434342424242414141002B26D477000B
:1015B00021D01CB54FEA370703B44FF010004FF0AD
:1015C00010014FF000000FBCBDE810400BF1010B03
:1015D000BBF1010F08BF5FEA170722BF12F101023A
:1015E00011F101014FF0004143F1000300F0004010
:1015F00043EA00007047F9D35708DAE746EA06469F
:1016000013F1400F4FEA16461FDD13F1200FDFBF25
:1016100016430A46002120335B42C8D0C3F120079D
:1016200046EA064602FA07F74FEA164646EA070672
:10163000C3F1200722FA03F201FA07F721FA03F1B6
:101640004FF0000342EA0702B1E746EA020646EA23
:1016500006464FEA164646EA0106BCBF46EA06467B
:10166000360C4FF000034FF000024FF000019EE7F0
:101670002DE9C048934630B491E8380007C831EAF4
:10168000400C48BF34EA430C03D5FFF7F2FDFFF7E7
:101690008CFFF0BCBDE800882DE9C048934630B40B
:1016A00091E8380007C810F0804F08BF13F0804F52
:1016B00003D100F005F8FFF778FFF0BCBDE8008823
:1016C00020F07F4780EA030023F07F4C07EB0C03F8
:1016D000A3F57C5300F00040A3F1FE0392F0000F4D
:1016E00000F0B38095F0000F00F077802DE90149FC
:1016F0004FEA11404FEA144621EA004800FB06FC7D
:1017000024EA064708FB06F607FB08F800FB07F784
:1017100018EB06484CEB164C4FEA124B18EB0748F7
:101720004FEA15464CEB174022EA0B4E0BFB06FC2A
:1017300025EA06470EFB06F607FB0EFE0BFB07F736
:101740001EEB064E4CEB164C4FF000061EEB074E00
:101750004CEB174B18EB0B0840F1000018EB0E0B8D
:1017600058EB000840F100008F1A4FF000013CBF19
:10177000C943661B14BFB5EB040C00213CBFC94331
:10178000F61B4FEA17444EEA8E0E27EA04454FEA4D
:101790001C4704FB07622CEA074C05FB07F70CFB10
:1017A00005F604FB0CFC16EB074642EB174216EB62
:1017B0000C4642EB1C421BEB060658EB0202414171
:1017C00046EA9E0601D5BDE80189B619524141EBB2
:1017D0000101A3F10103BDE801894FEA14454FEA75
:1017E000114724EA054621EA074C05FB07F406FBEE
:1017F00007F70CFB06F105FB0CFC11EB074144EB72
:1018000017444FEA124711EB0C4144EB1C4422EA07
:10181000074C05FB07F206FB07F70CFB06F605FB7A
:101820000CFC16EB074642EB174216EB0C4642EB5C
:101830001C456A1854F1000148BF7047B61952415F
:1018400041EB0101A3F10103704795F0000F37D080
:101850004FEA11424FEA144721EA024624EA074CB4
:1018600002FB07F106FB07F70CFB06F402FB0CFC7E
:1018700014EB074441EB17414FEA154714EB0C44B6
:1018800041EB1C4125EA074C02FB07F506FB07F775
:101890000CFB06F602FB0CFC16EB074645EB174566
:1018A00016EB0C4645EB1C42121951F1000148BFE2
:1018B0007047B619524141EB0101A3F10103704792
:1018C0004FEA14454FEA114724EA054621EA074C3E
:1018D00005FB07F106FB07F70CFB06F24FF00006CD
:1018E00005FB0CFC12EB074241EB174112EB0C42DB
:1018F00051EB1C4148BF7047921841EB0101A3F125
:10190000010370472DE9F0419CB001210F023846D8
:101910000EF034F8012188050EF00CF8202601960F
:1019200003258DF8085000248DF80B40DFF85C810A
:1019300001A9404603F0E2FE402001908DF80850D6
:101940008DF80B4001A9404603F0D8FE102001900D
:101950008DF808508DF80B40DFF8348101A940461E
:1019600003F0CCFE01968DF808508DF80B4001A9CC
:10197000404603F0C3FE012601968DF808508DF80D
:101980000B40DFF8108101A9404603F0B7FE0220AA
:1019900001908DF808508DF80B4001A9404603F0E6
:1019A000ADFE03943C4804903C48059006944FF4E7
:1019B000967007900894B002099040000A90800049
:1019C0000B900C9700010D900E940F9610941194AB
:1019D000334D03A9284602F0A5FA0121284602F05A
:1019E0007DFA01221021284602F083FA02F038FA2B
:1019F000294D01214C3D284600F0C6F9129413945C
:101A00001494159412A800F0A7F916948DF85C6050
:101A10008DF85D6019941A9406208DF86C0016A953
:101A2000284600F0C7F9042301220521284600F0CA
:101A3000E7F9002302220621284600F0E1F90023FD
:101A400003220821284600F0DBF9002304220921A3
:101A5000284600F0D5F9002305220E21284600F083
:101A6000CFF9002306220F21284600F0C9F90121F1
:101A7000284600F065F9284600F000FA01212846C2
:101A800000F08DF91CB0BDE8F081000000000240BC
:101A900000080240000402404C2001406C08002075
:101AA000106402402DE9F04F0020A24A4FF00609D1
:101AB00002F5167402F5487502F5617602F57A773B
:101AC00002F52F7C9C4902F24C484FF4967E4CE084
:101AD000B0FBF9F309FB130353B1012B12D0022B16
:101AE0001AD0032B22D0042B2AD0052B32D03AE077
:101AF00032F810B091F800A00AF101030B7024F83D
:101B00001AB030E032F810B091F801A00AF10103E8
:101B10004B7028F81AB026E032F810B091F802A005
:101B20000AF101038B7025F81AB01CE032F810B0EE
:101B300091F803A00AF10103CB702CF81AB012E05F
:101B400032F810B091F804A00AF101030B7127F8E4
:101B50001AB008E032F810B091F805A00AF10103BC
:101B60004B7126F81AB0401C80B27045B0D30022E9
:101B70000A704A708A70CA700A714A7191460020D0
:101B800004E034F810309944401CC0B23228F8D335
:101B9000C879DFF8A8A13223282807D2B9FBF3F0CF
:101BA000CC792AF814004FF0000910E0002401203D
:101BB00004E03AF810904C44401CC0B22728F8D3F7
:101BC0002720B4FBF0F048824FF00009CA71C879B1
:101BD000401CC871002004E035F81040A144401CAE
:101BE000C0B23228F8D38879DFF850A11224AAF1C4
:101BF000280A142806D2B9FBF3F08D792AF81500CB
:101C000000250EE00025012004E03AF810904D4434
:101C1000401CC0B21328F8D3B5FBF4F0C8810025EE
:101C20008A718879401C8871002004E036F8109091
:101C30004D44401CC0B23228F8D3487ADFF8FC90FB
:101C4000132609F1A009142806D2B5FBF3F04D7A4A
:101C500029F8150000250EE00025012004E039F8E0
:101C600010A05544401CC0B21328F8D3B5FBF6F0C1
:101C7000088200254A72487A401C4872002004E01D
:101C800037F810904D44401CC0B23228F8D3087A7F
:101C90002A4F7837142806D2B5FBF3F00D7A27F8CF
:101CA000150000250EE00025012004E037F8109013
:101CB0004D44401CC0B21328F8D3B5FBF6F0C882DF
:101CC00000250A72087A401C0872002004E03CF8E3
:101CD00010603544401CC0B23228F8D3887A174EC1
:101CE0005036142806D2B5FBF3F08A7A26F8120093
:101CF00000240EE00025012004E036F810703D4479
:101D0000401CC0B21328F8D3B5FBF4F0888200243D
:101D10008A72887A401C8872002004E038F810200B
:101D20001444401CC0B23228F8D3B4FBF3F08881CD
:101D3000BDE8F08F6C08002044000020440D002016
:101D400021B1816841F0010181607047816821F013
:101D5000010181607047000010B5094C22680949F3
:101D600002EA0102D0E9001341EA0301D0E902309E
:101D700043EA000341EA030141EA0201216010BD88
:101D800004230140E030FCFF21B1816841F48071FF
:101D900081607047816821F480718160704721B152
:101DA000816841F4007181607047816821F400719D
:101DB0008160704730B542680F4B1A400C790B6850
:101DC00042EA04221343436083680C4A1340D1E97A
:101DD000034222434D798C6844EA450422431A4366
:101DE0008260C26A22F47002097D491EC9B242EAC9
:101DF0000151C16230BD0000FFFEFFFCFDF7FFC0D6
:101E000070B5072609290ED9D0F80CC0A1F10A0433
:101E100004EB4404A6402CEA060CA3404CEA030C55
:101E2000C0F80CC007E0056901EB4104A640B543CA
:101E3000A3401D4305611F23072A09D2446B521E8C
:101E400002EB820293409C4391400C43446370BD7B
:101E50000D2A09D2046BD21F02EB820293409C43ED
:101E600091400C43046370BDC46A0D3A02EB8202D8
:101E700093409C4391400C43C46270BD816841F023
:101E8000804181607047002800DC404270470000BC
:101E900005484FF4006100680206044801D403F0CD
:101EA00083BC03F07FBC000034000020000402402B
:101EB0000549086840F00400044B00221A8020F015
:101EC000800008607047000034000020640000209B
:101ED00038B5456804460146284611F0ABFB00289A
:101EE0002AD02068304A0F2819D006DC0B2824D0CD
:101EF0000C2810D00E2851D12FE0112802D028280C
:101F00004CD145E09268002A16D02146284601B0FF
:101F1000BDE830401047214628465268F7E728467A
:101F200004F08AFB0090406E0468684604F0CEFB23
:101F3000002C01D02846A04738BD284604F07CFB81
:101F40000090683004F0E0FA009803216C3004F04F
:101F5000E3FA684604F0BAFB20E0E16848680968E3
:101F60000D2902D0202913D105E0002810DD2846D4
:101F700018F032F906E0002804DD2846BDE83840B4
:101F800018F02AB92846BDE83840022118F03AB9BD
:101F9000E06818B90021284600F097F92046BDE80E
:101FA000384011F0BBBF0000F0010020F0B504463E
:101FB00085B08069B4F90850668A0027CDE90265CA
:101FC000CDE900170490B4F90C00B4F91060C11801
:101FD000B4F90A00B4F90E50104433462A4600F012
:101FE00007F80546616800F079F905B02846F0BDAC
:101FF000F0B585B00C46DDE90D514C31DFF850C02D
:10200000DDE90A67CDE902C12146CDE9006711F09B
:10201000D5FE040018D004F00FFB102229460490CE
:1020200011F02CFD049830220A493430FEF74DFBA4
:10203000084D04990C3D2868486604A804F046FB46
:10204000286841682046884705B02046F0BD00005A
:10205000D11E0008FC010020F0B5044680688B49C1
:1020600089B051F82050606800287DD0052804D040
:1020700006287AD0122879D1AEE0E86900284FD03E
:1020800095E80E008DE80F0004F110010FC906F06D
:102090006BFD002655F8260005F0AAFEA169E86947
:1020A0000A1A216901446069304405F047F8A169C2
:1020B000E8690A1A21690144E069801B05F03EF8CD
:1020C000E169E8690A1A616901442069304405F050
:1020D000D5F8E169E8690A1A61690144A069801BC1
:1020E00005F0CCF8761C022ED4DBA86805F080FE43
:1020F000E069E9696669431A20694218521E314451
:10210000801C05F025F9E169E869A2690B1A61698B
:102110000144101A401C921E05F01AF9EE6913E0F2
:102120005FF0000655F8260005F062FEE069831BAB
:10213000A069821B606981192069304405F060F84C
:10214000761C022EEEDB0226D5E90301CDE9000163
:102150006169E06908444310A069891C821B2069F9
:10216000304404F093FF02E089E012E08AE0D5E910
:102170000501CDE90001E36960690121184401EB23
:102180006001A0699B1E821B2069304404F07EFF21
:1021900078E0206804F050FA0490206812F0EEFE17
:1021A00040B1A06808B1002008E00498006F28B191
:1021B000012003E00498406F00B10220049901EB74
:1021C0008000C56E04A804F081FA00231A46284650
:1021D000216804F00DFD55E0206804F02DFA04900C
:1021E000866EEEB3B0F95C70A168D1B3032942D01A
:1021F0005FF0000100EB8101406D0C6C05F002FE08
:10220000204605F0F5FD05A805F0F2F8BDF814101C
:10221000A88B0144ADF81410BDF81810081AADF8D9
:102220001800BDF81600801CADF81600BDF81A00A5
:10223000801EADF81A0004985E30B0F90220B0F9A3
:10224000001005A805F032FD04A804F03FFA0220B2
:1022500005F018FE304604F0EFF93A4605A901E012
:102260000BE006E0079004F0BBFD07A804F02EFA8F
:1022700008E00121BEE70221BCE704A8F6E72068D8
:1022800012F040FB09B00020F0BD00008CF4020801
:10229000044A0349116004494A6A4862104670477B
:1022A0002C020020F0010020FC01002038B50D4672
:1022B000040009D004F0C0F900904565684604F0B8
:1022C00005FA204612F021F938BD4FF4807200293A
:1022D000114601D011F038BA11F089B92DE9FF414A
:1022E0000E4605004FF001041CD004F0A5F9019042
:1022F000876E01A8009704F0E9F93146684606F0B8
:1023000013FF78B100980024B84208D0284604F0A2
:1023100093F901900099816601A804F0D7F9284645
:1023200012F0F3F804B02046BDE8F081F8B5154688
:102330000C4606000DD004F07FF90090032C02D269
:1023400000EB84000564684604F0C0F9304612F0E2
:10235000DCF8F8BDFEE700002DE9F05F7C4D297840
:102360007C486FF0704619393711826940F66F0466
:102370004FF4076840F6770940F6780A40F6710B8B
:102380000C2925D2DFE801F0062645642424242404
:1023900083A324C481462146104611F0CDFE044695
:1023A0003146204610F0A4F93946204610F0F2F9E3
:1023B0004146D9F8180011F0BFFE04466649204690
:1023C00010F096F90021204610F0E4F91A20287048
:1023D000BDE8F09F41468046104611F0ADFE044630
:1023E0003146204610F084F93946204610F0D2F9E3
:1023F0004946D8F8180011F09FFE04465649204679
:1024000010F076F90021204610F0C4F91B20287046
:10241000DEE780464946104611F08EFE04463146FE
:10242000204610F065F93946204610F0B3F95146C0
:10243000D8F8180011F080FE04464749204610F0F5
:1024400057F90021204610F0A5F91C202870BFE79D
:1024500080465146104611F06FFE04463146204634
:1024600010F046F93946204610F094F95946D8F84C
:10247000180011F061FE04463749204610F038F983
:102480000021204610F086F921202870A0E7804620
:102490005946104611F050FE04463146204610F0D1
:1024A00027F93946204610F075F940F67901D8F839
:1024B000180011F041FE04462749204610F018F993
:1024C0000021204610F066F92220287080E780461F
:1024D00040F67901104611F02FFE044631462046A1
:1024E00010F006F93946204610F054F940F6720112
:1024F000D8F8180011F020FE04461749204610F0C5
:10250000F7F80021204610F045F9242028705FE7F5
:10251000814640F67201104611F00EFE80463146AB
:10252000404610F0E5F83946404610F033F92146B0
:10253000D9F8180011F000FE04460749204610F0B3
:10254000D7F80021204610F025F9192028703FE720
:10255000DA00002028010020FFFFBF002DE9F0472E
:102560002DED028B82B0F7480178DFF8E493F64A4C
:10257000F64D0127D9F818004FF0000819293DD071
:102580001A2978D0F34A1B2976D01C2931D199F821
:102590000E3040F6780140F67C0A022B6DD099F897
:1025A0000E30012B25D1D46811F0C6FD06462878DF
:1025B00000287CD0E849304610F0B5F8E7A1304655
:1025C00010F0C3F85146D9F8180011F0B5FD0546D2
:1025D000204622F0C3F841EC100BE3A153EC102B82
:1025E0006846FDF777FE6946284610F0AEF889F890
:1025F0000E8002B0BDEC028BBDE8F08799F80B109D
:102600009FEDDB0A40F66F031E1D012936D099F8B5
:102610000B100229EDD1B2F8401000EE901AF8EE3E
:10262000600A80EE808A194611F086FD04462878FB
:1026300000285CD0C849204610F075F8CDA120468E
:1026400010F083F83146D9F8180011F075FD0446F2
:1026500018EE100A22F082F841EC100BC2A153ECE4
:10266000102B6846FDF736FE6946204610F06DF8DF
:1026700089F80B70BDE743E0C0E02AE1D18F00EE9E
:10268000901AF8EE600A80EE808A194611F054FD27
:102690000446287810B3B049204610F044F8B8A199
:1026A000204610F052F83146D9F8180000E03FE11A
:1026B00011F042FD044618EE100A22F04FF841ECEA
:1026C000100BA9A153EC102B6846FDF703FE6946D9
:1026D000204610F03AF889F80B808AE7AB4920468B
:1026E00010F021F8AAA1204610F02FF8DBE7A74947
:1026F000204610F018F8AAA1204610F026F8A1E70D
:1027000099F80C109FEDAA0A4FF407631E1D0229C9
:1027100033D099F80C100129ACD1B2F8441000EE76
:10272000901AF8EE600A80EE808A194611F004FDD6
:1027300004462878002858D0874920460FF0F3FF38
:102740009CA1204610F001F83146D9F8180011F08C
:10275000F3FC044618EE100A22F000F841EC100BCE
:1027600081A153EC102B6846FDF7B4FD6946204665
:102770000FF0EBFF89F80C803BE7B2F8461000EE53
:10278000901AF8EE600A80EE808A194611F0D4FCA7
:102790000446287800B3704920460FF0C4FF88A192
:1027A00020460FF0D2FF3146D9F8180011F0C4FCD2
:1027B000044618EE100A21F0D1FF41EC100B6AA17B
:1027C00053EC102B6846FDF785FD694620460FF057
:1027D000BCFF89F80C700CE76C4920460FF0A3FF92
:1027E0007AA120460FF0B1FFDDE7684920460FF0DF
:1027F0009AFF7AA120460FF0A8FFA5E799F80D30BF
:1028000040F6770140F67B0A022B2AD099F80D306A
:10281000012BB1D1146811F08FFC064628780028EE
:102820004ED04D4930460FF07EFF70A130460FF07C
:102830008CFF5146D9F8180011F07EFC0546204661
:1028400021F08CFF41EC100B47A153EC102B684694
:10285000FDF740FD694628460FF077FF89F80D80A7
:10286000C7E6546811F068FC06462878F8B13A4982
:1028700030460FF058FF60A130460FF066FF51461A
:10288000D9F8180011F058FC0546204621F066FFE3
:1028900041EC100B34A153EC102B6846FDF71AFDE8
:1028A000694628460FF051FF89F80D70A1E63749B7
:1028B00030460FF038FF53A130460FF046FFDEE7F9
:1028C000324930460FF02FFF52A130460FF03DFF46
:1028D000AFE7146911F030FC06462878F8B11E49BC
:1028E00030460FF020FF4FA130460FF02EFF51462B
:1028F000D9F8180011F020FC0546204621F02EFFE3
:1029000041EC100B18A153EC102B6846FDF7E2FCCC
:10291000694628460FF019FF89F80E7069E61B49D1
:1029200030460FF000FF42A130460FF00EFFDEE709
:10293000164930460FF0F7FE41A130460FF005FF73
:1029400040E60000DA0000204C0E0020D9000020F4
:1029500028010020C8860020ECD202084375746F5D
:102960006666204331000000252E3266000000001C
:102970000000C8424F757470757420563200000014
:102980004F75747075742056310000006CB60208E3
:10299000E8BE93E587BAE794B5E58E8B3100000079
:1029A000E8BE93E587BAE794B5E58E8B3200000068
:1029B00000007A444C696D6974696E672043310088
:1029C0004C696D6974696E6720433200E99990E53E
:1029D00088B6E794B5E6B58132000000E99990E544
:1029E00088B6E794B5E6B581310000004375746F91
:1029F00066662056310000004375746F6666205687
:102A000032000000E688AAE6ADA2E794B5E58E8B19
:102A100032000000E688AAE6ADA2E794B5E58E8B09
:102A2000310000004375746F666620433200000079
:102A3000E688AAE6ADA2E794B5E6B58132000000CB
:102A4000E688AAE6ADA2E794B5E6B58131000000BC
:102A50002DE9F0472DED028B82B0F7480178DFF8C1
:102A6000E493F64AF64D0127D9F818004FF0020812
:102A700019293DD01A2977D0F34A1B2975D01C2972
:102A800031D199F80E3040F6780140F67C0A002BDF
:102A90006DD099F80E30012B25D1546911F04CFB03
:102AA0000646287800287DD0E84930460FF03BFEE6
:102AB000E7A130460FF049FE5146D9F8180011F051
:102AC0003BFB0546204621F049FE41EC100BE3A1FB
:102AD00053EC102B6846FDF7FDFB694628460FF0C6
:102AE00034FE89F80E8002B0BDEC028BBDE8F087A1
:102AF00099F80B109FEDDB0A40F66F031E1DA9B37A
:102B000099F80B100129EED1B2F8421000EE901A9C
:102B1000F8EE600A80EE808A194611F00DFB04463B
:102B2000287800285ED0C94920460FF0FCFDCEA1D0
:102B300020460FF00AFE3146D9F8180011F0FCFAD1
:102B4000044618EE100A21F009FE41EC100BC3A157
:102B500053EC102B6846FDF7BDFB694620460FF08D
:102B6000F4FD89F80B80BEE745E0C2E000E02AE111
:102B7000B2F8401000EE901AF8EE600A80EE808AFB
:102B8000194611F0D9FA0446287810B3AF49204607
:102B90000FF0C9FDB7A120460FF0D7FD3146D9F897
:102BA000180000E03EE111F0C7FA044618EE100AE2
:102BB00021F0D4FD41EC100BA8A153EC102B68467A
:102BC000FDF788FB694620460FF0BFFD89F80B70C2
:102BD00089E7AB4920460FF0A6FDAAA120460FF0D9
:102BE000B4FDDBE7A64920460FF09DFDA9A12046D4
:102BF0000FF0ABFD9FE799F80C109FEDAA0A4FF478
:102C000007631E1D99B399F80C100129ABD1B2F8D6
:102C1000481000EE901AF8EE600A80EE808A19469D
:102C200011F08AFA04462878002859D087492046AE
:102C30000FF079FD9CA120460FF087FD3146D9F8B1
:102C4000180011F079FA044618EE100A21F086FDFA
:102C500041EC100B81A153EC102B6846FDF73AFBB9
:102C6000694620460FF071FD89F80C803BE7FFE7CD
:102C7000B2F8461000EE901AF8EE600A80EE808AF4
:102C8000194611F059FA0446287800B36F492046D6
:102C90000FF049FD87A120460FF057FD3146D9F8C6
:102CA000180011F049FA044618EE100A21F056FDFA
:102CB00041EC100B69A153EC102B6846FDF70AFBA1
:102CC000694620460FF041FD89F80C700BE76C490E
:102CD00020460FF028FD7AA120460FF036FDDDE7F3
:102CE000674920460FF01FFD79A120460FF02DFD0A
:102CF000A4E799F80D3040F6770140F67B0A53B30C
:102D000099F80D30012BB1D1946811F015FA0646EF
:102D1000287800284ED04D4930460FF004FD70A1B0
:102D200030460FF012FD5146D9F8180011F004FAA0
:102D30000546204621F012FD41EC100B47A153EC53
:102D4000102B6846FDF7C6FA694628460FF0FDFCD1
:102D500089F80D80C7E6546811F0EEF90646287828
:102D6000F8B13A4930460FF0DEFC60A130460FF072
:102D7000ECFC5146D9F8180011F0DEF90546204662
:102D800021F0ECFC41EC100B34A153EC102B684605
:102D9000FDF7A0FA694628460FF0D7FC89F80D70B8
:102DA000A1E6374930460FF0BEFC53A130460FF084
:102DB000CCFCDEE7324930460FF0B5FC52A130467C
:102DC0000FF0C3FCAFE7146911F0B6F90646287896
:102DD000F8B11E4930460FF0A6FC4FA130460FF067
:102DE000B4FC5146D9F8180011F0A6F90546204662
:102DF00021F0B4FC41EC100B18A153EC102B6846E9
:102E0000FDF768FA694628460FF09FFC89F80E70B6
:102E100069E61B4930460FF086FC42A130460FF0B0
:102E200094FCDEE7164930460FF07DFC41A13046A8
:102E30000FF08BFC40E60000DA0000204C0E002072
:102E4000D900002028010020C8860020ECD202080A
:102E50004375746F6666204333000000252E32668A
:102E6000000000000000C8424F7574707574205651
:102E7000330000004F7574707574205632000000E6
:102E80006CB60208E8BE93E587BAE794B5E58E8B89
:102E900032000000E8BE93E587BAE794B5E58E8B73
:102EA0003300000000007A444C696D6974696E67F4
:102EB000204333004C696D6974696E6720433200AA
:102EC000E99990E588B6E794B5E6B581320000004F
:102ED000E99990E588B6E794B5E6B581330000003E
:102EE0004375746F66662056330000004375746F37
:102EF0006666205632000000E688AAE6ADA2E79496
:102F0000B5E58E8B32000000E688AAE6ADA2E79414
:102F1000B5E58E8B330000004375746F6666204301
:102F200032000000E688AAE6ADA2E794B5E6B581D6
:102F300032000000E688AAE6ADA2E794B5E6B581C6
:102F4000330000002DE9F05F7D4D29787D48193967
:102F500040F66F0782696FF070464FF4076840F6DD
:102F6000770940F6780A40F6710B40F679040C298F
:102F700026D2DFE801F0062747662525252585A40A
:102F800025C339460746104611F0D6F804463146A7
:102F900020460FF0ADFB6FF07F4120460FF0FAFBAB
:102FA00040F67201B86911F0C7F804466649204638
:102FB0000FF09EFB002120460FF0ECFB2420287030
:102FC000BDE8F09F41468046104611F0B5F8044632
:102FD000314620460FF08CFB6FF07F4120460FF00A
:102FE000D9FB3946D8F8180011F0A6F8044656491E
:102FF00020460FF07DFB002120460FF0CBFB19206F
:103000002870DDE707464946104611F095F804465A
:10301000314620460FF06CFB6FF07F4120460FF0E9
:10302000B9FB4146B86911F087F804464649204685
:103030000FF05EFB002120460FF0ACFB1A20287039
:10304000BEE707465146104611F076F80446314671
:1030500020460FF04DFB6FF07F4120460FF09AFBAA
:103060004946B86911F068F80446374920460FF020
:103070003FFB002120460FF08DFB1B2028709FE7AF
:1030800007465946104611F057F804463146204687
:103090000FF02EFB6FF07F4120460FF07BFB514677
:1030A000B86911F049F80446274920460FF020FB83
:1030B000002120460FF06EFB1C20287080E7074699
:1030C0002146104611F038F80446314620460FF0EC
:1030D0000FFB6FF07F4120460FF05CFB5946B8694B
:1030E00011F02AF80446184920460FF001FB002190
:1030F00020460FF04FFB2120287061E7804640F604
:103100007201104611F018F80746314638460FF0A4
:10311000EFFA6FF07F4138460FF03CFB2146D8F8BC
:10312000180011F009F80446074920460FF0E0FAAC
:10313000002120460FF02EFB2220287040E70000DF
:10314000DA00002028010020FFFFBF002DE9F04F2A
:103150002DED048B83B0FE48408E00EE100AB8EED1
:10316000400ADFEDFC0A80EE208AF948808E00EEEE
:10317000100AB8EE400ADFEDF70AC0EE208AF448E4
:10318000C08E00EE100AB8EE400ADFEDF20A80EEC3
:10319000209AEF48008F00EE100AB8EE400ADFEDEB
:1031A000ED0AC0EE209AEC480178EF481939012465
:1031B000EA4DEB4EEB4F806940F66F0940F6730A1B
:1031C0004FF4076B40F67908102932D2DFE801F09E
:1031D0000897FCFB36C1FAF9F8F7F6F5F4F3F2F1CB
:1031E0004946E14F10F0A8FF06466FF070413046A7
:1031F0000FF07EFA6FF07F4130460FF0CBFA514668
:10320000B86910F099FF0646D84930460FF070FAB9
:10321000002130460FF0BEFA0020D54A002102E01E
:103220001154401CC0B20528FAD3CB491D200870A8
:103230002C7003B0BDEC048BBDE8F08F5146DFF875
:1032400028A310F079FF07466FF0704138460FF061
:103250004FFA6FF07F4138460FF09CFADFF8F082AA
:10326000B8F84C00A8F80200B8F8020000EE100A06
:10327000F8EE400A9FEDB71A80EE810A10EE100AB0
:1032800021F06CFA41EC100BBAA153EC102B01A801
:10329000FDF720F801A938460FF057FA9AF80B000D
:1032A00040B19AF80B00012809D09AF80B000228C7
:1032B0000AD00DE0B8F80200A8F83E0008E0B8F81F
:1032C0000200A8F8400003E0B8F80200A8F84200A5
:1032D0004946DAF8180010F02FFF0746A349384690
:1032E0000FF006FA002138460FF054FA9A491920D7
:1032F00008702C700020307012F09EF899E7594643
:10330000994D10F019FF04466FF0704120460FF000
:10331000EFF96FF07F4120460FF03CFA002094490E
:10332000002202E00A54401CC0B20528FAD340F63D
:103330007401A86910F000FF04468C4920460FF084
:10334000D7F9002120460FF025FA83491E20087086
:103350006FE740F67401DFF8109210F0EDFE0746BB
:103360006FF0704138460FF0C3F96FF07F41384677
:103370000FF010FADFF8D881B8F84E00A8F8040072
:10338000B8F8041041F28830814201D9A8F804004D
:10339000B8F8040000EE100AF8EE400A9FED771A24
:1033A00080EE810A10EE100A21F0D8F941EC100BE2
:1033B0000BE0D7E174E1FDE06DE084E2A7E145E1D7
:1033C00008E2A2E231E2B1E03AE053EC102B69A14D
:1033D00001A8FCF77FFF01A938460FF0B6F999F86C
:1033E0000C0040B199F80C00012809D099F80C00A4
:1033F00002280AD00DE0B8F80400A8F8440008E05C
:10340000B8F80400A8F8460003E0B8F80400A8F8EB
:1034100048005946D9F8180010F08EFE0746534967
:1034200038460FF065F9002138460FF0B3F94A49E4
:103430001A2008702C700020307011F0FDFFF8E6A3
:1034400040F67701484D10F077FE04466FF070416A
:1034500020460FF04DF96FF07F4120460FF09AF9AA
:103460000020434A002102E01154401CC0B205284C
:10347000FAD340F67B01A86910F05EFE04463B4992
:1034800020460FF035F9002120460FF083F932492C
:1034900025200870CDE640F67B01DFF8CC9010F0D7
:1034A0004BFE80466FF0704140460FF021F96FF0FF
:1034B0007F4140460FF06EF918EE100A21F04EF9E8
:1034C00041EC100B2BA153EC102B01A8FCF702FFD1
:1034D00001A940460FF039F999F80D0040B199F86B
:1034E0000D00012807D099F80D00022806D007E04A
:1034F00087ED008A04E087ED018A01E087ED028A0A
:1035000040F67701D9F8180010F016FE0746174963
:1035100038460FF0EDF8002138460FF03BF90E4920
:103520001B2008702C700020307082E640F6780175
:103530000D4D10F001FE04466FF0704120460FF073
:10354000D7F86FF07F4120460FF024F9002017E0F4
:103550004C0E00200000C842DA000020CC00002001
:10356000CD000020C886002028010020FFFFBF00FA
:1035700000010020252E32660000000000007A4481
:10358000F54A002102E01154401CC0B20528FAD3CC
:1035900040F67C01A86910F0CFFD0446EF492046B3
:1035A0000FF0A6F8002120460FF0F4F8EC49262091
:1035B00008703EE640F67C01DFF8A89310F0BCFDF1
:1035C00080466FF0704140460FF092F86FF07F41F7
:1035D00040460FF0DFF818EE900A21F0BFF841ECFA
:1035E000100B53EC102BAFF2740101A8FCF772FE24
:1035F00001A940460FF0A9F899F80E0040B199F8DA
:103600000E00012807D099F80E00022806D007E026
:10361000C7ED038A04E0C7ED048A01E0C7ED058A1F
:1036200040F67801D9F8180010F086FD0746CB491E
:1036300038460FF05DF8002138460FF0ABF8C84966
:103640001C2008702C7000203070F2E54146C54DFA
:1036500010F072FD04466FF0704120460FF048F8FC
:103660006FF07F4120460FF095F80020BA49002204
:1036700002E00A54401CC0B20528FAD340F67D018E
:10368000A86910F059FD0446B44920460FF030F8FF
:10369000002120460FF07EF8B14927200870C8E5C8
:1036A00040F67D01DFF8BC9210F046FD07466FF052
:1036B000704138460FF01CF86FF07F4138460FF02C
:1036C00069F819EE100A21F049F841EC100B53EC9F
:1036D000102BAFF2601101A8FCF7FCFD01A93846E0
:1036E0000FF033F84146D9F8180010F025FD0746D1
:1036F0009A4938460EF0FCFF002138460FF04AF890
:103700009749222008702C700020307091E540F617
:103710007A01944D10F010FD04466FF07041204680
:103720000EF0E6FF6FF07F4120460FF033F80020E7
:10373000894A002102E01154401CC0B20528FAD386
:1037400040F67E01A86910F0F7FC04468349204644
:103750000EF0CEFF002120460FF01CF880492820F3
:10376000087066E540F67E01DFF8F88110F0E4FCB1
:1037700007466FF0704138460EF0BAFF6FF07F4198
:1037800038460FF007F819EE900A20F0E7FF41ECF9
:10379000100B53EC102BAFF2242101A8FCF79AFD7B
:1037A00001A938460EF0D1FF40F67A01D8F818008A
:1037B00010F0C2FC0746694938460EF099FF002117
:1037C00038460EF0E7FF6649232008702C70002071
:1037D00030702EE540F67101624D10F0ADFC0446EC
:1037E0006FF0704120460EF083FF6FF07F4120465E
:1037F0000EF0D0FF00205849002202E00A54401C7D
:10380000C0B20528FAD340F67501A86910F094FCFF
:103810000446524920460EF06BFF002120460EF070
:10382000B9FF4F491F20087003E540F67501DFF826
:10383000348110F081FC07466FF0704138460EF07D
:1038400057FF6FF07F4138460EF0A4FF4648B0F8AE
:1038500052100181018940F2DC52914201D90021CC
:103860000181008900EE100AF8EE400A1FEDC71A28
:1038700080EE810A10EE100A20F070FF41EC100B70
:1038800053EC102BAFF2143101A8FCF723FD01A972
:1038900038460EF05AFF40F67101D8F8180010F0C3
:1038A0004BFC07462D4938460EF022FF00213846D2
:1038B0000EF070FF2A49212008702C700020307013
:1038C00011F0BAFDB5E440F67201264D10F034FC5B
:1038D00004466FF0704120460EF00AFF6FF07F4102
:1038E00020460EF057FF40F67601A86910F024FC40
:1038F00004461A4920460EF0FBFE002120460EF039
:1039000049FF17492020087093E440F67601DFF85C
:10391000548010F011FC07466FF0704138460EF0ED
:10392000E7FE6FF07F4138460EF034FF40F672013B
:10393000D8F8180010F000FC0746084938460EF089
:10394000D7FE002138460EF025FF054924200870D7
:103950002C70002030706CE400010020FFFFBF00DD
:10396000DA000020280100204C0E002070B5134D15
:1039700069792846124E806940F6990201290FD0D4
:10398000114610F0D9FB04466FF0704120460EF04E
:10399000AFFE314620460EF0FDFE2F20287070BD90
:1039A000114610F0C9FB0446314620460EF0A0FE39
:1039B0002046BDE8704000210EF0ECBE4C01002016
:1039C000FFFFBF002DE9FF470446006810B111F06A
:1039D000D5FA68B10022314850F8221060680A28F0
:1039E00041D007DCF0B306280DD0072854D106E0FB
:1039F0000122F0E712280AD019284DD137E02046DD
:103A000012F006FC48E0204613F080FD44E02068F8
:103A100002F012FE0290B0F9548090F85650476CB4
:103A2000466B02A802F052FE206800F039F8814689
:103A3000684610F059FBBDF8001009EB050008447A
:103A4000ADF80000246A304604F0DCF9022004F0EE
:103A500019FA384604F0CCF942466946204603F08C
:103A6000BFF919E007E0204614F03CF814E088693B
:103A700004B0BDE8F087206810F044FF206802F031
:103A8000DBFD0390B0F90610B0F90220891A491C39
:103A9000C16703A802F01AFE0020E9E79CF40208BF
:103AA00038B502F0C9FD0090C46F684602F00EFE02
:103AB000204638BD044A034911600449CA69C861F7
:103AC00010467047B80200208006002084060020BF
:103AD00000B589B024216846FCF731FE1920019019
:103AE00003480068806841686846884709B000BD9F
:103AF000800600201CB5154901200870144A1921C0
:103B00001170144900240C70134908701348B0F860
:103B10004C104180B0F84E108180B0F852100181F5
:103B2000702168200FF0CBF94FF480510C4801F060
:103B300039FE10F0F5FA034600940A4A27210A4894
:103B4000019402F071FF094988611CBDCE0000207C
:103B5000DA0000206C000020780000204C0E0020CD
:103B6000000C0240BDFC0108AC4F020828010020F7
:103B70001CB50E48002404700D4804700D480470F4
:103B8000702168200FF09BF94FF480510A4801F032
:103B900009FE10F0C5FA03460094084A07210848B8
:103BA000019402F041FF074908601CBDCE000020CF
:103BB000780000206C000020000C024085F801080D
:103BC000E84E0208140100207CB50D4C1320A073B0
:103BD0000320A0700B490870002525720A48818DCA
:103BE00001810A48057010F09BFA03460095084AC7
:103BF0001A210848019502F017FF20627CBD0000E1
:103C0000CC000020780000204C0E00206C0000202A
:103C1000C1E00108504A02081CB50F490520087090
:103C20000E48002404700E480470702168200FF0C4
:103C300046F94FF480510B4801F0B4FD10F070FAD2
:103C400003460094084A20210848019402F0ECFE43
:103C5000074948601CBD0000CE000020DA000020AB
:103C60006C000020000C0240A9150208F053020865
:103C7000440100201CB51449022008701349087043
:103C80001349092008701348002404701248B0F842
:103C900050104180B0F854108180702168200FF0DE
:103CA0000EF94FF480510D4801F07CFD10F038FA08
:103CB000034600940A4A12210A48019402F0B4FE15
:103CC000094948601CBD0000CE000020780000209B
:103CD000DA0000206C0000204C0E0020000C024096
:103CE00095D8010858480208C40000201CB51249A4
:103CF00004200870114908701149172008701148F4
:103D0000B0F84A1001811048002404707021682026
:103D10000FF0D5F84FF480510C4801F043FD10F03E
:103D2000FFF9034600940A4A10210A48019402F060
:103D30007BFE094948601CBDCE00002078000020B1
:103D4000DA0000204C0E00206C000020000C024025
:103D5000792A0208284D0208080100201CB510F03D
:103D6000DFF9002403460094074A11210748019413
:103D700002F05AFE06498861064A1470064B072273
:103D80001A702F220A701CBD3124020870570208D5
:103D90004C0100206C000020CE000020054B0122C9
:103DA000824019B118681043186070471868904332
:103DB000186070470074004010B586B001214807B4
:103DC0000BF0D0FD1020009003208DF8040000249B
:103DD0008DF8074069460C4801F090FC029403946A
:103DE0004FF4306004900220059002A9002000F0FA
:103DF0000DF801210020FFF7D1FF0121002000F084
:103E00001FF806B010BD00000000024030B5084C9D
:103E1000236840F6FE7282409343D1E900252A438D
:103E2000D1E902510D432A4382401A43226030BD3A
:103E300000740040014A10448160704700740040E3
:103E40000209064B0120904019B11968014319601D
:103E5000704719688143196070470000047400407E
:103E600008B538208DF8000003208DF801008DF88A
:103E7000020001208DF80300684609F05DFA08BDD4
:103E800001480068704700000403002010B5054990
:103E9000054800F00DF80548016841F00201016095
:103EA00010BD00002080001010640240340000208B
:103EB000074A904201D2074801E005481038064AF7
:103EC0008B0001EA020101D5C16070478160704733
:103ED00010640240006002407D0F7D0F21B1016837
:103EE00041F0010101607047016821F001010160AA
:103EF00070470B0609D522B1436943F08003436143
:103F000003E0436923F080034361802905D001F079
:103F10001E011AB102680A430260704702688A43B0
:103F20000260704730B50368124A1340CC680A68D3
:103F30002243D1E905452C432243CC6922430C6A34
:103F400022434C6A22438C6A22434C6B22438C6B83
:103F500022431A430260426922F00703D1E90B248D
:103F600022431A4342610A6942604A688260896852
:103F7000C16030BD3F801CF0F8B50546006802F016
:103F80005BFB0090448ED0F88860684602F09EFB90
:103F900006B1012604F00104286810F0EFFF0EB10D
:103FA000002006E00CB1012003E008B1022000E08F
:103FB00003201B4951F82010686858B302280CD020
:103FC000052802D0122828D103E0284612F04CF927
:103FD00023E0284614F01BFA1FE06A69E8694FF0F5
:103FE000FF33801AA0F1080203EB6204421CAB69A4
:103FF000001B4510A3EB6206C86903F0F9FE06E05A
:104000003219311B284603F099F8641E6D1C002CF0
:10401000F6DA02E0286810F075FC0020F8BD000018
:10402000FCF40208044A0349116004490A6B08635E
:104030001046704708030020C0060020C406002078
:1040400038B50D46002402F0F7FA0090C06B2946FF
:1040500002F0D4FB0546684602F038FB1DB1284645
:1040600002F0EAFA0446204638BD704730B50446EF
:104070004FF47A7502E0284600F006F82300A4F118
:10408000010084B2F7D130BD00220BE0042100BF53
:1040900000BF00BF00BF00BF491E0904090CF6D1D4
:1040A000521C92B28242F1D37047000010B52DED40
:1040B000028B24490A78244CB2EE048A022AE06872
:1040C0001FD00978032939D1204991ED000A20EE4B
:1040D000080ABDEEC00A10EE101A09B201F03CFC4D
:1040E0001B4890ED000A20EE080ABDEEC00A10EE53
:1040F000100A01B22069BDEC028BBDE8104001F04E
:104100002BBC144991ED000A20EE080ABDEEC00A4E
:1041100010EE101A09B201F01FFC0F4890ED000AD2
:1041200020EE080ABDEEC00A10EE100A01B22069A6
:10413000BDEC028BBDE8104001F00EBCBDEC028B63
:1041400010BD00007900002014010020280000208C
:1041500030000020240000202C00002010B5044670
:104160001FF0F6F9A0201FF0C5F91FF021FA68B979
:1041700020461FF0BFF91FF01BFA38B91FF0E8F90D
:10418000A1201FF0B7F91FF013FA18B11FF0FCF9C6
:10419000002010BD1FF08CF9034C20701FF070F947
:1041A0001FF0F2F9207810BD6200002070B50120E8
:1041B000FFF7D4FFFE4C2060206800022060022040
:1041C000FFF7CCFF216808442060206800022060CF
:1041D0000320FFF7C3FF2168084420602068000225
:1041E00020600420FFF7BAFF2168084420604020C7
:1041F000FFF7B4FF2062206A000220624120FFF72F
:10420000ADFF216A08442062206A00022062422039
:10421000FFF7A4FF216A08442062206A000220629E
:104220004320FFF79BFF216A084420620520FFF727
:1042300095FF60606068000260600620FFF78EFFF7
:104240006168084460606068000260600720FFF7F2
:1042500085FF616808446060606800026060082053
:10426000FFF77CFF6168084460603320FFF776FF4A
:10427000A060A0680002A0603420FFF76FFFA16873
:104280000844A060A0680002A0603520FFF766FF28
:10429000A1680844A060A0680002A0603620FFF773
:1042A0005DFFA1680844A0600920FFF757FFE060A8
:1042B000E0680002E0600A20FFF750FFE168084470
:1042C000E060E0680002E0600B20FFF747FFE16874
:1042D0000844E060E0680002E0600C20FFF73EFF69
:1042E000E1680844E0600D20FFF738FFB14D2880F9
:1042F0002888000228800E20FFF730FF2988084414
:1043000028804420FFF72AFF2883288B0002288377
:104310004520FFF723FF298B084428830F20FFF750
:104320001DFF68806888000268801020FFF716FF74
:104330006988084468803720FFF710FFA880A888A4
:104340000002A8803820FFF709FFA9880844A88048
:104350001120FFF703FFE880E8880002E8801220C0
:10436000FFF7FCFEE9880844E8801320FFF7F6FE1B
:1043700028814620FFF7F2FEE8821420FFF7EEFEC8
:1043800020612069000220611520FFF7E7FE216906
:10439000084420612069000220611620FFF7DEFE3C
:1043A0002169084420612069000220611720FFF77D
:1043B000D5FE2169084420611820FFF7CFFE606117
:1043C0006069000260611920FFF7C8FE6169084456
:1043D00060616069000260611A20FFF7BFFE6169D9
:1043E000084460616069000260611B20FFF7B6FE4F
:1043F0006169084460613920FFF7B0FEA061A069DF
:104400000002A0613A20FFF7A9FEA1690844A0615B
:10441000A0690002A0613B20FFF7A0FEA16908444B
:10442000A061A0690002A0613C20FFF797FEA1698E
:104430000844A0611C20FFF791FE68816889000292
:1044400068811D20FFF78AFE6989084468811E2063
:10445000FFF784FEA881A8890002A8811F20FFF72A
:104460007DFEA9890844A8813D20FFF777FEE881F9
:10447000E8890002E8813E20FFF770FEE9890844E0
:10448000E8812020FFF76AFE68822120FFF766FEA0
:104490002882288A000228822220FFF75FFE298ACC
:1044A000084428822320FFF759FEE061E0690002FA
:1044B000E0612420FFF752FEE1690844E061E06911
:1044C0000002E0612520FFF749FEE1690844E06150
:1044D000E0690002E0612620FFF740FEE169084440
:1044E000E0612720FFF73AFEA8822A20FFF736FE78
:1044F000314C20802088000220802B20FFF72EFEE8
:104500002188084420802C20FFF728FEA080A08866
:104510000002A0802D20FFF721FEA1880844A08082
:10452000A4F150044FF02800FFF718FE234D288017
:104530002888000228802920FFF710FE29880844D7
:1045400028802F20FFF70AFE1D4908705620FFF72C
:1045500005FE1C4908705520FFF700FE1A49087037
:104560007420FFF7FBFD194908705720FFF7F6FD8F
:10457000174908705820FFF7F1FD164908705920B7
:10458000FFF7ECFD144908705A20FFF7E7FD1349C7
:1045900008805B20FFF7E2FD114908805C20FFF7EF
:1045A000DDFD104908805D20FFF7D8FD0E491DE0B4
:1045B000280E00200C0E00209C0E0020B6000020CB
:1045C00089000020D0000020CF000020D90000206A
:1045D0004401002045010020D80000205A0100209D
:1045E0005C0100205E0100206001002008805E2048
:1045F000FFF7B4FD774908705F20FFF7AFFD7649FC
:1046000008706020FFF7AAFD744908706120FFF769
:10461000A5FD734908706220FFF7A0FD714908707D
:104620006320FFF79BFD704908706420FFF796FD3B
:104630006E4908706520FFF791FD6D49087066208E
:10464000FFF78CFD6B4908706720FFF787FD6A490B
:1046500008706820FFF782FD684908706920FFF73D
:104660007DFD674908707520FFF778FD6549088072
:104670003020FFF773FD644908703120FFF76EFDAD
:10468000624908703220FFF769FD614908700878B7
:104690000A2801D9002008704720FFF75FFD24F8A1
:1046A0001C0F2088000220804820FFF757FD21883A
:1046B000084420804920FFF751FD60806088000297
:1046C00060804A20FFF74AFD6188084460804B20E3
:1046D000FFF744FDA080A0880002A0804C20FFF7D7
:1046E0003DFDA1880844A0804D20FFF737FDE08004
:1046F000E0880002E0804E20FFF730FDE1880844AA
:10470000E0804F20FFF72AFD2081208900022081D0
:104710005020FFF723FD2189084420815120FFF715
:104720001DFD60816089000260815220FFF716FD47
:104730006189084460815320FFF710FDE085E08D1A
:104740000002E0855420FFF709FDE18D0844E08573
:104750007020FFF703FD2082208A00022082712052
:10476000FFF7FCFC218A084420827220FFF7F6FC48
:104770006082608A000260827320FFF7EFFC618A2A
:10478000084460827620FFF7E9FC2086208E000234
:1047900020867720FFF7E2FC218E084420867820CF
:1047A000FFF7DCFC6086608E000260867920FFF7F0
:1047B000D5FC618E084460867A20FFF7CFFCE08646
:1047C000E08E0002E0867B20FFF7C8FCE18E084403
:1047D000E08670BD4D0100204E0100204F010020F9
:1047E00050010020520100205301002054010020FC
:1047F00055010020560100205701002058010020DB
:1048000059010020DC0000208A0000208C000020DC
:104810008B00002070B505460E461EF0B5FE002444
:1048200009E01EF095FEA0201EF064FE1EF0C0FE02
:1048300018B1641CA4B2642CF3D3B4F57A7F0DD004
:10484000E8B21EF057FE1EF0B3FE38B930461EF037
:1048500051FE1EF0ADFE08B91EF096FEBDE8704098
:104860001EF092BE2DE9F041044694B0006800F0BD
:10487000B7F908B1D94D01E0D84D2C35606815283D
:104880001ED00CDC0B281FD004DC00287ED00528AD
:104890007DD12EE10E287BD01228F9D141E11628D6
:1048A00006D0172808D0182808D01C28F0D109E015
:1048B000E86914B0BDE8F081286AFAE7686AF8E7A9
:1048C000A86AF6E76869F4E720680B901C200C9052
:1048D000206801F0B1FE0390016D0BA888470646E1
:1048E00003A801F0F3FE022E0EDB95E807008DE829
:1048F0000700D4E904023346A16904F003F92069F2
:104900008719A069801B2BE0286803F071FA2169E0
:10491000E8690A18521E606902F010FCA269E86991
:10492000111A491C606902F009FC676920697F1C43
:10493000394602F045FC3946A06902F041FC68683E
:1049400003F056FA20693946401C02F039FCA06990
:104950003946401E02F034FC2769A069BF1C801E46
:104960008046286803F044FA42463946606902F0FE
:10497000E5FB686803F03CFA60694246401C394632
:1049800002F0DCFB686A02280FDD02E015E1AFE00F
:1049900000E1A86803F02CFA61696A6A881C8B1828
:1049A00001465B1E4246384627E0296AB14226DDB1
:1049B0006069022E074600F1020801DB374401E07E
:1049C00007F10207206901DB304401E000F1020039
:1049D00022693B460A44A2F10102414602F0B8FCBA
:1049E000022E02DBA069821B01E0A269921EA0696F
:1049F000E9693B46401A401C414602F0A9FC022EE0
:104A000002DB6069064401E06669B61CE769286854
:104A10007F1E03F0EDF93A463146206902F02EFC84
:104A20003A463146A06902F029FCE7696868BF1E72
:104A300003F0DEF920693A46401C314602F01EFCC4
:104A4000A0693A46401E314602F018FCE869022887
:104A500002DC286A022823DDA86A022802DDE16957
:104A60000F1A01E0E769BF1EA86803F0C1F9E96900
:104A7000022909DD20693B46421800F1020C521E52
:104A80003146604602F064FC286A022808DDA2690B
:104A9000E8693B46101A401C921E314602F058FC51
:104AA000286803F0A5F9D4E90620216902F046FB45
:104AB000686803F09DF9A2692169E069521E491CEA
:104AC000401E02F03BFBA86A022811DD2669A1699D
:104AD000E469B61C271AA1F102087F1CA41EA8686D
:104AE00003F086F9234642463946304602F030FC50
:104AF00072E0208A06B2ADF81460A08A01B2ADF867
:104B00001610208B02B2ADF81820A08B03B2ADF8BE
:104B10001A30D5E90304CDE90004304602F0B6FAB4
:104B20005AE0208A298B0844ADF81400A08AADF819
:104B30001600208B298B401AADF81800A08BADF819
:104B40001A00206801F078FD0390006FF0B1022098
:104B500003F098F9039991F87C00C0F3C00001EBD1
:104B60008000006C03F044F90398406B03F04AF9AD
:104B70000398006F01F060FD03990A90B1F95A2083
:104B800005A902F02DF90AA801F0A0FD03A801F083
:104B90009DFD21E0208AADF81400A08AADF8160032
:104BA000208BADF81800A08BADF81A00A86803F0B0
:104BB0001FF905A802F0F0FB0EE0206801F03CFDB3
:104BC000039030F85A1F41F00C01018003A801F056
:104BD0007DFD20680FF096FE00206AE6D8030020D5
:104BE00038B5002450B101F027FD009090F87C000A
:104BF000000700D50124684601F068FD204638BD55
:104C000030B504468BB0006801F016FD009090F8B6
:104C10007C10246A006FC1F3C00508B101F00CFDDF
:104C20000690E068029020690390A088401EADF8CD
:104C30001000E089ADF812002089401CADF8140086
:104C4000608AADF81600BDF80800401CADF80800F9
:104C5000BDF80A00401CADF80A00BDF80C00401E6B
:104C6000ADF80C000098406B03F0CCF8009808AA4F
:104C700002A9B0F95A30069803F0A6FB009800EBA1
:104C80008500806B07F0F2FD009800EB8500006C5A
:104C900007F024FE08AB02AA04A906980EF014FE41
:104CA000684601F013FD069810B106A801F00EFD4C
:104CB0000BB0002030BD0000074A0649054B1160CB
:104CC000064A083BD16958601B68C2E906300846AD
:104CD00070470000CC0300200007002004070020DC
:104CE00038B50D46040009D001F0A6FC0090056619
:104CF000684601F0EBFC20460FF007FC38BD2DE9BB
:104D0000F34F85B000270C46B846059801F094FC97
:104D10000090C06D0121856805982A6890478246F9
:104D20002A6803210598904704902A680221059873
:104D3000904703902A6800210598904706460098FE
:104D40000FF0A2FF834600980FF0A5FF8146009860
:104D500090F83210890601D5B0F9588000F036F885
:104D600005460098C06E10B10FF004FB0746258081
:104D70006780A4F804A0049AABEB020006EB0802DB
:104D8000401E2A4420813A44E280039BA9EB03029F
:104D9000521E6281A4F80CA020827019E681401E88
:104DA0006082684601F092FCB4F90C000190B4F9FD
:104DB0001000029002AA01A9059800F039F80198A4
:104DC000A0810298208207B0BDE8F08F10B501469F
:104DD000002091F83220920607D5B1F9540000283E
:104DE00003D1486B02F056FB801C10BD70B58AB031
:104DF0000C46054601F020FC0990C06D866809A8A4
:104E000001F064FC009534B1012C06D0022C0BD0CB
:104E1000032C04D10AE0182000E0162001907168EC
:104E2000684688470AB070BD1520F7E71720F5E7F8
:104E30002DE9FC4790468946044601F0FDFB0090B1
:104E4000C16D056868468E6801F040FC326800213B
:104E500020469047064620460FF076F92F14044668
:104E60002DB227E001F0E8FB0190B0F90010B0F995
:104E70000420B0F90230491B521BDB1BB34212D194
:104E800090F82800000607D5D8F8000088420ADB11
:104E9000491EC8F8001006E0D9F80000904202DC74
:104EA000521CC9F8002001A801F010FC20460FF0A8
:104EB000DBF90446002CD5D1BDE8FC874FF0204239
:104EC00002EB800021B1016841F0010101607047EF
:104ED0000168024A1140016070470000FEFF0F00A8
:104EE00030B5D0E901121143D0E903231A4311432D
:104EF00042690368114382691143C2691143026A1E
:104F00001143426A1143826A1143C26A1143026B20
:104F100011434FF0204242F823108168082906D13E
:104F2000016802EB81010B6843F040030B60416BA9
:104F3000D1E9003443EA04138C68CD68240244EAC2
:104F4000054423430C6943EA04534C69896943EAE5
:104F500004630B430168491C42F82130C16AB1F572
:104F6000804F07D000686FF0704102EB8000C0F8FE
:104F7000041130BD816B0068D1E9003443EA0413A9
:104F80008C680D69240244EA055423434C698969FD
:104F900043EA046302EB80000B43C0F8043130BDE8
:104FA0002DE9F0430446C56887B090468946002045
:104FB00002F026FF064625B1287910B146F002001E
:104FC00001E026F0020002F01BFF2069012558B124
:104FD000D4E902128DE826000395638822880468CC
:104FE00041464846A0471EE0124F134B2146386801
:104FF0001B68427CE068984730B9E088012801D0FE
:10500000002001E03868806BA288E388A1680095E1
:10501000CDE90410CDE9023201956388228841462A
:10502000484607F073F807B03046BDE8F04302F099
:10503000E7BE000090010020880100201CB500247C
:10504000019401AC009400F0E7F81CBD2DE9FF4F7E
:1050500083B0814606988A46A0EB0A08109E00207D
:105060000090A2EB09043568934654EA080018D072
:105070002046FCF708FF07464046FCF704FF87423E
:105080000BDA2046444680464846D146824658467A
:10509000DDF818B0069001200090002C07DD2046B6
:1050A00006E007B04846BDE8F04F00F03BB960426B
:1050B000A0420AD04846D9466442C8F10008834657
:1050C0004FF0FF37DDF818A000E001275148B8F194
:1050D000000F11D004EBD4714FEA610B01DACBF170
:1050E000000B4C480068807E88B3002F02DA3068DD
:1050F0002044306000257BE000990029016821D020
:10510000897E11B10027804615E007B05A4649460E
:105110005046BDE8F04F07F05DB928466D1C17F00A
:1051200099FB38B9D8F8000009EB0701C06E426856
:10513000504690477F1CA742EFDD6D1E356007B0DB
:10514000BDE8F08F8A7E1AB10027804617E019E08B
:10515000C86E5A465146036807B04846BDE8F04F4E
:10516000184728466D1C17F075FB38B9D8F80010A1
:1051700009EB0700C96E4A68514690477F1CA74259
:10518000EFDDDAE700250FE008FB05B090FBF4F156
:1051900001EB0A00009951B11E4A09EB05011268A2
:1051A000D26E526890476D1CA542EDDDC7E71949E4
:1051B00009EB05030968C96E4A6801461846F1E71C
:1051C00008FB05B090FBF4F101EB0A000190306898
:1051D0003844306017F03EFB48B9009890B10D4854
:1051E00009EB05010068C06E4268019890476D1C8C
:1051F000A542E5DD3068002F01DA20443060C01B95
:1052000030609CE7034909EB05000968C96E4A68EC
:105210000199EBE7900100202DE9FF470F46404937
:105220001646804609680C981D460A7E012A1CD045
:10523000A8EB0600791B50EA01031CD0A2F101097A
:1052400018F0E2FA00F58060824604F05BF800FB9B
:1052500009F4504604F05AF800FB09F1002C0CDA6E
:10526000C4F50070801240420AE000903246394690
:105270004046FFF7EBFEBDE8FF8704F50074A0127F
:10528000002904DAC1F5007189124C4202E001F5EF
:1052900000718C12002804DD411C01EBD171491012
:1052A00003E000EBD0714910401E00EBD0704210BB
:1052B000002C04DD601C00EBD070401003E004EB18
:1052C000D4704010641E04EBD47308EB0104ADF8F5
:1052D00000403C18ADF80240A8EB02045B10B21A83
:1052E000ADF80440ADF808203144FC1AEA1AADF8D4
:1052F0000C102844ADF80A20ADF80E000023ADF8DC
:1053000006401A460421684600F07AF839464046BD
:1053100012F07AFF2946304612F076FFABE7000024
:1053200090010020064A13681A7E012A05D0521EF9
:1053300002EBD272521000F005B8DA6E52681047D4
:10534000900100202DE9F05F0646884640F2C32018
:1053500050434FF47A7190FBF1F702FB02F002EB3D
:10536000D27100EB610B254914467F1C0968324459
:10537000301BC96E0B684146984701253AE000BFD3
:1053800005FB05F004FB040159451CDDBC4219DD99
:105390001A4B06EB050AA6EB05091B68AAF10102E8
:1053A00008EB0401DB6E09F101001B689847134B01
:1053B000AAF10102A8EB04011B6809F10100DB6EF0
:1053C0001B689847641E0D4806EB040AA6EB040907
:1053D000006808EB05015246C06E036848469847CE
:1053E0000648A8EB050152460068C06E03684846AF
:1053F00098476D1CBD42C3DDBDE8F09F90010020C1
:105400002DE9FF4F40F6FF740F46664283B09B467E
:10541000814600210BE000BF09EB8100B0F90200DA
:10542000A04200DA0446B04200DD0646491CB942FB
:10543000F2DB68480068406900280DD0B0F906101A
:105440001A46A1EB0B01B14200DA0E46B0F9020098
:10545000801AA04200DD0446B5E0DFF87CA1002000
:105460000546CAF8000089E0781E854201DA6B1C07
:1054700000E0002309EB850C09EB8302BCF9020074
:10548000B2F90210A04245D1A14215D139F9233019
:10549000059A39F9251003EB020C4E4A059812685B
:1054A000084404EB0B01D26E6045136801DA6246D2
:1054B0002BE00246604628E02846A4464FF000084C
:1054C0007A1E0BE008B1401E00E0781E09EB800355
:1054D000B3F90230634504D108F101089045F1DBCE
:1054E0002346A34249D0A3EB040239F92500A1EBDE
:1054F000040C059B92EA0C0209D4364A184404EBCA
:105500000B011268D26E13680246984735E010F01E
:10551000D9F832E0A14230D001DBA04203DDA04245
:105520002BDBA14229DCE04688420ADC0346A0428C
:1055300023DC0846A14220DBB8F900C0B2F9001014
:1055400008E00B46A14218DCA04216DBB2F900C00D
:10555000B8F90010E21AA1EB0C0151430029A0EBAD
:10556000030202DD01EB620102E0A1EB6201491CD2
:10557000C01A91FBF0F06044C9E76D1CBD42FFF614
:1055800073AF0598009004EB0B000190002080465B
:10559000054613E01149B8F1000F31F915A009D003
:1055A000009901EB0A0208440A490968C96E0B68B0
:1055B0000199984788F0010850466D1C0649096812
:1055C0008D42E7DB641CB4427FF747AF07B0BDE80C
:1055D000F08F00009001002010080020D8880020E3
:1055E00010B5002002F000FC6FF07F4002F000FCDC
:1055F000012002F035FC002002F03AFC002002F00D
:1056000041FC002002F0FCFB0448006802F0FAFBB9
:10561000BDE81040002002F0FFBB00008C0100201C
:105620002DE9FC4701211F200AF084F902268DF89C
:10563000056001248DF8044000258DF806504FF4D4
:10564000605000906946294800F058F88DF80560D0
:105650008DF804408DF8065041F202400090DFF8CA
:1056600090806946404600F049F88DF805608DF855
:1056700004408DF8065067030097DFF8789069467C
:10568000484600F03BF88DF805608DF804408DF831
:105690000650402000906946404600F02FF88DF8F3
:1056A00005608DF804408DF806500C200090694686
:1056B000114800F023F88DF805608DF804508DF83E
:1056C0000740802000906946404600F017F83946B0
:1056D000484600F069F84021404600F063F8402158
:1056E000404600F061F8BDE8FC870000000402407D
:1056F00000080240000C024000100240F0B50022F9
:1057000001274FF0030C07FA02F40B682340A34271
:105710002DD1046853000CFA03F5AC4304600C79F6
:1057200006689C40344304600E79012E01D0022E9D
:1057300012D18468AC4384604C7985689C402C43CA
:105740008460456807FA02F4A543456044688D7992
:105750009540ADB22C434460C56856000CFA06F47F
:10576000A543C560CC799C40C3681C43C460521CEF
:10577000102AC8D3F0BD10B54B07DB0E9A40C908FC
:1057800000EB8100016A0F249C40A1430162016A81
:105790001143016210BD0246002012690A4200D086
:1057A00001207047418370470183704733B583B050
:1057B000040016D000F040FF0190456E01A800F0F3
:1057C00085FF049800F038FF00908460684600F080
:1057D0007DFF042204A9284600F09CFF20460EF01D
:1057E00094FE05B030BD33B583B0040016D000F090
:1057F00023FF0090856E684600F068FF049800F073
:105800001BFF0190846001A800F060FF042204A93E
:10581000284600F07FFF20460EF077FE05B030BD31
:105820002DE9F04104460025D4E90007B0F5407F9A
:1058300000D10125214638460DF0FCFE064615B183
:10584000384614F01EFC002E2FD02068052806D004
:105850000B280ED00F2806D0262821D10EE038467E
:1058600014F00FFC1CE03846E168BDE8F04114F08C
:10587000B1BD3846BDE8F04114F0E1BCE068052850
:105880000ED138460EF02DFDA168884205D038466D
:105890000EF01EFDA168884202D1606814F0DFFF9F
:1058A0002046BDE8F0410EF039BBBDE8F081F0B50F
:1058B00085B0B0F90850468A84690296CDE9035450
:1058C0000027CDE90017B0F90C10B0F91050B0F96D
:1058D0000E40B0F90A00194410442B46224600F04D
:1058E00003F805B0F0BD00002DE9F04186B00DF1E0
:1058F000300CDDE90F84BCE8E0006C34DFF850C008
:1059000003948DE860100EF059FA04001BD000F0EB
:105910003EFF054600F03BFF0646204600F08CFEA9
:105920000490C0E91956002241460EF0A7F80498E9
:10593000302208493430FAF7C8FE0498A0F878708D
:1059400004A800F0C3FE06B02046BDE8F0810000C8
:10595000215800083004002003B583B000F06CFE2D
:10596000009060B1406A00F067FE0146019002239A
:1059700004AA009800F0F7F801A800F0A7FE684616
:1059800000F0A4FE05B000BD2DE9F043814685B0CE
:105990001D4690460F462C2000F073FD060024D0D3
:1059A000780000F06EFD04000ED0B8F1000F0BD0AF
:1059B00055B1204600F040FE6A0041460090FAF7DB
:1059C000FDFD684600F082FE304600F035FE0949D4
:1059D000029000F10C024462A2E8A20206490160B2
:1059E0000649416002A800F071FE05B03046BDE8EE
:1059F000F0830000359F01087FA50108CFA20108B0
:105A00002DE9F8430746984615460E46302000F02B
:105A100038FD040015D000F00FFE0090C0E90576B7
:105A20008584094AB7EE000AC0F81C8080ED0A0A96
:105A3000D2E90012C0E9031204490160684600F08F
:105A400045FE2046BDE8F8836004002057A6010803
:105A500000B52DED028B81B09FED0E8AF0EE408AED
:105A600088B100F0E9FD009090ED0A8AB4EE688AF2
:105A7000F1EE10FA04D0C0ED0A8A80680EF045FD00
:105A8000684600F023FE01B0B0EE480ABDEC028B80
:105A900000BD0000000000002DE9F8431D46DDF8C0
:105AA000208016460F46040010D000F0C5FD00907F
:105AB000C0F860804765C0E91665684600F006FEDC
:105AC000204614F0DEFA20460EF01FFDBDE8F883F4
:105AD000F8B50D4606004FF000040CD000F0ACFD08
