:020000040800F2
:10000000A88F00209502000879E300084D9A0008A7
:1000100019E3000855230008894901080000000081
:10002000000000000000000000000000BD250108E5
:100030007341000800000000DD08010809370108CD
:10004000AF020008AF020008AF020008AF020008CC
:10005000AF020008AF020008AF020008AF020008BC
:10006000AF020008AF020008AF020008AF020008AC
:10007000AF020008AF020008AF020008AF0200089C
:10008000AF020008AF020008AF020008AF0200088C
:10009000AF020008AF020008AF020008AF0200087C
:1000A000AF020008AF020008AF020008AF0200086C
:1000B000AF020008193C0108AF020008AF020008B7
:1000C000AF020008AF020008AF020008AF0200084C
:1000D000AF020008D1460108AF020008AF020008D5
:1000E000AF020008AF020008AF020008AF0200082C
:1000F000AF020008AF020008AF020008AF0200081C
:10010000AF020008AF020008AF020008AF0200080B
:10011000AF020008AF020008193F0108AF02000853
:10012000953F0008AF020008AF020008AF020008C8
:10013000AF020008AF020008AF020008AF020008DB
:10014000AF020008AF020008AF02000885EB00080C
:10015000AF020008AF020008AF020008AF020008BB
:10016000AF020008AF020008AF020008AF020008AB
:10017000AF020008AF020008AF020008AF0200089B
:10018000AF020008AF02000800F002F800F072F8B9
:100190000AA090E8000C82448344AAF10107DA45E2
:1001A00001D100F067F8AFF2090EBAE80F0013F0C2
:1001B000010F18BFFB1A43F001031847D02F0400AA
:1001C000F02F04000A444FF0000C10F8013B13F02C
:1001D000070408BF10F8014B1D1108BF10F8015BA0
:1001E000641E05D010F8016B641E01F8016BF9D193
:1001F00013F0080F1EBF10F8014BAD1C0C1B09D1EA
:100200006D1E58BF01F801CBFAD505E014F8016B5B
:1002100001F8016B6D1EF9D59142D6D370470000ED
:100220000023002400250026103A28BF78C1FBD8FF
:10023000520728BF30C148BF0B607047662925F0C0
:100240004887642900F08480002070471FB525F09E
:1002500036FF00F0CFFD04000020002125F0ECF96E
:10026000401C60600020002125F0D0F9E0601FBD37
:1002700010B510BD00F00AFF1146FFF7E7FF24F0AC
:10028000F7FD00F036FF03B4FFF7F2FF03BC00F008
:1002900077FF00000948804709480047FEE7FEE76E
:1002A000FEE7FEE7FEE7FEE7FEE7FEE7FEE7FEE726
:1002B00004480549054A064B70470000D13701083C
:1002C00089010008A8890020A88F0020A88B0020A1
:1002D000A88B00200FB41CB5074B06AA7B446946C7
:1002E0000090059800F0CBFC0020694600F0DAFC95
:1002F0001CBC5DF814FB0000C509000070B5044685
:1003000085690068C10601D5302600E02026C007B7
:1003100008D070BDD4E9012130469047206A00F131
:10032000010020626D1EF5D570BD70B5044685696B
:100330000068C00708D170BDD4E901212020904792
:10034000206A00F1010020626D1EF5D570BD00002D
:100350002DE9F0410746002510687529394616A495
:1003600011D0AFF30080002803DAC0F1000013A41D
:1003700007E039688A0701D511A402E0490704D5CE
:1003800010A4012501E0AFF3008000210A2307F14A
:10039000240607E0B0FBF3F203FB12003030705488
:1003A0001046491C0028F5D12B4622463846BDE8A8
:1003B000F04100F0F3B90000000000002D00000043
:1003C0002B000000200000002DE9F05F0446894664
:1003D0004FF0000ADFF828B1FB44C0F820A0204607
:1003E000E168884700287CD0252806D0D4E901217F
:1003F0009047206A401C2062F1E700255F462046B6
:10040000E16888472028064608DB312E06D207EB34
:10041000060010F8200C08B10543F0E7A80701D545
:1004200025F00405C4F81CA00027C4F818A02A2E43
:1004300009D0304624F0CEFB38B304EB8708303EB9
:10044000C8F8186019E059F8041B204604EB87022D
:100450009161E1688847012F064618D1E0690028BC
:1004600020DA25F020051DE0D8F8180000EB800008
:1004700006EB40003038C8F818002046E16888478D
:10048000064624F0A7FB0028EED1012F0AD02E2E1D
:1004900008D12046E16888477F1C0646022F45F0B8
:1004A0002005C4DBA069002803DA404245F00105BD
:1004B000A061E80701D025F0100596B1A6F1410032
:1004C000192802D8203645F400654A4631462046B0
:1004D00025604D46FFF7B2FE60B1012807D0ED1D43
:1004E00000E009E025F0070000F1080977E705F1D1
:1004F000040974E7304679E7206ABDE8F09F000000
:10050000DC2C040070B5064600F044F9046805468A
:1005100030460A22002100F0CAFB2C6070BD40EA80
:100520000103024630B59B0710D14FF0013400E0C3
:1005300008C208C91D1B9D4315EAC41FF8D013F05B
:10054000FF0102F8011B0DD01B0AF8E711F8013B6F
:10055000002B02F8013B05D011F8013B002B02F8FB
:10056000013BF3D130BD10B5431C02E010F8011B74
:1005700071B18107FAD14FF0013202C88C1A8C4355
:1005800014EAC211F9D0C01A0A0603D0C01E10BD69
:10059000C01A10BD0A0401D0801E10BD0902FCD093
:1005A000401E10BD421E12F8013F002BFBD111F876
:1005B000013B002B02F8013BF9D17047032A40F2BE
:1005C000308010F0030C00F0158011F8013BBCF1F5
:1005D000020F624498BF11F801CB00F8013B38BF0D
:1005E00011F8013BA2F1040298BF00F801CB38BF1B
:1005F00000F8013B11F0030300F06780083AC0F0F7
:10060000088051F8043B083A51F804CBA0E80810E0
:10061000F5E7121D5CBF51F8043B40F8043BAFF313
:100620000080D20724BF11F8013B11F801CB48BF6D
:1006300011F8012B24BF00F8013B00F801CB48BFA3
:1006400000F8012B7047431A28BF9A427FF6B6AFD5
:10065000032A1044114440F2268010F0030F1EBFFD
:1006600011F8013D521E00F8013D10F0030F7FF418
:10067000F6AF11F0030300F06583083AC0F00B8079
:1006800051F8043D083A51F804CD40F8043D40F8D3
:1006900004CDFFF7F3BF121D5CBF51F8043D40F8D5
:1006A000043DAFF30080D20724BF11F8013D11F8DB
:1006B00001CD48BF11F8012C24BF00F8013D00F81E
:1006C00001CD48BF00F8012C704710B5203AC0F0AA
:1006D0000B80B1E81850203AA0E81850B1E8185043
:1006E000A0E81850BFF4F5AF5FEA027C24BFB1E880
:1006F0001850A0E8185044BF18C918C0BDE81040F1
:100700005FEA827C24BF51F8043B40F8043B08BFF9
:100710007047D20728BF31F8023B48BF11F8012BC0
:1007200028BF20F8023B48BF00F8012B704702F0B9
:10073000FF0343EA032242EA024200F02FBB4FF0DC
:10074000000200B5134694469646203922BFA0E821
:100750000C50A0E80C50B1F12001BFF4F7AF09072D
:1007600028BFA0E80C5048BF0CC05DF804EB89001E
:1007700028BF40F8042B08BF704748BF20F8022B61
:1007800011F0804F18BF00F8012B70477047704779
:100790007047000000487047488900202DE9F04765
:1007A0000D4604469246994600F1240801688806E1
:1007B00004D5E06921F01001216000E00120A84289
:1007C00002DDA0EB050700E00027A16907EB0502A9
:1007D00002EB0900A1EB0000A0612068C00602D472
:1007E0002046FFF78BFD002608E0D4E901211AF826
:1007F00006009047206A401C761C20624E45F4DBC0
:100800002068C0060AD52046FFF778FD06E0D4E947
:10081000012130209047206A401C2062381EA7F139
:100820000107F4DC07E0D4E9012118F8050090473E
:10083000206A401C2062281EA5F10105F3DC204639
:10084000FFF773FD2068000602D50220BDE8F0879F
:100850000120FBE770472DE9FF4F0C461E464FF085
:10086000FF378BB0D2E90001DDF860800A908A463C
:10087000C1F30A5505B93D46002108464FF0000076
:10088000BAF1000F00F4400005DA00EB80004FF4ED
:10089000400101EA50004FEA9059B9F1010F00DD23
:1008A000B9460A9850EA4A000FD044F61050A5F213
:1008B000FF3545432F14B8F1000F1FD07542291E94
:1008C0001FDD4846C9F100021CE0B8F1010F4FF0EE
:1008D000000001D1F24307E0302101E02154401C27
:1008E000B042FBDB30460022002121540B99C1F8B5
:1008F0000880C1E900200FB0BDE8F08FBD1B6D1C62
:10090000DDE74A4600DA694206A800F04DFB06AB77
:1009100007CB03AB07C350460A9900F038FC8DE8BB
:100920000700A0F500501F3800900398002D09DD46
:1009300042F21F014A46084403A90390684600F0AA
:1009400097FE08E0A0F500504A461F3803A903901F
:10095000684600F0A1FE8DE807000004000C03D0FB
:100960004FF0FF30410800E01046B8F1000F03D00F
:100970000022009215461FE0751E06D400F03EFAD4
:1009800002F1300262556D1EF8D5B34601220843CC
:1009900002D000227F1C04E02078302801D1002200
:1009A0007F1E002A099786D01DE0112D07DA00F07E
:1009B00025FA303262556D1C50EA0102F5D1084328
:1009C0000FD10021681E05E0235C625C6354491C62
:1009D0002254401E8142F7DBAB46A81B401E099003
:1009E00001E0009848B1002004F80B000B98099A28
:1009F000C0F80880C0E9002B7DE711264FF0000801
:100A000059E72DE9F04F88460446D21D22F0070130
:100A100091B0D1E90001CDE90A011EF027F90246A3
:100A20000B98C00F01D02D2007E02068810701D569
:100A30002B2002E0202101EAC000032A099001D006
:100A4000072A05DB03464146204600F01DFA0EE169
:100A50002068800601D5E06900E00620B8F1650F46
:100A6000814606D0B8F1660F18D0B8F1670F72D181
:100A700032E00020B9F1110F009001DB112301E0F9
:100A800009F101030AAA01A90CA8FFF7E4FEDDE9B8
:100A90000C70002609F10105834648E001204B4611
:100AA00000904FF000470AAA01A90CA8FFF7D3FE57
:100AB000DDE90C050E990026AB4619B909F10101D3
:100AC00000EB0105B9EB050003D4C0F1FF3609F1D5
:100AD0000105A5EB09002BE0B9F1010F01DA4FF098
:100AE00001090020B9F1110F0090484601DD1123E2
:100AF00000E003460AAA01A90CA8FFF7ACFEDDE955
:100B00000C704D4600268346206800070AD4AB458A
:100B100000DA5D4601A8012D04DD411911F8011C20
:100B2000302907D04F4502DA17F1040F04DA01200B
:100B3000824610E06D1EEEE7002F02DCED1B3E4406
:100B400003E0781CA84200DD0546A7EB060000F193
:100B5000010A4FF000472068000703D4AA4501DBD3
:100B60004FF0FF3A0021B7F1004F0DF143088DF827
:100B7000431022D002202B23002F01DA7F422D23A5
:100B80000A22011EA0F1010000DC4FB197FBF2F137
:100B900002FB117C0F460CF1300C08F801CDF0E798
:100BA000A8F1010003702168090501D5452100E085
:100BB0006521A0F1010800F8011C09980FA9A1EB1B
:100BC000080707F1070700B1012000EB050101EB61
:100BD000EA70A1693844A1EB0000A0F10100A06116
:100BE0002068C00602D42046FFF788FB099830B180
:100BF000D4E901219047206A00F1010020622068B9
:100C0000C00620D52046FFF779FB1CE0002E04DB50
:100C1000B34502DD01A8805D00E03020D4E9012168
:100C20009047206A761C401CBAF1010A20620AD162
:100C300000F0E0F8C0680168405CD4E90121904709
:100C4000206A401C2062281EA5F10105DEDC07E0B9
:100C5000D4E9012118F8010B9047206A401C20625A
:100C6000381EA7F10107F3DC2046FFF75EFB0220E8
:100C700011B041E601694A1C02610878704700B56D
:100C80008FB0CDE901310021059105497944CDE9C5
:100C9000031011466846FFF797FB0FB000BD000038
:100CA000E5FFFFFF0A6802F8010B0A6070472DE9B3
:100CB000F0470F46914680460446002614F8015B33
:100CC0002DB100F08FF80068405DC007F6D12B2DE4
:100CD00002D02D2D18D0641E4A463946204600F019
:100CE00013F927B13968A14201D1C7F800804FF04C
:100CF000020471050BD54042002803DDFFF74AFDD1
:100D00000460A007BDE8F08746F48066E4E70028A9
:100D1000F8DAFFF73FFD04606FF00040F2E7431A96
:100D200028BF9A427FF6D1AC104410F0030F114453
:100D30001EBF11F8013D521E00F8013D10F0030FD7
:100D40007FF4F6AF103AC0F00A8010B531E91850C0
:100D5000103A20E91850BFF4F9AFBDE8104053072E
:100D600024BF31E9081020E9081044BF51F8043DC0
:100D700040F8043D12F0030F08BF7047D20728BFA8
:100D800031F8023D48BF11F8012C28BF20F8023D80
:100D900048BF00F8012C70474FF000020429C0F052
:100DA000128010F0030C3FF4CCACCCF1040CBCF17D
:100DB000020F18BF00F8012BA8BF20F8022BA1EBEF
:100DC0000C01FFF7BEBC5FEAC17C24BF00F8012B19
:100DD00000F8012B48BF00F8012B7047004870470E
:100DE0004889002010B500F005F8001D10BD00BFB7
:100DF00049480200004870476889002030B5B0F1CA
:100E00000A024FEA900E71F100034EEA817EB0EBC8
:100E10000E0061EB91014FEA101E4EEA017E10EBCD
:100E20000E0041EB11114FEA102E4EEA016E10EB4D
:100E30000E0041EB11214FEA104E4EEA014E10EB2D
:100E40000E0041EB1141401841F100014FEAD00082
:100E500040EA41704FEAD10110EB80054FEA81046E
:100E600044EA907444EB01046D1944EB0404521BF2
:100E7000A3414FF0000348BF0A3200D530BD401CEB
:100E800041F1000130BD00002DE9F04104461F464C
:100E900003260168072A01F4006004DB08B116A5E7
:100EA00005E016A503E008B115A500E015A521F0A1
:100EB00010002060A069C01EA0610FB1401EA0619B
:100EC0002046FFF71BFA4FB1D4E90121384690477D
:100ED000206A401C2062C01C206206E0206AFAE7FB
:100EE000D4E9012115F8010B9047761EF8D220466F
:100EF000FFF71BFABDE8F0814E414E006E616E00B7
:100F0000494E4600696E66002DE9F05F82468B46C9
:100F1000154600270AF10104B9460078302801D0AF
:100F20009DB113E014F8010B0127782803D058284D
:100F300001D045B10AE00DB1102D07D1002714F8FA
:100F4000010B102502E0082500E00A250026B04626
:100F50000EE005FB080005FB06F101271FFA80F8EB
:100F600001EB1046B6F5803F00D3B94614F8010BEB
:100F7000294600F0B0F80028EBDABBF1000F05D0ED
:100F80000FB1641E00E05446CBF80040B9F1000FE9
:100F900006D0FFF7FFFB02210160C81EBDE8F09FED
:100FA00048EA0640FAE700002DE9F0478146164678
:100FB0008AB035487844D0E9002380680092CDE9B2
:100FC0000130314878440C38D0E90223006903929B
:100FD0004FF03702CDE9043041F69B30014491FBDC
:100FE000F2F0A0F1800502FB10141B3C02D5644214
:100FF000012000E00020DFF890A080460027FA449E
:10100000AAF1C60A0DE0E00709D03246684607EBB0
:1010100047010AEB810100F03FFB8DE807006410F7
:101020007F1C002CEFD1184F7F44B43F17E0E80736
:1010300013D007EB04100DF1180A90E80E00AAE88F
:101040000E00C068F04201D198190890324606A9F6
:1010500003A800F021FB03AB07C36D10641C002D37
:10106000E5D132466946B8F1000F03A802D000F07E
:10107000FFFA01E000F010FBC9E90001C9F80820FF
:101080000AB0BDE8F0870000902104007546FFF724
:10109000A5FEAE4605006946534620F0070085468A
:1010A00018B020B5FFF704F9BDE820404FF0000666
:1010B0004FF000074FF000084FF0000B21F0070140
:1010C000AC46ACE8C009ACE8C009ACE8C009ACE883
:1010D000C0098D4670473A2800D2303820F02002EF
:1010E000412A01D3A2F13700884201D34FF0FF30EB
:1010F00070470446AFF300802046FFF7C4F80000B5
:101100004FF0013C50F8042B51F8043B9A4221D196
:10111000A2EB0C03934313EACC1317D150F8042B22
:1011200051F8043B9A4215D1A2EB0C03934313EA06
:10113000CC130BD150F8042B51F8043B9A4209D13F
:10114000A2EB0C03934313EACC13DBD04FF0000067
:10115000704700BFD01A01BAB1FA81F101F018014D
:1011600022FA01F0CB40C1F12001DBB2C0B2C01ABB
:101170002CFA01F3D11A914311EAC311E6D1704759
:1011800001491820ABBEFEE72600020070475FEA67
:10119000400C08BF91F0000F4FEA8C234FEAC122A8
:1011A00043EA51514FEA1C5018BF00F5F0404FEA96
:1011B000300018BF41F000415FEA6C5C00F029800C
:1011C000BCF1FF3F08BF40F080407047130C06BFE2
:1011D00012044FF0100C4FF0000C130E04BF12025B
:1011E0000CF1080C130F04BF12010CF1040C930F47
:1011F00004BF92000CF1020CD30F04BF52000CF19B
:10120000010C11464FF00002A0F11F00A0EB0C00F2
:10121000704711F0004F08BF704731F000413FF4B4
:10122000D5AF0B0C06BF09044FF0100C4FF0000CAB
:101230000B0E04BF09020CF1080C0B0F04BF0901CF
:101240000CF1040C8B0F04BF89000CF1020CCB0FC6
:1012500004BF49000CF1010CCCF12003A0EB0C0001
:1012600022FA03F302FA0CF241EA030100F1010051
:10127000704720F07F4C80EA030023F07F47ACEBFF
:10128000070303F57C5300F0004003F1FF032DE951
:1012900080494FEA154B09B44FEA144325EA0B4E37
:1012A00024EA03480FF2042606EB132749083E7888
:1012B0005FEA320203FB0667C7F5000707FB06F685
:1012C0004FEA54374FEAD64606F1020607FB066C92
:1012D000CCF1005C4FEA1C472CEA074C07FB06F4F4
:1012E0000CFB06F504EB15464FEA961634BF0020BA
:1012F0004FF000404FEAD13706FB07FC4FEA1C4C89
:101300000CFB0BF7D21B03FB0CF761EB07010CFB8B
:101310000EF7B0EB074072EB17420CFB08F734BF37
:10132000A2EB0742B2EB074261EB17414FEA0C44D4
:101330004FEA910706FB07FC4FEA1C4C0CFB0BF72E
:10134000B0EBC74072EB573203FB0CF734BFA2EB94
:10135000C742B2EBC74261EB57310CFB0EF7B0EB63
:10136000C70072EB57720CFB08F734BFA2EBC70241
:10137000B2EBC70261EB5771039F4FEA816141EA0B
:10138000921104EBCC044FEAD1374FEA826206FB9C
:1013900007FC42EA90124FEA80604FEA1C4C0CFBBB
:1013A0000BF7D21B03FB0CF761EB07010CFB0EF7ED
:1013B000B0EB074072EB17420CFB08F734BFA2EB0F
:1013C0000742B2EB074261EB17414FEA8C554FEAF7
:1013D000910704EB9C2406FB07FC4FEA1C4C0CFB1A
:1013E0000BF7B0EBC74072EB573203FB0CF734BF7F
:1013F000A2EBC742B2EBC74261EB57310CFB0EF7D1
:10140000B0EBC70072EB57720CFB08F734BFA2EBCE
:10141000C702B2EBC70261EB577115EB4C254FEADF
:10142000816141EA92114FEA82624FEAD13742EA82
:10143000901206FB07FC44F100044FEA80604FEA7B
:101440001C4C0CFB0BF7D21B03FB0CF761EB0701E9
:101450000CFB0EF7B0EB074072EB17420CFB08F7E2
:1014600034BFA2EB0742B2EB074261EB174115EB29
:101470001C154FEA813141EA92414FEA823242EA39
:1014800090424FEA80304FEA0C7644F1000448EA7B
:1014900003434EEA0B484FF0000EB2EB080C71EB21
:1014A000030724BF624639464EEB0E0E4FF0000B89
:1014B0000018524149414BEB0B0BB2EB080C71EB9E
:1014C00003077BF1000B24BF624639464EEB0E0E3C
:1014D0004FF0000B0018524149414BEB0B0BB2EBA4
:1014E000080C71EB03077BF1000B24BF6246394601
:1014F0004EEB0E0E51EA020718BF46F0010616EB3E
:101500000E7655F1000254F1000103D5BDE88901C2
:10151000BDE80088BDE88901BDE80048B619524120
:1015200041EB0101A3F10103704780807F7E7D7C48
:101530007B7A7978777676757473727171706F6E65
:101540006E6D6C6C6B6A6A69686867666665646410
:10155000636362616160605F5F5E5E5D5D5C5C5B9A
:101560005B5A5A5959585857575656555555545409
:10157000535352525251515050504F4F4F4E4E4D67
:101580004D4D4C4C4C4B4B4B4A4A4A4949494848B3
:1015900048474747474646464545454444444443F3
:1015A00043434342424242414141002B26D477000B
:1015B00021D01CB54FEA370703B44FF010004FF0AD
:1015C00010014FF000000FBCBDE810400BF1010B03
:1015D000BBF1010F08BF5FEA170722BF12F101023A
:1015E00011F101014FF0004143F1000300F0004010
:1015F00043EA00007047F9D35708DAE746EA06469F
:1016000013F1400F4FEA16461FDD13F1200FDFBF25
:1016100016430A46002120335B42C8D0C3F120079D
:1016200046EA064602FA07F74FEA164646EA070672
:10163000C3F1200722FA03F201FA07F721FA03F1B6
:101640004FF0000342EA0702B1E746EA020646EA23
:1016500006464FEA164646EA0106BCBF46EA06467B
:10166000360C4FF000034FF000024FF000019EE7F0
:101670002DE9C048934630B491E8380007C831EAF4
:10168000400C48BF34EA430C03D5FFF7F2FDFFF7E7
:101690008CFFF0BCBDE800882DE9C048934630B40B
:1016A00091E8380007C810F0804F08BF13F0804F52
:1016B00003D100F005F8FFF778FFF0BCBDE8008823
:1016C00020F07F4780EA030023F07F4C07EB0C03F8
:1016D000A3F57C5300F00040A3F1FE0392F0000F4D
:1016E00000F0B38095F0000F00F077802DE90149FC
:1016F0004FEA11404FEA144621EA004800FB06FC7D
:1017000024EA064708FB06F607FB08F800FB07F784
:1017100018EB06484CEB164C4FEA124B18EB0748F7
:101720004FEA15464CEB174022EA0B4E0BFB06FC2A
:1017300025EA06470EFB06F607FB0EFE0BFB07F736
:101740001EEB064E4CEB164C4FF000061EEB074E00
:101750004CEB174B18EB0B0840F1000018EB0E0B8D
:1017600058EB000840F100008F1A4FF000013CBF19
:10177000C943661B14BFB5EB040C00213CBFC94331
:10178000F61B4FEA17444EEA8E0E27EA04454FEA4D
:101790001C4704FB07622CEA074C05FB07F70CFB10
:1017A00005F604FB0CFC16EB074642EB174216EB62
:1017B0000C4642EB1C421BEB060658EB0202414171
:1017C00046EA9E0601D5BDE80189B619524141EBB2
:1017D0000101A3F10103BDE801894FEA14454FEA75
:1017E000114724EA054621EA074C05FB07F406FBEE
:1017F00007F70CFB06F105FB0CFC11EB074144EB72
:1018000017444FEA124711EB0C4144EB1C4422EA07
:10181000074C05FB07F206FB07F70CFB06F605FB7A
:101820000CFC16EB074642EB174216EB0C4642EB5C
:101830001C456A1854F1000148BF7047B61952415F
:1018400041EB0101A3F10103704795F0000F37D080
:101850004FEA11424FEA144721EA024624EA074CB4
:1018600002FB07F106FB07F70CFB06F402FB0CFC7E
:1018700014EB074441EB17414FEA154714EB0C44B6
:1018800041EB1C4125EA074C02FB07F506FB07F775
:101890000CFB06F602FB0CFC16EB074645EB174566
:1018A00016EB0C4645EB1C42121951F1000148BFE2
:1018B0007047B619524141EB0101A3F10103704792
:1018C0004FEA14454FEA114724EA054621EA074C3E
:1018D00005FB07F106FB07F70CFB06F24FF00006CD
:1018E00005FB0CFC12EB074241EB174112EB0C42DB
:1018F00051EB1C4148BF7047921841EB0101A3F125
:10190000010370472DE9F0419CB001210F023846D8
:101910000FF088F8012188050FF060F82026019665
:1019200003258DF8085000248DF80B40DFF85C810A
:1019300001A9404604F050F9402001908DF808506C
:101940008DF80B4001A9404604F046F910200190A3
:101950008DF808508DF80B40DFF8348101A940461E
:1019600004F03AF901968DF808508DF80B4001A962
:10197000404604F031F9012601968DF808508DF8A3
:101980000B40DFF8108101A9404604F025F9022040
:1019900001908DF808508DF80B4001A9404604F0E5
:1019A0001BF903943C4804903C48059006944FF47E
:1019B000967007900894B002099040000A90800049
:1019C0000B900C9700010D900E940F9610941194AB
:1019D000334D03A9284602F029FB0121284602F0D5
:1019E00001FB01221021284602F007FB02F0BCFA9D
:1019F000294D01214C3D284600F0C6F9129413945C
:101A00001494159412A800F0A7F916948DF85C6050
:101A10008DF85D6019941A9406208DF86C0016A953
:101A2000284600F0C7F9042301220521284600F0CA
:101A3000E7F9002302220621284600F0E1F90023FD
:101A400003220821284600F0DBF9002304220921A3
:101A5000284600F0D5F9002305220E21284600F083
:101A6000CFF9002306220F21284600F0C9F90121F1
:101A7000284600F065F9284600F000FA01212846C2
:101A800000F08DF91CB0BDE8F081000000000240BC
:101A900000080240000402404C200140A008002041
:101AA000106402402DE9F04F0020A24A4FF00609D1
:101AB00002F5167402F5487502F5617602F57A773B
:101AC00002F52F7C9C4902F24C484FF4967E4CE084
:101AD000B0FBF9F309FB130353B1012B12D0022B16
:101AE0001AD0032B22D0042B2AD0052B32D03AE077
:101AF00032F810B091F800A00AF101030B7024F83D
:101B00001AB030E032F810B091F801A00AF10103E8
:101B10004B7028F81AB026E032F810B091F802A005
:101B20000AF101038B7025F81AB01CE032F810B0EE
:101B300091F803A00AF10103CB702CF81AB012E05F
:101B400032F810B091F804A00AF101030B7127F8E4
:101B50001AB008E032F810B091F805A00AF10103BC
:101B60004B7126F81AB0401C80B27045B0D30022E9
:101B70000A704A708A70CA700A714A7191460020D0
:101B800004E034F810309944401CC0B23228F8D335
:101B9000C879DFF8A8A13223282807D2B9FBF3F0CF
:101BA000CC792AF814004FF0000910E0002401203D
:101BB00004E03AF810904C44401CC0B22728F8D3F7
:101BC0002720B4FBF0F048824FF00009CA71C879B1
:101BD000401CC871002004E035F81040A144401CAE
:101BE000C0B23228F8D38879DFF850A11224AAF1C4
:101BF000280A142806D2B9FBF3F08D792AF81500CB
:101C000000250EE00025012004E03AF810904D4434
:101C1000401CC0B21328F8D3B5FBF4F0C8810025EE
:101C20008A718879401C8871002004E036F8109091
:101C30004D44401CC0B23228F8D3487ADFF8FC90FB
:101C4000132609F1A009142806D2B5FBF3F04D7A4A
:101C500029F8150000250EE00025012004E039F8E0
:101C600010A05544401CC0B21328F8D3B5FBF6F0C1
:101C7000088200254A72487A401C4872002004E01D
:101C800037F810904D44401CC0B23228F8D3087A7F
:101C90002A4F7837142806D2B5FBF3F00D7A27F8CF
:101CA000150000250EE00025012004E037F8109013
:101CB0004D44401CC0B21328F8D3B5FBF6F0C882DF
:101CC00000250A72087A401C0872002004E03CF8E3
:101CD00010603544401CC0B23228F8D3887A174EC1
:101CE0005036142806D2B5FBF3F08A7A26F8120093
:101CF00000240EE00025012004E036F810703D4479
:101D0000401CC0B21328F8D3B5FBF4F0888200243D
:101D10008A72887A401C8872002004E038F810200B
:101D20001444401CC0B23228F8D3B4FBF3F08881CD
:101D3000BDE8F08FA008002048000020780D0020AA
:101D400021B1816841F0010181607047816821F013
:101D5000010181607047000010B5094C22680949F3
:101D600002EA0102D0E9001341EA0301D0E902309E
:101D700043EA000341EA030141EA0201216010BD88
:101D800004230140E030FCFF21B1816841F48071FF
:101D900081607047816821F480718160704721B152
:101DA000816841F4007181607047816821F400719D
:101DB0008160704730B542680F4B1A400C790B6850
:101DC00042EA04221343436083680C4A1340D1E97A
:101DD000034222434D798C6844EA450422431A4366
:101DE0008260C26A22F47002097D491EC9B242EAC9
:101DF0000151C16230BD0000FFFEFFFCFDF7FFC0D6
:101E000070B5072609290ED9D0F80CC0A1F10A0433
:101E100004EB4404A6402CEA060CA3404CEA030C55
:101E2000C0F80CC007E0056901EB4104A640B543CA
:101E3000A3401D4305611F23072A09D2446B521E8C
:101E400002EB820293409C4391400C43446370BD7B
:101E50000D2A09D2046BD21F02EB820293409C43ED
:101E600091400C43046370BDC46A0D3A02EB8202D8
:101E700093409C4391400C43C46270BD816841F023
:101E8000804181607047002800DC404270470000BC
:101E900005484FF4006100680206044801D403F0CD
:101EA000F1BE03F0EDBE000034000020000402404B
:101EB0000549086840F00400044B00221A8020F015
:101EC0008000086070470000340000206800002097
:101ED00038B5456804460146284612F079FD0028C9
:101EE0002AD02068304A0F2819D006DC0B2824D0CD
:101EF0000C2810D00E2851D12FE0112802D028280C
:101F00004CD145E09268002A16D02146284601B0FF
:101F1000BDE830401047214628465268F7E728467A
:101F200004F0F8FD0090406E0468684604F03CFE42
:101F3000002C01D02846A04738BD284604F0EAFD11
:101F40000090683004F04EFD009803216C3004F0DE
:101F500051FD684604F028FE20E0E1684868096801
:101F60000D2902D0202913D105E0002810DD2846D4
:101F700019F094FC06E0002804DD2846BDE838404E
:101F800019F08CBC2846BDE83840022119F09CBCF1
:101F9000E06818B90021284600F097F92046BDE80E
:101FA000384013F089B9000014020020F0B504464F
:101FB00085B08069B4F90850668A0027CDE90265CA
:101FC000CDE900170490B4F90C00B4F91060C11801
:101FD000B4F90A00B4F90E50104433462A4600F012
:101FE00007F80546616800F079F905B02846F0BDAC
:101FF000F0B585B00C46DDE90D514C31DFF850C02D
:10200000DDE90A67CDE902C12146CDE9006713F099
:10201000A3F8040018D004F07DFD10222946049096
:1020200012F0FAFE049830220A493430FEF74DFBD4
:10203000084D04990C3D2868486604A804F0B4FDD6
:10204000286841682046884705B02046F0BD00005A
:10205000D11E000820020020F0B5044680688B499C
:1020600089B051F82050606800287DD0052804D040
:1020700006287AD0122879D1AEE0E86900284FD03E
:1020800095E80E008DE80F0004F110010FC907F06C
:10209000B3F8002655F8260006F018F9A169E8699A
:1020A0000A1A216901446069304405F0B5FAA16952
:1020B000E8690A1A21690144E069801B05F0ACFA5D
:1020C000E169E8690A1A616901442069304405F050
:1020D00043FBE169E8690A1A61690144A069801B50
:1020E00005F03AFB761C022ED4DBA86806F0EEF869
:1020F000E069E9696669431A20694218521E314451
:10210000801C05F093FBE169E869A2690B1A61691B
:102110000144101A401C921E05F088FBEE6913E082
:102120005FF0000655F8260006F0D0F8E069831B42
:10213000A069821B606981192069304405F0CEFADC
:10214000761C022EEEDB0226D5E90301CDE9000163
:102150006169E06908444310A069891C821B2069F9
:10216000304405F001FA02E089E012E08AE0D5E9A6
:102170000501CDE90001E36960690121184401EB23
:102180006001A0699B1E821B2069304405F0ECF9B8
:1021900078E0206804F0BEFC0490206814F0BCF8DD
:1021A00040B1A06808B1002008E00498006F28B191
:1021B000012003E00498406F00B10220049901EB74
:1021C0008000C56E04A804F0EFFC00231A462846E0
:1021D000216804F07BFF55E0206804F09BFC04902C
:1021E000866EEEB3B0F95C70A168D1B3032942D01A
:1021F0005FF0000100EB8101406D0C6C06F070F89F
:10220000204606F063F805A805F060FBBDF8141041
:10221000A88B0144ADF81410BDF81810081AADF8D9
:102220001800BDF81600801CADF81600BDF81A00A5
:10223000801EADF81A0004985E30B0F90220B0F9A3
:10224000001005A805F0A0FF04A804F0ADFC0220D2
:1022500006F086F8304604F05DFC3A4605A901E038
:102260000BE006E0079005F029F807A804F09CFCB5
:1022700008E00121BEE70221BCE704A8F6E72068D8
:1022800013F00EFD09B00020F0BD00001CFA030899
:10229000044A0349116004494A6A4862104670477B
:1022A00050020020140200202002002038B50D4604
:1022B000040009D004F02EFC00904565684604F047
:1022C00073FC204613F0EFFA38BD4FF480720029FA
:1022D000114601D012F006BC12F057BB2DE9FF41A8
:1022E0000E4605004FF001041CD004F013FC0190D1
:1022F000876E01A8009704F057FC3146684607F046
:102300005BFA78B100980024B84208D0284604F05F
:1023100001FC01900099816601A804F045FC284663
:1023200013F0C1FA04B02046BDE8F081F8B51546B7
:102330000C4606000DD004F0EDFB0090032C02D2F9
:1023400000EB84000564684604F02EFC304613F070
:10235000AAFAF8BDFEE700002DE9F05F7C4D297870
:102360007C486FF0704619393711826940F66F0466
:102370004FF4076840F6770940F6780A40F6710B8B
:102380000C2925D2DFE801F0062645642424242404
:1023900083A324C481462146104613F09BF80446CB
:1023A0003146204611F0DCFA3946204611F02AFB6E
:1023B0004146D9F8180013F08DF8044666492046C6
:1023C00011F0CEFA0021204611F01CFB1A202870D3
:1023D000BDE8F09F41468046104613F07BF8044666
:1023E0003146204611F0BCFA3946204611F00AFB6E
:1023F0004946D8F8180013F06DF8044656492046AF
:1024000011F0AEFA0021204611F0FCFA1B202870D2
:10241000DEE780464946104613F05CF80446314634
:10242000204611F09DFA3946204611F0EBFA51464C
:10243000D8F8180013F04EF804464749204611F02A
:102440008FFA0021204611F0DDFA1C202870BFE72A
:1024500080465146104613F03DF80446314620466A
:1024600011F07EFA3946204611F0CCFA5946D8F8D8
:10247000180013F02FF804463749204611F070FA7F
:102480000021204611F0BEFA21202870A0E78046E6
:102490005946104613F01EF804463146204611F006
:1024A0005FFA3946204611F0ADFA40F67901D8F8C6
:1024B000180013F00FF804462749204611F050FA8F
:1024C0000021204611F09EFA2220287080E78046E5
:1024D00040F67901104612F0FDFF044631462046D1
:1024E00011F03EFA3946204611F08CFA40F672019E
:1024F000D8F8180012F0EEFF04461749204611F0F4
:102500002FFA0021204611F07DFA242028705FE781
:10251000814640F67201104612F0DCFF80463146DB
:10252000404611F01DFA3946404611F06BFA21463B
:10253000D9F8180012F0CEFF04460749204611F0E2
:102540000FFA0021204611F05DFA192028703FE7AC
:10255000F60000204C010020FFFFBF002DE9F043F2
:102560002DED028B83B0FD480178FD4A9FEDFD0AF9
:10257000DFF8F883FC4D00270126D8F81800192948
:1025800047D0DFEDFB0A1A297DD0FA4A1B297BD000
:102590001C2939D198F80E1040F6780340F67C09D2
:1025A000022972D098F80E1001292DD1D18800EEA1
:1025B000101AB8EE400A80EE208A194612F08AFFFF
:1025C0000446287800287DD0EB49204611F0E3F935
:1025D000EAA1204611F0F1F94946D8F8180012F0A6
:1025E00079FF044618EE100A23F0F8FC41EC100BBA
:1025F000E5A153EC102B01A8FDF76CFE01A92046C4
:1026000011F0DBF988F80E7003B0BDEC028BBDE869
:10261000F08398F80B1040F66F0340F67309012918
:1026200037D098F80B100229EED1B2F8401000EE26
:10263000901AF8EE600A80EE808A194612F04AFF7E
:102640000446287800285DD0CB49204611F0A3F934
:10265000CFA1204611F0B1F94946D8F8180012F080
:1026600039FF044618EE100A23F0B8FC41EC100BB9
:10267000C5A153EC102B01A8FDF72CFE01A92046A3
:1026800011F09BF902E046E0C2E03AE188F80B6005
:10269000BAE7D18F00EE901AF8EE600A80EE808AD9
:1026A000194612F017FF0446287810B3B2492046A5
:1026B00011F071F9B9A1204611F07FF94946D8F817
:1026C000180000E0CCE112F005FF044618EE100AF5
:1026D00023F084FC41EC100BABA153EC102B01A8B0
:1026E000FDF7F8FD01A9204611F067F988F80B7095
:1026F0008AE7AD49204611F04EF9ACA1204611F011
:102700005CF9DBE7A849204611F045F9ABA120466A
:1027100011F053F9A0E798F80C104FF4076340F656
:102720007409022933D098F80C100129B0D1B2F8FD
:10273000441000EE101AB8EE400A80EE208A1946C6
:1027400012F0C8FE04462878002858D08A4920464E
:1027500011F021F99DA1204611F02FF94946D8F832
:10276000180012F0B7FE044618EE100A23F036FCEB
:1027700041EC100B84A153EC102B01A8FDF7AAFD2E
:1027800001A9204611F019F988F80C703CE7B2F85D
:10279000461000EE101AB8EE400A80EE208A194664
:1027A00012F098FE0446287800B37349204611F0D1
:1027B000F2F889A1204611F000F94946D8F818002E
:1027C00012F088FE044618EE100A23F007FC41ECD4
:1027D000100B6DA153EC102B01A8FDF77BFD01A997
:1027E000204611F0EAF888F80C600DE76E492046A3
:1027F00011F0D1F87BA1204611F0DFF8DDE76A493E
:10280000204611F0C8F87BA1204611F0D6F8A5E7C4
:1028100098F80D3040F6770140F67B09022B31D055
:1028200098F80D30012BB1D1128800EE902AF8EE05
:10283000600A80EE808A12F04DFE04462878002857
:1028400056D04D49204611F0A6F86EA1204611F051
:10285000B4F84946D8F8180012F03CFE044618EEC9
:10286000100A23F0BBFB41EC100B47A153EC102BDB
:1028700001A8FDF72FFD01A9204611F09EF888F868
:102880000D70C1E6528800EE902AF8EE600A80EEE4
:10289000808A12F01FFE0446287800B3364920468D
:1028A00011F079F85AA1204611F087F84946D8F876
:1028B000180012F00FFE044618EE100A23F08EFBEB
:1028C00041EC100B30A153EC102B01A8FDF702FDD9
:1028D00001A9204611F071F888F80D6094E632499C
:1028E000204611F058F84DA1204611F066F8DDE7BA
:1028F0002D49204611F04FF84CA1204611F05DF80B
:10290000A7E7118900EE101AB8EE400A80EE208A7F
:10291000194612F0DFFD04462878F0B1164920462A
:1029200011F039F845A1204611F047F84946D8F88A
:10293000180012F0CFFD044618EE100A23F04EFBEB
:1029400041EC100B10A153EC102B01A8FDF7C2FCB9
:1029500001A9204611F031F876E078E0F600002079
:10296000800E00200000C842F50000204C0100202D
:1029700000007A44FC8600207CD803084375746FFD
:102980006666204331000000252E326600000000FC
:102990004F75747075742056320000004F75747056
:1029A0007574205631000000F0BB0308E8BE93E5C3
:1029B00087BAE794B5E58E8B31000000E8BE93E559
:1029C00087BAE794B5E58E8B320000004C696D69DB
:1029D00074696E67204331004C696D6974696E6774
:1029E00020433200E99990E588B6E794B5E6B581D1
:1029F00032000000E99990E588B6E794B5E6B58124
:102A0000310000004375746F666620563100000087
:102A10004375746F6666205632000000E688AAE6A9
:102A2000ADA2E794B5E58E8B32000000E688AAE6F9
:102A3000ADA2E794B5E58E8B310000004375746F4D
:102A4000666620433200000088F80E60DCE5094924
:102A5000204610F0A0FF08A1204610F0AEFF65E769
:102A60000449204610F097FF07A1204610F0A5FF6B
:102A7000B2E50000F0BB0308E688AAE6ADA2E79441
:102A8000B5E6B58132000000E688AAE6ADA2E7947B
:102A9000B5E6B581310000002DE9F0432DED028B44
:102AA00083B0FD480178FD4A9FEDFD0ADFF8F88309
:102AB000FC4D01260227D8F81800192947D0DFED70
:102AC000FB0A1A297ED0FA4A1B297CD01C2939D14D
:102AD00098F80E1040F6780340F67C09002974D06F
:102AE00098F80E1001292DD1518900EE101AB8EE78
:102AF000400A80EE208A194612F0ECFC0446287841
:102B000000287DD0EB49204610F045FFEAA1204681
:102B100010F053FF4946D8F8180012F0DBFC0446C9
:102B200018EE100A23F05AFA41EC100BE5A153EC11
:102B3000102B01A8FDF7CEFB01A9204610F03DFFA8
:102B400088F80E7003B0BDEC028BBDE8F08398F8F6
:102B50000B1040F66F0340F67309A9B398F80B10F9
:102B60000129EFD1B2F8421000EE901AF8EE600A97
:102B700080EE808A194612F0ADFC044628780028C1
:102B80005ED0CC49204610F006FFD0A1204610F0C0
:102B900014FF4946D8F8180012F09CFC044618EEC1
:102BA000100A23F01BFA41EC100BC6A153EC102BBA
:102BB00001A8FDF78FFB01A9204610F0FEFE88F862
:102BC0000B70BFE745E0C1E000E038E1B2F840102B
:102BD00000EE901AF8EE600A80EE808A194612F034
:102BE00079FC0446287810B3B249204610F0D3FE91
:102BF000B9A1204610F0E1FE4946D8F8180000E0DF
:102C0000CCE112F067FC044618EE100A23F0E6F956
:102C100041EC100BABA153EC102B01A8FDF75AFBB4
:102C200001A9204610F0C9FE88F80B608AE7AD497B
:102C3000204610F0B0FEACA1204610F0BEFEDBE74F
:102C4000A849204610F0A7FEABA1204610F0B5FE23
:102C50009FE798F80C104FF4076340F6740999B396
:102C600098F80C100129ACD1B2F8481000EE101AF7
:102C7000B8EE400A80EE208A194612F02BFC04467A
:102C80002878002859D08B49204610F084FE9EA158
:102C9000204610F092FE4946D8F8180012F01AFCAF
:102CA000044618EE100A23F099F941EC100B85A1A7
:102CB00053EC102B01A8FDF70DFB01A9204610F0E5
:102CC0007CFE88F80C703DE7FFE7B2F8461000EE96
:102CD000101AB8EE400A80EE208A194612F0FAFB6C
:102CE0000446287800B37349204610F054FE89A1A9
:102CF000204610F062FE4946D8F8180012F0EAFBB0
:102D0000044618EE100A23F069F941EC100B6DA18E
:102D100053EC102B01A8FDF7DDFA01A9204610F0B5
:102D20004CFE88F80C600DE76E49204610F033FE2B
:102D30007BA1204610F041FEDDE76A49204610F0F5
:102D40002AFE7BA1204610F038FEA4E798F80D304B
:102D500040F6770140F67B098BB398F80D30012BD4
:102D6000B1D1928800EE902AF8EE600A80EE808A57
:102D700012F0B0FB04462878002857D04D49204671
:102D800010F009FE6EA1204610F017FE4946D8F853
:102D9000180012F09FFB044618EE100A23F01EF9EB
:102DA00041EC100B47A153EC102B01A8FDF792FA50
:102DB00001A9204610F001FE88F80D70C2E6FFE779
:102DC000528800EE902AF8EE600A80EE808A12F0B7
:102DD00081FB0446287800B33649204610F0DBFD1D
:102DE0005AA1204610F0E9FD4946D8F8180012F023
:102DF00071FB044618EE100A23F0F0F841EC100BBA
:102E000030A153EC102B01A8FDF764FA01A920466C
:102E100010F0D3FD88F80D6094E63249204610F09A
:102E2000BAFD4DA1204610F0C8FDDDE72D49204632
:102E300010F0B1FD4CA1204610F0BFFDA6E71189AE
:102E400000EE101AB8EE400A80EE208A194612F001
:102E500041FB04462878F0B11649204610F09BFD4E
:102E600045A1204610F0A9FD4946D8F8180012F0F7
:102E700031FB044618EE100A23F0B0F841EC100BB9
:102E800010A153EC102B01A8FDF724FA01A920464C
:102E900010F093FD76E078E0F6000020800E002030
:102EA0000000C842F50000204C01002000007A44D8
:102EB000FC8600207CD803084375746F6666204347
:102EC00033000000252E3266000000004F7574703C
:102ED00075742056330000004F7574707574205659
:102EE00032000000F0BB0308E8BE93E587BAE79420
:102EF000B5E58E8B32000000E8BE93E587BAE79413
:102F0000B5E58E8B330000004C696D6974696E679E
:102F1000204333004C696D6974696E672043320049
:102F2000E99990E588B6E794B5E6B58132000000EE
:102F3000E99990E588B6E794B5E6B58133000000DD
:102F40004375746F66662056330000004375746FD6
:102F50006666205632000000E688AAE6ADA2E79435
:102F6000B5E58E8B32000000E688AAE6ADA2E794B4
:102F7000B5E58E8B330000004375746F66662043A1
:102F80003200000088F80E60DCE50949204610F0A8
:102F900002FD08A1204610F010FD65E70449204617
:102FA00010F0F9FC07A1204610F007FDB2E5000083
:102FB000F0BB0308E688AAE6ADA2E794B5E6B581C2
:102FC00032000000E688AAE6ADA2E794B5E6B58136
:102FD000330000002DE9F05F7D4D29787D481939D7
:102FE00040F66F0782696FF070464FF4076840F64D
:102FF000770940F6780A40F6710B40F679040C29FF
:1030000026D2DFE801F0062747662525252585A479
:1030100025C339460746104612F05CFA044631468D
:10302000204610F09DFC6FF07F41204610F0EAFC36
:1030300040F67201B86912F04DFA0446664920461E
:1030400010F08EFC0021204610F0DCFC24202870BB
:10305000BDE8F09F41468046104612F03BFA044618
:103060003146204610F07CFC6FF07F41204610F086
:10307000C9FC3946D8F8180012F02CFA0446564913
:10308000204610F06DFC0021204610F0BBFC1920FA
:103090002870DDE707464946104612F01BFA044641
:1030A0003146204610F05CFC6FF07F41204610F066
:1030B000A9FC4146B86912F00DFA0446464920467B
:1030C00010F04EFC0021204610F09CFC1A202870C5
:1030D000BEE707465146104612F0FCF90446314659
:1030E000204610F03DFC6FF07F41204610F08AFC36
:1030F0004946B86912F0EEF904463749204610F007
:103100002FFC0021204610F07DFC1B2028709FE73B
:1031100007465946104612F0DDF90446314620466E
:1031200010F01EFC6FF07F41204610F06BFC514602
:10313000B86912F0CFF904462749204610F010FC78
:103140000021204610F05EFC1C20287080E7074616
:103150002146104612F0BEF904463146204610F0D2
:10316000FFFB6FF07F41204610F04CFC5946B869D8
:1031700012F0B0F904461849204610F0F1FB002186
:10318000204610F03FFC2120287061E7804640F681
:103190007201104612F09EF907463146384610F08B
:1031A000DFFB6FF07F41384610F02CFC2146D8F849
:1031B000180012F08FF904460749204610F0D0FBA2
:1031C0000021204610F01EFC2220287040E700005D
:1031D000F60000204C010020FFFFBF002DE9F04F5A
:1031E0002DED068B83B0F848408E00EE100AB8EE45
:1031F000400ADFEDF60A80EE208AF348808E00EE6A
:10320000100AB8EE400ADFEDF10AC0EE208AEE485F
:10321000C08E00EE100AB8EE400ADFEDEC0A80EE38
:10322000209AE948008F00EE100AB8EE400ADFED60
:10323000E70AC0EE209AE6480178E64D1939E64ED5
:1032400040F66F0840F6730901244FF4076A9FEDBA
:10325000E3AAE448E24F40F6770B8069102932D2A6
:10326000DFE801F00890FDFC36BAFBFAF9F8F7F652
:10327000F5F4F3F24146DB4F12F02CF906466FF0FD
:103280007041304610F06CFB6FF07F41304610F01B
:10329000B9FB4946B86912F01DF90646D2493046D5
:1032A00010F05EFB0021304610F0ACFB0020CF4A4E
:1032B000002102E01154401CC0B20528FAD3C449D1
:1032C0001D2008702C7003B0BDEC068BBDE8F08F9C
:1032D0004946DFF8109312F0FDF807466FF0704191
:1032E000384610F03DFB6FF07F41384610F08AFB06
:1032F00099F80B0040B199F80B00012808D099F813
:103300000B00022809D00CE0AF48C18F418008E0D3
:10331000AD48B0F84010418003E0AB48B0F842102F
:103320004180A948408800EE100AF8EE400A9FED5F
:10333000A71A80EE810A10EE100A22F04FFE41EC2F
:10334000100BABA153EC102B01A8FCF7C3FF01A994
:10335000384610F032FB4146D9F8180012F0BAF89E
:103360000746A149384610F0FBFA0021384610F014
:1033700049FB9749192008702C700020307013F019
:1033800029FAA0E75146974D12F0A4F804466FF0D1
:103390007041204610F0E4FA6FF07F41204610F0B3
:1033A00031FB0020914A002102E01154401CC0B2C0
:1033B0000528FAD340F67401A86912F08BF8044688
:1033C0008949204610F0CCFA0021204610F01AFB63
:1033D0007F491E20087076E740F67401DFF804820A
:1033E00012F078F807466FF07041384610F0B8FADE
:1033F0006FF07F41384610F005FB98F80C0040B1A3
:1034000098F80C00012809D098F80C0002280AD07E
:103410000DE06D48B0F84410818008E06A48B0F8CB
:103420004610818003E06848B0F848108180664803
:10343000828841F288318A4200D98180808800EEFA
:10344000100AF8EE400A0BE0EEE188E1FFE05AE0F6
:103450009BE2BEE158E11FE2B9E248E2CCE028E09D
:1034600080EE8A0A10EE100A22F0B8FD41EC100B33
:103470005FA153EC102B01A8FCF72CFF01A93846E3
:1034800010F09BFA5146D8F8180012F023F80746BE
:103490005549384610F064FA0021384610F0B2FA67
:1034A0004B491A2008702C700020307013F092F9EC
:1034B00009E759464B4D12F00DF804466FF0704184
:1034C000204610F04DFA6FF07F41204610F09AFA36
:1034D00000204649002202E00A54401CC0B20528E0
:1034E000FAD340F67B01A86911F0F4FF04463E4987
:1034F000204610F035FA0021204610F083FA3449B6
:1035000025200870DFE640F67B01DFF8D88011F057
:10351000E1FF81466FF07041484610F021FA6FF0EC
:103520007F41484610F06EFA98F80D0040B198F8C7
:103530000D0001280ED098F80D00022814D01CE0D0
:103540003888DFED220A00EE100AB8EE400A80EE5D
:10355000208A12E07888DFED1D0A00EE100AB8EE2E
:10356000400A80EE208A08E0B888DFED180A00EEF5
:10357000100AB8EE400A80EE208A18EE100A22F0F7
:103580002DFD41EC100B1AA153EC102B01A8FCF7F8
:10359000A1FE01A9484610F010FA5946D8F81800C3
:1035A00011F098FF07461049384610F0D9F900216C
:1035B000384610F027FA06491B2008702C700020AE
:1035C000307013F007F97EE6800E00200000C8423C
:1035D000F6000020E8000020E900002000007A4406
:1035E000FC8600204C010020FFFFBF001C010020D2
:1035F000252E32660000000040F67801FE4D11F0E5
:1036000069FF04466FF07041204610F0A9F96FF091
:103610007F41204610F0F6F90020F849002202E030
:103620000A54401CC0B20528FAD340F67C01A869B0
:1036300011F050FF0446F249204610F091F90021A4
:10364000204610F0DFF9EF49262008703BE640F6EF
:103650007C01DFF8A49311F03DFF80466FF07041CC
:10366000404610F07DF96FF07F41404610F0CAF9F6
:1036700099F80E0040B199F80E0001280CD099F885
:103680000E00022810D016E0F88800EE100AB8EEFE
:10369000400AC0EE0A8A0EE0388900EE100AB8EE41
:1036A000400AC0EE0A8A06E0788900EE100AB8EEF9
:1036B000400AC0EE0A8A18EE900A22F08FFC41EC14
:1036C000100B53EC102BAFF2D80101A8FCF702FE4F
:1036D00001A9404610F071F940F67801D9F81800B8
:1036E00011F0F8FE0746C649384610F039F90021B6
:1036F000384610F087F9C3491C2008702C70002050
:10370000307013F067F8DEE540F67901BA4D11F03C
:10371000E1FE04466FF07041204610F021F96FF091
:103720007F41204610F06EF90020B44A002102E0EB
:103730001154401CC0B20528FAD340F67D01A86997
:1037400011F0C8FE0446AE49204610F009F90021E8
:10375000204610F057F9AB4927200870B3E540F632
:103760007D01DFF8948211F0B5FE07466FF07041DD
:10377000384610F0F5F86FF07F41384610F042F906
:1037800019EE100A22F02AFC41EC100B53EC102B1E
:10379000AFF2A41101A8FCF79DFD01A9384610F075
:1037A0000CF940F67901D8F8180011F093FE07469D
:1037B0009349384610F0D4F80021384610F022F929
:1037C0009049222008702C700020307013F002F80D
:1037D00079E540F67A01884D11F07CFE04466FF0E1
:1037E0007041204610F0BCF86FF07F41204610F089
:1037F00009F90020814A002102E01154401CC0B2A6
:103800000528FAD340F67E01A86911F063FE04464C
:103810007B49204610F0A4F80021204610F0F2F871
:103820007849282008704EE540F67E01DFF8C8810F
:1038300011F050FE07466FF07041384610F090F8D6
:103840006FF07F41384610F0DDF819EE900A22F053
:10385000C5FB41EC100B53EC102BAFF26C2101A80F
:10386000FCF738FD01A9384610F0A7F840F67A01B8
:10387000D8F8180011F02EFE07466149384610F0BE
:103880006FF80021384610F0BDF85E49232008701B
:103890002C700020307016E540F67101564D11F085
:1038A00019FE04466FF07041204610F059F86FF091
:1038B0007F41204610F0A6F80020504A002102E087
:1038C0001154401CC0B20528FAD340F67501A8690E
:1038D00011F000FE04464A49204610F041F800214C
:1038E000204610F08FF847491F200870EBE440F69F
:1038F0007501DFF8048111F0EDFD07466FF07041AE
:10390000384610F02DF86FF07F41384610F07AF805
:103910003D48B0F852100181018940F2DC529142D9
:1039200001D900210181008900EE100AF8EE400A59
:103930001FEDDA1A80EE810A10EE100A22F04EFB1B
:1039400041EC100B53EC102BAFF25C3101A8FCF7EB
:10395000C1FC01A9384610F030F840F67101D8F8E2
:10396000180011F0B7FD0746254938460FF0F8FF5B
:103970000021384610F046F82249212008702C70AA
:103980000020307012F026FF9DE440F672011A4DBF
:1039900011F0A0FD04466FF0704120460FF0E0FFEB
:1039A0006FF07F41204610F02DF840F67601A869AF
:1039B00011F090FD0446124920460FF0D1FF00217E
:1039C000204610F01FF80F49202008707BE440F6D5
:1039D0007601DFF8248011F07DFD07466FF070411D
:1039E00038460FF0BDFF6FF07F41384610F00AF8FF
:1039F00040F672010AE000004C0100201C0100208A
:103A0000FFFFBF00F6000020800E0020D8F818004D
:103A100011F060FD0746084938460FF0A1FF00216C
:103A200038460FF0EFFF0549242008702C70002065
:103A3000307012F0CFFE46E4FFFFBF00F60000201A
:103A400070B5134D69792846124E806940F6990287
:103A500001290FD0114611F03DFD04466FF0704171
:103A600020460FF07DFF314620460FF0CBFF2F2080
:103A7000287070BD114611F02DFD044631462046D8
:103A80000FF06EFF2046BDE8704000210FF0BABF76
:103A900070010020FFFFBF002DE9FF4704460068CA
:103AA00010B112F039FC68B10022314850F82210F0
:103AB00060680A2841D007DCF0B306280DD007283B
:103AC00054D106E00122F0E712280AD019284DD17E
:103AD00037E0204613F0E2FD48E0204614F06CFF8A
:103AE00044E0206803F016F80290B0F9548090F892
:103AF0005650476C466B02A803F056F8206800F059
:103B000039F88146684611F0BDFCBDF8001009EB9C
:103B100005000844ADF80000246A304604F0E0FBDC
:103B2000022004F01DFC384604F0D0FB42466946F2
:103B3000204603F0C3FB19E007E0204615F028FA01
:103B400014E0886904B0BDE8F087206812F0A8F896
:103B5000206802F0DFFF0390B0F90610B0F90220F0
:103B6000891A491CC16703A803F01EF80020E9E781
:103B70002CFA030838B502F0CDFF0090C46F6846F8
:103B800003F012F8204638BD044A03491160044985
:103B9000CA69C86110467047DC020020A4060020F4
:103BA000A806002000B589B024216846FCF7C7FDAF
:103BB000192001900348006880684168684688477A
:103BC00009B000BDA40600201CB5154901200870ED
:103BD000144A19211170144900240C7013490870FB
:103BE0001348C18F4180B0F844108180B0F8521062
:103BF00001817021682010F0CCFA4FF480510D48FB
:103C000002F03EF811F05AFC034600940A4A2721BC
:103C10000A48019403F076F9094988611CBD000047
:103C2000EA000020F6000020700000207C00002048
:103C3000800E0020000C02400514020814550308F1
:103C40004C0100201CB50E48002404700D4804707F
:103C50000D4804707021682010F09BFA4FF48051D9
:103C60000A4802F00DF811F029FC03460094084AB6
:103C700007210848019403F045F9074908601CBD75
:103C8000EA0000207C00002070000020000C0240B0
:103C9000CD0F020850540308380100207CB50D4CAC
:103CA0001320A0730320A0700B4908700025257213
:103CB0000A48818D01810A48057011F0FFFB034617
:103CC0000095084A1A210848019503F01BF9206263
:103CD0007CBD0000E80000207C000020800E002059
:103CE0007000002089F70108D06202081CB50F4956
:103CF000052008700E48002404700E4804707021DE
:103D0000682010F046FA4FF480510B4801F0B8FFDC
:103D100011F0D4FB03460094084A2021084801947E
:103D200003F0F0F8074948601CBD0000EA000020DD
:103D3000F600002070000020000C0240BD2D02089B
:103D400058590308680100201CB50849062008706E
:103D500011F0B4FB0346002000900190044A0121B9
:103D6000044803F0CFF8044948601CBDEA00002075
:103D70004D0F020868670208300100201CB5144985
:103D8000022008701349087013490920087013486D
:103D9000002404701248B0F850104180B0F854105C
:103DA00081807021682010F0F4F94FF480510D48A3
:103DB00001F066FF11F082FB034600940A4A1221CB
:103DC0000A48019403F09EF8094948601CBD0000B0
:103DD000EA0000207C000020F60000207000002097
:103DE000800E0020000C02405DEF0108D860020840
:103DF000E00000201CB51249042008701149087029
:103E00001149172008701148B0F84A100181104874
:103E1000002404707021682010F0BBF94FF4805129
:103E20000C4801F02DFF11F049FB034600940A4AAB
:103E300010210A48019403F065F8094948601CBD47
:103E4000EA0000207C000020F6000020800E002008
:103E500070000020000C0240F9420208A865020828
:103E6000240100201CB511F029FB00240346009416
:103E7000074A12210748019403F044F80649886173
:103E8000064A1470064B07221A702F220A701CBDB6
:103E9000453C0208D85C0308700100207000002037
:103EA000EA000020054B0122824019B11868104336
:103EB000186070471868904318607047007400409D
:103EC00010B586B0012148070CF0A0FD102000902D
:103ED00003208DF8040000248DF8074069460C4843
:103EE00001F07AFE029403944FF4306004900220B3
:103EF000059002A9002000F00DF801210020FFF735
:103F0000D1FF0121002000F01FF806B010BD000015
:103F10000000024030B5084C236840F6FE72824033
:103F20009343D1E900252A43D1E902510D432A43A5
:103F300082401A43226030BD00740040014A1044A0
:103F400081607047007400400209064B01209040D8
:103F500019B11968014319607047196881431960E4
:103F6000704700000474004008B538208DF8000048
:103F700003208DF801008DF8020001208DF8030068
:103F800068460AF0FBF908BD014800687047000068
:103F90002803002010B50549054800F00DF8054834
:103FA000016841F00201016010BD00002080001096
:103FB0001064024034000020074A904201D20748B2
:103FC00001E005481038064A8B0001EA020101D5DC
:103FD000C160704781607047106402400060024019
:103FE0007D0F7D0F21B1016841F001010160704733
:103FF000016821F00101016070470B0609D522B16B
:10400000436943F08003436103E0436923F0800385
:104010004361802905D001F01E011AB102680A43EC
:104020000260704702688A430260704730B50368D7
:10403000124A1340CC680A682243D1E905452C4353
:104040002243CC6922430C6A22434C6A22438C6A85
:1040500022434C6B22438C6B22431A430260426919
:1040600022F00703D1E90B2422431A4342610A6973
:1040700042604A6882608968C16030BD3F801CF040
:10408000F8B50546006802F045FD0090448ED0F872
:104090008860684602F088FD06B1012604F001043C
:1040A000286812F039F90EB1002006E00CB10120A9
:1040B00003E008B1022000E003201B4951F8201062
:1040C000686858B302280CD0052802D0122828D1DD
:1040D00003E0284613F00EFB23E0284615F0EDFB25
:1040E0001FE06A69E8694FF0FF33801AA0F1080207
:1040F00003EB6204421CAB69001B4510A3EB620694
:10410000C86904F0E3F806E03219311B284603F0D1
:1041100083FA641E6D1C002CF6DA02E0286811F0A8
:10412000BFFD0020F8BD00008CFA0308044A0349D3
:10413000116004490A6B0863104670472C03002085
:10414000E4060020E806002038B50D46002402F001
:10415000E1FC0090C06B294602F0BEFD05466846B2
:1041600002F022FD1DB1284602F0D4FC0446204690
:1041700038BD704730B504464FF47A7502E02846E2
:1041800000F006F82300A4F1010084B2F7D130BD9D
:1041900000220BE0042100BF00BF00BF00BF00BF32
:1041A000491E0904090CF6D1521C92B28242F1D385
:1041B0007047000010B52DED028B24490A78244C7D
:1041C000B2EE048A022AE0681FD00978032939D1A7
:1041D000204991ED000A20EE080ABDEEC00A10EE5B
:1041E000101A09B201F026FE1B4890ED000A20EEDD
:1041F000080ABDEEC00A10EE100A01B22069BDEC3B
:10420000028BBDE8104001F015BE144991ED000A83
:1042100020EE080ABDEEC00A10EE101A09B201F035
:1042200009FE0F4890ED000A20EE080ABDEEC00A14
:1042300010EE100A01B22069BDEC028BBDE81040FF
:1042400001F0F8BDBDEC028B10BD00007D00002028
:104250003801002028000020300000202400002029
:104260002C00002010B5044620F0B2FDA02020F064
:1042700081FD20F0DDFD68B9204620F07BFD20F0B7
:10428000D7FD38B920F0A4FDA12020F073FD20F067
:10429000CFFD18B120F0B8FD002010BD20F048FD82
:1042A000034C207020F02CFD20F0AEFD207810BDD6
:1042B0006600002070B50120FFF7D4FFFE4C20609F
:1042C0002068000220600220FFF7CCFF216808442C
:1042D00020602068000220600320FFF7C3FF2168F0
:1042E000084420602068000220600420FFF7BAFF25
:1042F0002168084420604020FFF7B4FF2062206A54
:10430000000220624120FFF7ADFF216A08442062CD
:10431000206A000220624220FFF7A4FF216A0844BD
:104320002062206A000220624320FFF79BFF216A7F
:10433000084420620520FFF795FF60606068000276
:1043400060600620FFF78EFF616808446060606867
:10435000000260600720FFF785FF61680844606025
:104360006068000260600820FFF77CFF6168084415
:1043700060603320FFF776FFA060A0680002A060B5
:104380003420FFF76FFFA1680844A060A068000216
:10439000A0603520FFF766FFA1680844A060A06810
:1043A0000002A0603620FFF75DFFA1680844A0600E
:1043B0000920FFF757FFE060E0680002E0600A2094
:1043C000FFF750FFE1680844E060E0680002E06049
:1043D0000B20FFF747FFE1680844E060E068000257
:1043E000E0600C20FFF73EFFE1680844E0600D202C
:1043F000FFF738FFB14D28802888000228800E2062
:10440000FFF730FF2988084428804420FFF72AFF5F
:104410002883288B000228834520FFF723FF298B60
:10442000084428830F20FFF71DFF6880688800027A
:1044300068801020FFF716FF6988084468803720DD
:10444000FFF710FFA880A8880002A8803820FFF797
:1044500009FFA9880844A8801120FFF703FFE8801E
:10446000E8880002E8801220FFF7FCFEE988084493
:10447000E8801320FFF7F6FE28814620FFF7F2FEC2
:10448000E8821420FFF7EEFE20612069000220611F
:104490001520FFF7E7FE216908442061206900022A
:1044A00020611620FFF7DEFE2169084420612069A3
:1044B000000220611720FFF7D5FE21690844206122
:1044C0001820FFF7CFFE606160690002606119206B
:1044D000FFF7C8FE616908446061606900026061BD
:1044E0001A20FFF7BFFE616908446061606900023D
:1044F00060611B20FFF7B6FE6169084460613920E6
:10450000FFF7B0FEA061A0690002A0613A20FFF7AA
:10451000A9FEA1690844A061A0690002A0613B2036
:10452000FFF7A0FEA1690844A061A0690002A06194
:104530003C20FFF797FEA1690844A0611C20FFF70B
:1045400091FE68816889000268811D20FFF78AFE5C
:104550006989084468811E20FFF784FEA881A88924
:104560000002A8811F20FFF77DFEA9890844A881C9
:104570003D20FFF777FEE881E8890002E8813E20D0
:10458000FFF770FEE9890844E8812020FFF76AFE02
:1045900068822120FFF766FE2882288A000228828E
:1045A0002220FFF75FFE298A084428822320FFF794
:1045B00059FEE061E0690002E0612420FFF752FE4D
:1045C000E1690844E061E0690002E0612520FFF74D
:1045D00049FEE1690844E061E0690002E0612620EB
:1045E000FFF740FEE1690844E0612720FFF73AFE4B
:1045F000A8822A20FFF736FE314C20802088000256
:1046000020802B20FFF72EFE2188084420802C20BC
:10461000FFF728FEA080A0880002A0802D20FFF7D1
:1046200021FEA1880844A080A4F150044FF0280086
:10463000FFF718FE234D28802888000228802920B3
:10464000FFF710FE2988084428802F20FFF70AFE74
:104650001D4908705620FFF705FE1C4908705520BB
:10466000FFF700FE1A4908707420FFF7FBFD194997
:1046700008705720FFF7F6FD174908705820FFF71C
:10468000F1FD164908705920FFF7ECFD1449087038
:104690005A20FFF7E7FD134908805B20FFF7E2FD92
:1046A000114908805C20FFF7DDFD104908805D207E
:1046B000FFF7D8FD0E491DE05C0E0020400E0020E3
:1046C000D00E0020C20000208D000020EC00002051
:1046D000EB000020F50000206801002069010020A7
:1046E000F4000020800100208201002084010020CD
:1046F0008601002008805E20FFF7B4FDC5490870E0
:104700005F20FFF7AFFDC44908706020FFF7AAFDE6
:10471000C24908706120FFF7A5FDC14908706220F9
:10472000FFF7A0FDBF4908706320FFF79BFDBE495E
:1047300008706420FFF796FDBC4908706520FFF7FC
:1047400091FDBB4908706620FFF78CFDB9490870E0
:104750006720FFF787FDB84908706820FFF782FDE2
:10476000B64908706920FFF77DFDB54908707520CE
:10477000FFF778FDB34908803020FFF773FDB24999
:1047800008703120FFF76EFDB04908703220FFF746
:1047900069FDAF49087008780A2801D9002008701F
:1047A0004720FFF75FFD24F81C0F208800022080BF
:1047B0004820FFF757FD2188084420804920FFF753
:1047C00051FD60806088000260804A20FFF74AFD4A
:1047D0006188084460804B20FFF744FDA080A088DA
:1047E0000002A0804C20FFF73DFDA1880844A08076
:1047F0004D20FFF737FDE080E0880002E0804E208A
:10480000FFF730FDE1880844E0804F20FFF72AFDE4
:1048100020812089000220815020FFF723FD21897B
:10482000084420815120FFF71DFD6081608900024E
:1048300060815220FFF716FD618908446081532092
:10484000FFF710FDE085E08D0002E0855420FFF7C2
:1048500009FDE18D0844E0857020FFF703FD20820B
:10486000208A000220827120FFF7FCFC218A084484
:1048700020827220FFF7F6FC6082608A000260826C
:104880007320FFF7EFFC618A084460827620FFF70F
:10489000E9FC6084608C000260847720FFF7E2FC12
:1048A000618C084460847C20FFF7DCFCA084A08C31
:1048B0000002A0847D20FFF7D5FCA18C0844A084D1
:1048C0007E20FFF7CFFCE084E08C0002E0847F20B4
:1048D000FFF7C8FCE18C0844E0848620FFF7C2FCA7
:1048E0005C4D28802888000228808720FFF7BAFCCA
:1048F0002988084428808820FFF7B4FC68806888ED
:10490000000268808920FFF7ADFC69880844688050
:104910008A20FFF7A7FCA880A8880002A8808B2027
:10492000FFF7A0FCA9880844A8807820FFF79AFC2C
:104930002085208D000220857920FFF793FC218DB2
:10494000084420858020FFF78DFC6085608D000283
:1049500060858120FFF786FC618D08446085822098
:10496000FFF780FCA085A08D0002A0858320FFF7C3
:1049700079FCA18D0844A085A4F11C044FF08C00A3
:10498000FFF770FCE880E8880002E8808D20FFF7E0
:1049900069FCE9880844E8808E20FFF763FC2881E1
:1049A0002889000228818F20FFF75CFC29890844B0
:1049B00028819020FFF756FC688168890002688191
:1049C0009120FFF74FFC6989084468818420FFF734
:1049D00049FC214908707A20FFF744FC04F13604B1
:1049E000A083A08B4FEA0020A0834FF07B00FFF74D
:1049F00039FCA18B0844A0839220FFF733FC208070
:104A00002088000220809320FFF72CFC2188084496
:104A1000208070BD71010020720100207301002010
:104A20007401002076010020770100207801002029
:104A3000790100207A0100207B0100207C01002008
:104A40007D010020F80000208E0000209000002052
:104A50008F000020FC8600204C01002070B5054628
:104A60000E4620F0D1F9002409E020F0B1F9A02091
:104A700020F080F920F0DCF918B1641CA4B2642C99
:104A8000F3D3B4F57A7F0DD0E8B220F073F920F0BB
:104A9000CFF938B9304620F06DF920F0C9F908B9DE
:104AA00020F0B2F9BDE8704020F0AEB92DE9F04138
:104AB000044694B0006800F0B7F908B1D94D01E0A0
:104AC000D84D2C35606815281ED00CDC0B281FD063
:104AD00004DC00287ED005287DD12EE10E287BD075
:104AE0001228F9D141E1162806D0172808D0182835
:104AF00008D01C28F0D109E0E86914B0BDE8F081C5
:104B0000286AFAE7686AF8E7A86AF6E76869F4E7E6
:104B100020680B901C200C90206801F0FBFF039094
:104B2000016D0BA88847064603A802F03DF8022E47
:104B30000EDB95E807008DE80700D4E90402334650
:104B4000A16904F027FB20698719A069801B2BE06D
:104B5000286803F0BBFB2169E8690A18521E6069E6
:104B600002F05AFDA269E869111A491C606902F055
:104B700053FD676920697F1C394602F08FFD394675
:104B8000A06902F08BFD686803F0A0FB206939463C
:104B9000401C02F083FDA0693946401E02F07EFDF4
:104BA0002769A069BF1C801E8046286803F08EFB21
:104BB00042463946606902F02FFD686803F086FBC3
:104BC00060694246401C394602F026FD686A0228A8
:104BD0000FDD02E015E1AFE000E1A86803F076FB2D
:104BE00061696A6A881C8B1801465B1E424638461A
:104BF00027E0296AB14226DD6069022E074600F1EE
:104C0000020801DB374401E007F10207206901DBFC
:104C1000304401E000F1020022693B460A44A2F15F
:104C20000102414602F002FE022E02DBA069821B55
:104C300001E0A269921EA069E9693B46401A401C46
:104C4000414602F0F3FD022E02DB6069064401E0FA
:104C50006669B61CE76928687F1E03F037FB3A4691
:104C60003146206902F078FD3A463146A06902F0EB
:104C700073FDE7696868BF1E03F028FB20693A46A8
:104C8000401C314602F068FDA0693A46401E31469C
:104C900002F062FDE869022802DC286A022823DDAE
:104CA000A86A022802DDE1690F1A01E0E769BF1E68
:104CB000A86803F00BFBE969022909DD20693B467E
:104CC000421800F1020C521E3146604602F0AEFD61
:104CD000286A022808DDA269E8693B46101A401CD0
:104CE000921E314602F0A2FD286803F0EFFAD4E9E3
:104CF0000620216902F090FC686803F0E7FAA269D7
:104D00002169E069521E491C401E02F085FCA86A18
:104D1000022811DD2669A169E469B61C271AA1F1F0
:104D200002087F1CA41EA86803F0D0FA234642465E
:104D30003946304602F07AFD72E0208A06B2ADF8BC
:104D40001460A08A01B2ADF81610208B02B2ADF843
:104D50001820A08B03B2ADF81A30D5E90304CDE9D1
:104D60000004304602F000FC5AE0208A298B0844F7
:104D7000ADF81400A08AADF81600208B298B401ADC
:104D8000ADF81800A08BADF81A00206801F0C2FE43
:104D90000390006FF0B1022003F0E2FA039991F85A
:104DA0007C00C0F3C00001EB8000006C03F08EFAC1
:104DB0000398406B03F094FA0398006F01F0AAFE89
:104DC00003990A90B1F95A2005A902F077FA0AA8C6
:104DD00001F0EAFE03A801F0E7FE21E0208AADF829
:104DE0001400A08AADF81600208BADF81800A08B37
:104DF000ADF81A00A86803F069FA05A802F03AFDB8
:104E00000EE0206801F086FE039030F85A1F41F052
:104E10000C01018003A801F0C7FE206810F040FFDC
:104E200000206AE6FC03002038B5002450B101F0F0
:104E300071FE009090F87C00000700D501246846C0
:104E400001F0B2FE204638BD30B504468BB0006894
:104E500001F060FE009090F87C10246A006FC1F3AE
:104E6000C00508B101F056FE0690E0680290206986
:104E70000390A088401EADF81000E089ADF8120044
:104E80002089401CADF81400608AADF81600BDF80A
:104E90000800401CADF80800BDF80A00401CADF841
:104EA0000A00BDF80C00401EADF80C000098406BE5
:104EB00003F016FA009808AA02A9B0F95A30069829
:104EC00003F0F0FC009800EB8500806B08F0CEFC4E
:104ED000009800EB8500006C08F000FD08AB02AA0A
:104EE00004A906980FF0BEFE684601F05DFE069824
:104EF00010B106A801F058FE0BB0002030BD000034
:104F0000074A0649054B1160064A083BD1695860BB
:104F10001B68C2E90630084670470000F003002015
:104F2000240700202807002038B50D46040009D0CA
:104F300001F0F0FD00900566684601F035FE204660
:104F400010F0B1FC38BD2DE9F34F85B000270C46B9
:104F5000B846059801F0DEFD0090C06D012185681E
:104F600005982A68904782462A6803210598904749
:104F700004902A6802210598904703902A6800212E
:104F8000059890470646009811F04CF88346009823
:104F900011F04FF88146009890F83210890601D53B
:104FA000B0F9588000F036F805460098C06E10B190
:104FB00010F0AEFB074625806780A4F804A0049A91
:104FC000ABEB020006EB0802401E2A4420813A4463
:104FD000E280039BA9EB0302521E6281A4F80CA09D
:104FE00020827019E681401E6082684601F0DCFD77
:104FF000B4F90C000190B4F91000029002AA01A9C2
:10500000059800F039F80198A0810298208207B035
:10501000BDE8F08F10B50146002091F832209206CD
:1050200007D5B1F95400002803D1486B02F0A0FC69
:10503000801C10BD70B58AB00C46054601F06AFDB3
:105040000990C06D866809A801F0AEFD009534B1E5
:10505000012C06D0022C0BD0032C04D10AE018201E
:1050600000E0162001907168684688470AB070BD5C
:105070001520F7E71720F5E72DE9FC47904689460C
:10508000044601F047FD0090C16D056868468E68D2
:1050900001F08AFD326800212046904706462046EE
:1050A00010F020FA2F1404462DB227E001F032FD53
:1050B0000190B0F90010B0F90420B0F90230491B9A
:1050C000521BDB1BB34212D190F82800000607D513
:1050D000D8F8000088420ADB491EC8F8001006E034
:1050E000D9F80000904202DC521CC9F8002001A847
:1050F00001F05AFD204610F085FA0446002CD5D167
:10510000BDE8FC874FF0204202EB800021B101682E
:1051100041F00101016070470168024A11400160DD
:1051200070470000FEFF0F0030B5D0E901121143B7
:10513000D0E903231A43114342690368114382698A
:105140001143C2691143026A1143426A1143826AE0
:105150001143C26A1143026B11434FF0204242F8DF
:1051600023108168082906D1016802EB81010B68D0
:1051700043F040030B60416BD1E9003443EA041370
:105180008C68CD68240244EA054423430C6943EA51
:1051900004534C69896943EA04630B430168491C61
:1051A00042F82130C16AB1F5804F07D000686FF036
:1051B000704102EB8000C0F8041130BD816B0068C3
:1051C000D1E9003443EA04138C680D69240244EAEF
:1051D000055423434C69896943EA046302EB800068
:1051E0000B43C0F8043130BD70B5A14C2068010EEE
:1051F0000120FFF733FC2068C0F307410220FFF7CE
:105200002DFC2068C0F307210320FFF727FC20684E
:10521000C1B20420FFF722FC6068010E0520FFF7F1
:105220001DFC6068C0F307410620FFF717FC6068AB
:10523000C0F307210720FFF711FC6068C1B2082006
:10524000FFF70CFCA068010E3320FFF707FCA068F5
:10525000C0F307413420FFF701FCA068C0F3072129
:105260003520FFF7FBFBA068C1B23620FFF7F6FB45
:10527000E068010E0920FFF7F1FBE068C0F3074189
:105280000A20FFF7EBFBE068C0F307210B20FFF7D4
:10529000E5FBE068C1B20C20FFF7E0FB206A010EDD
:1052A0004020FFF7DBFB206AC0F307414120FFF7F6
:1052B000D5FB206AC0F307214220FFF7CFFB206A0D
:1052C000C1B24320FFF7CAFB6A4D2888010A0D20AE
:1052D000FFF7C4FB2888C1B20E20FFF7BFFB688828
:1052E000010A0F20FFF7BAFB6888C1B21020FFF750
:1052F000B5FBA888010A3720FFF7B0FBA888C1B228
:105300003820FFF7ABFBE888010A1120FFF7A6FB66
:10531000E888C1B21220FFF7A1FB288B010A4420C4
:10532000FFF79CFB288BC1B24520FFF797FB28892C
:10533000C1B21320FFF792FBE88AC1B24620FFF703
:105340008DFB2069010E1420FFF788FB2069C0F354
:1053500007411520FFF782FB2069C0F307211620C3
:10536000FFF77CFB2069C1B21720FFF777FB60696C
:10537000010E1820FFF772FB6069C0F30741192086
:10538000FFF76CFB6069C0F307211A20FFF766FB8B
:105390006069C1B21B20FFF761FBA069010E3920D3
:1053A000FFF75CFBA069C0F307413A20FFF756FB0B
:1053B000A069C0F307213B20FFF750FBA069C1B2F1
:1053C0003C20FFF74BFB6889010A1C20FFF746FBD6
:1053D0006889C1B21D20FFF741FBA889010A1E2080
:1053E000FFF73CFBA889C1B21F20FFF737FBE88914
:1053F000010A3D20FFF732FBE889C1B23E20FFF7EA
:105400002DFB688AC1B22020FFF728FB288A010AF9
:105410002120FFF723FB288AC1B22220FFF71EFBC1
:10542000E069010E2320FFF719FBE069C0F3074193
:105430002420FFF713FBE069C0F307212520FFF7C5
:105440000DFBE069C1B22620FFF708FBA88AC1B2B4
:105450002720FFF703FB084C2088010A2820FFF7CC
:10546000FDFA2088BDE87040C1B22920FFF7F6BAE6
:105470005C0E0020400E0020C20000202DE9F04309
:105480000446C56887B090468946002002F026FF92
:10549000064625B1287910B146F0020001E026F059
:1054A000020002F01BFF2069012558B1D4E9021265
:1054B0008DE82600039563882288046841464846A3
:1054C000A0471EE0124F134B214638681B68427CF0
:1054D000E068984730B9E088012801D0002001E059
:1054E0003868806BA288E388A1680095CDE9041034
:1054F000CDE902320195638822884146484607F08B
:10550000D7FD07B03046BDE8F04302F0E7BE00002B
:10551000B4010020AC0100201CB50024019401ACB2
:10552000009400F0E7F81CBD2DE9FF4F83B08146E1
:1055300006988A46A0EB0A08109E00200090A2EB75
:1055400009043568934654EA080018D02046FCF751
:105550009AFC07464046FCF796FC87420BDA204649
:10556000444680464846D14682465846DDF818B043
:10557000069001200090002C07DD204606E007B0D1
:105580004846BDE8F04F00F03BB96042A0420AD067
:105590004846D9466442C8F1000883464FF0FF37B9
:1055A000DDF818A000E001275148B8F1000F11D034
:1055B00004EBD4714FEA610B01DACBF1000B4C48DC
:1055C0000068807E88B3002F02DA306820443060A3
:1055D00000257BE000990029016821D0897E11B166
:1055E0000027804615E007B05A4649465046BDE8B8
:1055F000F04F07F0C1BE28466D1C18F08DFC38B97D
:10560000D8F8000009EB0701C06E42685046904789
:105610007F1CA742EFDD6D1E356007B0BDE8F08F3F
:105620008A7E1AB10027804617E019E0C86E5A46F4
:105630005146036807B04846BDE8F04F1847284672
:105640006D1C18F069FC38B9D8F8001009EB070098
:10565000C96E4A68514690477F1CA742EFDDDAE7E2
:1056600000250FE008FB05B090FBF4F101EB0A0008
:10567000009951B11E4A09EB05011268D26E5268B9
:1056800090476D1CA542EDDDC7E7194909EB0503FD
:105690000968C96E4A6801461846F1E708FB05B07B
:1056A00090FBF4F101EB0A0001903068384430605F
:1056B00018F032FC48B9009890B10D4809EB05018B
:1056C0000068C06E4268019890476D1CA542E5DDF8
:1056D0003068002F01DA20443060C01B30609CE746
:1056E000034909EB05000968C96E4A680199EBE7AF
:1056F000B40100202DE9FF470F4640491646804679
:1057000009680C981D460A7E012A1CD0A8EB0600E9
:10571000791B50EA01031CD0A2F1010919F0D8FB52
:1057200000F58060824604F035F900FB09F450462C
:1057300004F034F900FB09F1002C0CDAC4F5007018
:10574000801240420AE00090324639464046FFF758
:10575000EBFEBDE8FF8704F50074A012002904DA0F
:10576000C1F5007189124C4202E001F500718C1202
:10577000002804DD411C01EBD171491003E000EB6E
:10578000D0714910401E00EBD0704210002C04DD97
:10579000601C00EBD070401003E004EBD4704010AC
:1057A000641E04EBD47308EB0104ADF800403C1810
:1057B000ADF80240A8EB02045B10B21AADF8044049
:1057C000ADF808203144FC1AEA1AADF80C10284450
:1057D000ADF80A20ADF80E000023ADF806401A46D9
:1057E0000421684600F07AF83946404613F062FF1B
:1057F0002946304613F05EFFABE70000B4010020FD
:10580000064A13681A7E012A05D0521E02EBD27294
:10581000521000F005B8DA6E52681047B40100204B
:105820002DE9F05F0646884640F2C32050434FF40E
:105830007A7190FBF1F702FB02F002EBD27100EB00
:10584000610B254914467F1C09683244301BC96E20
:105850000B684146984701253AE000BF05FB05F07B
:1058600004FB040159451CDDBC4219DD1A4B06EB53
:10587000050AA6EB05091B68AAF1010208EB040161
:10588000DB6E09F101001B689847134BAAF1010276
:10589000A8EB04011B6809F10100DB6E1B68984747
:1058A000641E0D4806EB040AA6EB0409006808EB29
:1058B00005015246C06E0368484698470648A8EB63
:1058C000050152460068C06E0368484698476D1C43
:1058D000BD42C3DDBDE8F09FB40100202DE9FF4FBC
:1058E00040F6FF740F46664283B09B468146002116
:1058F0000BE000BF09EB8100B0F90200A04200DA22
:105900000446B04200DD0646491CB942F2DB684855
:105910000068406900280DD0B0F906101A46A1EBC6
:105920000B01B14200DA0E46B0F90200801AA04223
:1059300000DD0446B5E0DFF87CA100200546CAF88A
:10594000000089E0781E854201DA6B1C00E000232C
:1059500009EB850C09EB8302BCF90200B2F90210D5
:10596000A04245D1A14215D139F92330059A39F920
:10597000251003EB020C4E4A05981268084404EB0C
:105980000B01D26E6045136801DA62462BE00246D5
:10599000604628E02846A4464FF000087A1E0BE037
:1059A00008B1401E00E0781E09EB8003B3F9023015
:1059B000634504D108F101089045F1DB2346A34279
:1059C00049D0A3EB040239F92500A1EB040C059B97
:1059D00092EA0C0209D4364A184404EB0B0112680F
:1059E000D26E13680246984735E011F0B1F832E004
:1059F000A14230D001DBA04203DDA0422BDBA1425B
:105A000029DCE04688420ADC0346A04223DC084643
:105A1000A14220DBB8F900C0B2F9001008E00B4643
:105A2000A14218DCA04216DBB2F900C0B8F90010A0
:105A3000E21AA1EB0C0151430029A0EB030202DDA5
:105A400001EB620102E0A1EB6201491CC01A91FB6B
:105A5000F0F06044C9E76D1CBD42FFF673AF0598D6
:105A6000009004EB0B00019000208046054613E0F7
:105A70001149B8F1000F31F915A009D0009901EBD7
:105A80000A0208440A490968C96E0B6801999847D7
:105A900088F0010850466D1C064909688D42E7DB15
:105AA000641CB4427FF747AF07B0BDE8F08F000039
:105AB000B4010020340800200089002010B5002027
:105AC00002F000FC6FF07F4002F000FC012002F0C9
:105AD00035FC002002F03AFC002002F041FC0020DE
