:020000040800F2
:10000000788E002089020008E5810008C56F00088D
:1000100085810008F1210008699A000800000000AD
:10002000000000000000000000000000A98A000895
:100030009B26000800000000E9830008518B00089F
:10004000A3020008A3020008A3020008A3020008FC
:10005000A3020008A3020008A3020008A3020008EC
:10006000A3020008A3020008A3020008A3020008DC
:10007000A3020008A3020008A3020008A3020008CC
:10008000A3020008A3020008A3020008A3020008BC
:10009000A3020008A3020008A3020008A3020008AC
:1000A000A3020008A3020008A3020008A30200089C
:1000B000A302000861900008A3020008A302000840
:1000C000A3020008A3020008A3020008A30200087C
:1000D000A3020008B1970008A3020008A3020008C9
:1000E000A3020008A3020008A3020008A30200085C
:1000F000A3020008A3020008A3020008A30200084C
:10010000A3020008A3020008A3020008A30200083B
:10011000A3020008A3020008E5900008A30200085B
:10012000BD240008A3020008A3020008A3020008DF
:10013000A3020008A3020008A3020008A30200080B
:10014000A3020008A3020008A30200086D820008B1
:10015000A3020008A3020008A3020008A3020008EB
:10016000A3020008A3020008A3020008A3020008DB
:10017000A3020008A3020008A3020008A3020008CB
:10018000A3020008A302000800F002F800F06CF8D7
:100190000AA090E8000C82448344AAF10107DA45E2
:1001A00001D100F061F8AFF2090EBAE80F0013F0C8
:1001B000010F18BFFB1A43F0010318470C27020078
:1001C0002C2702000A444FF0000C10F8013B13F0FA
:1001D000070408BF10F8014B1D1108BF10F8015BA0
:1001E000641E05D010F8016B641E01F8016BF9D193
:1001F00013F0080F1EBF10F8014BAD1C0C1B09D1EA
:100200006D1E58BF01F801CBFAD505E014F8016B5B
:1002100001F8016B6D1EF9D59142D6D370470000ED
:100220000023002400250026103A28BF78C1FBD8FF
:10023000520728BF30C148BF0B607047662914F0D1
:100240003E82642900F07E80002070471FB514F0C4
:100250002CFA00F06BFD04000020002113F0FCFEDE
:10026000E0601FBD10B510BD00F05CFE1146FFF749
:10027000EDFF13F041FD00F07AFE03B4FFF7F2FF4B
:1002800003BC00F0BBFE0000094880470948004756
:10029000FEE7FEE7FEE7FEE7FEE7FEE7FEE7FEE736
:1002A000FEE7FEE704480549054A064B7047000093
:1002B000198C00088901000878880020788E0020B9
:1002C000788A0020788A00200FB41CB5074B06AA54
:1002D0007B4469460090059800F0ADFC002069461B
:1002E00000F0BCFC1CBC5DF814FB00008909000098
:1002F00070B5044685690068C10601D5302600E066
:100300002026C00708D070BDD4E9012130469047AF
:10031000206A00F1010020626D1EF5D570BD70B538
:10032000044685690068C00708D170BDD4E9012181
:1003300020209047206A00F1010020626D1EF5D553
:1003400070BD00002DE9F0410746002510687529B1
:10035000394616A411D0AFF30080002803DAC0F1AB
:10036000000013A407E039688A0701D511A402E050
:10037000490704D510A4012501E0AFF30080002156
:100380000A2307F1240607E0B0FBF3F203FB120097
:10039000303070541046491C0028F5D12B462246B7
:1003A0003846BDE8F04100F0D5B90000000000007B
:1003B0002D0000002B000000200000002DE9F05F60
:1003C000044689464FF0000ADFF828B1FB44C0F824
:1003D00020A02046E168884700287CD0252806D048
:1003E000D4E901219047206A401C2062F1E70025F2
:1003F0005F462046E16888472028064608DB312E04
:1004000006D207EB060010F8200C08B10543F0E710
:10041000A80701D525F00405C4F81CA00027C4F8DE
:1004200018A02A2E09D0304613F018FB38B304EB7D
:100430008708303EC8F8186019E059F8041B2046B8
:1004400004EB87029161E1688847012F064618D1C5
:10045000E069002820DA25F020051DE0D8F8180012
:1004600000EB800006EB40003038C8F8180020464A
:10047000E1688847064613F0F1FA0028EED1012F13
:100480000AD02E2E08D12046E16888477F1C0646F8
:10049000022F45F02005C4DBA069002803DA4042A2
:1004A00045F00105A061E80701D025F0100596B1DF
:1004B000A6F14100192802D8203645F400654A46C5
:1004C0003146204625604D46FFF7B8FE60B1012851
:1004D00007D0ED1D00E009E025F0070000F1080954
:1004E00077E705F1040974E7304679E7206ABDE84B
:1004F000F09F00003824020040EA0103024630B5B4
:100500009B0710D14FF0013400E008C208C91D1B41
:100510009D4315EAC41FF8D013F0FF0102F8011B38
:100520000DD01B0AF8E711F8013B002B02F8013B44
:1005300005D011F8013B002B02F8013BF3D130BD8F
:1005400010B5431C02E010F8011B71B18107FAD10C
:100550004FF0013202C88C1A8C4314EAC211F9D050
:10056000C01A0A0603D0C01E10BDC01A10BD0A046E
:1005700001D0801E10BD0902FCD0401E10BD032A10
:1005800040F2308010F0030C00F0158011F8013BB0
:10059000BCF1020F624498BF11F801CB00F8013B97
:1005A00038BF11F8013BA2F1040298BF00F801CB5B
:1005B00038BF00F8013B11F0030300F06780083AF0
:1005C000C0F0088051F8043B083A51F804CBA0E889
:1005D0000810F5E7121D5CBF51F8043B40F8043BDE
:1005E000AFF30080D20724BF11F8013B11F801CB13
:1005F00048BF11F8012B24BF00F8013B00F801CBE4
:1006000048BF00F8012B7047431A28BF9A427FF673
:10061000B6AF032A1044114440F2268010F0030FB5
:100620001EBF11F8013D521E00F8013D10F0030FEE
:100630007FF4F6AF11F0030300F02883083AC0F00E
:100640000B8051F8043D083A51F804CD40F8043DC0
:1006500040F804CDFFF7F3BF121D5CBF51F8043D15
:1006600040F8043DAFF30080D20724BF11F8013DEC
:1006700011F801CD48BF11F8012C24BF00F8013D4D
:1006800000F801CD48BF00F8012C704710B5203AA2
:10069000C0F00B80B1E81850203AA0E81850B1E83B
:1006A0001850A0E81850BFF4F5AF5FEA027C24BFF1
:1006B000B1E81850A0E8185044BF18C918C0BDE8E8
:1006C00010405FEA827C24BF51F8043B40F8043BB1
:1006D00008BF7047D20728BF31F8023B48BF11F866
:1006E000012B28BF20F8023B48BF00F8012B7047C0
:1006F00002F0FF0343EA032242EA024200F0F2BAA8
:100700004FF0000200B5134694469646203922BFAA
:10071000A0E80C50A0E80C50B1F12001BFF4F7AFF5
:10072000090728BFA0E80C5048BF0CC05DF804EBD7
:10073000890028BF40F8042B08BF704748BF20F845
:10074000022B11F0804F18BF00F8012B7047704743
:10075000704770472DE9F0470D460446924699468A
:1007600000F124080168880604D5E06921F0100131
:10077000216000E00120A84202DDA0EB050700E0B7
:100780000027A16907EB050202EB0900A1EB0000BD
:10079000A0612068C00602D42046FFF7A9FD00260C
:1007A00008E0D4E901211AF806009047206A401CAD
:1007B000761C20624E45F4DB2068C0060AD5204630
:1007C000FFF796FD06E0D4E9012130209047206A2A
:1007D000401C2062381EA7F10107F4DC07E0D4E9D1
:1007E000012118F805009047206A401C2062281E4D
:1007F000A5F10105F3DC2046FFF791FD2068000616
:1008000002D50220BDE8F0870120FBE770472DE903
:10081000FF4F0C461E464FF0FF378BB0D2E9000168
:10082000DDF860800A908A46C1F30A5505B93D4655
:10083000002108464FF00000BAF1000F00F440001C
:1008400005DA00EB80004FF4400101EA50004FEA66
:100850009059B9F1010F00DDB9460A9850EA4A00F3
:100860000FD044F61050A5F2FF3545432F14B8F1D0
:10087000000F1FD07542291E1FDD4846C9F1000236
:100880001CE0B8F1010F4FF0000001D1F24307E086
:10089000302101E02154401CB042FBDB30460022F5
:1008A000002121540B99C1F80880C1E900200FB044
:1008B000BDE8F08FBD1B6D1CDDE74A4600DA6942DA
:1008C00006A800F0BDFA06AB07CB03AB07C3504642
:1008D0000A9900F09AFB8DE80700A0F500501F3838
:1008E00000900398002D09DD42F21F014A4608449A
:1008F00003A90390684600F0F9FD08E0A0F5005058
:100900004A461F3803A90390684600F003FE8DE8AD
:1009100007000004000C03D04FF0FF30410800E056
:100920001046B8F1000F03D00022009215461FE0D8
:10093000751E06D400F0FEF902F1300262556D1EFC
:10094000F8D5B3460122084302D000227F1C04E000
:100950002078302801D100227F1E002A099786D0F6
:100960001DE0112D07DA00F0E5F9303262556D1CFB
:1009700050EA0102F5D108430FD10021681E05E0BD
:10098000235C625C6354491C2254401E8142F7DBA5
:10099000AB46A81B401E099001E0009848B100201A
:1009A00004F80B000B98099AC0F80880C0E9002BE6
:1009B0007DE711264FF0000859E72DE9F04F8846F2
:1009C0000446D21D22F0070191B0D1E90001CDE922
:1009D0000A0111F011FE02460B98C00F01D02D2024
:1009E00007E02068810701D52B2002E0202101EAE1
:1009F000C000032A099001D0072A05DB03464146BF
:100A0000204600F0DDF90EE12068800601D5E0699E
:100A100000E00620B8F1650F814606D0B8F1660FF8
:100A200018D0B8F1670F72D132E00020B9F1110F80
:100A3000009001DB112301E009F101030AAA01A9D9
:100A40000CA8FFF7E4FEDDE90C70002609F10105B2
:100A5000834648E001204B4600904FF000470AAA29
:100A600001A90CA8FFF7D3FEDDE90C050E990026BD
:100A7000AB4619B909F1010100EB0105B9EB05001D
:100A800003D4C0F1FF3609F10105A5EB09002BE005
:100A9000B9F1010F01DA4FF001090020B9F1110F8E
:100AA0000090484601DD112300E003460AAA01A98F
:100AB0000CA8FFF7ACFEDDE90C704D46002683461E
:100AC000206800070AD4AB4500DA5D4601A8012D75
:100AD00004DD411911F8011C302907D04F4502DA15
:100AE00017F1040F04DA0120824610E06D1EEEE7D4
:100AF000002F02DCED1B3E4403E0781CA84200DD21
:100B00000546A7EB060000F1010A4FF000472068F8
:100B1000000703D4AA4501DB4FF0FF3A0021B7F1EB
:100B2000004F0DF143088DF8431022D002202B23F3
:100B3000002F01DA7F422D230A22011EA0F10100BD
:100B400000DC4FB197FBF2F102FB117C0F460CF178
:100B5000300C08F801CDF0E7A8F10100037021681E
:100B6000090501D5452100E06521A0F1010800F843
:100B7000011C09980FA9A1EB080707F1070700B1AD
:100B8000012000EB050101EBEA70A1693844A1EBFB
:100B90000000A0F10100A0612068C00602D4204638
:100BA000FFF7A6FB099830B1D4E901219047206AEC
:100BB00000F1010020622068C00620D52046FFF722
:100BC00097FB1CE0002E04DBB34502DD01A8805D2D
:100BD00000E03020D4E901219047206A761C401CB7
:100BE000BAF1010A20620AD100F0A0F8C0680168D9
:100BF000405CD4E901219047206A401C2062281EF5
:100C0000A5F10105DEDC07E0D4E9012118F8010BAC
:100C10009047206A401C2062381EA7F10107F3DCD0
:100C20002046FFF77CFB022011B041E601694A1C17
:100C300002610878704700B58FB0CDE9013100211D
:100C4000059105497944CDE9031011466846FFF73F
:100C5000B5FB0FB000BD0000E5FFFFFF0A6802F81A
:100C6000010B0A607047431A28BF9A427FF60EAD07
:100C7000104410F0030F11441EBF11F8013D521E25
:100C800000F8013D10F0030F7FF4F6AF103AC0F00A
:100C90000A8010B531E91850103A20E91850BFF415
:100CA000F9AFBDE81040530724BF31E9081020E92F
:100CB000081044BF51F8043D40F8043D12F0030F02
:100CC00008BF7047D20728BF31F8023D48BF11F86E
:100CD000012C28BF20F8023D48BF00F8012C7047C6
:100CE0004FF000020429C0F0128010F0030C3FF412
:100CF00009ADCCF1040CBCF1020F18BF00F8012BB8
:100D0000A8BF20F8022BA1EB0C01FFF7FBBC5FEAA8
:100D1000C17C24BF00F8012B00F8012B48BF00F86C
:100D2000012B704700487047148800200048704726
:100D30003488002030B5B0F10A024FEA900E71F10C
:100D400000034EEA817EB0EB0E0061EB91014FEAA9
:100D5000101E4EEA017E10EB0E0041EB11114FEA1E
:100D6000102E4EEA016E10EB0E0041EB11214FEAFE
:100D7000104E4EEA014E10EB0E0041EB11414018AF
:100D800041F100014FEAD00040EA41704FEAD10141
:100D900010EB80054FEA810444EA907444EB0104AF
:100DA0006D1944EB0404521BA3414FF0000348BFEC
:100DB0000A3200D530BD401C41F1000130BD0000B9
:100DC0002DE9F04104461F4603260168072A01F475
:100DD000006004DB08B116A505E016A503E008B124
:100DE00015A500E015A521F010002060A069C01E27
:100DF000A0610FB1401EA0612046FFF779FA4FB104
:100E0000D4E9012138469047206A401C2062C01C6A
:100E1000206206E0206AFAE7D4E9012115F8010B07
:100E20009047761EF8D22046FFF779FABDE8F081A8
:100E30004E414E006E616E00494E4600696E66007E
:100E40002DE9F047814616468AB035487844D0E906
:100E5000002380680092CDE90130314878440C3895
:100E6000D0E90223006903924FF03702CDE9043044
:100E700041F69B30014491FBF2F0A0F1800502FBAA
:100E800010141B3C02D56442012000E00020DFF872
:100E900090A080460027FA44AAF1C60A0DE0E007B8
:100EA00009D03246684607EB47010AEB810100F0A2
:100EB00031FB8DE8070064107F1C002CEFD1184F28
:100EC0007F44B43F17E0E80713D007EB04100DF19F
:100ED000180A90E80E00AAE80E00C068F04201D19E
:100EE00098190890324606A903A800F013FB03AB3B
:100EF00007C36D10641C002DE5D132466946B8F178
:100F0000000F03A802D000F0F1FA01E000F002FBAC
:100F1000C9E90001C9F808200AB0BDE8F08700005F
:100F2000481A02007546FFF7FDFEAE460500694609
:100F3000534620F00700854618B020B5FFF7B2F9F8
:100F4000BDE820404FF000064FF000074FF00008CA
:100F50004FF0000B21F00701AC46ACE8C009ACE84B
:100F6000C009ACE8C009ACE8C0098D46704704462A
:100F7000AFF300802046FFF780F900004FF0013CFE
:100F800050F8042B51F8043B9A4221D1A2EB0C03F8
:100F9000934313EACC1317D150F8042B51F8043BB8
:100FA0009A4215D1A2EB0C03934313EACC130BD155
:100FB00050F8042B51F8043B9A4209D1A2EB0C03E0
:100FC000934313EACC13DBD04FF00000704700BF0F
:100FD000D01A01BAB1FA81F101F0180122FA01F038
:100FE000CB40C1F12001DBB2C0B2C01A2CFA01F330
:100FF000D11A914311EAC311E6D170470149182073
:10100000ABBEFEE72600020070475FEA400C08BF57
:1010100091F0000F4FEA8C234FEAC12243EA51516D
:101020004FEA1C5018BF00F5F0404FEA300018BFDF
:1010300041F000415FEA6C5C00F02980BCF1FF3FA9
:1010400008BF40F080407047130C06BF12044FF0F9
:10105000100C4FF0000C130E04BF12020CF1080C20
:10106000130F04BF12010CF1040C930F04BF920084
:101070000CF1020CD30F04BF52000CF1010C11460D
:101080004FF00002A0F11F00A0EB0C00704711F020
:10109000004F08BF704731F000413FF4D5AF0B0C53
:1010A00006BF09044FF0100C4FF0000C0B0E04BFEC
:1010B00009020CF1080C0B0F04BF09010CF1040C20
:1010C0008B0F04BF89000CF1020CCB0F04BF490049
:1010D0000CF1010CCCF12003A0EB0C0022FA03F37D
:1010E00002FA0CF241EA030100F10100704720F01E
:1010F0007F4C80EA030023F07F47ACEB070303F546
:101100007C5300F0004003F1FF032DE980494FEAD2
:10111000154B09B44FEA144325EA0B4E24EA034861
:101120000FF2042606EB132749083E785FEA3202E5
:1011300003FB0667C7F5000707FB06F64FEA5437BF
:101140004FEAD64606F1020607FB066CCCF1005CBE
:101150004FEA1C472CEA074C07FB06F40CFB06F58C
:1011600004EB15464FEA961634BF00204FF00040BE
:101170004FEAD13706FB07FC4FEA1C4C0CFB0BF780
:10118000D21B03FB0CF761EB07010CFB0EF7B0EB76
:10119000074072EB17420CFB08F734BFA2EB074283
:1011A000B2EB074261EB17414FEA0C444FEA91075B
:1011B00006FB07FC4FEA1C4C0CFB0BF7B0EBC740DF
:1011C00072EB573203FB0CF734BFA2EBC742B2EB12
:1011D000C74261EB57310CFB0EF7B0EBC70072EB67
:1011E00057720CFB08F734BFA2EBC702B2EBC70281
:1011F00061EB5771039F4FEA816141EA921104EB61
:10120000CC044FEAD1374FEA826206FB07FC42EA80
:1012100090124FEA80604FEA1C4C0CFB0BF7D21B7C
:1012200003FB0CF761EB07010CFB0EF7B0EB07407B
:1012300072EB17420CFB08F734BFA2EB0742B2EB8C
:10124000074261EB17414FEA8C554FEA910704EBD7
:101250009C2406FB07FC4FEA1C4C0CFB0BF7B0EB85
:10126000C74072EB573203FB0CF734BFA2EBC74207
:10127000B2EBC74261EB57310CFB0EF7B0EBC70086
:1012800072EB57720CFB08F734BFA2EBC702B2EB4C
:10129000C70261EB577115EB4C254FEA816141EABA
:1012A00092114FEA82624FEAD13742EA901206FB6E
:1012B00007FC44F100044FEA80604FEA1C4C0CFB31
:1012C0000BF7D21B03FB0CF761EB07010CFB0EF7CE
:1012D000B0EB074072EB17420CFB08F734BFA2EBF0
:1012E0000742B2EB074261EB174115EB1C154FEAC1
:1012F000813141EA92414FEA823242EA90424FEA1A
:1013000080304FEA0C7644F1000448EA03434EEA89
:101310000B484FF0000EB2EB080C71EB030724BF33
:10132000624639464EEB0E0E4FF0000B001852414C
:1013300049414BEB0B0BB2EB080C71EB03077BF154
:10134000000B24BF624639464EEB0E0E4FF0000BE9
:101350000018524149414BEB0B0BB2EB080C71EBFF
:1013600003077BF1000B24BF624639464EEB0E0E9D
:1013700051EA020718BF46F0010616EB0E7655F14A
:10138000000254F1000103D5BDE88901BDE80088E1
:10139000BDE88901BDE80048B619524141EB0101A1
:1013A000A3F10103704780807F7E7D7C7B7A797812
:1013B000777676757473727171706F6E6E6D6C6C1A
:1013C0006B6A6A69686867666665646463636261BC
:1013D0006160605F5F5E5E5D5D5C5C5B5B5A5A593D
:1013E00059585857575656555555545453535252A9
:1013F0005251515050504F4F4F4E4E4D4D4D4C4C01
:101400004C4B4B4B4A4A4A49494948484847474749
:101410004746464645454544444444434343434286
:10142000424242414141002B26D4770021D01CB5D5
:101430004FEA370703B44FF010004FF010014FF0A0
:1014400000000FBCBDE810400BF1010BBBF1010F18
:1014500008BF5FEA170722BF12F1010211F1010173
:101460004FF0004143F1000300F0004043EA000068
:101470007047F9D35708DAE746EA064613F1400FFA
:101480004FEA16461FDD13F1200FDFBF16430A4651
:10149000002120335B42C8D0C3F1200746EA06464C
:1014A00002FA07F74FEA164646EA0706C3F1200795
:1014B00022FA03F201FA07F721FA03F14FF00003D1
:1014C00042EA0702B1E746EA020646EA06464FEA62
:1014D000164646EA0106BCBF46EA0646360C4FF001
:1014E00000034FF000024FF000019EE72DE9C048D5
:1014F000934630B491E8380007C831EA400C48BF41
:1015000034EA430C03D5FFF7F2FDFFF78CFFF0BC84
:10151000BDE800882DE9C048934630B491E8380012
:1015200007C810F0804F08BF13F0804F03D100F0C0
:1015300005F8FFF778FFF0BCBDE8008820F07F4792
:1015400080EA030023F07F4C07EB0C03A3F57C53E8
:1015500000F00040A3F1FE0392F0000F00F0B38012
:1015600095F0000F00F077802DE901494FEA114016
:101570004FEA144621EA004800FB06FC24EA06472D
:1015800008FB06F607FB08F800FB07F718EB064810
:101590004CEB164C4FEA124B18EB07484FEA154636
:1015A0004CEB174022EA0B4E0BFB06FC25EA0647E4
:1015B0000EFB06F607FB0EFE0BFB07F71EEB064EB7
:1015C0004CEB164C4FF000061EEB074E4CEB174B46
:1015D00018EB0B0840F1000018EB0E0B58EB00085D
:1015E00040F100008F1A4FF000013CBFC943661B59
:1015F00014BFB5EB040C00213CBFC943F61B4FEAF6
:1016000017444EEA8E0E27EA04454FEA1C4704FBB6
:1016100007622CEA074C05FB07F70CFB05F604FBF9
:101620000CFC16EB074642EB174216EB0C4642EB5E
:101630001C421BEB060658EB0202414146EA9E069D
:1016400001D5BDE80189B619524141EB0101A3F171
:101650000103BDE801894FEA14454FEA114724EA26
:10166000054621EA074C05FB07F406FB07F70CFBD0
:1016700006F105FB0CFC11EB074144EB17444FEA64
:10168000124711EB0C4144EB1C4422EA074C05FBCA
:1016900007F206FB07F70CFB06F605FB0CFC16EB46
:1016A000074642EB174216EB0C4642EB1C456A1804
:1016B00054F1000148BF7047B619524141EB010196
:1016C000A3F10103704795F0000F37D04FEA1142A4
:1016D0004FEA144721EA024624EA074C02FB07F1CD
:1016E00006FB07F70CFB06F402FB0CFC14EB0744AB
:1016F00041EB17414FEA154714EB0C4441EB1C41F9
:1017000025EA074C02FB07F506FB07F70CFB06F67C
:1017100002FB0CFC16EB074645EB174516EB0C4697
:1017200045EB1C42121951F1000148BF7047B61930
:10173000524141EB0101A3F1010370474FEA144507
:101740004FEA114724EA054621EA074C05FB07F159
:1017500006FB07F70CFB06F24FF0000605FB0CFC3E
:1017600012EB074241EB174112EB0C4251EB1C41CB
:1017700048BF7047921841EB0101A3F10103704784
:101780002DE9F0419CB001210F02384606F0D0FE51
:101790000121880506F0A8FE2026019603258DF874
:1017A000085000248DF80B40DFF85C8101A9404609
:1017B00002F0D6F8402001908DF808508DF80B40CB
:1017C00001A9404602F0CCF8102001908DF8085095
:1017D0008DF80B40DFF8348101A9404602F0C0F8D3
:1017E00001968DF808508DF80B4001A9404602F093
:1017F000B7F8012601968DF808508DF80B40DFF8F8
:10180000108101A9404602F0ABF8022001908DF84A
:1018100008508DF80B4001A9404602F0A1F803944E
:101820003C4804903C48059006944FF4967007900D
:101830000894B002099040000A9080000B900C9729
:1018400000010D900E940F9610941194334D03A93E
:10185000284600F07FFE0121284600F057FE0122B5
:101860001021284600F05DFE00F012FE294D0121F6
:101870004C3D284600F0C6F9129413941494159424
:1018800012A800F0A7F916948DF85C608DF85D60E1
:1018900019941A9406208DF86C0016A9284600F0B9
:1018A000C7F9042301220521284600F0E7F90023A7
:1018B00002220621284600F0E1F900230322082134
:1018C000284600F0DBF9002304220921284600F015
:1018D000D5F9002305220E21284600F0CFF9002378
:1018E00006220F21284600F0C9F90121284600F000
:1018F00065F9284600F000FA0121284600F08DF92C
:101900001CB0BDE8F0810000000002400008024069
:10191000000402404C200140A8070020106402404F
:101920002DE9F04F0020A24A4FF0060902F5167487
:1019300002F5487502F5617602F57A7702F52F7C9B
:101940009C4902F24C484FF4967E4CE0B0FBF9F310
:1019500009FB130353B1012B12D0022B1AD0032B16
:1019600022D0042B2AD0052B32D03AE032F810B026
:1019700091F800A00AF101030B7024F81AB030E0CE
:1019800032F810B091F801A00AF101034B7028F869
:101990001AB026E032F810B091F802A00AF1010363
:1019A0008B7025F81AB01CE032F810B091F803A043
:1019B0000AF10103CB702CF81AB012E032F810B023
:1019C00091F804A00AF101030B7127F81AB008E09E
:1019D00032F810B091F805A00AF101034B7126F816
:1019E0001AB0401C80B27045B0D300220A704A7011
:1019F0008A70CA700A714A719146002004E034F876
:101A000010309944401CC0B23228F8D3C879DFF8AE
:101A1000A8A13223282807D2B9FBF3F0CC792AF801
:101A200014004FF0000910E00024012004E03AF80F
:101A300010904C44401CC0B22728F8D32720B4FB98
:101A4000F0F048824FF00009CA71C879401CC87193
:101A5000002004E035F81040A144401CC0B23228F8
:101A6000F8D38879DFF850A11224AAF1280A1428A3
:101A700006D2B9FBF3F08D792AF8150000250EE0A7
:101A80000025012004E03AF810904D44401CC0B2FB
:101A90001328F8D3B5FBF4F0C88100258A71887942
:101AA000401C8871002004E036F810904D44401C22
:101AB000C0B23228F8D3487ADFF8FC90132609F137
:101AC000A009142806D2B5FBF3F04D7A29F81500C9
:101AD00000250EE00025012004E039F810A055444F
:101AE000401CC0B21328F8D3B5FBF6F008820025DD
:101AF0004A72487A401C4872002004E037F810907F
:101B00004D44401CC0B23228F8D3087A2A4F7837A7
:101B1000142806D2B5FBF3F00D7A27F8150000253E
:101B20000EE00025012004E037F810904D44401CE1
:101B3000C0B21328F8D3B5FBF6F0C88200250A72AC
:101B4000087A401C0872002004E03CF8106035441C
:101B5000401CC0B23228F8D3887A174E5036142869
:101B600006D2B5FBF3F08A7A26F8120000240EE0C4
:101B70000025012004E036F810703D44401CC0B23E
:101B80001328F8D3B5FBF4F0888200248A72887A8F
:101B9000401C8872002004E038F810201444401CD7
:101BA000C0B23228F8D3B4FBF3F08881BDE8F08FDF
:101BB000A807002048000020800C002021B1816887
:101BC00041F0010181607047816821F0010181606D
:101BD0007047000010B5094C2268094902EA010269
:101BE000D0E9001341EA0301D0E9023043EA0003DF
:101BF00041EA030141EA0201216010BD04230140D2
:101C0000E030FCFF21B1816841F480718160704750
:101C1000816821F480718160704721B1816841F44D
:101C2000007181607047816821F4007181607047A4
:101C300030B542680F4B1A400C790B6842EA042217
:101C40001343436083680C4A1340D1E903422243A3
:101C50004D798C6844EA450422431A438260C26A83
:101C600022F47002097D491EC9B242EA0151C162E3
:101C700030BD0000FFFEFFFCFDF7FFC070B507267A
:101C800009290ED9D0F80CC0A1F10A0404EB4404D0
:101C9000A6402CEA060CA3404CEA030CC0F80CC08A
:101CA00007E0056901EB4104A640B543A3401D438D
:101CB00005611F23072A09D2446B521E02EB8202E0
:101CC00093409C4391400C43446370BD0D2A09D25C
:101CD000046BD21F02EB820293409C4391400C4361
:101CE000046370BDC46A0D3A02EB820293409C43C8
:101CF00091400C43C46270BD816841F080418160B5
:101D00007047002800DC40427047000010B50C48C6
:101D10000068400612D40B4C206841070ED502061D
:101D200009484FF4006103D4BDE8104001F06EBED5
:101D300001F06AFE206820F00400206010BD000061
:101D40003C000020340000200004024005490868DF
:101D500040F00400044B00221A8020F0800008604C
:101D600070470000340000206800002038B5456846
:101D700004460146284607F09BFE00282AD020682A
:101D8000304A0F2819D006DC0B2824D00C2810D09C
:101D90000E2851D12FE0112802D028284CD145E03F
:101DA0009268002A16D02146284601B0BDE830408E
:101DB0001047214628465268F7E7284602F010FBF4
:101DC0000090406E0468684602F02CFB002C01D0A5
:101DD0002846A04738BD284602F002FB0090683034
:101DE00002F066FA009803216C3002F069FA684646
:101DF00002F018FB20E0E168486809680D2902D06C
:101E0000202913D105E0002810DD28460DF01AFE28
:101E100006E0002804DD2846BDE838400DF012BE7B
:101E20002846BDE8384002210DF022BEE06818B90E
:101E30000021284600F097F92046BDE8384008F018
:101E40008BBA000068010020F0B5044685B08069B7
:101E5000B4F90850668A0027CDE90265CDE900177C
:101E60000490B4F90C00B4F91060C118B4F90A0078
:101E7000B4F90E50104433462A4600F007F80546E0
:101E8000616800F079F905B02846F0BDF0B585B07D
:101E90000C46DDE90D514C31DFF850C0DDE90A6731
:101EA000CDE902C12146CDE9006708F0A5F904009B
:101EB00018D002F095FA10222946049008F01CF878
:101EC000049830220A493430FEF7E0FB084D0499AB
:101ED0000C3D2868486604A802F0A4FA2868416806
:101EE0002046884705B02046F0BD00006D1D000863
:101EF00074010020F0B5044680688B4989B051F820
:101F00002050606800287DD0052804D006287AD0AB
:101F1000122879D1AEE0E86900284FD095E80E008C
:101F20008DE80F0004F110010FC904F021FC002618
:101F300055F8260003F060FDA169E8690A1A2169D5
:101F400001446069304402F019FFA169E8690A1A86
:101F500021690144E069801B02F010FFE169E86932
:101F60000A1A616901442069304402F0A7FFE1695F
:101F7000E8690A1A61690144A069801B02F09EFFAA
:101F8000761C022ED4DBA86803F036FDE069E9690F
:101F90006669431A20694218521E3144801C02F0BF
:101FA000F7FFE169E869A2690B1A61690144101A37
:101FB000401C921E02F0ECFFEE6913E05FF0000699
:101FC00055F8260003F018FDE069831BA069821B09
:101FD000606981192069304402F032FF761C022EBC
:101FE000EEDB0226D5E90301CDE900016169E06974
:101FF00008444310A069891C821B2069304402F008
:1020000089FE02E089E012E08AE0D5E90501CDE928
:102010000001E36960690121184401EB6001A069D6
:102020009B1E821B2069304402F074FE78E0206819
:1020300002F0D6F90490206809F0D2F840B1A06807
:1020400008B1002008E00498006F28B1012003E0E7
:102050000498406F00B10220049901EB8000C56E26
:1020600004A802F0DFF900231A462846216802F08E
:1020700003FC55E0206802F0B3F90490866EEEB3DD
:10208000B0F95C70A168D1B3032942D05FF00001C0
:1020900000EB8101406D0C6C03F0B8FC204603F0AE
:1020A000ABFC05A802F0C4FFBDF81410A88B0144D6
:1020B000ADF81410BDF81810081AADF81800BDF8E6
:1020C0001600801CADF81600BDF81A00801EADF891
:1020D0001A0004985E30B0F90220B0F9001005A88B
:1020E00003F0E8FB04A802F09DF9022003F0CEFC07
:1020F000304602F075F93A4605A901E00BE006E02A
:10210000079002F0B1FC07A802F08CF908E0012169
:10211000BEE70221BCE704A8F6E7206808F042FD0C
:1021200009B00020F0BD00006CF10108044A034929
:10213000116004494A6A486210467047A4010020B1
:10214000680100207401002038B50D46040009D054
:1021500002F046F900904565684602F063F92046B2
:1021600008F03DFB38BD4FF480720029114601D0C4
:1021700007F028BD07F079BC2DE9FF410E460500A8
:102180004FF001041CD002F02BF90190876E01A8DA
:10219000009702F047F93146684604F0C9FD78B16E
:1021A00000980024B84208D0284602F019F901909E
:1021B0000099816601A802F035F9284608F00FFB66
:1021C00004B02046BDE8F081F8B515460C4606007F
:1021D0000DD002F005F90090032C02D200EB840030
:1021E0000564684602F01EF9304608F0F8FAF8BDBA
:1021F000FEE700002DE9FF470446006810B108F033
:10220000EFFF68B10022314850F8221060680A28B8
:1022100041D007DCF0B306280DD0072854D106E0E2
:102220000122F0E712280AD019284DD137E02046C4
:1022300009F01EFF48E020460BF098F844E02068C3
:1022400002F0CEF80290B0F9548090F85650476CE6
:10225000466B02A802F0E6F8206800F039F88146E3
:10226000684608F05FF9BDF8001009EB0500084466
:10227000ADF80000246A304603F0C8FB022003F0EA
:1022800005FC384603F0B8FB42466946204602F09A
:10229000EBFB19E007E020460BF0B0FA14E0886988
:1022A00004B0BDE8F087206808F07CFC206802F0EC
:1022B00097F80390B0F90610B0F90220891A491C6A
:1022C000C16703A802F0AEF80020E9E77CF101083D
:1022D00038B502F085F80090C46F684602F0A2F8A5
:1022E000204638BD044A034911600449CA69C861DF
:1022F0001046704730020020BC050020C0050020B9
:1023000000B589B024216846FEF7FAF9192001903A
:1023100003480068806841686846884709B000BD86
:10232000BC0500207CB50D4C132020710320A0704B
:102330000B490870002565710A48818D01810A48A2
:10234000057008F00BF903460095084A1A21084861
:10235000019502F0ADF9A0617CBD0000BC00002039
:102360007F000020880D002070000020C12B010894
:10237000C04701081CB508F0F1F8034600200090A2
:102380000190044A0921044802F092F903490860C7
:102390001CBD0000E5280108C4460108B800002063
:1023A0001CB508F0DBF80346002000900190044AB9
:1023B0000921044802F07CF9034908601CBD0000B3
:1023C0001D370108984A0108E8000020054B01224A
:1023D000824019B11868104318607047186890431C
:1023E000186070470074004010B586B0012148079E
:1023F00006F092F81020009003208DF804000024CD
:102400008DF8074069460C4801F0AAFA029403943B
:102410004FF4306004900220059002A9002000F0E3
:102420000DF801210020FFF7D1FF0121002000F06D
:102430001FF806B010BD00000000024030B5084C87
:10244000236840F6FE7282409343D1E900252A4377
:10245000D1E902510D432A4382401A43226030BD24
:1024600000740040014A10448160704700740040CD
:102470000209064B0120904019B119680143196007
:102480007047196881431960704700000474004068
:1024900008B538208DF8000003208DF801008DF874
:1024A000020001208DF80300684605F09DFE08BD7E
:1024B00001480068704700007C02002010B5054903
:1024C000054800F00DF80548016841F0020101607F
:1024D00010BD000020800010106402403400002075
:1024E000074A904201D2074801E005481038064AE1
:1024F0008B0001EA020101D5C1607047816070471D
:1025000010640240006002407D0F7D0F21B1016820
:1025100041F0010101607047016821F00101016093
:1025200070470B0609D522B1436943F0800343612C
:1025300003E0436923F080034361802905D001F063
:102540001E011AB102680A430260704702688A439A
:102550000260704730B50368124A1340CC680A68BD
:102560002243D1E905452C432243CC6922430C6A1E
:1025700022434C6A22438C6A22434C6B22438C6B6D
:1025800022431A430260426922F00703D1E90B2477
:1025900022431A4342610A6942604A68826089683C
:1025A000C16030BD3F801CF0F8B50546006801F001
:1025B00017FF0090448ED0F88860684601F032FF23
:1025C00006B1012604F00104286808F009FE0EB1E6
:1025D000002006E00CB1012003E008B1022000E079
:1025E00003201B4951F82010686858B302280CD00A
:1025F000052802D0122828D103E0284609F064FDFE
:1026000023E028460BF00BFC1FE06A69E8694FF0F5
:10261000FF33801AA0F1080203EB6204421CAB698D
:10262000001B4510A3EB6206C86903F0E5F906E05C
:102630003219311B284602F0A1FB641E6D1C002CD0
:10264000F6DA02E0286808F0ADFA0020F8BD0000D4
:10265000DCF10108044A0349116004490A6B08636C
:102660001046704780020020FC0500200006002074
:1026700038B50D46002401F0B3FE0090C06B29462A
:1026800001F000FF0546684601F0CCFE1DB128466A
:1026900001F0A6FE0446204638BD704730B504461A
:1026A0004FF47A7502E0284600F006F82300A4F102
:1026B000010084B2F7D130BD00220BE0042100BF3D
:1026C00000BF00BF00BF00BF491E0904090CF6D1BE
:1026D000521C92B28242F1D37047000010B50446FA
:1026E00011F0BAFAA02011F089FA11F0E5FA68B9F0
:1026F000204611F083FA11F0DFFA38B911F0ACFA84
:10270000A12011F07BFA11F0D7FA18B111F0C0FA3C
:10271000002010BD11F050FA034C207011F034FA73
:1027200011F0B6FA207810BD6600002070B50120C7
:10273000FFF7D4FFDE4C20602068000220600220FA
:10274000FFF7CCFF21680844206020680002206069
:102750000320FFF7C3FF21680844206020680002BF
:1027600020600420FFF7BAFF216808442060402061
:10277000FFF7B4FF2062206A000220624120FFF7C9
:10278000ADFF216A08442062206A000220624220D4
:10279000FFF7A4FF216A08442062206A0002206239
:1027A0004320FFF79BFF216A084420620520FFF7C2
:1027B00095FF60606068000260600620FFF78EFF92
:1027C0006168084460606068000260600720FFF78D
:1027D00085FF6168084460606068000260600820EE
:1027E000FFF77CFF6168084460603320FFF776FFE5
:1027F000A060A0680002A0603420FFF76FFFA1680E
:102800000844A060A0680002A0603520FFF766FFC2
:10281000A1680844A060A0680002A0603620FFF70D
:102820005DFFA1680844A0600920FFF757FFE06042
:10283000E0680002E0600A20FFF750FFE16808440A
:10284000E060E0680002E0600B20FFF747FFE1680E
:102850000844E060E0680002E0600C20FFF73EFF03
:10286000E1680844E0600D20FFF738FF914D2880B3
:102870002888000228800E20FFF730FF29880844AE
:1028800028804420FFF72AFF2883288B0002288312
:102890004520FFF723FF298B084428830F20FFF7EB
:1028A0001DFF68806888000268801020FFF716FF0F
:1028B0006988084468803720FFF710FFA880A8883F
:1028C0000002A8803820FFF709FFA9880844A880E3
:1028D0001120FFF703FFE880E8880002E88012205B
:1028E000FFF7FCFEE9880844E8801320FFF7F6FEB6
:1028F00028814620FFF7F2FEE8821420FFF7EEFE63
:1029000020612069000220611520FFF7E7FE2169A0
:10291000084420612069000220611620FFF7DEFED6
:102920002169084420612069000220611720FFF717
:10293000D5FE2169084420611820FFF7CFFE6061B1
:102940006069000260611920FFF7C8FE61690844F0
:1029500060616069000260611A20FFF7BFFE616973
:10296000084460616069000260611B20FFF7B6FEE9
:102970006169084460613920FFF7B0FEA061A06979
:102980000002A0613A20FFF7A9FEA1690844A061F6
:10299000A0690002A0613B20FFF7A0FEA1690844E6
:1029A000A061A0690002A0613C20FFF797FEA16929
:1029B0000844A0611C20FFF791FE6881688900022D
:1029C00068811D20FFF78AFE6989084468811E20FE
:1029D000FFF784FEA881A8890002A8811F20FFF7C5
:1029E0007DFEA9890844A8813D20FFF777FEE88194
:1029F000E8890002E8813E20FFF770FEE98908447B
:102A0000E8812020FFF76AFE68822120FFF766FE3A
:102A10002882288A000228822220FFF75FFE298A66
:102A2000084428822320FFF759FEE061E069000294
:102A3000E0612420FFF752FEE1690844E061E069AB
:102A40000002E0612520FFF749FEE1690844E061EA
:102A5000E0690002E0612620FFF740FEE1690844DA
:102A6000E0612720FFF73AFEA8822820FFF736FE14
:102A7000114C20802088000220802920FFF72EFEA4
:102A80002188084420803020FFF728FE0B49087079
:102A90003120FFF723FE0A4908703220FFF71EFE9F
:102AA0000849087008780A2801D90020087070BD0C
:102AB000640D0020480D0020AA0000207D000020A9
:102AC000800000207E0000202DE9F041044694B0F3
:102AD000006800F0B7F908B1D94D01E0D84D2C35A8
:102AE000606815281ED00CDC0B281FD004DC0028E1
:102AF0007ED005287DD12EE10E287BD01228F9D179
:102B000041E1162806D0172808D0182808D01C281C
:102B1000F0D109E0E86914B0BDE8F081286AFAE76D
:102B2000686AF8E7A86AF6E76869F4E720680B9036
:102B30001C200C90206801F053FC0390016D0BA841
:102B40008847064603A801F06DFC022E0EDB95E8CF
:102B500007008DE80700D4E904023346A16903F0B9
:102B6000D5FD20698719A069801B2BE0286802F039
:102B700043FF2169E8690A18521E606902F0FEF8F5
:102B8000A269E869111A491C606902F0F7F86769DF
:102B900020697F1C394602F033F93946A06902F0FA
:102BA0002FF9686802F028FF20693946401C02F0BE
:102BB00027F9A0693946401E02F022F92769A06969
:102BC000BF1C801E8046286802F016FF4246394628
:102BD000606902F0D3F8686802F00EFF606942464F
:102BE000401C394602F0CAF8686A02280FDD02E08C
:102BF00015E1AFE000E1A86802F0FEFE61696A6AD3
:102C0000881C8B1801465B1E4246384627E0296A1D
:102C1000B14226DD6069022E074600F1020801DBA1
:102C2000374401E007F10207206901DB304401E08D
:102C300000F1020022693B460A44A2F1010241462A
:102C400002F0A6F9022E02DBA069821B01E0A26954
:102C5000921EA069E9693B46401A401C414602F0B9
:102C600097F9022E02DB6069064401E06669B61C32
:102C7000E76928687F1E02F0BFFE3A4631462069A8
:102C800002F01CF93A463146A06902F017F9E769EB
:102C90006868BF1E02F0B0FE20693A46401C31460B
:102CA00002F00CF9A0693A46401E314602F006F9DE
:102CB000E869022802DC286A022823DDA86A0228C3
:102CC00002DDE1690F1A01E0E769BF1EA86802F0A2
:102CD00093FEE969022909DD20693B46421800F1AB
:102CE000020C521E3146604602F052F9286A022850
:102CF00008DDA269E8693B46101A401C921E314665
:102D000002F046F9286802F077FED4E9062021692E
:102D100002F034F8686802F06FFEA2692169E06988
:102D2000521E491C401E02F029F8A86A022811DD33
:102D30002669A169E469B61C271AA1F102087F1C63
:102D4000A41EA86802F058FE234642463946304683
:102D500002F01EF972E0208A06B2ADF81460A08A73
:102D600001B2ADF81610208B02B2ADF81820A08B7E
:102D700003B2ADF81A30D5E90304CDE900043046BA
:102D800001F0C8FF5AE0208A298B0844ADF81400EE
:102D9000A08AADF81600208B298B401AADF81800D8
:102DA000A08BADF81A00206801F01AFB0390006FA9
:102DB000F0B1022002F06AFE039991F87C00C0F3A2
:102DC000C00001EB8000006C02F016FE0398406B1F
:102DD00002F01CFE0398006F01F002FB03990A90B9
:102DE000B1F95A2005A901F03FFE0AA801F01AFB2B
:102DF00003A801F017FB21E0208AADF81400A08A97
:102E0000ADF81600208BADF81800A08BADF81A00B5
:102E1000A86802F0F1FD05A802F0DEF80EE02068D7
:102E200001F0DEFA039030F85A1F41F00C010180E6
:102E300003A801F0F7FA206807F0B4FE00206AE664
:102E40005003002038B5002450B101F0C9FA0090B9
:102E500090F87C00000700D50124684601F0E2FAF2
:102E6000204638BD30B504468BB0006801F0B8FA92
:102E7000009090F87C10246A006FC1F3C00508B17F
:102E800001F0AEFA0690E068029020690390A088F5
:102E9000401EADF81000E089ADF812002089401CFA
:102EA000ADF81400608AADF81600BDF80800401CAB
:102EB000ADF80800BDF80A00401CADF80A00BDF8E6
:102EC0000C00401EADF80C000098406B02F09EFD17
:102ED000009808AA02A9B0F95A30069803F078F8C9
:102EE000009800EB8500806B04F08CFE009800EBEE
:102EF0008500006C04F0BEFE08AB02AA04A9069887
:102F000006F020FF684601F08DFA069810B106A879
:102F100001F088FA0BB0002030BD0000074A0649D6
:102F2000054B1160064A083BD16958601B68C2E92D
:102F30000630084670470000440300203C0600208D
:102F40004006002038B50D46040009D001F048FACB
:102F500000900566684601F065FA204607F03FFCE0
:102F600038BD2DE9F34F85B000270C46B8460598CB
:102F700001F036FA0090C06D0121856805982A6835
:102F8000904782462A6803210598904704902A6852
:102F900002210598904703902A68002105989047E0
:102FA0000646009807F0A2FF8346009807F0A5FFA9
:102FB0008146009890F83210890601D5B0F9588002
:102FC00000F036F805460098C06E10B107F050FBCF
:102FD000074625806780A4F804A0049AABEB0200A2
:102FE00006EB0802401E2A4420813A44E280039BFB
:102FF000A9EB0302521E6281A4F80CA02082701972
:10300000E681401E6082684601F00CFAB4F90C00BB
:103010000190B4F91000029002AA01A9059800F0ED
:1030200039F80198A0810298208207B0BDE8F08F9E
:1030300010B50146002091F83220920607D5B1F96B
:103040005400002803D1486B02F03EF8801C10BDEC
:1030500070B58AB00C46054601F0C2F90990C06D02
:10306000866809A801F0DEF9009534B1012C06D07C
:10307000022C0BD0032C04D10AE0182000E016200B
:1030800001907168684688470AB070BD1520F7E75F
:103090001720F5E72DE9FC4790468946044601F0E4
:1030A0009FF90090C16D056868468E6801F0BAF915
:1030B00032680021204690470646204607F062FA13
:1030C0002F1404462DB227E001F08AF90190B0F9DF
:1030D0000010B0F90420B0F90230491B521BDB1B71
:1030E000B34212D190F82800000607D5D8F80000A6
:1030F00088420ADB491EC8F8001006E0D9F8000033
:10310000904202DC521CC9F8002001A801F08AF9A3
:10311000204607F063FA0446002CD5D1BDE8FC87B1
:103120004FF0204202EB800021B1016841F0010123
:10313000016070470168024A114001607047000059
:10314000FEFF0F0030B5D0E901121143D0E903238F
:103150001A43114342690368114382691143C269EA
:103160001143026A1143426A1143826A1143C26ADF
:103170001143026B11434FF0204242F82310816843
:10318000082906D1016802EB81010B6843F0400376
:103190000B60416BD1E9003443EA04138C68CD68BD
:1031A000240244EA054423430C6943EA04534C696E
:1031B000896943EA04630B430168491C42F82130E2
:1031C000C16AB1F5804F07D000686FF0704102EB23
:1031D0008000C0F8041130BD816B0068D1E9003473
:1031E00043EA04138C680D69240244EA055423431E
:1031F0004C69896943EA046302EB80000B43C0F821
:10320000043130BD2DE9F0430446C56887B09046CF
:103210008946002002F0F8FB064625B1287910B156
:1032200046F0020001E026F0020002F0EDFB20690A
:10323000012558B1D4E902128DE826000395638870
:103240002288046841464846A0471EE0124F134BAF
:10325000214638681B68427CE068984730B9E088AE
:10326000012801D0002001E03868806BA288E38843
:10327000A1680095CDE90410CDE90232019563887B
:1032800022884146484604F00DF907B03046BDE8B3
:10329000F04302F0B9BB000008010020000100204B
:1032A0001CB50024019401AC009400F0E7F81CBDAB
:1032B0002DE9FF4F83B0814606988A46A0EB0A08A5
:1032C000109E00200090A2EB09043568934654EA52
:1032D000080018D02046FEF714FD07464046FEF7CA
:1032E00010FD87420BDA2046444680464846D146C8
:1032F00082465846DDF818B0069001200090002C58
:1033000007DD204606E007B04846BDE8F04F00F074
:103310003BB96042A0420AD04846D9466442C8F14F
:10332000000883464FF0FF37DDF818A000E00127C2
:103330005148B8F1000F11D004EBD4714FEA610B82
:1033400001DACBF1000B4C480068807E88B3002F77
:1033500002DA30682044306000257BE000990029C3
:10336000016821D0897E11B10027804615E007B0A1
:103370005A4649465046BDE8F04F04F0F7B9284692
:103380006D1C0EF0ABFA38B9D8F8000009EB070154
:10339000C06E4268504690477F1CA742EFDD6D1E0D
:1033A000356007B0BDE8F08F8A7E1AB100278046ED
:1033B00017E019E0C86E5A465146036807B0484600
:1033C000BDE8F04F184728466D1C0EF087FA38B953
:1033D000D8F8001009EB0700C96E4A6851469047BB
:1033E0007F1CA742EFDDDAE700250FE008FB05B000
:1033F00090FBF4F101EB0A00009951B11E4A09EB70
:1034000005011268D26E526890476D1CA542EDDD31
:10341000C7E7194909EB05030968C96E4A680146FF
:103420001846F1E708FB05B090FBF4F101EB0A0048
:1034300001903068384430600EF050FA48B9009876
:1034400090B10D4809EB05010068C06E4268019813
:1034500090476D1CA542E5DD3068002F01DA20445D
:103460003060C01B30609CE7034909EB0500096828
:10347000C96E4A680199EBE7080100202DE9FF4772
:103480000F4640491646804609680C981D460A7E3C
:10349000012A1CD0A8EB0600791B50EA01031CD0BE
:1034A000A2F101090FF0D8F900F58060824603F01F
:1034B0002DFD00FB09F4504603F02CFD00FB09F143
:1034C000002C0CDAC4F50070801240420AE0009033
:1034D000324639464046FFF7EBFEBDE8FF8704F56C
:1034E0000074A012002904DAC1F5007189124C425F
:1034F00002E001F500718C12002804DD411C01EB93
:10350000D171491003E000EBD0714910401E00EB6F
:10351000D0704210002C04DD601C00EBD070401015
:1035200003E004EBD4704010641E04EBD47308EB8A
:103530000104ADF800403C18ADF80240A8EB0204CD
:103540005B10B21AADF80440ADF808203144FC1A03
:10355000EA1AADF80C102844ADF80A20ADF80E00B8
:103560000023ADF806401A460421684600F07AF8B8
:10357000394640460AF050FB294630460AF04CFBDB
:10358000ABE7000008010020064A13681A7E012AF2
:1035900005D0521E02EBD272521000F005B8DA6E5E
:1035A00052681047080100202DE9F05F0646884662
:1035B00040F2C32050434FF47A7190FBF1F702FBC5
:1035C00002F002EBD27100EB610B254914467F1C1F
:1035D00009683244301BC96E0B6841469847012583
:1035E0003AE000BF05FB05F004FB040159451CDD72
:1035F000BC4219DD1A4B06EB050AA6EB05091B6850
:10360000AAF1010208EB0401DB6E09F101001B685D
:103610009847134BAAF10102A8EB04011B6809F1BA
:103620000100DB6E1B689847641E0D4806EB040A18
:10363000A6EB0409006808EB05015246C06E03685A
:10364000484698470648A8EB050152460068C06EF8
:103650000368484698476D1CBD42C3DDBDE8F09F36
:10366000080100202DE9FF4F40F6FF740F46664227
:1036700083B09B46814600210BE000BF09EB81002F
:10368000B0F90200A04200DA0446B04200DD06466E
:10369000491CB942F2DB68480068406900280DD037
:1036A000B0F906101A46A1EB0B01B14200DA0E4642
:1036B000B0F90200801AA04200DD0446B5E0DFF850
:1036C0007CA100200546CAF8000089E0781E8542EA
:1036D00001DA6B1C00E0002309EB850C09EB830287
:1036E000BCF90200B2F90210A04245D1A14215D1A5
:1036F00039F92330059A39F9251003EB020C4E4AAB
:1037000005981268084404EB0B01D26E60451368FB
:1037100001DA62462BE00246604628E02846A446CD
:103720004FF000087A1E0BE008B1401E00E0781E42
:1037300009EB8003B3F90230634504D108F10108B5
:103740009045F1DB2346A34249D0A3EB040239F9AB
:103750002500A1EB040C059B92EA0C0209D4364A21
:10376000184404EB0B011268D26E136802469847A6
:1037700035E007F075FF32E0A14230D001DBA04216
:1037800003DDA0422BDBA14229DCE04688420ADCB3
:103790000346A04223DC0846A14220DBB8F900C062
:1037A000B2F9001008E00B46A14218DCA04216DB7B
:1037B000B2F900C0B8F90010E21AA1EB0C015143B4
:1037C0000029A0EB030202DD01EB620102E0A1EBA4
:1037D0006201491CC01A91FBF0F06044C9E76D1CFE
:1037E000BD42FFF673AF0598009004EB0B0001900B
:1037F00000208046054613E01149B8F1000F31F969
:1038000015A009D0009901EB0A0208440A49096889
:10381000C96E0B680199984788F0010850466D1CE5
:10382000064909688D42E7DB641CB4427FF747AF65
:1038300007B0BDE8F08F0000080100204C07002011
:10384000FC87002010B5002002F0D2F86FF07F4016
:1038500002F0D2F8012002F007F9002002F00CF982
:10386000002002F013F9002002F0CEF804480068AE
:1038700002F0CCF8BDE81040002002F0D1B8000002
:10388000040100202DE9FC4701211F2004F02CFE3B
:1038900002268DF8056001248DF8044000258DF87E
:1038A00006504FF4605000906946294800F058F8DF
:1038B0008DF805608DF804408DF8065041F2024005
:1038C0000090DFF890806946404600F049F88DF896
:1038D00005608DF804408DF8065067030097DFF807
:1038E00078906946484600F03BF88DF805608DF801
:1038F00004408DF80650402000906946404600F094
:103900002FF88DF805608DF804408DF806500C20D6
:1039100000906946114800F023F88DF805608DF895
:1039200004508DF80740802000906946404600F022
:1039300017F83946484600F069F84021404600F043
:1039400063F84021404600F061F8BDE8FC870000C4
:103950000004024000080240000C02400010024037
:10396000F0B5002201274FF0030C07FA02F40B68B0
:103970002340A3422DD1046853000CFA03F5AC4355
:1039800004600C7906689C40344304600E79012E73
:1039900001D0022E12D18468AC4384604C798568D2
:1039A0009C402C438460456807FA02F4A5434560B7
:1039B00044688D799540ADB22C434460C56856008B
:1039C0000CFA06F4A543C560CC799C40C3681C433F
:1039D000C460521C102AC8D3F0BD10B54B07DB0ED3
:1039E0009A40C90800EB8100016A0F249C40A14362
:1039F0000162016A1143016210BD02460020126992
:103A00000A4200D00120704741837047018370470C
:103A100070B50C46054600F0F1F8A8682168C1624F
:103A200061680163A1684163490707D5D0E90021B6
:103A3000C0E90012D0E90221C0E90212A189818403
:103A40002169002903D001DC4FF00001016270BD43
:103A50002DE9F0411E4617468846054600F0CEF88F
:103A6000AC686822414604F58470FCF70FFE2846D6
:103A7000B8472846B047286980688047A062BDE8FB
:103A8000F081000010B5044600F0B8F8A0680E49B7
:103A90004C30114AC1650D4981650D4901660D49DA
:103AA00081660021C166136843660C4BC0E91E3174
:103AB0005168416730F8261C21F0030120F8261CCC
:103AC0000749416410BD0000A11901080D1B010840
:103AD00069190108771401086001002047150108E1
:103AE000AD18010810B5044600F088F8A4680C4829
:103AF0009034102120650B4860650B48A0650B4889
:103B0000E0650B48E0600B482061206BA06654F82C
:103B10009029204690471020A0630748606410BD9C
:103B2000C9CF000869E700083D3B00086D3C00086C
:103B3000311401085D1E010838F10108F8B58468E8
:103B400015460F4694F8260080074CD5D4F8FC3073
:103B5000204698470646D4F800312A463946204682
:103B60009847D4F8943005461BB100220121204625
:103B700098472069B04201DD012000E00020A169E2
:103B8000B14201DA012100E0002108436169A94244
:103B900001DD012100E000210843E169A94201DAC9
:103BA000012100E0002108430AD06068401E009017
:103BB0002368D4F8A4705B1E002211462046B84743
:103BC000D4F8A8302A46314620469847D4F89C10AD
:103BD00020468847D4F8943005466BB10122002175
:103BE0002046984708E0D4F8A83020469847D4F8F3
:103BF0009C102046884705462846F8BD70B5044607
:103C00008068002812D14FF4B875284600F066FB92
:103C10002A460021A06003F0FDF8A0680221C184BB
:103C20000121046401620249C0F8041170BD000062
:103C3000353C000810B590B0044620220A49684679
:103C4000FCF724FD08492022203108A8FCF71EFDBE
:103C5000606B5DF82010C4F8FC1008A951F8200032
:103C6000C4F8000110B010BD58B501082DE9F843A3
:103C700084689846154694F826000F46800740D57C
:103C8000D4F8FC30204698470646D4F800312A463E
:103C900039462046984705462069B04201DD01209B
:103CA00000E00020A169B14201DA012100E0002119
:103CB00008436169A94201DD012100E000210843B8
:103CC000E169A94201DA012100E0002108430AD09C
:103CD0006068401E00902368D4F8A4705B1E002228
:103CE00011462046B847D4F8A8302A463146204627
:103CF0009847D4F8A02001B041462046BDE8F043E3
:103D00001047D4F8A830F2E72DE9F04FDFF828B1DA
:103D100091B04FF0FF35DBF80030B3F92210069177
:103D2000DE69B3F92490F469A189814206D8E28959
:103D3000824203D3471AD4F8008012E0D4E901810B
:103D400000296FD00A8882426CD84D88854269D399
:103D5000801A82B2486800EB8200B0F90070B0F9B6
:103D60000250781C5ED0307EA17C10FB01FA217CD1
:103D7000CDE90801B3F92A60304603F08DFFC0B2E7
:103D80000E90DBF8000007FB0A81A37C826B012701
:103D9000CDE90412CDE90273C069DDE90832C17EC4
:103DA000807ECDE900014946069803F07BFB681C44
:103DB00018D046F0020003F06FFFDBF80000A37C90
:103DC00005FB0A81826BCDE90273CDE90412C0695B
:103DD000DDE90832C17E807ECDE9000149460698C2
:103DE00003F060FBDBF800005D46C069417E007EA9
:103DF000814214D9022E12D086F0040003F04CFF49
:103E00002868C069027EC37E12FB0391437E857ED3
:103E1000099A06984B4402FB050203F0D1FC0E9868
:103E200003F03AFFDBF80000627C418C11444184CE
:103E300011B0BDE8F08F00000801002004480068C0
:103E4000C069C06909B1027C0A60407C704700000B
:103E500008010020022008807047C06982898A42D8
:103E600002D8C2898A4210D2806880B102888A4210
:103E70000DD843888B420AD3406800EB8100A0EB49
:103E80008200B0F90000002801DB0120704700200B
:103E9000704700002DE9F0432F4C034687B020689F
:103EA0001946B0F92A80C069C06900F0AEF900284F
:103EB0004ED041680088181A01EBC0054046AE7824
:103EC00003F0EAFE814620686A680123816BCDE930
:103ED0000236CDE90421C169CB7E8A7ECDE900237B
:103EE0000B7EB0F924102A78B0F9220003F0DAFA38
:103EF0002068C069477E067EB7421DD9C07E474311
:103F00004643B8F1020F17D001F097F8804601F050
:103F100077F801F071FD21682A78CB69B1F92200A8
:103F2000DB7E12FB0302B1F92410CB19314403F0FC
:103F300047FC404601F060FD484603F0ADFE2068B6
:103F40006A78C369B0F922109B7E12FB0311418489
:103F500007B0BDE8F083000008010020F0B5244D53
:103F6000044687B028682146B0F92A30C069C06984
:103F700000F012F91F49097809B143F00203002843
:103F800034D041680088201A00EB400001EB800427
:103F90002078C01DC608184603F07EFE0746286834
:103FA000A2680123816BCDE90236CDE90421C16904
:103FB000CA7E897ECDE90012B0F9241094F903205D
:103FC000B0F92200114494F9022063781044227859
:103FD00003F068FA384603F05FFE28682279C36967
:103FE000B0F922109B7E12FB0311418407B0F0BD93
:103FF000080100203C01002030B5104C05460B465E
:1040000020682946C069C06900F0C6F8002813D0AE
:10401000416800882468281A00EB40020420E46903
:1040200000EB8200085CA47E10FB04F0002B03D0A0
:1040300011F822106143196030BD00000801002012
:1040400003460D4810B500680C461946C069C069A2
:1040500000F0A2F870B141680088181A00EB400027
:1040600001EB8000D0E9001280682160C4E90120E2
:10407000002010BD012010BD080100200120088093
:10408000704700B5C06900F087F8002800D0012013
:1040900000BD00002DE9F35F0E46002500F0CDFFC6
:1040A000DFF8A8808346D8F8000090F82A0040077F
:1040B00002D500F0C2FF01E000F0A2FF01F09CFC7D
:1040C000D8F800000024C1694A7EC97E12FB01FABB
:1040D000B0F92290B0F924701FE0684601F0E6FDC7
:1040E0000546D8F800002946C069C06900F054F8B8
:1040F00098B141680088281A00EB400001EB80006D
:1041000090F9021000790144D8F80000C069807E5F
:1041100011FB00F0002800DD0444761EDDD51DB142
:10412000284602F0D9FC044407EB0A0309EB040219
:104130005B1E4846521E394603F042FB584601F0CA
:104140005BFC034901200870BDE8FC9F08010020CA
:104150003C0100202DE9F3410D4D0E4F0E4628681D
:10416000B0F92A40A0070AD17A680098904706E083
:10417000684601F09BFD2968C96909688847761E71
:10418000F6D50020387028684485BDE8FC81000021
:10419000080100203C01002006E002888A4202D883
:1041A00042888A4202D280680028F6D17047000017
:1041B00030B50F4C05460B4620682946C069C069DA
:1041C00000F023F8002811D04168008824682A1ADA
:1041D0000120E46900EBC200085CA47E10FB04F03F
:1041E000002B03D011F832106143196030BD00007C
:1041F0000801002001200880704700B5C06900F068
:1042000004F8002800D0012000BD06E002888A42A0
:1042100002D842888A4202D280680028F6D17047CC
:10422000002801D007F074BA704738B50546FFF78B
:10423000F7FF040009D000F0D3F82A4600210090CF
:1042400002F0E8FD684600F0EDF8204638BD0000B9
:10425000024A106021F0030050607047C0860020C1
:1042600010B5002814D004460A48006B10F834102A
:1042700000290DD002290BD2042101EBC4014158C1
:10428000486807F009FA2046BDE810400DF0BEB8B6
:1042900010BD000004860020002805D0034A916B61
:1042A000016001B1486090637047000004860020FF
:1042B00010B504460068FFF7D3FF0020206010BD52
:1042C00070B50D460646002405E000BF06EB8400ED
:1042D000FFF7EEFF641CAC42F8DB70BD2DE9F04146
:1042E00004460BF06DFA2648E41C24F00305C16B6C
:1042F0002D1DA94200D90D46846B13E054F8042CFF
:10430000AA420ED184B1216809B162684A6061682D
:1043100009B122680A60826BA2422ED121688163B2
:104320002BE02468002CE9D18046416B80680F188F
:1043300057F8040C3E1A306838B100200DF070F9BF
:1043400057F8040C3E1A3068B8B97068A84214DBFC
:104350003044441B30460DF01BF9D8F80810491BB7
:10436000C8F80810D8F810102944C8F81010706860
:104370003146401B07F090F920C42046BDE8F0818B
:104380000486002010B500240BF01AFA0C490F2007
:1043900001EBC002126C1AB101EBC000006C08E026
:1043A000401EF5D508E04168A14200D90C4680685E
:1043B00010B180680028F6D1A4F10C0010BD0000F7
:1043C00004860020002138B10449042202EBC00019
:1043D000096B085841680C3908467047048600206C
:1043E00005498A69521C8A61096B01EBC0010A7890
:1043F000521C0A7000F02EB80486002010B5FFF79A
:10440000C1FF64220649B0F5800F04D990FBF2F099
:10441000C969484310BDC9694143B1FBF2F010BD01
:10442000048600200A4902680B6B52F8082C03EB43
:10443000C2021378022B03D38B690BB15B1E8B6115
:104440001178491E11700021016008467047000074
:1044500004860020002806D00349042202EBC00095
:10446000096B0858083070470486002038B50024CE
:1044700030B1FFF7B5FF009004886846FFF7D2FF20
:10448000204638BD38B50D46002448B1FFF7A8FFD7
:104490002946009000F016F804466846FFF7C2FF70
:1044A000204638BD38B50D46002448B1FFF798FFC7
:1044B0002946009000F018F804466846FFF7B2FF5E
:1044C000204638BD38B50D4601880024A94209D9D7
:1044D000406838B1FFF784FF009050F825406846E7
:1044E000FFF7A0FF204638BD10B50024FFF7EAFF14
:1044F00010B1FFF775FF0446204610BDF0B52D271B
:104500001C68B0F1004F08D0002500280DDA661CA9
:104510001E6027704042012408E0661C01251E60D1
:104520006FF000402770491E01E00024091BC9B24A
:104530002AB3491EC9B222E00C46491EC9B29442B0
:1045400005D1124C27781C68661C1E602770104C21
:1045500054F8216090FBF6F4E4B20A2C11D804FB65
:10456000160011B90DB1641CE4B20A2C02D1012469
:10457000491CC9B21E683034771C1F603470002992
:10458000DAD1196800200870F0BD0000FC0000209E
:1045900054F4010810B5136808290FD85C1814608A
:1045A00000222270064A04E000F00F040009145DA6
:1045B0005C540C00A1F10101C9B2F5D110BD00009D
:1045C0008C21020810B5002807DD0A682B24531C33
:1045D0000B601470096800220A7010BD10B5C2B2D9
:1045E000CBB2D21A02D5C2F1000212B293B2C0F31A
:1045F0000722C1F3072403FB03F3121B01D5524228
:1046000012B2000C92B2A0EB114002FB023200B2D7
:10461000002801DA404200B280B200FB002010BD49
:1046200010B50021084600F065FD40F6FF725042CB
:10463000BDE8104013460146AFF300802DE9FC4170
:1046400007461C4615460E46042003F025FB80460F
:104650001148C068C16C006D0F4406440D44044409
:10466000ADF80070ADF80450ADF80260ADF806404A
:10467000684606F049FC07E023462A46314638469C
:1046800003F09EF806F0F4FB0028F5D1404603F055
:1046900003FBBDE8FC810000FC000020B0F90630FF
:1046A000B0F90420B0F90210B0F90000FFF7C6BF5E
:1046B0002DE9F8431C00DDE9089816460F4605462B
:1046C00002D105F04BFF044600962E6843464A4649
:1046D00021462846B047060035D005F033FF814615
:1046E000698A304605F06EFA304606F0A7FA484669
:1046F00006F0A4FA4FF000080CE000BFCDF80080EF
:1047000055F81CCF00231A4649462846E047E0B139
:1047100006F094FA7F1E002FF0DC1D21484606F0BB
:104720008AF9601C0ED005F035FF30B1FFF792FE1C
:104730008469B44201D02000F8D1B44202D030469E
:1047400006F008FA3046BDE8F883304605F038FE3A
:104750000020F8E72DE9F0411C4616460D460746B5
:10476000022B02DB0020BDE8F0811C20FFF7B6FD24
:104770000028F8D00DB105610AE0094A52F824106A
:1047800009B905E011460A68002AFBD109690161EF
:1047900084618682002101604160C0E90217E2E77E
:1047A0002001002070B51D46FFF7D4FF040001D0A2
:1047B00000F00EF8E068006820B90348006800EBDC
:1047C00085008465204670BD08010020FFF764BDA8
:1047D00070B590B38269022A30DA1C4C54F822106A
:1047E00019B944F822002FE019464B68002BFBD181
:1047F00006E0CB68C5681B682D68AB4203DD09681D
:104800000029F6D11AE0C1B1CB68C6681B683668CA
:10481000B3420CD1838A012B05D008E01946DB682E
:104820001B68AB4203DB0B68002BF7D129B14B6847
:1048300033B118604A68426004E0FFE7012070BDB0
:1048400044F8220048600160002070BD2001002073
:104850000DF0D8BA022801DB00207047054951F855
:10486000200004E0C16809680029F6D0006800282B
:10487000F8D17047200100202DE9F8431D46164667
:10488000884604000CD0FFF7ABFD00900068076875
:104890006846FFF7C7FD2B46324641462046B847DB
:1048A000BDE8F88338B504004FF000000AD0204678
:1048B000FFF796FD0090006845686846FFF7B2FD77
:1048C0002046A84738BD38B504004FF000000AD094
:1048D0002046FFF785FD0090006885686846FFF771
:1048E000A1FD2046A84738BD70B5044601F03EFB47
:1048F000051908E000F032FB052C01DD052000E081
:10490000204601F027FB01F031FB2C1A002CF1DCD2
:1049100070BD1FB503ABCDF80CD0FFF7EFFD6846B7
:1049200000F01AF81FBD002207F01ABB7FB50C4635
:104930001546CDF80CD003A9FFF744FE002801DD91
:10494000641EE4B203AB2A462146FFF7D7FD684652
:1049500000F002F87FBD00002DE9FC4706005BD0A7
:1049600000F072FB3B4C81462068B0F9228000F0D9
:1049700093FB216807468A8CD01B888441E000BFE6
:1049800047F6FF71304602F06FF882460146304626
:1049900002F040F82168054691F82C0000F0030071
:1049A00001283FD0022839D000204A8C101A4884B0
:1049B000ADF800006A1E1044ADF80400888CADF814
:1049C0000200A9F101010844ADF806006A4651460B
:1049D000304601F0B5FC2168BDF8020088845146DC
:1049E000304601F079F9064430780A281CD00D28A9
:1049F0001AD0BDF80000216828444884307818B1E6
:104A0000761C30780028BBD12068818C39448184A1
:104A1000818D21F003018185BDE8FC8705EBD57010
:104A20004010C2E72846C0E7206890F82C1001F03B
:104A3000030101290BD0022909D0018C418431786E
:104A40000A29DBD1828C02EB09018184D6E7A0F828
:104A50002280F4E708010020024B1B6859849A84E5
:104A6000FFF77ABF0801002047F6FF73AFF300801D
:104A70002DE9FC411F46904606000D464FF000040C
:104A800016D065B1084606F0CDF8040007D00246FE
:104A90002946684602F055F8684606F0C3F83B46DA
:104AA00042462946304601F0A3FC204606F0BAF8FB
:104AB000BDE8FC812DE9FF4F85B090468A4607008E
:104AC00078D00C68DAF8046021B230B2401A401C89
:104AD000029000F0B9FA054618F00C0F1ED03846C7
:104AE000089A029901F013FA08F00C01042904D085
:104AF000082902D00C2911D104E0311400FB151053
:104B0000401C09E02114C1EB264200FB1520401C8B
:104B100000EBD07001EB600060F31F44504600F0E2
:104B200069FFA5F1010B04903846089A029902F03A
:104B30003FF903904FEA244909EB0B0060F31F464D
:104B4000CDE900463846039901F064FF18F00301EF
:104B50000ED0012928D002290ED1BAF90420BAF9C1
:104B60000010521A101A00EBD07001EB600001E047
:104B7000BAF80000ADF800006A463846039901F023
:104B8000DFFB3846089A029902F008F9074409EB5E
:104B9000050060F31F4438780028C5D1049809B097
:104BA000BDE8F04F00F026BFBAF80410081A401C08
:104BB000E0E7FFE709B0BDE8F08F00007CB50646EE
:104BC00010480068C36C006D5D1884183188681E39
:104BD0000844ADF80400ADF800507188601E084428
:104BE000ADF80600ADF80240684606F08DF906E023
:104BF000224629463046FEF705FB06F039F9002823
:104C0000F6D17CBD080100201CB50A460146684665
:104C100002F078F82448BDF80010006830F84C2FF6
:104C20001144ADF80010BDF8021082881144ADF8AF
:104C30000210BDF8041002881144ADF80410BDF84C
:104C4000061080880844ADF80600684606F05CF956
:104C500027E000BFBDF900400BE000BFBDF9021026
:104C6000204602F04FFDBDF90610204602F04AFD35
:104C7000A41CBDF90400A042F0DABDF902400AE02C
:104C8000BDF90000214602F03DFDBDF904002146BA
:104C900002F038FDA41CBDF90600A042F0DA06F0CF
:104CA000E7F80028D6D11CBD080100202DE9F04FFF
:104CB0000C46164987B00D68DDE91098E96C0F18AD
:104CC000286D8D180619C418ADF81070ADF8145081
:104CD000ADF81260ADF8164004A806F015F90028EA
:104CE00011D0DFF82CB04FF0000ACDE90098CDE9E3
:104CF00002BA2B4622463946304608F063FE06F0DB
:104D0000B7F80028F1D107B0BDE8F08F0801002006
:104D10006D7700082DE9F04F164C87B02568DDE966
:104D20001098EC6C2718286DA5184618C418ADF813
:104D30001070ADF81450ADF81260ADF8164004A82C
:104D400006F0E2F8002811D0DFF82CB04FF0010A8D
:104D5000CDE90098CDE902BA23462A4631463846C5
:104D600008F030FE06F084F80028F1D107B0BDE865
:104D7000F08F000008010020AD7600082DE9FC410D
:104D8000104F04463B68D86C4518196DADF80050BB
:104D90000E198418ADF80440ADF80260ADF8066055
:104DA000684606F0B1F808E0386822463146C06E21
:104DB00003682846984706F05BF80028F4D1BDE860
:104DC000FC810000080100202DE9F0410B4C256812
:104DD000EC6C2718286DA5184618C418002006F09A
:104DE00093F807E023462A4631463846FEF758FA3C
:104DF00006F03EF80028F5D1BDE8F081080100205A
:104E00007CB50E4D2A68D36C1E18106DADF8046089
:104E10004418ADF80060ADF80640ADF802406846B1
:104E200006F072F807E028682146C06E42683046F6
:104E3000904706F01DF80028F5D17CBD0801002040
:104E40002DE9FC411C4C2468E66C94F818C0371816
:104E5000206DACF1010C4518C418A7EB0C001644EA
:104E6000ADF8000006EB0C00ADF80400A5EB0C005B
:104E7000ADF8020004EB0C00ADF80600684606F041
:104E800043F815E032462946384602F00FFC324618
:104E90002146384602F00AFC621E691C384602F0C0
:104EA00065FC621E691C304602F060FC05F0E0FF04
:104EB0000028E7D1BDE8FC81080100207CB50E4B3D
:104EC0001B68DC6C2618186DADF800604518841856
:104ED000ADF80460ADF80250ADF80640684606F043
:104EE00013F806E022462946304602F03FFC05F062
:104EF000BFFF0028F6D17CBD0801002010B5044694
:104F000001F032F804490968002903D02046BDE8C1
:104F10001040084710BD00007005002030B59DB05E
:104F20000D460446CDF870D06F220021684601F08E
:104F300071FF64222146684606F06CFE6846FBF766
:104F4000FFFA1C991CAA08441C900821284601F06D
:104F500014F86846FFF7D2FF1DB030BD10B500242D
:104F600000E0012400F004F80028FAD1204610BD2A
:104F7000064810B50068002410B1804700B1012434
:104F800005F082FA00B10124204610BD280100205E
:104F90002DE9FC410F4C2568EC6C2718286DA518ED
:104FA0004618C418ADF80070ADF80450ADF80260B2
:104FB000ADF80640684605F0A7FF07E023462A46FD
:104FC0003146384602F0FCFB05F052FF0028F5D1CF
:104FD000BDE8FC8108010020B0F90630B0F90420DA
:104FE000B0F90210B0F90000FFF7D2BF034951F841
:104FF0002000C1688A6A08211047000020010020B3
:1050000010B502F00DFCBDE8104002F085BC0000B8
:1050100002490968C9694A6800211047080100204F
:10502000024A1268D2695268104700000801002045
:10503000002801D005F076BA704710B502F0F8FBF1
:10504000BDE8104002F068BC02480068C069407EBC
:10505000704700000801002010B906480068C069C8
:105060000830027E8A70827E0A71427ECA7050F8D1
:10507000082910470801002001F0C2BC01F01EBD44
:1050800010B5044601F00CFD01462046BDE8104075
:1050900001F0C0BC00F06ABF0A490020096891F81D
:1050A0002C2002F00C02042A07D0082A01D00C2A76
:1050B00002D1C869007E40087047C869007E401E62
:1050C0007047000008010020017EC07E11FB00F047
:1050D00070470000024951F82000006900687047DD
:1050E00020010020024951F8200000694068704703
:1050F0002001002070B50D460AF0C4FA0446284687
:105100000AF0C8FA204370BD124810B5016821F0BA
:1051100001010160104801218160104901600068AF
:105120000F49884200D0FEE701F0F0F80D492E202B
:10513000087000F021FF0C480AF00AFB0EF0BEFCDC
:1051400004460021084600F073FC05F0A3FA20464F
:1051500010BD0000002000E000300240C2A507F4AE
:10516000CDB5E8B5FC000020CC8600201CB520B9E8
:105170000C480068006E002812D0FFF731F900904B
:1051800044696846FFF74EF9002C09D02046FFF726
:1051900027F9019081688968884701A8FFF742F9DB
:1051A0001CBD00000801002001490A4600F002B8B9
:1051B00001F0FFFF2DE9F04387B015460C465FEA8A
:1051C000000842D0002000F01FFC81462048006803
:1051D000066E4046FFF704F900900068806900F011
:1051E000F5FB074640F6FF70001904D10098B0F9AE
:1051F0000440B0F906500098611E0289ADF80440E1
:105200001144ADF808104189681E0844ADF80650F5
:10521000ADF80A0004F062FF6846FFF703F901A841
:1052200005F072FE06E02A462146404600F0F8FAF4
:1052300005F01EFE0028F6D1384600F0C7FB3046C8
:1052400000F048F9484600F0DFFB07B0BDE8F08306
:10525000080100202DE9FE4F834619488A46194966
:1052600000680C9E9846407C9146002751F82040EB
:10527000E1680968042903D02468002CF8D100E013
:1052800014B9FFF7E7FA04460121E068C26A204634
:105290009047050011D02469A0688047401C02D1C6
:1052A000094C46F001060096CDE9015443464A46B2
:1052B0005146584600F09AF907463846BDE8FE8F39
:1052C00008010020200100201C11020838B504004C
:1052D00018D00D480068006EA04201D100F06CFBB0
:1052E0002046FFF77DF80090406908B100F0FDFD11
:1052F00000980068FFF76AFA6846FFF793F82046BF
:10530000FEF7AEFF38BD0000080100202DE9FF4F79
:1053100083B0454CDDF840B098468A4607002BD054
:1053200002A901A8FFF7AAFEB7F90060002E00DA73
:105330000026B7F90250002D00DA00252068A146AA
:10534000407C02F0A9FA01990144491EB7F9040012
:105350000AF03DFB0446D9F80000407C02F0A2FAB6
:1053600002990144491EB7F906000AF030FBA71B59
:105370007F1C441B641C0BE0206800263546407CE3
:1053800002F08AFA07462068407C02F08BFA044655
:10539000B8F1000F01D1C4F10008002F01DD002C8D
:1053A00003DC002007B0BDE8F08F43463A462946AB
:1053B0003046CDF800B0FFF74DFF5FEA000909D095
:1053C00000F054F88046484600F084F80027DFF8E3
:1053D0005CB01FE05146059888470120E2E7E11BD9
:1053E000414502DA484600F05FF83FB1EA1931461C
:1053F000484600F099F84846FFF7B8FE5146059830
:105400008847DBF8001009B1002088474846FFF7BD
:10541000CBFE4744A742E2DB4846FFF757FF002098
:1054200000F058F8BDE7000008010020B405002096
:1054300038B5002460B1FEF7D3FF00900068006922
:105440008068804702F0D8FD04466846FEF7EAFF10
:10545000204638BD38B5FEF7C3FF00F118040090B0
:105460006846FEF7DFFF204638BD000038B500244F
:1054700018B907480068006E38B1FEF7B1FF009018
:10548000B0F90A406846FEF7CDFF204638BD00005F
:105490000801002010B506F0A1FC002803D0BDE8EB
:1054A000104000F06DB810BD38B50C4620B9084862
:1054B0000068006E00280AD0FEF792FF0090B0F955
:1054C0000A10A14200DD44816846FEF7ABFF38BDFB
:1054D00008010020F8B5134E05003068046E0CD0AA
:1054E0000CB100F069FA04F02DFF2846FEF778FFB2
:1054F000009031680A6E1AB106E000F05DFA0EE025
:10550000D1E90223C1E919230D660068FFF760F9AC
:105510006846FEF787FF02F007FC02F09DFB20467D
:10552000F8BD0000080100207CB515460C4620B9E6
:1055300012480068006E00281FD0FEF751FF2DB200
:105540000090C58024B2848002F086FB00984069F8
:1055500080B1FEF745FF009A0190B2F908108180F2
:10556000B2F90A20C28011B10AB10480458001A8B5
:10557000FEF758FF6846FEF755FF7CBD0801002086
:1055800001490A4600F002B801F0FFFF7FB5154659
:105590000C46060028D0FEF723FF40F6FF7101906D
:1055A000091903D1B0F90440B0F906500289611E0F
:1055B0001144ADF80840ADF80C104189681E08444C
:1055C000ADF80E00ADF80A5001A8FEF72BFF02A8B7
:1055D00005F09AFC06E02A462146304600F008F91C
:1055E00005F046FC0028F6D17FBD00002DE9FF4FF5
:1055F000DFF8E0B083B01C46DBF80010DDE9106096
:10560000924600274B7C3A461299FFF7A3F8050013
:105610005DD028698068804702F0EEFC81460AFB75
:1056200009F0C01D4FEAD008FEF7E8FEF10705D1EA
:10563000C11700EB9170801000EB4000002C06DCDD
:105640001838B0FBF8F06442A04200DC0446F007D2
:1056500007D10090DDE903012346524600F0BCFB70
:105660000746002C03DC2846FFF7B0F82FE004FBC8
:1056700008F01830F10702D0FEF7D2FD01E0FEF786
:10568000D4FD06001CD0FEF7ABFE01900560039927
:1056900081800499C180A0F808A04481C0F80C80E2
:1056A000C0E9049701A8FEF7BDFE1298AE6028611C
:1056B000DBF80000407CA861304607B0BDE8F08F01
:1056C0002846FFF783F817B13846FEF7C9FD0020DA
:1056D000F3E70000080100202DE9F74F92B0904653
:1056E0001298FEF77DFE0B90B0F908100691B0F904
:1056F0000A100D9100680069D0F804B00BA8FEF7FD
:1057000091FE384C384D2068407C55F82000C16827
:105710008A6A082190478146182801D34FF0200952
:105720002068407C55F820000069079003C80C9061
:105730002E48814201D0012000E00020109000207E
:1057400000F028FC002849D10026DDE91207B24606
:105750000FAB069C4546761C0193FFF77BFE014686
:1057600004FB0AF001EB8002234629463846CDF8B7
:1057700000B000F0EDFE050030D01098D0B1DDE9AA
:1057800006134A46284600F006FD98B9DDE9067082
:105790002C46D0F810C0BCF1000F05D029460423D8
:1057A0003A460846E04705E00C992068884701C45E
:1057B0007F1EF9D10020CDE903050590012000905E
:1057C000CDE901094146034608F10108069A1398FC
:1057D00001F068FE0D98401E0D90B6D115B0BDE8E1
:1057E000F08F000008010020200100203779000818
:1057F000F8B515460E460746FEF7F2FD0090006824
:105800001621C068426A0020904704466846FEF7A9
:1058100009FE002C03D02A4631463846A047F8BD81
:10582000F8B515460E460746FEF7DAFD00904469C6
:105830006846FEF7F7FD3846FFF7FAFD03460828ED
:1058400000DD2CB12A46314638460CF01DFBF8BD70
:105850002A46314638460CF0AFFCF8BD10B500289A
:1058600021D009B30AB3B1F90040B2F900309C422B
:1058700000DA23460380B1F90240B2F902309C42BB
:1058800000DA23464380B1F90440B2F904309C4267
:1058900000DD23468380B1F90610B2F9062091425B
:1058A00000DC1146C18010BD11460A6802604968DB
:1058B000416010BD00280BD003880B44038083880F
:1058C00019448180418811444180C1881144C180BC
:1058D0007047000070B5094C0020D4E900218A42CD
:1058E0000AD0D2E90056104609F0EAFE206031469F
:1058F000284604F0D5FF012070BD0000740500208B
:105900002DE9FC41154DDDE908742D68B5F90860F5
:10591000864200DD3046B5F90C60964200DA324628
:10592000824219DBB5F90A608E4200DD3146B5F9D5
:105930000E509D4200DA2B468B420DDB00E02C46D8
:10594000E5682D6825B1042D02D02568002DF6D11B
:10595000CDE9007402F068F8BDE8FC810801002080
:10596000B0F90220B1F906309A4213DCB1F90220F5
:10597000B0F906309A420DDCB0F90020B1F90430DC
:105980009A4207DCB1F90010B0F90400814201DC51
:1059900001207047002070470146024878220068C5
:1059A000FAF774BE08010020024978220968FAF764
:1059B0006DBE00000801002010B502F001F902F0F0
:1059C000B3F9BDE8104004F089BB000070B504468F
:1059D0000548022C0068457C02D24474FFF7ECFFB6
:1059E00002480460284670BD08010020140500200C
:1059F00002F008B905F016B902F03CB90149886017
:105A000070470000FC00002002F046B90349096815
:105A1000CA6900B1C8611046704700000801002043
:105A2000024909688A7E887610467047080100207E
:105A3000094A30B41080094A1180094A1268537C1F
:105A4000084A52F82330DA68146A0A46A446014626
:105A500030BC184660470000380100203A010020A1
:105A60000801002020010020024909680A7E08760A
:105A7000104670470801002003490968B1F92C203D
:105A80008885104670470000080100200349096816
:105A9000B1F92A204885104670470000080100200F
:105AA00002480068002800D0004770479405002095
:105AB00002498A6802B98860FFF7F2BF74050020C6
:105AC0002DE9FC410746984615460E461C20FEF778
:105AD000ACFB040028D01949174808602046FEF79F
