:020000040800F2
:10000000B08F00209502000809E40008119B000849
:10001000A9E3000855230008ED490108000000008D
:100020000000000000000000000000002126010880
:100030003742000800000000410901086D3701083F
:10004000AF020008AF020008AF020008AF020008CC
:10005000AF020008AF020008AF020008AF020008BC
:10006000AF020008AF020008AF020008AF020008AC
:10007000AF020008AF020008AF020008AF0200089C
:10008000AF020008AF020008AF020008AF0200088C
:10009000AF020008AF020008AF020008AF0200087C
:1000A000AF020008AF020008AF020008AF0200086C
:1000B000AF0200087D3C0108AF020008AF02000853
:1000C000AF020008AF020008AF020008AF0200084C
:1000D000AF02000835470108AF020008AF02000870
:1000E000AF020008AF020008AF020008AF0200082C
:1000F000AF020008AF020008AF020008AF0200081C
:10010000AF020008AF020008AF020008AF0200080B
:10011000AF020008AF0200087D3F0108AF020008EF
:1001200059400008AF020008AF020008AF02000803
:10013000AF020008AF020008AF020008AF020008DB
:10014000AF020008AF020008AF020008E9EB0008A8
:10015000AF020008AF020008AF020008AF020008BB
:10016000AF020008AF020008AF020008AF020008AB
:10017000AF020008AF020008AF020008AF0200089B
:10018000AF020008AF02000800F002F800F072F8B9
:100190000AA090E8000C82448344AAF10107DA45E2
:1001A00001D100F067F8AFF2090EBAE80F0013F0C2
:1001B000010F18BFFB1A43F0010318476434040011
:1001C000843404000A444FF0000C10F8013B13F093
:1001D000070408BF10F8014B1D1108BF10F8015BA0
:1001E000641E05D010F8016B641E01F8016BF9D193
:1001F00013F0080F1EBF10F8014BAD1C0C1B09D1EA
:100200006D1E58BF01F801CBFAD505E014F8016B5B
:1002100001F8016B6D1EF9D59142D6D370470000ED
:100220000023002400250026103A28BF78C1FBD8FF
:10023000520728BF30C148BF0B607047662926F0BF
:100240009281642900F08480002070471FB526F059
:1002500080F900F0CFFD04000020002125F036FCDD
:10026000401C60600020002125F01AFCE0601FBDEA
:1002700010B510BD00F00AFF1146FFF7E7FF25F0AB
:1002800041F800F036FF03B4FFF7F2FF03BC00F0C3
:1002900077FF00000948804709480047FEE7FEE76E
:1002A000FEE7FEE7FEE7FEE7FEE7FEE7FEE7FEE726
:1002B00004480549054A064B7047000035380108D7
:1002C00089010008B0890020B08F0020B08B002089
:1002D000B08B00200FB41CB5074B06AA7B446946BF
:1002E0000090059800F0CBFC0020694600F0DAFC95
:1002F0001CBC5DF814FB0000C509000070B5044685
:1003000085690068C10601D5302600E02026C007B7
:1003100008D070BDD4E9012130469047206A00F131
:10032000010020626D1EF5D570BD70B5044685696B
:100330000068C00708D170BDD4E901212020904792
:10034000206A00F1010020626D1EF5D570BD00002D
:100350002DE9F0410746002510687529394616A495
:1003600011D0AFF30080002803DAC0F1000013A41D
:1003700007E039688A0701D511A402E0490704D5CE
:1003800010A4012501E0AFF3008000210A2307F14A
:10039000240607E0B0FBF3F203FB12003030705488
:1003A0001046491C0028F5D12B4622463846BDE8A8
:1003B000F04100F0F3B90000000000002D00000043
:1003C0002B000000200000002DE9F05F0446894664
:1003D0004FF0000ADFF828B1FB44C0F820A0204607
:1003E000E168884700287CD0252806D0D4E901217F
:1003F0009047206A401C2062F1E700255F462046B6
:10040000E16888472028064608DB312E06D207EB34
:10041000060010F8200C08B10543F0E7A80701D545
:1004200025F00405C4F81CA00027C4F818A02A2E43
:1004300009D0304624F018FE38B304EB8708303E6C
:10044000C8F8186019E059F8041B204604EB87022D
:100450009161E1688847012F064618D1E0690028BC
:1004600020DA25F020051DE0D8F8180000EB800008
:1004700006EB40003038C8F818002046E16888478D
:10048000064624F0F1FD0028EED1012F0AD02E2ED1
:1004900008D12046E16888477F1C0646022F45F0B8
:1004A0002005C4DBA069002803DA404245F00105BD
:1004B000A061E80701D025F0100596B1A6F1410032
:1004C000192802D8203645F400654A4631462046B0
:1004D00025604D46FFF7B2FE60B1012807D0ED1D43
:1004E00000E009E025F0070000F1080977E705F1D1
:1004F000040974E7304679E7206ABDE8F09F000000
:100500007031040070B5064600F044F904680546F1
:1005100030460A22002100F0CAFB2C6070BD40EA80
:100520000103024630B59B0710D14FF0013400E0C3
:1005300008C208C91D1B9D4315EAC41FF8D013F05B
:10054000FF0102F8011B0DD01B0AF8E711F8013B6F
:10055000002B02F8013B05D011F8013B002B02F8FB
:10056000013BF3D130BD10B5431C02E010F8011B74
:1005700071B18107FAD14FF0013202C88C1A8C4355
:1005800014EAC211F9D0C01A0A0603D0C01E10BD69
:10059000C01A10BD0A0401D0801E10BD0902FCD093
:1005A000401E10BD421E12F8013F002BFBD111F876
:1005B000013B002B02F8013BF9D17047032A40F2BE
:1005C000308010F0030C00F0158011F8013BBCF1F5
:1005D000020F624498BF11F801CB00F8013B38BF0D
:1005E00011F8013BA2F1040298BF00F801CB38BF1B
:1005F00000F8013B11F0030300F06780083AC0F0F7
:10060000088051F8043B083A51F804CBA0E80810E0
:10061000F5E7121D5CBF51F8043B40F8043BAFF313
:100620000080D20724BF11F8013B11F801CB48BF6D
:1006300011F8012B24BF00F8013B00F801CB48BFA3
:1006400000F8012B7047431A28BF9A427FF6B6AFD5
:10065000032A1044114440F2268010F0030F1EBFFD
:1006600011F8013D521E00F8013D10F0030F7FF418
:10067000F6AF11F0030300F06583083AC0F00B8079
:1006800051F8043D083A51F804CD40F8043D40F8D3
:1006900004CDFFF7F3BF121D5CBF51F8043D40F8D5
:1006A000043DAFF30080D20724BF11F8013D11F8DB
:1006B00001CD48BF11F8012C24BF00F8013D00F81E
:1006C00001CD48BF00F8012C704710B5203AC0F0AA
:1006D0000B80B1E81850203AA0E81850B1E8185043
:1006E000A0E81850BFF4F5AF5FEA027C24BFB1E880
:1006F0001850A0E8185044BF18C918C0BDE81040F1
:100700005FEA827C24BF51F8043B40F8043B08BFF9
:100710007047D20728BF31F8023B48BF11F8012BC0
:1007200028BF20F8023B48BF00F8012B704702F0B9
:10073000FF0343EA032242EA024200F02FBB4FF0DC
:10074000000200B5134694469646203922BFA0E821
:100750000C50A0E80C50B1F12001BFF4F7AF09072D
:1007600028BFA0E80C5048BF0CC05DF804EB89001E
:1007700028BF40F8042B08BF704748BF20F8022B61
:1007800011F0804F18BF00F8012B70477047704779
:100790007047000000487047508900202DE9F0475D
:1007A0000D4604469246994600F1240801688806E1
:1007B00004D5E06921F01001216000E00120A84289
:1007C00002DDA0EB050700E00027A16907EB0502A9
:1007D00002EB0900A1EB0000A0612068C00602D472
:1007E0002046FFF78BFD002608E0D4E901211AF826
:1007F00006009047206A401C761C20624E45F4DBC0
:100800002068C0060AD52046FFF778FD06E0D4E947
:10081000012130209047206A401C2062381EA7F139
:100820000107F4DC07E0D4E9012118F8050090473E
:10083000206A401C2062281EA5F10105F3DC204639
:10084000FFF773FD2068000602D50220BDE8F0879F
:100850000120FBE770472DE9FF4F0C461E464FF085
:10086000FF378BB0D2E90001DDF860800A908A463C
:10087000C1F30A5505B93D46002108464FF0000076
:10088000BAF1000F00F4400005DA00EB80004FF4ED
:10089000400101EA50004FEA9059B9F1010F00DD23
:1008A000B9460A9850EA4A000FD044F61050A5F213
:1008B000FF3545432F14B8F1000F1FD07542291E94
:1008C0001FDD4846C9F100021CE0B8F1010F4FF0EE
:1008D000000001D1F24307E0302101E02154401C27
:1008E000B042FBDB30460022002121540B99C1F8B5
:1008F0000880C1E900200FB0BDE8F08FBD1B6D1C62
:10090000DDE74A4600DA694206A800F04DFB06AB77
:1009100007CB03AB07C350460A9900F038FC8DE8BB
:100920000700A0F500501F3800900398002D09DD46
:1009300042F21F014A46084403A90390684600F0AA
:1009400097FE08E0A0F500504A461F3803A903901F
:10095000684600F0A1FE8DE807000004000C03D0FB
:100960004FF0FF30410800E01046B8F1000F03D00F
:100970000022009215461FE0751E06D400F03EFAD4
:1009800002F1300262556D1EF8D5B34601220843CC
:1009900002D000227F1C04E02078302801D1002200
:1009A0007F1E002A099786D01DE0112D07DA00F07E
:1009B00025FA303262556D1C50EA0102F5D1084328
:1009C0000FD10021681E05E0235C625C6354491C62
:1009D0002254401E8142F7DBAB46A81B401E099003
:1009E00001E0009848B1002004F80B000B98099A28
:1009F000C0F80880C0E9002B7DE711264FF0000801
:100A000059E72DE9F04F88460446D21D22F0070130
:100A100091B0D1E90001CDE90A011EF059F9024671
:100A20000B98C00F01D02D2007E02068810701D569
:100A30002B2002E0202101EAC000032A099001D006
:100A4000072A05DB03464146204600F01DFA0EE169
:100A50002068800601D5E06900E00620B8F1650F46
:100A6000814606D0B8F1660F18D0B8F1670F72D181
:100A700032E00020B9F1110F009001DB112301E0F9
:100A800009F101030AAA01A90CA8FFF7E4FEDDE9B8
:100A90000C70002609F10105834648E001204B4611
:100AA00000904FF000470AAA01A90CA8FFF7D3FE57
:100AB000DDE90C050E990026AB4619B909F10101D3
:100AC00000EB0105B9EB050003D4C0F1FF3609F1D5
:100AD0000105A5EB09002BE0B9F1010F01DA4FF098
:100AE00001090020B9F1110F0090484601DD1123E2
:100AF00000E003460AAA01A90CA8FFF7ACFEDDE955
:100B00000C704D4600268346206800070AD4AB458A
:100B100000DA5D4601A8012D04DD411911F8011C20
:100B2000302907D04F4502DA17F1040F04DA01200B
:100B3000824610E06D1EEEE7002F02DCED1B3E4406
:100B400003E0781CA84200DD0546A7EB060000F193
:100B5000010A4FF000472068000703D4AA4501DBD3
:100B60004FF0FF3A0021B7F1004F0DF143088DF827
:100B7000431022D002202B23002F01DA7F422D23A5
:100B80000A22011EA0F1010000DC4FB197FBF2F137
:100B900002FB117C0F460CF1300C08F801CDF0E798
:100BA000A8F1010003702168090501D5452100E085
:100BB0006521A0F1010800F8011C09980FA9A1EB1B
:100BC000080707F1070700B1012000EB050101EB61
:100BD000EA70A1693844A1EB0000A0F10100A06116
:100BE0002068C00602D42046FFF788FB099830B180
:100BF000D4E901219047206A00F1010020622068B9
:100C0000C00620D52046FFF779FB1CE0002E04DB50
:100C1000B34502DD01A8805D00E03020D4E9012168
:100C20009047206A761C401CBAF1010A20620AD162
:100C300000F0E0F8C0680168405CD4E90121904709
:100C4000206A401C2062281EA5F10105DEDC07E0B9
:100C5000D4E9012118F8010B9047206A401C20625A
:100C6000381EA7F10107F3DC2046FFF75EFB0220E8
:100C700011B041E601694A1C02610878704700B56D
:100C80008FB0CDE901310021059105497944CDE9C5
:100C9000031011466846FFF797FB0FB000BD000038
:100CA000E5FFFFFF0A6802F8010B0A6070472DE9B3
:100CB000F0470F46914680460446002614F8015B33
:100CC0002DB100F08FF80068405DC007F6D12B2DE4
:100CD00002D02D2D18D0641E4A463946204600F019
:100CE00013F927B13968A14201D1C7F800804FF04C
:100CF000020471050BD54042002803DDFFF74AFDD1
:100D00000460A007BDE8F08746F48066E4E70028A9
:100D1000F8DAFFF73FFD04606FF00040F2E7431A96
:100D200028BF9A427FF6D1AC104410F0030F114453
:100D30001EBF11F8013D521E00F8013D10F0030FD7
:100D40007FF4F6AF103AC0F00A8010B531E91850C0
:100D5000103A20E91850BFF4F9AFBDE8104053072E
:100D600024BF31E9081020E9081044BF51F8043DC0
:100D700040F8043D12F0030F08BF7047D20728BFA8
:100D800031F8023D48BF11F8012C28BF20F8023D80
:100D900048BF00F8012C70474FF000020429C0F052
:100DA000128010F0030C3FF4CCACCCF1040CBCF17D
:100DB000020F18BF00F8012BA8BF20F8022BA1EBEF
:100DC0000C01FFF7BEBC5FEAC17C24BF00F8012B19
:100DD00000F8012B48BF00F8012B7047004870470E
:100DE0005089002010B500F005F8001D10BD00BFAF
:100DF000DD4C0200004870477089002030B5B0F12A
:100E00000A024FEA900E71F100034EEA817EB0EBC8
:100E10000E0061EB91014FEA101E4EEA017E10EBCD
:100E20000E0041EB11114FEA102E4EEA016E10EB4D
:100E30000E0041EB11214FEA104E4EEA014E10EB2D
:100E40000E0041EB1141401841F100014FEAD00082
:100E500040EA41704FEAD10110EB80054FEA81046E
:100E600044EA907444EB01046D1944EB0404521BF2
:100E7000A3414FF0000348BF0A3200D530BD401CEB
:100E800041F1000130BD00002DE9F04104461F464C
:100E900003260168072A01F4006004DB08B116A5E7
:100EA00005E016A503E008B115A500E015A521F0A1
:100EB00010002060A069C01EA0610FB1401EA0619B
:100EC0002046FFF71BFA4FB1D4E90121384690477D
:100ED000206A401C2062C01C206206E0206AFAE7FB
:100EE000D4E9012115F8010B9047761EF8D220466F
:100EF000FFF71BFABDE8F0814E414E006E616E00B7
:100F0000494E4600696E66002DE9F05F82468B46C9
:100F1000154600270AF10104B9460078302801D0AF
:100F20009DB113E014F8010B0127782803D058284D
:100F300001D045B10AE00DB1102D07D1002714F8FA
:100F4000010B102502E0082500E00A250026B04626
:100F50000EE005FB080005FB06F101271FFA80F8EB
:100F600001EB1046B6F5803F00D3B94614F8010BEB
:100F7000294600F0B0F80028EBDABBF1000F05D0ED
:100F80000FB1641E00E05446CBF80040B9F1000FE9
:100F900006D0FFF7FFFB02210160C81EBDE8F09FED
:100FA00048EA0640FAE700002DE9F0478146164678
:100FB0008AB035487844D0E9002380680092CDE9B2
:100FC0000130314878440C38D0E90223006903929B
:100FD0004FF03702CDE9043041F69B30014491FBDC
:100FE000F2F0A0F1800502FB10141B3C02D5644214
:100FF000012000E00020DFF890A080460027FA449E
:10100000AAF1C60A0DE0E00709D03246684607EBB0
:1010100047010AEB810100F03FFB8DE807006410F7
:101020007F1C002CEFD1184F7F44B43F17E0E80736
:1010300013D007EB04100DF1180A90E80E00AAE88F
:101040000E00C068F04201D198190890324606A9F6
:1010500003A800F021FB03AB07C36D10641C002D37
:10106000E5D132466946B8F1000F03A802D000F07E
:10107000FFFA01E000F010FBC9E90001C9F80820FF
:101080000AB0BDE8F0870000242604007546FFF78B
:10109000A5FEAE4605006946534620F0070085468A
:1010A00018B020B5FFF704F9BDE820404FF0000666
:1010B0004FF000074FF000084FF0000B21F0070140
:1010C000AC46ACE8C009ACE8C009ACE8C009ACE883
:1010D000C0098D4670473A2800D2303820F02002EF
:1010E000412A01D3A2F13700884201D34FF0FF30EB
:1010F00070470446AFF300802046FFF7C4F80000B5
:101100004FF0013C50F8042B51F8043B9A4221D196
:10111000A2EB0C03934313EACC1317D150F8042B22
:1011200051F8043B9A4215D1A2EB0C03934313EA06
:10113000CC130BD150F8042B51F8043B9A4209D13F
:10114000A2EB0C03934313EACC13DBD04FF0000067
:10115000704700BFD01A01BAB1FA81F101F018014D
:1011600022FA01F0CB40C1F12001DBB2C0B2C01ABB
:101170002CFA01F3D11A914311EAC311E6D1704759
:1011800001491820ABBEFEE72600020070475FEA67
:10119000400C08BF91F0000F4FEA8C234FEAC122A8
:1011A00043EA51514FEA1C5018BF00F5F0404FEA96
:1011B000300018BF41F000415FEA6C5C00F029800C
:1011C000BCF1FF3F08BF40F080407047130C06BFE2
:1011D00012044FF0100C4FF0000C130E04BF12025B
:1011E0000CF1080C130F04BF12010CF1040C930F47
:1011F00004BF92000CF1020CD30F04BF52000CF19B
:10120000010C11464FF00002A0F11F00A0EB0C00F2
:10121000704711F0004F08BF704731F000413FF4B4
:10122000D5AF0B0C06BF09044FF0100C4FF0000CAB
:101230000B0E04BF09020CF1080C0B0F04BF0901CF
:101240000CF1040C8B0F04BF89000CF1020CCB0FC6
:1012500004BF49000CF1010CCCF12003A0EB0C0001
:1012600022FA03F302FA0CF241EA030100F1010051
:10127000704720F07F4C80EA030023F07F47ACEBFF
:10128000070303F57C5300F0004003F1FF032DE951
:1012900080494FEA154B09B44FEA144325EA0B4E37
:1012A00024EA03480FF2042606EB132749083E7888
:1012B0005FEA320203FB0667C7F5000707FB06F685
:1012C0004FEA54374FEAD64606F1020607FB066C92
:1012D000CCF1005C4FEA1C472CEA074C07FB06F4F4
:1012E0000CFB06F504EB15464FEA961634BF0020BA
:1012F0004FF000404FEAD13706FB07FC4FEA1C4C89
:101300000CFB0BF7D21B03FB0CF761EB07010CFB8B
:101310000EF7B0EB074072EB17420CFB08F734BF37
:10132000A2EB0742B2EB074261EB17414FEA0C44D4
:101330004FEA910706FB07FC4FEA1C4C0CFB0BF72E
:10134000B0EBC74072EB573203FB0CF734BFA2EB94
:10135000C742B2EBC74261EB57310CFB0EF7B0EB63
:10136000C70072EB57720CFB08F734BFA2EBC70241
:10137000B2EBC70261EB5771039F4FEA816141EA0B
:10138000921104EBCC044FEAD1374FEA826206FB9C
:1013900007FC42EA90124FEA80604FEA1C4C0CFBBB
:1013A0000BF7D21B03FB0CF761EB07010CFB0EF7ED
:1013B000B0EB074072EB17420CFB08F734BFA2EB0F
:1013C0000742B2EB074261EB17414FEA8C554FEAF7
:1013D000910704EB9C2406FB07FC4FEA1C4C0CFB1A
:1013E0000BF7B0EBC74072EB573203FB0CF734BF7F
:1013F000A2EBC742B2EBC74261EB57310CFB0EF7D1
:10140000B0EBC70072EB57720CFB08F734BFA2EBCE
:10141000C702B2EBC70261EB577115EB4C254FEADF
:10142000816141EA92114FEA82624FEAD13742EA82
:10143000901206FB07FC44F100044FEA80604FEA7B
:101440001C4C0CFB0BF7D21B03FB0CF761EB0701E9
:101450000CFB0EF7B0EB074072EB17420CFB08F7E2
:1014600034BFA2EB0742B2EB074261EB174115EB29
:101470001C154FEA813141EA92414FEA823242EA39
:1014800090424FEA80304FEA0C7644F1000448EA7B
:1014900003434EEA0B484FF0000EB2EB080C71EB21
:1014A000030724BF624639464EEB0E0E4FF0000B89
:1014B0000018524149414BEB0B0BB2EB080C71EB9E
:1014C00003077BF1000B24BF624639464EEB0E0E3C
:1014D0004FF0000B0018524149414BEB0B0BB2EBA4
:1014E000080C71EB03077BF1000B24BF6246394601
:1014F0004EEB0E0E51EA020718BF46F0010616EB3E
:101500000E7655F1000254F1000103D5BDE88901C2
:10151000BDE80088BDE88901BDE80048B619524120
:1015200041EB0101A3F10103704780807F7E7D7C48
:101530007B7A7978777676757473727171706F6E65
:101540006E6D6C6C6B6A6A69686867666665646410
:10155000636362616160605F5F5E5E5D5D5C5C5B9A
:101560005B5A5A5959585857575656555555545409
:10157000535352525251515050504F4F4F4E4E4D67
:101580004D4D4C4C4C4B4B4B4A4A4A4949494848B3
:1015900048474747474646464545454444444443F3
:1015A00043434342424242414141002B26D477000B
:1015B00021D01CB54FEA370703B44FF010004FF0AD
:1015C00010014FF000000FBCBDE810400BF1010B03
:1015D000BBF1010F08BF5FEA170722BF12F101023A
:1015E00011F101014FF0004143F1000300F0004010
:1015F00043EA00007047F9D35708DAE746EA06469F
:1016000013F1400F4FEA16461FDD13F1200FDFBF25
:1016100016430A46002120335B42C8D0C3F120079D
:1016200046EA064602FA07F74FEA164646EA070672
:10163000C3F1200722FA03F201FA07F721FA03F1B6
:101640004FF0000342EA0702B1E746EA020646EA23
:1016500006464FEA164646EA0106BCBF46EA06467B
:10166000360C4FF000034FF000024FF000019EE7F0
:101670002DE9C048934630B491E8380007C831EAF4
:10168000400C48BF34EA430C03D5FFF7F2FDFFF7E7
:101690008CFFF0BCBDE800882DE9C048934630B40B
:1016A00091E8380007C810F0804F08BF13F0804F52
:1016B00003D100F005F8FFF778FFF0BCBDE8008823
:1016C00020F07F4780EA030023F07F4C07EB0C03F8
:1016D000A3F57C5300F00040A3F1FE0392F0000F4D
:1016E00000F0B38095F0000F00F077802DE90149FC
:1016F0004FEA11404FEA144621EA004800FB06FC7D
:1017000024EA064708FB06F607FB08F800FB07F784
:1017100018EB06484CEB164C4FEA124B18EB0748F7
:101720004FEA15464CEB174022EA0B4E0BFB06FC2A
:1017300025EA06470EFB06F607FB0EFE0BFB07F736
:101740001EEB064E4CEB164C4FF000061EEB074E00
:101750004CEB174B18EB0B0840F1000018EB0E0B8D
:1017600058EB000840F100008F1A4FF000013CBF19
:10177000C943661B14BFB5EB040C00213CBFC94331
:10178000F61B4FEA17444EEA8E0E27EA04454FEA4D
:101790001C4704FB07622CEA074C05FB07F70CFB10
:1017A00005F604FB0CFC16EB074642EB174216EB62
:1017B0000C4642EB1C421BEB060658EB0202414171
:1017C00046EA9E0601D5BDE80189B619524141EBB2
:1017D0000101A3F10103BDE801894FEA14454FEA75
:1017E000114724EA054621EA074C05FB07F406FBEE
:1017F00007F70CFB06F105FB0CFC11EB074144EB72
:1018000017444FEA124711EB0C4144EB1C4422EA07
:10181000074C05FB07F206FB07F70CFB06F605FB7A
:101820000CFC16EB074642EB174216EB0C4642EB5C
:101830001C456A1854F1000148BF7047B61952415F
:1018400041EB0101A3F10103704795F0000F37D080
:101850004FEA11424FEA144721EA024624EA074CB4
:1018600002FB07F106FB07F70CFB06F402FB0CFC7E
:1018700014EB074441EB17414FEA154714EB0C44B6
:1018800041EB1C4125EA074C02FB07F506FB07F775
:101890000CFB06F602FB0CFC16EB074645EB174566
:1018A00016EB0C4645EB1C42121951F1000148BFE2
:1018B0007047B619524141EB0101A3F10103704792
:1018C0004FEA14454FEA114724EA054621EA074C3E
:1018D00005FB07F106FB07F70CFB06F24FF00006CD
:1018E00005FB0CFC12EB074241EB174112EB0C42DB
:1018F00051EB1C4148BF7047921841EB0101A3F125
:10190000010370472DE9F0419CB001210F023846D8
:101910000FF0BAF8012188050FF092F82026019601
:1019200003258DF8085000248DF80B40DFF85C810A
:1019300001A9404604F0B2F9402001908DF808500A
:101940008DF80B4001A9404604F0A8F91020019041
:101950008DF808508DF80B40DFF8348101A940461E
:1019600004F09CF901968DF808508DF80B4001A900
:10197000404604F093F9012601968DF808508DF841
:101980000B40DFF8108101A9404604F087F90220DE
:1019900001908DF808508DF80B4001A9404604F0E5
:1019A0007DF903943C4804903C48059006944FF41C
:1019B000967007900894B002099040000A90800049
:1019C0000B900C9700010D900E940F9610941194AB
:1019D000334D03A9284602F08BFB0121284602F073
:1019E00063FB01221021284602F069FB02F01EFB76
:1019F000294D01214C3D284600F0C6F9129413945C
:101A00001494159412A800F0A7F916948DF85C6050
:101A10008DF85D6019941A9406208DF86C0016A953
:101A2000284600F0C7F9042301220521284600F0CA
:101A3000E7F9002302220621284600F0E1F90023FD
:101A400003220821284600F0DBF9002304220921A3
:101A5000284600F0D5F9002305220E21284600F083
:101A6000CFF9002306220F21284600F0C9F90121F1
:101A7000284600F065F9284600F000FA01212846C2
:101A800000F08DF91CB0BDE8F081000000000240BC
:101A900000080240000402404C200140A808002039
:101AA000106402402DE9F04F0020A24A4FF00609D1
:101AB00002F5167402F5487502F5617602F57A773B
:101AC00002F52F7C9C4902F24C484FF4967E4CE084
:101AD000B0FBF9F309FB130353B1012B12D0022B16
:101AE0001AD0032B22D0042B2AD0052B32D03AE077
:101AF00032F810B091F800A00AF101030B7024F83D
:101B00001AB030E032F810B091F801A00AF10103E8
:101B10004B7028F81AB026E032F810B091F802A005
:101B20000AF101038B7025F81AB01CE032F810B0EE
:101B300091F803A00AF10103CB702CF81AB012E05F
:101B400032F810B091F804A00AF101030B7127F8E4
:101B50001AB008E032F810B091F805A00AF10103BC
:101B60004B7126F81AB0401C80B27045B0D30022E9
:101B70000A704A708A70CA700A714A7191460020D0
:101B800004E034F810309944401CC0B23228F8D335
:101B9000C879DFF8A8A13223282807D2B9FBF3F0CF
:101BA000CC792AF814004FF0000910E0002401203D
:101BB00004E03AF810904C44401CC0B22728F8D3F7
:101BC0002720B4FBF0F048824FF00009CA71C879B1
:101BD000401CC871002004E035F81040A144401CAE
:101BE000C0B23228F8D38879DFF850A11224AAF1C4
:101BF000280A142806D2B9FBF3F08D792AF81500CB
:101C000000250EE00025012004E03AF810904D4434
:101C1000401CC0B21328F8D3B5FBF4F0C8810025EE
:101C20008A718879401C8871002004E036F8109091
:101C30004D44401CC0B23228F8D3487ADFF8FC90FB
:101C4000132609F1A009142806D2B5FBF3F04D7A4A
:101C500029F8150000250EE00025012004E039F8E0
:101C600010A05544401CC0B21328F8D3B5FBF6F0C1
:101C7000088200254A72487A401C4872002004E01D
:101C800037F810904D44401CC0B23228F8D3087A7F
:101C90002A4F7837142806D2B5FBF3F00D7A27F8CF
:101CA000150000250EE00025012004E037F8109013
:101CB0004D44401CC0B21328F8D3B5FBF6F0C882DF
:101CC00000250A72087A401C0872002004E03CF8E3
:101CD00010603544401CC0B23228F8D3887A174EC1
:101CE0005036142806D2B5FBF3F08A7A26F8120093
:101CF00000240EE00025012004E036F810703D4479
:101D0000401CC0B21328F8D3B5FBF4F0888200243D
:101D10008A72887A401C8872002004E038F810200B
:101D20001444401CC0B23228F8D3B4FBF3F08881CD
:101D3000BDE8F08FA808002048000020800D00209A
:101D400021B1816841F0010181607047816821F013
:101D5000010181607047000010B5094C22680949F3
:101D600002EA0102D0E9001341EA0301D0E902309E
:101D700043EA000341EA030141EA0201216010BD88
:101D800004230140E030FCFF21B1816841F48071FF
:101D900081607047816821F480718160704721B152
:101DA000816841F4007181607047816821F400719D
:101DB0008160704730B542680F4B1A400C790B6850
:101DC00042EA04221343436083680C4A1340D1E97A
:101DD000034222434D798C6844EA450422431A4366
:101DE0008260C26A22F47002097D491EC9B242EAC9
:101DF0000151C16230BD0000FFFEFFFCFDF7FFC0D6
:101E000070B5072609290ED9D0F80CC0A1F10A0433
:101E100004EB4404A6402CEA060CA3404CEA030C55
:101E2000C0F80CC007E0056901EB4104A640B543CA
:101E3000A3401D4305611F23072A09D2446B521E8C
:101E400002EB820293409C4391400C43446370BD7B
:101E50000D2A09D2046BD21F02EB820293409C43ED
:101E600091400C43046370BDC46A0D3A02EB8202D8
:101E700093409C4391400C43C46270BD816841F023
:101E8000804181607047002800DC404270470000BC
:101E900005484FF4006100680206044801D403F0CD
:101EA00053BF03F04FBF0000340000200004024085
:101EB0000549086840F00400044B00221A8020F015
:101EC0008000086070470000340000206800002097
:101ED00038B5456804460146284612F0ABFD002897
:101EE0002AD02068304A0F2819D006DC0B2824D0CD
:101EF0000C2810D00E2851D12FE0112802D028280C
:101F00004CD145E09268002A16D02146284601B0FF
:101F1000BDE830401047214628465268F7E728467A
:101F200004F05AFE0090406E0468684604F09EFE7D
:101F3000002C01D02846A04738BD284604F04CFEAE
:101F40000090683004F0B0FD009803216C3004F07C
:101F5000B3FD684604F08AFE20E0E168486809683D
:101F60000D2902D0202913D105E0002810DD2846D4
:101F700019F0C6FC06E0002804DD2846BDE838401C
:101F800019F0BEBC2846BDE83840022119F0CEBC8D
:101F9000E06818B90021284600F097F92046BDE80E
:101FA000384013F0BBB900001C020020F0B5044615
:101FB00085B08069B4F90850668A0027CDE90265CA
:101FC000CDE900170490B4F90C00B4F91060C11801
:101FD000B4F90A00B4F90E50104433462A4600F012
:101FE00007F80546616800F079F905B02846F0BDAC
:101FF000F0B585B00C46DDE90D514C31DFF850C02D
:10200000DDE90A67CDE902C12146CDE9006713F099
:10201000D5F8040018D004F0DFFD10222946049002
:1020200012F02CFF049830220A493430FEF74DFBA1
:10203000084D04990C3D2868486604A804F016FE73
:10204000286841682046884705B02046F0BD00005A
:10205000D11E000828020020F0B5044680688B4994
:1020600089B051F82050606800287DD0052804D040
:1020700006287AD0122879D1AEE0E86900284FD03E
:1020800095E80E008DE80F0004F110010FC907F06C
:1020900015F9002655F8260006F07AF9A169E869D5
:1020A0000A1A216901446069304405F017FBA169EF
:1020B000E8690A1A21690144E069801B05F00EFBFA
:1020C000E169E8690A1A616901442069304405F050
:1020D000A5FBE169E8690A1A61690144A069801BEE
:1020E00005F09CFB761C022ED4DBA86806F050F9A4
:1020F000E069E9696669431A20694218521E314451
:10210000801C05F0F5FBE169E869A2690B1A6169B9
:102110000144101A401C921E05F0EAFBEE6913E020
:102120005FF0000655F8260006F032F9E069831BDF
:10213000A069821B606981192069304405F030FB79
:10214000761C022EEEDB0226D5E90301CDE9000163
:102150006169E06908444310A069891C821B2069F9
:10216000304405F063FA02E089E012E08AE0D5E944
:102170000501CDE90001E36960690121184401EB23
:102180006001A0699B1E821B2069304405F04EFA55
:1021900078E0206804F020FD0490206814F0EEF848
:1021A00040B1A06808B1002008E00498006F28B191
:1021B000012003E00498406F00B10220049901EB74
:1021C0008000C56E04A804F051FD00231A4628467D
:1021D000216804F0DDFF55E0206804F0FDFC049068
:1021E000866EEEB3B0F95C70A168D1B3032942D01A
:1021F0005FF0000100EB8101406D0C6C06F0D2F83D
:10220000204606F0C5F805A805F0C2FBBDF814107D
:10221000A88B0144ADF81410BDF81810081AADF8D9
:102220001800BDF81600801CADF81600BDF81A00A5
:10223000801EADF81A0004985E30B0F90220B0F9A3
:10224000001005A806F002F804A804F00FFD022013
:1022500006F0E8F8304604F0BFFC3A4605A901E074
:102260000BE006E0079005F08BF807A804F0FEFCF1
:1022700008E00121BEE70221BCE704A8F6E72068D8
:1022800013F040FD09B00020F0BD0000B0FE0308CF
:10229000044A0349116004494A6A4862104670477B
:1022A000580200201C0200202802002038B50D46EC
:1022B000040009D004F090FC00904565684604F0E5
:1022C000D5FC204613F021FB38BD4FF48072002965
:1022D000114601D012F038BC12F089BB2DE9FF4144
:1022E0000E4605004FF001041CD004F075FC01906F
:1022F000876E01A8009704F0B9FC3146684607F0E4
:10230000BDFA78B100980024B84208D0284604F0FD
:1023100063FC01900099816601A804F0A7FC28469F
:1023200013F0F3FA04B02046BDE8F081F8B5154685
:102330000C4606000DD004F04FFC0090032C02D296
:1023400000EB84000564684604F090FC304613F00E
:10235000DCFAF8BDFEE700002DE9F05F7C4D29783E
:102360007C486FF0704619393711826940F66F0466
:102370004FF4076840F6770940F6780A40F6710B8B
:102380000C2925D2DFE801F0062645642424242404
:1023900083A324C481462146104613F0CDF8044699
:1023A0003146204611F00EFB3946204611F05CFB09
:1023B0004146D9F8180013F0BFF804466649204694
:1023C00011F000FB0021204611F04EFB1A2028706E
:1023D000BDE8F09F41468046104613F0ADF8044634
:1023E0003146204611F0EEFA3946204611F03CFB0A
:1023F0004946D8F8180013F09FF80446564920467D
:1024000011F0E0FA0021204611F02EFB1B2028706D
:10241000DEE780464946104613F08EF80446314602
:10242000204611F0CFFA3946204611F01DFB5146E7
:10243000D8F8180013F080F804464749204611F0F8
:10244000C1FA0021204611F00FFB1C202870BFE7C5
:1024500080465146104613F06FF804463146204638
:1024600011F0B0FA3946204611F0FEFA5946D8F874
:10247000180013F061F804463749204611F0A2FA1B
:102480000021204611F0F0FA21202870A0E78046B4
:102490005946104613F050F804463146204611F0D4
:1024A00091FA3946204611F0DFFA40F67901D8F862
:1024B000180013F041F804462749204611F082FA2B
:1024C0000021204611F0D0FA2220287080E78046B3
:1024D00040F67901104613F02FF8044631462046A5
:1024E00011F070FA3946204611F0BEFA40F672013A
:1024F000D8F8180013F020F804461749204611F0C8
:1025000061FA0021204611F0AFFA242028705FE71D
:10251000814640F67201104613F00EF880463146AF
:10252000404611F04FFA3946404611F09DFA2146D7
:10253000D9F8180013F000F804460749204611F0B6
:1025400041FA0021204611F08FFA192028703FE748
:10255000F600002054010020FFFFBF002DE9F043EA
:102560002DED028B83B0FD480178FD4A9FEDFD0AF9
:10257000DFF8F883FC4D00270126D8F81800192948
:1025800047D0DFEDFB0A1A297DD0FA4A1B297BD000
:102590001C2939D198F80E1040F6780340F67C09D2
:1025A000022972D098F80E1001292DD1D18800EEA1
:1025B000101AB8EE400A80EE208A194612F0BCFFCD
:1025C0000446287800287DD0EB49204611F015FA02
:1025D000EAA1204611F023FA4946D8F8180012F073
:1025E000ABFF044618EE100A23F042FF41EC100B3B
:1025F000E5A153EC102B01A8FDF76CFE01A92046C4
:1026000011F00DFA88F80E7003B0BDEC028BBDE836
:10261000F08398F80B1040F66F0340F67309012918
:1026200037D098F80B100229EED1B2F8401000EE26
:10263000901AF8EE600A80EE808A194612F07CFF4C
:102640000446287800285DD0CB49204611F0D5F902
:10265000CFA1204611F0E3F94946D8F8180012F04E
:102660006BFF044618EE100A23F002FF41EC100B3A
:10267000C5A153EC102B01A8FDF72CFE01A92046A3
:1026800011F0CDF902E046E0C2E03AE188F80B60D3
:10269000BAE7D18F00EE901AF8EE600A80EE808AD9
:1026A000194612F049FF0446287810B3B249204673
:1026B00011F0A3F9B9A1204611F0B1F94946D8F8B3
:1026C000180000E0CCE112F037FF044618EE100AC3
:1026D00023F0CEFE41EC100BABA153EC102B01A864
:1026E000FDF7F8FD01A9204611F099F988F80B7063
:1026F0008AE7AD49204611F080F9ACA1204611F0DF
:102700008EF9DBE7A849204611F077F9ABA1204606
:1027100011F085F9A0E798F80C104FF4076340F624
:102720007409022933D098F80C100129B0D1B2F8FD
:10273000441000EE101AB8EE400A80EE208A1946C6
:1027400012F0FAFE04462878002858D08A4920461C
:1027500011F053F99DA1204611F061F94946D8F8CE
:10276000180012F0E9FE044618EE100A23F080FE6D
:1027700041EC100B84A153EC102B01A8FDF7AAFD2E
:1027800001A9204611F04BF988F80C703CE7B2F82B
:10279000461000EE101AB8EE400A80EE208A194664
:1027A00012F0CAFE0446287800B37349204611F09F
:1027B00024F989A1204611F032F94946D8F81800C9
:1027C00012F0BAFE044618EE100A23F051FE41EC56
:1027D000100B6DA153EC102B01A8FDF77BFD01A997
:1027E000204611F01CF988F80C600DE76E49204670
:1027F00011F003F97BA1204611F011F9DDE76A49D8
:10280000204611F0FAF87BA1204611F008F9A5E75F
:1028100098F80D3040F6770140F67B09022B31D055
:1028200098F80D30012BB1D1128800EE902AF8EE05
:10283000600A80EE808A12F07FFE04462878002825
:1028400056D04D49204611F0D8F86EA1204611F01F
:10285000E6F84946D8F8180012F06EFE044618EE65
:10286000100A23F005FE41EC100B47A153EC102B8E
:1028700001A8FDF72FFD01A9204611F0D0F888F836
:102880000D70C1E6528800EE902AF8EE600A80EEE4
:10289000808A12F051FE0446287800B3364920465B
:1028A00011F0ABF85AA1204611F0B9F84946D8F812
:1028B000180012F041FE044618EE100A23F0D8FD6D
:1028C00041EC100B30A153EC102B01A8FDF702FDD9
:1028D00001A9204611F0A3F888F80D6094E632496A
:1028E000204611F08AF84DA1204611F098F8DDE756
:1028F0002D49204611F081F84CA1204611F08FF8A7
:10290000A7E7118900EE101AB8EE400A80EE208A7F
:10291000194612F011FE04462878F0B116492046F7
:1029200011F06BF845A1204611F079F84946D8F826
:10293000180012F001FE044618EE100A23F098FD6C
:1029400041EC100B10A153EC102B01A8FDF7C2FCB9
:1029500001A9204611F063F876E078E0F600002047
:10296000880E00200000C842F5000020540100201D
:1029700000007A440487002010DD03084375746F5B
:102980006666204331000000252E326600000000FC
:102990004F75747075742056320000004F75747056
:1029A000757420563100000084C00308E8BE93E52A
:1029B00087BAE794B5E58E8B31000000E8BE93E559
:1029C00087BAE794B5E58E8B320000004C696D69DB
:1029D00074696E67204331004C696D6974696E6774
:1029E00020433200E99990E588B6E794B5E6B581D1
:1029F00032000000E99990E588B6E794B5E6B58124
:102A0000310000004375746F666620563100000087
:102A10004375746F6666205632000000E688AAE6A9
:102A2000ADA2E794B5E58E8B32000000E688AAE6F9
:102A3000ADA2E794B5E58E8B310000004375746F4D
:102A4000666620433200000088F80E60DCE5094924
:102A5000204610F0D2FF08A1204610F0E0FF65E705
:102A60000449204610F0C9FF07A1204610F0D7FF07
:102A7000B2E5000084C00308E688AAE6ADA2E794A8
:102A8000B5E6B58132000000E688AAE6ADA2E7947B
:102A9000B5E6B581310000002DE9F0432DED028B44
:102AA00083B0FD480178FD4A9FEDFD0ADFF8F88309
:102AB000FC4D01260227D8F81800192947D0DFED70
:102AC000FB0A1A297ED0FA4A1B297CD01C2939D14D
:102AD00098F80E1040F6780340F67C09002974D06F
:102AE00098F80E1001292DD1518900EE101AB8EE78
:102AF000400A80EE208A194612F01EFD044628780E
:102B000000287DD0EB49204610F077FFEAA120464F
:102B100010F085FF4946D8F8180012F00DFD044664
:102B200018EE100A23F0A4FC41EC100BE5A153ECC5
:102B3000102B01A8FDF7CEFB01A9204610F06FFF76
:102B400088F80E7003B0BDEC028BBDE8F08398F8F6
:102B50000B1040F66F0340F67309A9B398F80B10F9
:102B60000129EFD1B2F8421000EE901AF8EE600A97
:102B700080EE808A194612F0DFFC0446287800288F
:102B80005ED0CC49204610F038FFD0A1204610F08E
:102B900046FF4946D8F8180012F0CEFC044618EE5D
:102BA000100A23F065FC41EC100BC6A153EC102B6E
:102BB00001A8FDF78FFB01A9204610F030FF88F82F
:102BC0000B70BFE745E0C1E000E038E1B2F840102B
:102BD00000EE901AF8EE600A80EE808A194612F034
:102BE000ABFC0446287810B3B249204610F005FF2C
:102BF000B9A1204610F013FF4946D8F8180000E0AC
:102C0000CCE112F099FC044618EE100A23F030FCD7
:102C100041EC100BABA153EC102B01A8FDF75AFBB4
:102C200001A9204610F0FBFE88F80B608AE7AD4949
:102C3000204610F0E2FEACA1204610F0F0FEDBE7EB
:102C4000A849204610F0D9FEABA1204610F0E7FEBF
:102C50009FE798F80C104FF4076340F6740999B396
:102C600098F80C100129ACD1B2F8481000EE101AF7
:102C7000B8EE400A80EE208A194612F05DFC044648
:102C80002878002859D08B49204610F0B6FE9EA126
:102C9000204610F0C4FE4946D8F8180012F04CFC4B
:102CA000044618EE100A23F0E3FB41EC100B85A15B
:102CB00053EC102B01A8FDF70DFB01A9204610F0E5
:102CC000AEFE88F80C703DE7FFE7B2F8461000EE64
:102CD000101AB8EE400A80EE208A194612F02CFC39
:102CE0000446287800B37349204610F086FE89A177
:102CF000204610F094FE4946D8F8180012F01CFC4B
:102D0000044618EE100A23F0B3FB41EC100B6DA142
:102D100053EC102B01A8FDF7DDFA01A9204610F0B5
:102D20007EFE88F80C600DE76E49204610F065FEC7
:102D30007BA1204610F073FEDDE76A49204610F0C3
:102D40005CFE7BA1204610F06AFEA4E798F80D30E7
:102D500040F6770140F67B098BB398F80D30012BD4
:102D6000B1D1928800EE902AF8EE600A80EE808A57
:102D700012F0E2FB04462878002857D04D4920463F
:102D800010F03BFE6EA1204610F049FE4946D8F8EF
:102D9000180012F0D1FB044618EE100A23F068FB6D
:102DA00041EC100B47A153EC102B01A8FDF792FA50
:102DB00001A9204610F033FE88F80D70C2E6FFE747
:102DC000528800EE902AF8EE600A80EE808A12F0B7
:102DD000B3FB0446287800B33649204610F00DFEB8
:102DE0005AA1204610F01BFE4946D8F8180012F0F0
:102DF000A3FB044618EE100A23F03AFB41EC100B3B
:102E000030A153EC102B01A8FDF764FA01A920466C
:102E100010F005FE88F80D6094E63249204610F067
:102E2000ECFD4DA1204610F0FAFDDDE72D492046CE
:102E300010F0E3FD4CA1204610F0F1FDA6E711894A
:102E400000EE101AB8EE400A80EE208A194612F001
:102E500073FB04462878F0B11649204610F0CDFDEA
:102E600045A1204610F0DBFD4946D8F8180012F0C5
:102E700063FB044618EE100A23F0FAFA41EC100B3B
:102E800010A153EC102B01A8FDF724FA01A920464C
:102E900010F0C5FD76E078E0F6000020880E0020F6
:102EA0000000C842F50000205401002000007A44D0
:102EB0000487002010DD03084375746F66662043A5
:102EC00033000000252E3266000000004F7574703C
:102ED00075742056330000004F7574707574205659
:102EE0003200000084C00308E8BE93E587BAE79487
:102EF000B5E58E8B32000000E8BE93E587BAE79413
:102F0000B5E58E8B330000004C696D6974696E679E
:102F1000204333004C696D6974696E672043320049
:102F2000E99990E588B6E794B5E6B58132000000EE
:102F3000E99990E588B6E794B5E6B58133000000DD
:102F40004375746F66662056330000004375746FD6
:102F50006666205632000000E688AAE6ADA2E79435
:102F6000B5E58E8B32000000E688AAE6ADA2E794B4
:102F7000B5E58E8B330000004375746F66662043A1
:102F80003200000088F80E60DCE50949204610F0A8
:102F900034FD08A1204610F042FD65E704492046B3
:102FA00010F02BFD07A1204610F039FDB2E500001E
:102FB00084C00308E688AAE6ADA2E794B5E6B58129
:102FC00032000000E688AAE6ADA2E794B5E6B58136
:102FD000330000002DE9F05F7D4D29787D481939D7
:102FE00040F66F0782696FF070464FF4076840F64D
:102FF000770940F6780A40F6710B40F679040C29FF
:1030000026D2DFE801F0062747662525252585A479
:1030100025C339460746104612F08EFA044631465B
:10302000204610F0CFFC6FF07F41204610F01CFDD1
:1030300040F67201B86912F07FFA044666492046EC
:1030400010F0C0FC0021204610F00EFD2420287056
:10305000BDE8F09F41468046104612F06DFA0446E6
:103060003146204610F0AEFC6FF07F41204610F054
:10307000FBFC3946D8F8180012F05EFA04465649AF
:10308000204610F09FFC0021204610F0EDFC192096
:103090002870DDE707464946104612F04DFA04460F
:1030A0003146204610F08EFC6FF07F41204610F034
:1030B000DBFC4146B86912F03FFA04464649204617
:1030C00010F080FC0021204610F0CEFC1A20287061
:1030D000BEE707465146104612F02EFA0446314626
:1030E000204610F06FFC6FF07F41204610F0BCFCD2
:1030F0004946B86912F020FA04463749204610F0D4
:1031000061FC0021204610F0AFFC1B2028709FE7D7
:1031100007465946104612F00FFA0446314620463B
:1031200010F050FC6FF07F41204610F09DFC51469E
:10313000B86912F001FA04462749204610F042FC13
:103140000021204610F090FC1C20287080E70746E4
:103150002146104612F0F0F904463146204610F0A0
:1031600031FC6FF07F41204610F07EFC5946B86973
:1031700012F0E2F904461849204610F023FC002121
:10318000204610F071FC2120287061E7804640F64F
:103190007201104612F0D0F907463146384610F059
:1031A00011FC6FF07F41384610F05EFC2146D8F8E4
:1031B000180012F0C1F904460749204610F002FC3D
:1031C0000021204610F050FC2220287040E700002B
:1031D000F600002054010020FFFFBF002DE9F04F52
:1031E0002DED068B83B0F848408E00EE100AB8EE45
:1031F000400ADFEDF60A80EE208AF348808E00EE6A
:10320000100AB8EE400ADFEDF10AC0EE208AEE485F
:10321000C08E00EE100AB8EE400ADFEDEC0A80EE38
:10322000209AE948008F00EE100AB8EE400ADFED60
:10323000E70AC0EE209AE6480178E64D1939E64ED5
:1032400040F66F0840F6730901244FF4076A9FEDBA
:10325000E3AAE448E24F40F6770B8069102932D2A6
:10326000DFE801F00890FDFC36BAFBFAF9F8F7F652
:10327000F5F4F3F24146DB4F12F05EF906466FF0CB
:103280007041304610F09EFB6FF07F41304610F0E9
:10329000EBFB4946B86912F04FF90646D249304671
:1032A00010F090FB0021304610F0DEFB0020CF4AEA
:1032B000002102E01154401CC0B20528FAD3C449D1
:1032C0001D2008702C7003B0BDEC068BBDE8F08F9C
:1032D0004946DFF8109312F02FF907466FF070415E
:1032E000384610F06FFB6FF07F41384610F0BCFBA2
:1032F00099F80B0040B199F80B00012808D099F813
:103300000B00022809D00CE0AF48C18F418008E0D3
:10331000AD48B0F84010418003E0AB48B0F842102F
:103320004180A948408800EE100AF8EE400A9FED5F
:10333000A71A80EE810A10EE100A23F099F841ECEA
:10334000100BABA153EC102B01A8FCF7C3FF01A994
:10335000384610F064FB4146D9F8180012F0ECF83A
:103360000746A149384610F02DFB0021384610F0E1
:103370007BFB9749192008702C700020307013F0E7
:103380005BFAA0E75146974D12F0D6F804466FF06D
:103390007041204610F016FB6FF07F41204610F080
:1033A00063FB0020914A002102E01154401CC0B28E
:1033B0000528FAD340F67401A86912F0BDF8044656
:1033C0008949204610F0FEFA0021204610F04CFBFF
:1033D0007F491E20087076E740F67401DFF804820A
:1033E00012F0AAF807466FF07041384610F0EAFA7A
:1033F0006FF07F41384610F037FB98F80C0040B171
:1034000098F80C00012809D098F80C0002280AD07E
:103410000DE06D48B0F84410818008E06A48B0F8CB
:103420004610818003E06848B0F848108180664803
:10343000828841F288318A4200D98180808800EEFA
:10344000100AF8EE400A0BE0EEE188E1FFE05AE0F6
:103450009BE2BEE158E11FE2B9E248E2CCE028E09D
:1034600080EE8A0A10EE100A23F002F841EC100BED
:103470005FA153EC102B01A8FCF72CFF01A93846E3
:1034800010F0CDFA5146D8F8180012F055F807465A
:103490005549384610F096FA0021384610F0E4FA03
:1034A0004B491A2008702C700020307013F0C4F9BA
:1034B00009E759464B4D12F03FF804466FF0704152
:1034C000204610F07FFA6FF07F41204610F0CCFAD2
:1034D00000204649002202E00A54401CC0B20528E0
:1034E000FAD340F67B01A86912F026F804463E495B
:1034F000204610F067FA0021204610F0B5FA344952
:1035000025200870DFE640F67B01DFF8D88012F056
:1035100013F881466FF07041484610F053FA6FF08F
:103520007F41484610F0A0FA98F80D0040B198F895
:103530000D0001280ED098F80D00022814D01CE0D0
:103540003888DFED220A00EE100AB8EE400A80EE5D
:10355000208A12E07888DFED1D0A00EE100AB8EE2E
:10356000400A80EE208A08E0B888DFED180A00EEF5
:10357000100AB8EE400A80EE208A18EE100A22F0F7
:1035800077FF41EC100B1AA153EC102B01A8FCF7AC
:10359000A1FE01A9484610F042FA5946D8F8180091
:1035A00011F0CAFF07461049384610F00BFA002107
:1035B000384610F059FA06491B2008702C7000207C
:1035C000307013F039F97EE6880E00200000C84202
:1035D000F6000020E8000020E900002000007A4406
:1035E0000487002054010020FFFFBF0024010020B9
:1035F000252E32660000000040F67801FE4D11F0E5
:103600009BFF04466FF07041204610F0DBF96FF02D
:103610007F41204610F028FA0020F849002202E0FD
:103620000A54401CC0B20528FAD340F67C01A869B0
:1036300011F082FF0446F249204610F0C3F9002140
:10364000204610F011FAEF49262008703BE640F6BC
:103650007C01DFF8A49311F06FFF80466FF070419A
:10366000404610F0AFF96FF07F41404610F0FCF992
:1036700099F80E0040B199F80E0001280CD099F885
:103680000E00022810D016E0F88800EE100AB8EEFE
:10369000400AC0EE0A8A0EE0388900EE100AB8EE41
:1036A000400AC0EE0A8A06E0788900EE100AB8EEF9
:1036B000400AC0EE0A8A18EE900A22F0D9FE41ECC8
:1036C000100B53EC102BAFF2D80101A8FCF702FE4F
:1036D00001A9404610F0A3F940F67801D9F8180086
:1036E00011F02AFF0746C649384610F06BF9002151
:1036F000384610F0B9F9C3491C2008702C7000201E
:10370000307013F099F8DEE540F67901BA4D11F00A
:1037100013FF04466FF07041204610F053F96FF02C
:103720007F41204610F0A0F90020B44A002102E0B9
:103730001154401CC0B20528FAD340F67D01A86997
:1037400011F0FAFE0446AE49204610F03BF9002184
:10375000204610F089F9AB4927200870B3E540F600
:103760007D01DFF8948211F0E7FE07466FF07041AB
:10377000384610F027F96FF07F41384610F074F9A1
:1037800019EE100A22F074FE41EC100B53EC102BD2
:10379000AFF2A41101A8FCF79DFD01A9384610F075
:1037A0003EF940F67901D8F8180011F0C5FE074639
:1037B0009349384610F006F90021384610F054F9C4
:1037C0009049222008702C700020307013F034F8DB
:1037D00079E540F67A01884D11F0AEFE04466FF0AF
:1037E0007041204610F0EEF86FF07F41204610F057
:1037F0003BF90020814A002102E01154401CC0B274
:103800000528FAD340F67E01A86911F095FE04461A
:103810007B49204610F0D6F80021204610F024F90C
:103820007849282008704EE540F67E01DFF8C8810F
:1038300011F082FE07466FF07041384610F0C2F872
:103840006FF07F41384610F00FF919EE900A22F020
:103850000FFE41EC100B53EC102BAFF26C2101A8C2
:10386000FCF738FD01A9384610F0D9F840F67A0186
:10387000D8F8180011F060FE07466149384610F08C
:10388000A1F80021384610F0EFF85E4923200870B7
:103890002C700020307016E540F67101564D11F085
:1038A0004BFE04466FF07041204610F08BF86FF02D
:1038B0007F41204610F0D8F80020504A002102E055
:1038C0001154401CC0B20528FAD340F67501A8690E
:1038D00011F032FE04464A49204610F073F80021E8
:1038E000204610F0C1F847491F200870EBE440F66D
:1038F0007501DFF8048111F01FFE07466FF070417B
:10390000384610F05FF86FF07F41384610F0ACF8A1
:103910003D48B0F852100181018940F2DC529142D9
:1039200001D900210181008900EE100AF8EE400A59
:103930001FEDDA1A80EE810A10EE100A22F098FDCF
:1039400041EC100B53EC102BAFF25C3101A8FCF7EB
:10395000C1FC01A9384610F062F840F67101D8F8B0
:10396000180011F0E9FD07462549384610F02AF8FD
:103970000021384610F078F82249212008702C7078
:103980000020307012F058FF9DE440F672011A4D8D
:1039900011F0D2FD04466FF07041204610F012F88D
:1039A0006FF07F41204610F05FF840F67601A8697D
:1039B00011F0C2FD04461249204610F003F8002120
:1039C000204610F051F80F49202008707BE440F6A3
:1039D0007601DFF8248011F0AFFD07466FF07041EB
:1039E00038460FF0EFFF6FF07F41384610F03CF89B
:1039F00040F672010AE0000054010020240100207A
:103A0000FFFFBF00F6000020880E0020D8F8180045
:103A100011F092FD0746084938460FF0D3FF002108
:103A2000384610F021F80549242008702C70002039
:103A3000307012F001FF46E4FFFFBF00F6000020E7
:103A400070B5134D69792846124E806940F6990287
:103A500001290FD0114611F06FFD04466FF070413F
:103A600020460FF0AFFF314620460FF0FDFF2F201C
:103A7000287070BD114611F05FFD044631462046A6
:103A80000FF0A0FF2046BDE8704000210FF0ECBF12
:103A900078010020FFFFBF002DE9FF4704460068C2
:103AA00010B112F06BFC68B10022314850F82210BE
:103AB00060680A2841D007DCF0B306280DD007283B
:103AC00054D106E00122F0E712280AD019284DD17E
:103AD00037E0204613F014FE48E0204614F09EFF25
:103AE00044E0206803F078F80290B0F9548090F830
:103AF0005650476C466B02A803F0B8F8206800F0F7
:103B000039F88146684611F0EFFCBDF8001009EB6A
:103B100005000844ADF80000246A304604F042FC79
:103B2000022004F07FFC384604F032FC424669462D
:103B3000204603F025FC19E007E0204615F05AFA6C
:103B400014E0886904B0BDE8F087206812F0DAF864
:103B5000206803F041F80390B0F90610B0F9022094
:103B6000891A491CC16703A803F080F80020E9E71F
:103B7000C0FE030838B503F02FF80090C46F684604
:103B800003F074F8204638BD044A03491160044923
:103B9000CA69C86110467047E4020020AC060020E4
:103BA000B006002000B589B024216846FCF7C7FDA7
:103BB000192001900348006880684168684688477A
:103BC00009B000BDAC0600201CB51B4901200870DF
:103BD0001A4A192111701A4900240C7019490870E9
:103BE0001948C18F4180B0F844108180B0F852105C
:103BF000018116480470164804707021682010F086
:103C0000FAFA4FF48051134802F09CF84FF4005137
:103C1000114802F097F80221104802F095F811F0CF
:103C20007FFC034600940E4A27210E48019403F0BE
:103C3000CBF90D4988611CBDEA000020F600002088
:103C4000700000207A000020880E00202C01002047
:103C5000E0000020000C0240000402400008024086
:103C60009D140208A8590308540100201CB50E48F1
:103C7000002404700D4804700D4804707021682001
:103C800010F0B9FA4FF480510A4802F05BF811F0D5
:103C900047FC03460094084A07210848019403F0B2
:103CA00093F9074908601CBDEA0000207A00002053
:103CB00070000020000C024065100208E458030860
:103CC000400100207CB5134D1320A8730320A87079
:103CD0001149087000242C721048047010480470B8
:103CE0004FF400510F4802F02DF802210E4802F067
:103CF0002BF80E48818D01810D48047011F010FCE5
:103D0000034600940B4A1A210B48019403F05CF916
:103D1000A8627CBDE80000207A0000202C01002071
:103D2000E00000200004024000080240880E00204D
:103D300070000020E9F70108646702081CB5154906
:103D40000520087014480024047014480470702181
:103D5000682010F050FA12480470124804704FF4B2
:103D60008051114801F0EEFF4FF400510F4801F06F
:103D7000E9FF02210E4801F0E7FF11F0D1FB0346F5
:103D800000940C4A20210C48019403F01DF90B49C2
:103D900048601CBDEA000020F600002070000020F2
:103DA0002C010020E0000020000C02400004024032
:103DB0000008024051320208EC5D03087001002047
:103DC0001CB508490620087011F0AAFB0346002024
:103DD00000900190044A0121044803F0F5F80449D9
:103DE00048601CBDEA000020E50F0208FC6B0208D9
:103DF000380100201CB517490220087016490870C8
:103E000016490920087016480024047015480470EB
:103E10001548B0F850104180B0F8541081807021DE
:103E2000682010F0E8F94FF48051104801F08AFF43
:103E300002210F4801F088FF11F072FB0346009445
:103E40000C4A12210C48019403F0BEF80B4948605B
:103E50001CBD0000EA0000207A000020F6000020CF
:103E6000700000202C010020880E0020000C024071
:103E700000080240BDEF01086C650208E000002068
:103E80001CB51649042008701549087015491720FB
:103E900008701548B0F84A100181144800240470D5
:103EA0004FF40051124801F04DFF12480470702188
:103EB000682010F0A0F94FF480510F4801F042FF44
:103EC00011F02EFB034600940C4A10210C4801947B
:103ED00003F07AF80B4948601CBD0000EA0000209E
:103EE0007A000020F6000020880E0020E00000206C
:103EF0000004024070000020000C02408D470208C0
:103F00003C6A02082C0100207CB511F009FB00245A
:103F1000034600940C4A12210C48019403F054F813
:103F20000B4DA8610B4804700B49072008700B4823
:103F300004700B4800784FF400510A4801F002FF6A
:103F40002F202870A8697CBDD94002086C61030845
:103F50007801002070000020EA0000202C010020E1
:103F6000E000002000040240054B0122824019B10C
:103F700018681043186070471868904318607047BD
:103F80000074004010B586B0012148070CF070FDA8
:103F90001020009003208DF8040000248DF80740C5
:103FA00069460C4801F07AFE029403944FF43060A5
:103FB00004900220059002A9002000F00DF80121D4
:103FC0000020FFF7D1FF0121002000F01FF806B00C
:103FD00010BD00000000024030B5084C236840F6D8
:103FE000FE7282409343D1E900252A43D1E9025170
:103FF0000D432A4382401A43226030BD00740040C2
:10400000014A104481607047007400400209064B69
:104010000120904019B1196801431960704719686F
:1040200081431960704700000474004008B53820CF
:104030008DF8000003208DF801008DF802000120AA
:104040008DF8030068460AF0E1F908BD01480068F0
:10405000704700003003002010B50549054800F006
:104060000DF80548016841F00201016010BD000033
:10407000208000101064024034000020074A904263
:1040800001D2074801E005481038064A8B0001EAD2
:10409000020101D5C1607047816070471064024021
:1040A000006002407D0F7D0F21B1016841F00101E8
:1040B00001607047016821F00101016070470B0643
:1040C00009D522B1436943F08003436103E04369AA
:1040D00023F080034361802905D001F01E011AB14D
:1040E00002680A430260704702688A4302607047B0
:1040F00030B50368124A1340CC680A682243D1E9FC
:1041000005452C432243CC6922430C6A22434C6A66
:1041100022438C6A22434C6B22438C6B22431A430A
:104120000260426922F00703D1E90B2422431A43BB
:1041300042610A6942604A6882608968C16030BD34
:104140003F801CF0F8B50546006802F045FD009080
:10415000448ED0F88860684602F088FD06B10126DA
:1041600004F00104286812F009F90EB1002006E0FD
:104170000CB1012003E008B1022000E003201B493C
:1041800051F82010686858B302280CD0052802D0D6
:10419000122828D103E0284613F0DEFA23E028464F
:1041A00015F0BDFB1FE06A69E8694FF0FF33801A24
:1041B000A0F1080203EB6204421CAB69001B45102E
:1041C000A3EB6206C86904F0E3F806E03219311B7C
:1041D000284603F083FA641E6D1C002CF6DA02E018
:1041E000286811F08FFD0020F8BD000020FF0308B3
:1041F000044A0349116004490A6B0863104670477A
:1042000034030020EC060020F006002038B50D46EF
:10421000002402F0E1FC0090C06B294602F0BEFDD4
:104220000546684602F022FD1DB1284602F0D4FC86
:104230000446204638BD704730B504464FF47A75C1
:1042400002E0284600F006F82300A4F1010084B241
:10425000F7D130BD00220BE0042100BF00BF00BF3A
:1042600000BF00BF491E0904090CF6D1521C92B2CE
:104270008242F1D37047000010B52DED028B244926
:104280000A78244CB2EE048A022AE0681FD009782A
:10429000032939D1204991ED000A20EE080ABDEE2C
:1042A000C00A10EE101A09B201F026FE1B4890ED6C
:1042B000000A20EE080ABDEEC00A10EE100A01B294
:1042C0002069BDEC028BBDE8104001F015BE144919
:1042D00091ED000A20EE080ABDEEC00A10EE101A99
:1042E00009B201F009FE0F4890ED000A20EE080A1D
:1042F000BDEEC00A10EE100A01B22069BDEC028BBF
:10430000BDE8104001F0F8BDBDEC028B10BD00000F
:104310007B00002040010020280000203000002009
:10432000240000202C00002010B5044620F09AFF45
:10433000A02020F069FF20F0C5FF68B9204620F0DA
:1043400063FF20F0BFFF38B920F08CFFA12020F0E0
:104350005BFF20F0B7FF18B120F0A0FF002010BDD8
:1043600020F030FF034C207020F014FF20F096FF67
:10437000207810BD6600002070B50120FFF7D4FF43
:10438000FE4C20602068000220600220FFF7CCFF76
:104390002168084420602068000220600320FFF7A5
:1043A000C3FF2168084420602068000220600420C8
:1043B000FFF7BAFF2168084420604020FFF7B4FFF0
:1043C0002062206A000220624120FFF7ADFF216ACF
:1043D00008442062206A000220624220FFF7A4FF06
:1043E000216A08442062206A000220624320FFF70D
:1043F0009BFF216A084420620520FFF795FF60605B
:104400006068000260600620FFF78EFF6168084464
:1044100060606068000260600720FFF785FF6168E8
:10442000084460606068000260600820FFF77CFF5D
:104430006168084460603320FFF776FFA060A068E1
:104440000002A0603420FFF76FFFA1680844A0605D
:10445000A0680002A0603520FFF766FFA16808444D
:10446000A060A0680002A0603620FFF75DFFA16891
:104470000844A0600920FFF757FFE060E0680002F1
:10448000E0600A20FFF750FFE1680844E060E06860
:104490000002E0600B20FFF747FFE1680844E0609E
:1044A000E0680002E0600C20FFF73EFFE16808448E
:1044B000E0600D20FFF738FFB14D2880288800020A
:1044C00028800E20FFF730FF2988084428804420E8
:1044D000FFF72AFF2883288B000228834520FFF757
:1044E00023FF298B084428830F20FFF71DFF6880D6
:1044F0006888000268801020FFF716FF698808446A
:1045000068803720FFF710FFA880A8880002A880E5
:104510003820FFF709FFA9880844A8801120FFF779
:1045200003FFE880E8880002E8801220FFF7FCFE25
:10453000E9880844E8801320FFF7F6FE288146202A
:10454000FFF7F2FEE8821420FFF7EEFE20612069FB
:10455000000220611520FFF7E7FE21690844206171
:104560002069000220611620FFF7DEFE2169084461
:1045700020612069000220611720FFF7D5FE216924
:10458000084420611820FFF7CFFE606160690002D7
:1045900060611920FFF7C8FE6169084460616069C5
:1045A000000260611A20FFF7BFFE61690844606184
:1045B0006069000260611B20FFF7B6FE6169084474
:1045C00060613920FFF7B0FEA061A0690002A06120
:1045D0003A20FFF7A9FEA1690844A061A069000282
:1045E000A0613B20FFF7A0FEA1690844A061A0697B
:1045F0000002A0613C20FFF797FEA1690844A0617A
:104600001C20FFF791FE68816889000268811D20E7
:10461000FFF78AFE6989084468811E20FFF784FE3F
:10462000A881A8890002A8811F20FFF77DFEA98923
:104630000844A8813D20FFF777FEE881E889000261
:10464000E8813E20FFF770FEE9890844E8812020D8
:10465000FFF76AFE68822120FFF766FE2882288A1B
:10466000000228822220FFF75FFE298A0844288260
:104670002320FFF759FEE061E0690002E061242099
:10468000FFF752FEE1690844E061E0690002E06181
:104690002520FFF749FEE1690844E061E069000276
:1046A000E0612620FFF740FEE1690844E061272031
:1046B000FFF73AFEA8822A20FFF736FE314C208011
:1046C0002088000220802B20FFF72EFE218808443E
:1046D00020802C20FFF728FEA080A0880002A08068
:1046E0002D20FFF721FEA1880844A080A4F15004EA
:1046F0004FF02800FFF718FE234D2880288800027D
:1047000028802920FFF710FE2988084428802F20C0
:10471000FFF70AFE1D4908705620FFF705FE1C49E9
:1047200008705520FFF700FE1A4908707420FFF743
:10473000FBFD194908705720FFF7F6FD174908706F
:104740005820FFF7F1FD164908705920FFF7ECFDDE
:10475000144908705A20FFF7E7FD134908805B20D1
:10476000FFF7E2FD114908805C20FFF7DDFD1049ED
:1047700008805D20FFF7D8FD0E491DE0640E002083
:10478000480E0020D80E0020C20000208D0000201E
:10479000EC000020EB000020F5000020700100205C
:1047A00071010020F4000020880100208A0100200F
:1047B0008C0100208E01002008805E20FFF7B4FDF0
:1047C000C54908705F20FFF7AFFDC449087060203D
:1047D000FFF7AAFDC24908706120FFF7A5FDC14996
:1047E00008706220FFF7A0FDBF4908706320FFF743
:1047F0009BFDBE4908706420FFF796FDBC49087018
:104800006520FFF791FDBB4908706620FFF78CFD1E
:10481000B94908706720FFF787FDB849087068201C
:10482000FFF782FDB64908706920FFF77DFDB549A5
:1048300008707520FFF778FDB34908803020FFF736
:1048400073FDB24908703120FFF76EFDB049087062
:104850003220FFF769FDAF49087008780A2801D9AE
:10486000002008704720FFF75FFD24F81C0F208808
:10487000000220804820FFF757FD2188084420804F
:104880004920FFF751FD60806088000260804A2067
:10489000FFF74AFD6188084460804B20FFF744FD24
:1048A000A080A0880002A0804C20FFF73DFDA188D9
:1048B0000844A0804D20FFF737FDE080E08800022B
:1048C000E0804E20FFF730FDE1880844E0804F2073
:1048D000FFF72AFD20812089000220815020FFF768
:1048E00023FD2189084420815120FFF71DFD6081AF
:1048F0006089000260815220FFF716FD618908443B
:1049000060815320FFF710FDE085E08D0002E08517
:104910005420FFF709FDE18D0844E0857020FFF782
:1049200003FD2082208A000220827120FFF7FCFC18
:10493000218A084420827220FFF7F6FC6082608A98
:10494000000260827320FFF7EFFC618A08446082F6
:104950007620FFF7E9FC6084608C00026084772099
:10496000FFF7E2FC618C084460847C20FFF7DCFCEC
:10497000A084A08C0002A0847D20FFF7D5FCA18C30
:104980000844A0847E20FFF7CFFCE084E08C000286
:10499000E0847F20FFF7C8FCE18C0844E084862097
:1049A000FFF7C2FC5C4D2880288800022880872001
:1049B000FFF7BAFC2988084428808820FFF7B4FC58
:1049C00068806888000268808920FFF7ADFC6988EC
:1049D000084468808A20FFF7A7FCA880A888000206
:1049E000A8808B20FFF7A0FCA9880844A880782025
:1049F000FFF79AFC2085208D000220857920FFF7A3
:104A000093FC218D084420858020FFF78DFC608574
:104A1000608D000260858120FFF786FC618D08446F
:104A200060858220FFF780FCA085A08D0002A08514
:104A30008320FFF779FCA18D0844A085A4F11C0414
:104A40004FF08C00FFF770FCE880E8880002E880F7
:104A50008D20FFF769FCE9880844E8808E20FFF785
:104A600063FC28812889000228818F20FFF75CFCE5
:104A70002989084428819020FFF756FC68816889BD
:104A8000000268819120FFF74FFC69890844688122
:104A90008420FFF749FC214908707A20FFF744FC85
:104AA00004F13604A083A08B4FEA0020A0834FF0CE
:104AB0007B00FFF739FCA18B0844A0839220FFF70D
:104AC00033FC20802088000220809320FFF72CFCFC
:104AD00021880844208070BD790100207A010020DF
:104AE0007B0100207C0100207E0100207F0100204E
:104AF000800100208101002082010020830100202C
:104B00008401002085010020F80000208E00002094
:104B1000920000208F000020048700205401002014
:104B200070B505460E4620F0B9FB002409E020F0E0
:104B300099FBA02020F068FB20F0C4FB18B1641C96
:104B4000A4B2642CF3D3B4F57A7F0DD0E8B220F090
:104B50005BFB20F0B7FB38B9304620F055FB20F066
:104B6000B1FB08B920F09AFBBDE8704020F096BB7D
:104B70002DE9F041044694B0006800F0B7F908B19F
:104B8000D94D01E0D84D2C35606815281ED00CDCBD
:104B90000B281FD004DC00287ED005287DD12EE113
:104BA0000E287BD01228F9D141E1162806D017280B
:104BB00008D0182808D01C28F0D109E0E86914B002
:104BC000BDE8F081286AFAE7686AF8E7A86AF6E7BC
:104BD0006869F4E720680B901C200C90206801F0B5
:104BE000FBFF0390016D0BA88847064603A802F05F
:104BF0003DF8022E0EDB95E807008DE80700D4E9AA
:104C000004023346A16904F027FB20698719A069D3
:104C1000801B2BE0286803F0BBFB2169E8690A18B8
:104C2000521E606902F05AFDA269E869111A491C16
:104C3000606902F053FD676920697F1C394602F004
:104C40008FFD3946A06902F08BFD686803F0A0FB78
:104C500020693946401C02F083FDA0693946401E98
:104C600002F07EFD2769A069BF1C801E804628686F
:104C700003F08EFB42463946606902F02FFD6868FA
:104C800003F086FB60694246401C394602F026FD6F
:104C9000686A02280FDD02E015E1AFE000E1A868D4
:104CA00003F076FB61696A6A881C8B1801465B1EFB
:104CB0004246384627E0296AB14226DD6069022E65
:104CC000074600F1020801DB374401E007F1020763
:104CD000206901DB304401E000F1020022693B461B
:104CE0000A44A2F10102414602F002FE022E02DB5A
:104CF000A069821B01E0A269921EA069E9693B4696
:104D0000401A401C414602F0F3FD022E02DB6069AE
:104D1000064401E06669B61CE76928687F1E03F057
:104D200037FB3A463146206902F078FD3A46314673
:104D3000A06902F073FDE7696868BF1E03F028FBF5
:104D400020693A46401C314602F068FDA0693A46A7
:104D5000401E314602F062FDE869022802DC286A42
:104D6000022823DDA86A022802DDE1690F1A01E0AA
:104D7000E769BF1EA86803F00BFBE969022909DD9A
:104D800020693B46421800F1020C521E3146604633
:104D900002F0AEFD286A022808DDA269E8693B46F8
:104DA000101A401C921E314602F0A2FD286803F042
:104DB000EFFAD4E90620216902F090FC686803F05C
:104DC000E7FAA2692169E069521E491C401E02F0FF
:104DD00085FCA86A022811DD2669A169E469B61C70
:104DE000271AA1F102087F1CA41EA86803F0D0FABC
:104DF000234642463946304602F07AFD72E0208A68
:104E000006B2ADF81460A08A01B2ADF81610208B7E
:104E100002B2ADF81820A08B03B2ADF81A30D5E974
:104E20000304CDE90004304602F000FC5AE0208A79
:104E3000298B0844ADF81400A08AADF81600208B29
:104E4000298B401AADF81800A08BADF81A00206825
:104E500001F0C2FE0390006FF0B1022003F0E2FA0D
:104E6000039991F87C00C0F3C00001EB8000006C56
:104E700003F08EFA0398406B03F094FA0398006FE6
:104E800001F0AAFE03990A90B1F95A2005A902F08F
:104E900077FA0AA801F0EAFE03A801F0E7FE21E094
:104EA000208AADF81400A08AADF81600208BADF86A
:104EB0001800A08BADF81A00A86803F069FA05A8DD
:104EC00002F03AFD0EE0206801F086FE039030F813
:104ED0005A1F41F00C01018003A801F0C7FE2068B1
:104EE00010F010FF00206AE60404002038B500240A
:104EF00050B101F071FE009090F87C00000700D5E1
:104F00000124684601F0B2FE204638BD30B50446A3
:104F10008BB0006801F060FE009090F87C10246A6D
:104F2000006FC1F3C00508B101F056FE0690E068BD
:104F3000029020690390A088401EADF81000E0891F
:104F4000ADF812002089401CADF81400608AADF85D
:104F50001600BDF80800401CADF80800BDF80A00B6
:104F6000401CADF80A00BDF80C00401EADF80C0066
:104F70000098406B03F016FA009808AA02A9B0F94D
:104F80005A30069803F0F0FC009800EB8500806B27
:104F900008F0B4FC009800EB8500006C08F0E6FC1B
:104FA00008AB02AA04A906980FF08EFE684601F02D
:104FB0005DFE069810B106A801F058FE0BB0002067
:104FC00030BD0000074A0649054B1160064A083B00
:104FD000D16958601B68C2E9063008467047000076
:104FE000F80300202C0700203007002038B50D46BC
:104FF000040009D001F0F0FD00900566684601F05C
:1050000035FE204610F081FC38BD2DE9F34F85B008
:1050100000270C46B846059801F0DEFD0090C06DF3
:105020000121856805982A68904782462A680321ED
:105030000598904704902A680221059890470390AC
:105040002A680021059890470646009811F01CF840
:105050008346009811F01FF88146009890F83210AE
:10506000890601D5B0F9588000F036F80546009859
:10507000C06E10B110F07EFB074625806780A4F853
:1050800004A0049AABEB020006EB0802401E2A447F
:1050900020813A44E280039BA9EB0302521E628105
:1050A000A4F80CA020827019E681401E6082684638
:1050B00001F0DCFDB4F90C000190B4F9100002908D
:1050C00002AA01A9059800F039F80198A081029878
:1050D000208207B0BDE8F08F10B50146002091F89E
:1050E0003220920607D5B1F95400002803D1486B4D
:1050F00002F0A0FC801C10BD70B58AB00C460546BD
:1051000001F06AFD0990C06D866809A801F0AEFD46
:10511000009534B1012C06D0022C0BD0032C04D105
:105120000AE0182000E01620019071686846884760
:105130000AB070BD1520F7E71720F5E72DE9FC4709
:1051400090468946044601F047FD0090C16D056810
:1051500068468E6801F08AFD32680021204690473B
:105160000646204610F0F0F92F1404462DB227E031
:1051700001F032FD0190B0F90010B0F90420B0F94F
:105180000230491B521BDB1BB34212D190F828009E
:10519000000607D5D8F8000088420ADB491EC8F887
:1051A000001006E0D9F80000904202DC521CC9F859
:1051B000002001A801F05AFD204610F055FA0446DF
:1051C000002CD5D1BDE8FC874FF0204202EB8000D7
:1051D00021B1016841F00101016070470168024A94
:1051E0001140016070470000FEFF0F0030B5D0E9AC
:1051F00001121143D0E903231A43114342690368A2
:10520000114382691143C2691143026A1143426A20
:105210001143826A1143C26A1143026B11434FF07A
:10522000204242F823108168082906D1016802EB68
:1052300081010B6843F040030B60416BD1E90034FE
:1052400043EA04138C68CD68240244EA05442343EE
:105250000C6943EA04534C69896943EA04630B43CC
:105260000168491C42F82130C16AB1F5804F07D06E
:1052700000686FF0704102EB8000C0F8041130BD8F
:10528000816B0068D1E9003443EA04138C680D692E
:10529000240244EA055423434C69896943EA0463C0
:1052A00002EB80000B43C0F8043130BD70B5A14C57
:1052B0002068010E0120FFF733FC2068C0F307418E
:1052C0000220FFF72DFC2068C0F307210320FFF721
:1052D00027FC2068C1B20420FFF722FC6068010EA1
:1052E0000520FFF71DFC6068C0F307410620FFF7AB
:1052F00017FC6068C0F307210720FFF711FC606806
:10530000C1B20820FFF70CFCA068010E3320FFF7A4
:1053100007FCA068C0F307413420FFF701FCA06838
:10532000C0F307213520FFF7FBFBA068C1B2362090
:10533000FFF7F6FBE068010E0920FFF7F1FBE068DC
:10534000C0F307410A20FFF7EBFBE068C0F3072139
:105350000B20FFF7E5FBE068C1B20C20FFF7E0FB94
:10536000206A010E4020FFF7DBFB206AC0F30741F3
:105370004120FFF7D5FB206AC0F307214220FFF749
:10538000CFFB206AC1B24320FFF7CAFB6A4D2888D1
:10539000010A0D20FFF7C4FB2888C1B20E20FFF7D9
:1053A000BFFB6888010A0F20FFF7BAFB6888C1B20B
:1053B0001020FFF7B5FBA888010A3720FFF7B0FBE4
:1053C000A888C1B23820FFF7ABFBE888010A11209A
:1053D000FFF7A6FBE888C1B21220FFF7A1FB288BDC
:1053E000010A4420FFF79CFB288BC1B24520FFF740
:1053F00097FB2889C1B21320FFF792FBE88AC1B25C
:105400004620FFF78DFB2069010E1420FFF788FB73
:105410002069C0F307411520FFF782FB2069C0F324
:1054200007211620FFF77CFB2069C1B21720FFF788
:1054300077FB6069010E1820FFF772FB6069C0F30B
:1054400007411920FFF76CFB6069C0F307211A20A0
:10545000FFF766FB6069C1B21B20FFF761FBA06923
:10546000010E3920FFF75CFBA069C0F307413A2029
:10547000FFF756FBA069C0F307213B20FFF750FB65
:10548000A069C1B23C20FFF74BFB6889010A1C20D0
:10549000FFF746FB6889C1B21D20FFF741FBA889D1
:1054A000010A1E20FFF73CFBA889C1B21F20FFF7AD
:1054B00037FBE889010A3D20FFF732FBE889C1B2DA
:1054C0003E20FFF72DFB688AC1B22020FFF728FBA2
:1054D000288A010A2120FFF723FB288AC1B2222053
:1054E000FFF71EFBE069010E2320FFF719FBE069BF
:1054F000C0F307412420FFF713FBE069C0F3072145
:105500002520FFF70DFBE069C1B22620FFF708FB5D
:10551000A88AC1B22720FFF703FB084C2088010AA4
:105520002820FFF7FDFA2088BDE87040C1B229208D
:10553000FFF7F6BA640E0020480E0020C2000020DB
:105540002DE9F0430446C56887B09046894600209F
:1055500002F026FF064625B1287910B146F0020078
:1055600001E026F0020002F01BFF2069012558B17E
:10557000D4E902128DE82600039563882288046826
:1055800041464846A0471EE0124F134B214638685B
:105590001B68427CE068984730B9E088012801D058
:1055A000002001E03868806BA288E388A16800953C
:1055B000CDE90410CDE90232019563882288414685
:1055C000484607F0BDFD07B03046BDE8F04302F0A5
:1055D000E7BE0000BC010020B40100201CB500247F
:1055E000019401AC009400F0E7F81CBD2DE9FF4FD9
:1055F00083B0814606988A46A0EB0A08109E0020D8
:105600000090A2EB09043568934654EA080018D0CC
:105610002046FCF738FC07464046FCF734FC87423E
:105620000BDA2046444680464846D14682465846D4
:10563000DDF818B0069001200090002C07DD204610
:1056400006E007B04846BDE8F04F00F03BB96042C5
:10565000A0420AD04846D9466442C8F100088346B1
:105660004FF0FF37DDF818A000E001275148B8F1EE
:10567000000F11D004EBD4714FEA610B01DACBF1CA
:10568000000B4C480068807E88B3002F02DA306837
:105690002044306000257BE000990029016821D07A
:1056A000897E11B10027804615E007B05A46494669
:1056B0005046BDE8F04F07F0A7BE28466D1C18F015
:1056C0005DFC38B9D8F8000009EB0701C06E4268EC
:1056D000504690477F1CA742EFDD6D1E356007B036
:1056E000BDE8F08F8A7E1AB10027804617E019E0E6
:1056F000C86E5A465146036807B04846BDE8F04FA9
:10570000184728466D1C18F039FC38B9D8F8001035
:1057100009EB0700C96E4A68514690477F1CA742B3
:10572000EFDDDAE700250FE008FB05B090FBF4F1B0
:1057300001EB0A00009951B11E4A09EB05011268FC
:10574000D26E526890476D1CA542EDDDC7E719493E
:1057500009EB05030968C96E4A6801461846F1E776
:1057600008FB05B090FBF4F101EB0A0001903068F2
:105770003844306018F002FC48B9009890B10D48E8
:1057800009EB05010068C06E4268019890476D1CE6
:10579000A542E5DD3068002F01DA20443060C01BEF
:1057A00030609CE7034909EB05000968C96E4A6847
:1057B0000199EBE7BC0100202DE9FF470F46404966
:1057C0001646804609680C981D460A7E012A1CD0A0
:1057D000A8EB0600791B50EA01031CD0A2F10109D5
:1057E00019F0A6FB00F58060824604F035F900FB55
:1057F00009F4504604F034F900FB09F1002C0CDAEE
:10580000C4F50070801240420AE0009032463946EA
:105810004046FFF7EBFEBDE8FF8704F50074A012D9
:10582000002904DAC1F5007189124C4202E001F549
:1058300000718C12002804DD411C01EBD17149106C
:1058400003E000EBD0714910401E00EBD070421015
:10585000002C04DD601C00EBD070401003E004EB72
:10586000D4704010641E04EBD47308EB0104ADF84F
:1058700000403C18ADF80240A8EB02045B10B21ADD
:10588000ADF80440ADF808203144FC1AEA1AADF82E
:105890000C102844ADF80A20ADF80E000023ADF836
:1058A00006401A460421684600F07AF83946404618
:1058B00013F032FF2946304613F02EFFABE700000D
:1058C000BC010020064A13681A7E012A05D0521E28
:1058D00002EBD272521000F005B8DA6E526810472F
:1058E000BC0100202DE9F05F0646884640F2C32047
:1058F00050434FF47A7190FBF1F702FB02F002EB98
:10590000D27100EB610B254914467F1C09683244B3
:10591000301BC96E0B684146984701253AE000BF2D
:1059200005FB05F004FB040159451CDDBC4219DDF3
:105930001A4B06EB050AA6EB05091B68AAF1010242
:1059400008EB0401DB6E09F101001B689847134B5B
:10595000AAF10102A8EB04011B6809F10100DB6E4A
:105960001B689847641E0D4806EB040AA6EB040961
:10597000006808EB05015246C06E03684846984728
:105980000648A8EB050152460068C06E0368484609
:1059900098476D1CBD42C3DDBDE8F09FBC010020EF
:1059A0002DE9FF4F40F6FF740F46664283B09B46D9
:1059B000814600210BE000BF09EB8100B0F9020035
:1059C000A04200DA0446B04200DD0646491CB94256
:1059D000F2DB68480068406900280DD0B0F9061075
:1059E0001A46A1EB0B01B14200DA0E46B0F90200F3
:1059F000801AA04200DD0446B5E0DFF87CA100205B
:105A00000546CAF8000089E0781E854201DA6B1C61
:105A100000E0002309EB850C09EB8302BCF90200CE
:105A2000B2F90210A04245D1A14215D139F9233073
:105A3000059A39F9251003EB020C4E4A05981268B5
:105A4000084404EB0B01D26E6045136801DA62462C
:105A50002BE00246604628E02846A4464FF00008A6
:105A60007A1E0BE008B1401E00E0781E09EB8003AF
:105A7000B3F90230634504D108F101089045F1DB28
:105A80002346A34249D0A3EB040239F92500A1EB38
:105A9000040C059B92EA0C0209D4364A184404EB24
:105AA0000B011268D26E13680246984735E011F078
:105AB00081F832E0A14230D001DBA04203DDA042F8
:105AC0002BDBA14229DCE04688420ADC0346A042E7
:105AD00023DC0846A14220DBB8F900C0B2F900106F
