:020000040800F2
:100000007090002095020008C5EA00086D9E000867
:1000100061EA0008E5240008CD5B0108000000004B
:10002000000000000000000000000000092E010890
:10003000AF43000800000000B90F0108F13E0108BD
:10004000AF020008AF020008AF020008AF020008CC
:10005000AF020008AF020008AF020008AF020008BC
:10006000AF020008AF020008AF020008AF020008AC
:10007000AF020008AF020008AF020008AF0200089C
:10008000AF020008AF020008AF020008AF0200088C
:10009000AF020008AF020008AF020008AF0200087C
:1000A000AF020008AF020008AF020008AF0200086C
:1000B000AF02000801440108AF020008AF020008C7
:1000C000AF020008AF020008AF020008AF0200084C
:1000D000AF02000851590108AF020008AF02000842
:1000E000AF020008AF020008AF020008AF0200082C
:1000F000AF020008AF020008AF020008AF0200081C
:10010000AF020008AF020008E1490108AF02000891
:10011000AF020008AF020008714A0108AF020008F0
:10012000CD410008AF020008AF020008AF0200088E
:10013000AF020008AF020008AF020008AF020008DB
:10014000AF020008AF020008AF020008B9F20008D1
:10015000AF020008AF020008AF020008AF020008BB
:10016000AF020008AF020008AF020008AF020008AB
:10017000AF020008AF020008AF020008AF0200089B
:10018000AF020008AF02000800F002F800F072F8B9
:100190000AA090E8000C82448344AAF10107DA45E2
:1001A00001D100F067F8AFF2090EBAE80F0013F0C2
:1001B000010F18BFFB1A43F001031847F84704006A
:1001C000184804000A444FF0000C10F8013B13F0EB
:1001D000070408BF10F8014B1D1108BF10F8015BA0
:1001E000641E05D010F8016B641E01F8016BF9D193
:1001F00013F0080F1EBF10F8014BAD1C0C1B09D1EA
:100200006D1E58BF01F801CBFAD505E014F8016B5B
:1002100001F8016B6D1EF9D59142D6D370470000ED
:100220000023002400250026103A28BF78C1FBD8FF
:10023000520728BF30C148BF0B607047662927F0BE
:100240005682642900F08280002070471FB527F095
:1002500044FA00F0C7FD04000020002126F0FAFC5B
:10026000401C60600020002126F0DEFCE0601FBD25
:1002700010B510BD00F002FF1146FFF7E7FF26F0B2
:10028000E1F800F02EFF03B4FFF7F2FF03BC00F02B
:1002900071FF00000948804709480047FEE7FEE774
:1002A000FEE7FEE7FEE7FEE7FEE7FEE7FEE7FEE726
:1002B00004480549054A064B70470000B93F01084C
:1002C00089010008708A002070900020708C002046
:1002D000708C00200FB41CB5074B06AA7B446946FE
:1002E0000090059800F0C3FC0020694600F0D2FCA5
:1002F0001CBC5DF814FB0000B509000070B5044695
:1003000085690068C10601D5302600E02026C007B7
:1003100007D070BDD4E9012130469047206A401CC7
:1003200020626D1EF6D570BD70B5044685690078F3
:10033000C00707D170BDD4E9012120209047206A71
:10034000401C20626D1EF6D570BD00002DE9F04105
:100350000646002410687529314616A510D0AFF363
:100360000080002802DA404213A507E031688A07BE
:1003700001D512A502E0490704D511A5012401E029
:10038000AFF3008000210A2206F1240709E0B0FB48
:10039000F2FCB0FBF2F302FB1C003030785418463C
:1003A000491C0028F3D123462A463046BDE8F041D7
:1003B00000F0F0B9000000002D0000002B0000004C
:1003C000200000002DE9F05F894604464FF0000A46
:1003D000DFF824B1FB44C0F820A02046E16888473C
:1003E00000287DD0252806D0D4E901219047206A35
:1003F000401C2062F1E700255F462046E1688847FF
:100400002028064607DB312E05D2B81910F8200C3B
:1004100008B10543F1E7A80701D525F00405C4F8A4
:100420001CA00027C4F818A02A2E09D0304625F0B9
:100430009DFE38B304EB8708303EC8F8186019E019
:1004400059F8041B204604EB87029161E168884754
:10045000012F064618D1E069002820DA25F0200592
:100460001DE0D8F8180000EB800006EB40003038A3
:10047000C8F818002046E1688847064625F076FE51
:100480000028EED1012F0AD02E2E08D12046E16897
:1004900088477F1C0646022F45F02005C4DBA06973
:1004A000002803DA404245F00105A061E80701D0C9
:1004B00025F01005A6B1A6F14100192802D8203672
:1004C00045F400654A463146204625604D46FFF713
:1004D000B5FE60B1012807D0ED1D25F0070000E052
:1004E00007E000F1080978E705F1040975E73046EF
:1004F0007AE7206ABDE8F09FFC44040070B5064628
:1005000000F044F90468054630460A22002100F054
:10051000C6FB2C6070BD40EA0103024630B59B0764
:1005200010D14FF0013400E008C208C91D1B9D43E3
:1005300015EAC41FF8D013F0FF0102F8011B0DD01B
:100540001B0AF8E711F8013B002B02F8013B05D02C
:1005500011F8013B002B02F8013BF3D130BD10B57F
:10056000431C02E010F8011B71B18107FAD14FF072
:10057000013202C88C1A8C4314EAC211F9D0C01A95
:100580000A0603D0C01E10BDC01A10BD0A0401D057
:10059000801E10BD0902FCD0401E10BD421E12F884
:1005A000013F002BFBD111F8013B002B02F8013B6E
:1005B000F9D17047032A40F2308010F0030C00F0AC
:1005C000158011F8013BBCF1020F624498BF11F88D
:1005D00001CB00F8013B38BF11F8013BA2F1040246
:1005E00098BF00F801CB38BF00F8013B11F00303BE
:1005F00000F06780083AC0F0088051F8043B083AE0
:1006000051F804CBA0E80810F5E7121D5CBF51F8C3
:10061000043B40F8043BAFF30080D20724BF11F83D
:10062000013B11F801CB48BF11F8012B24BF00F8A2
:10063000013B00F801CB48BF00F8012B7047431A7B
:1006400028BF9A427FF6B6AF032A1044114440F205
:10065000268010F0030F1EBF11F8013D521E00F856
:10066000013D10F0030F7FF4F6AF11F0030300F02B
:100670006183083AC0F00B8051F8043D083A51F804
:1006800004CD40F8043D40F804CDFFF7F3BF121D40
:100690005CBF51F8043D40F8043DAFF30080D20741
:1006A00024BF11F8013D11F801CD48BF11F8012C0C
:1006B00024BF00F8013D00F801CD48BF00F8012C2F
:1006C000704710B5203AC0F00B80B1E81850203ABE
:1006D000A0E81850B1E81850A0E81850BFF4F5AFE2
:1006E0005FEA027C24BFB1E81850A0E8185044BF6C
:1006F00018C918C0BDE810405FEA827C24BF51F8D9
:10070000043B40F8043B08BF7047D20728BF31F8CC
:10071000023B48BF11F8012B28BF20F8023B48BF1D
:1007200000F8012B704702F0FF0343EA032242EA7C
:10073000024200F02BBB4FF0000200B51346944676
:100740009646203922BFA0E80C50A0E80C50B1F129
:100750002001BFF4F7AF090728BFA0E80C5048BF3D
:100760000CC05DF804EB890028BF40F8042B08BFDB
:10077000704748BF20F8022B11F0804F18BF00F8D7
:10078000012B704770477047704700000048704762
:10079000108A00202DE9F0470D46994692460446FE
:1007A00000F124080168880604D5E06921F01001F1
:1007B000216000E00120A84201DD471B00E0002786
:1007C000A1697A1902EB0900081AA0612078C00615
:1007D00002D42046FFF792FD002608E0D4E901216B
:1007E0001AF806009047206A401C761C20624E458D
:1007F000F4DB2078C0060AD52046FFF77FFD06E02F
:10080000D4E9012130209047206A401C2062381E24
:10081000A7F10107F4DC07E0D4E9012118F805008D
:100820009047206A401C2062281EA5F10105F3DCD8
:100830002046FFF779FD2078000602D50220BDE8AA
:10084000F0870120FBE770472DE9FF4F0C461E465D
:100850004FF0FF378BB0D2E90001DDF860800A90DD
:100860008A46C1F30A5505B93D46002108464FF0B6
:100870000000BAF1000F00F4400005DA00EB800040
:100880004FF4400101EA50004FEA9059B9F1010FCD
:1008900000DDB9460A9850EA4A000ED044F61050DE
:1008A000A5F2FF3545432F14B8F1000F1ED0754255
:1008B000291E1EDDC9F100021CE0B8F1010F4FF046
:1008C000000001D0302103E0F24305E02154401C38
:1008D000B042FBDB30460022002121540B99C1F8C5
:1008E0000880C1E900200FB0BDE8F08FBD1B6D1C72
:1008F000DEE74A4600DA694206A800F04DFB06AB87
:1009000093E8070003AB83E8070050460A9900F01C
:1009100038FC8DE80700A0F500501F3800900398C0
:10092000002D0ADD42F21F014A460844002303A9B4
:100930000390684600F0A1FE09E0A0F500504A4689
:100940001F38002303A90390684600F0ABFE8DE832
:1009500007000004000C03D04FF0FF30410800E016
:100960001046B8F1000F03D00022009215461EE099
:10097000751E05D400F03AFA303262556D1EF9D575
:10098000B3460122084302D000227F1C04E02078F5
:10099000302801D100227F1E002A099784D01DE053
:1009A000112D07DA00F022FA303262556D1C50EA40
:1009B0000102F5D1084302D00098C8B10EE0002131
:1009C000681E05E0235C625C63542254401E491C8F
:1009D0008142F7DBAB46A81B401E0990002004F8BB
:1009E0000B000B98099AC0F80880C0E9002B7AE741
:1009F00011264FF0000857E72DE9F04F88460446CE
:100A0000D21D22F0070191B0D1E90001CDE90A0120
:100A10001FF09AFA02460B98C00F01D02D2007E074
:100A20002068810701D52B2002E0202101EAC000C7
:100A3000032A099001D0072A05DB034641462046D8
:100A400000F01AFA0BE12078800601D5E06900E099
:100A50000620B8F1650F814606D0B8F1660F18D0B0
:100A6000B8F1670F70D131E00020B9F1110F00909B
:100A700001DB112301E009F101030AAA01A90CA875
:100A8000FFF7E2FEDDE90C70002609F1010583465F
:100A900047E001204B4600904FF000470AAA01A909
:100AA0000CA8FFF7D1FEDDE90DB00C995D460026DC
:100AB00010B909F101000D18B9EB050003D4C0F11C
:100AC000FF3609F10105A5EB09002BE0B9F1010F93
:100AD00001DA4FF001090020B9F1110F00904846EA
:100AE00001DD112300E003460AAA01A90CA8FFF7C3
:100AF000ABFEDDE90C704D460026834620780007EA
:100B00000AD4AB4500DA5D4601A8012D04DD411988
:100B100011F8011C302907D04F4502DA17F1040FF4
:100B200004DA012082460FE06D1EEEE7002F02DCA2
:100B3000ED1B3E4403E0781CA84200DD7D1CB81B81
:100B400000F1010A4FF000472078000703D4AA45BE
:100B500001DB4FF0FF3A0021B7F1004F0DF14308E0
:100B60008DF8431024D002202B23002F01DA7F427E
:100B70002D230A21021EA0F1010000DC5FB197FBCA
:100B8000F1FC97FBF1F201FB1C7C17460CF1300CD9
:100B900008F801CDEEE7A8F10100037021880905EE
:100BA00001D5452100E06521A0F1010800F8011CF4
:100BB00009980FA9A1EB0807FF1D00B101204119F9
:100BC00001EBEA70A1693844081A401EA061207840
:100BD000C00602D42046FFF791FB099828B1D4E95A
:100BE00001219047206A401C20622078C00622D54F
:100BF0002046FFF783FB1EE0002E04DBB34502DD39
:100C000001A8805D00E03020D4E901219047206AEE
:100C1000401C2062761CAAF101005FEA000A0AD19A
:100C200000F0E0F8C0680168405CD4E90121904719
:100C3000206A401C2062281EA5F10105DCDC07E0CB
:100C4000D4E9012118F8010B9047206A401C20626A
:100C5000381EA7F10107F3DC2046FFF765FB0320F0
:100C600011B041E601694A1C02610878704700B57D
:100C70008FB0CDE901310021059105497944CDE9D5
:100C8000031011466846FFF79DFB0FB000BD000042
:100C9000E5FFFFFF0A6802F8010B0A6070472DE9C3
:100CA000F04791460F4680460446002614F8015B43
:100CB0002DB100F08FF80068405DC007F6D12B2DF4
:100CC00002D02D2D18D0641E4A463946204600F029
:100CD00013F927B13968A14201D1C7F800804FF05C
:100CE000020471050BD54042002803DDFFF74EFDDD
:100CF0000460A007BDE8F08746F48066E4E70028BA
:100D0000F8DAFFF743FD04606FF00040F2E7431AA2
:100D100028BF9A427FF6D5AC104410F0030F11445F
:100D20001EBF11F8013D521E00F8013D10F0030FE7
:100D30007FF4F6AF103AC0F00A8010B531E91850D0
:100D4000103A20E91850BFF4F9AFBDE8104053073E
:100D500024BF31E9081020E9081044BF51F8043DD0
:100D600040F8043D12F0030F08BF7047D20728BFB8
:100D700031F8023D48BF11F8012C28BF20F8023D90
:100D800048BF00F8012C70474FF000020429C0F062
:100D9000128010F0030C3FF4D0ACCCF1040CBCF189
:100DA000020F18BF00F8012BA8BF20F8022BA1EBFF
:100DB0000C01FFF7C2BC5FEAC17C24BF00F8012B25
:100DC00000F8012B48BF00F8012B7047004870471E
:100DD000108A002010B500F005F8001D10BD00BFFE
:100DE000755E020000487047308A002030B5B0F1CF
:100DF0000A024FEA900E71F100034EEA817EB0EBD9
:100E00000E0061EB91014FEA101E4EEA017E10EBDD
:100E10000E0041EB11114FEA102E4EEA016E10EB5D
:100E20000E0041EB11214FEA104E4EEA014E10EB3D
:100E30000E0041EB1141401841F100014FEAD00092
:100E400040EA41704FEAD10110EB80054FEA81047E
:100E500044EA907444EB01046D1944EB0404521B02
:100E6000A3414FF0000348BF0A3200D530BD401CFB
:100E700041F1000130BD00002DE9F0411F4604465C
:100E800003260168072A01F4006004DB08B116A5F7
:100E900005E016A503E008B115A500E015A521F0B1
:100EA00010002060A069C01EA0610FB1401EA061AB
:100EB0002046FFF723FA4FB1D4E901213846904785
:100EC000206A401C2062C01C206206E0206AFAE70B
:100ED000D4E9012115F8010B9047761EF8D220467F
:100EE000FFF722FABDE8F0814E414E006E616E00C0
:100EF000494E4600696E66002DE9F05F8246154650
:100F00008B4600270AF10104B9460078302801D049
:100F10009DB113E014F8010B0127782803D058285D
:100F200001D045B10AE00DB1102D07D1002714F80A
:100F3000010B102502E0082500E00A250026B04636
:100F40000EE005FB080005FB06F101271FFA80F8FB
:100F500001EB1046B6F5803F00D3B94614F8010BFB
:100F6000294600F0B0F80028EBDABBF1000F05D0FD
:100F70000FB1641E00E05446CBF80040B9F1000FF9
:100F800006D0FFF703FC02210160C81EBDE8F09FF8
:100F900048EA0640FAE700002DE9F0478146164688
:100FA0008AB0354878440DC88DE80D003248784441
:100FB000801C03AC0DC884E80D0041F69B3008444A
:100FC000372190FBF1F290FBF1F5A5F1800501FBD3
:100FD00012041B3C02D56442012000E00020DFF82F
:100FE00098A080460027FA44AAF1BE0A0EE0E00766
:100FF0000AD03246684607EB470101230AEB81011C
:1010000000F050FB8DE8070064107F1C002CEED12F
:10101000194F7F44AE3F19E0E80715D007EB0410E5
:101020000DF1180A90E80E008AE80E00C068F04240
:1010300001D1981908903246012306A903A800F0AF
:1010400031FB03AB83E807006D10641C002DE3D176
:101050004FF0010332466946B8F1000F03A802D0F1
:1010600000F00BFB01E000F01DFBC9E90001C9F82D
:1010700008200AB0BDE8F087BC3904007546FFF7C8
:10108000A5FEAE4605006946534620F0070085469A
:1010900018B020B5FFF70CF9BDE820404FF000066E
:1010A0004FF000074FF000084FF0000B21F0070150
:1010B000AC46ACE8C009ACE8C009ACE8C009ACE893
:1010C000C0098D4670473A2800D2303820F02002FF
:1010D000412A01D3A2F13700884201D34FF0FF30FB
:1010E000704710B50446AFF300802046BDE81040BD
:1010F000FFF7C9B84FF0013C50F8042B51F8043BFE
:101100009A4221D1A2EB0C03934313EACC1317D1DB
:1011100050F8042B51F8043B9A4215D1A2EB0C0372
:10112000934313EACC130BD150F8042B51F8043B32
:101130009A4209D1A2EB0C03934313EACC13DBD000
:101140004FF00000704700BFD01A01BAB1FA81F128
:1011500001F0180122FA01F0CB40C1F12001DBB20D
:10116000C0B2C01A2CFA01F3D11A914311EAC3118B
:10117000E6D1704701491820ABBEFEE72600020009
:1011800070475FEA400C08BF91F0000F4FEA8C23D4
:101190004FEAC12243EA51514FEA1C5018BF00F5F3
:1011A000F0404FEA300018BF41F000415FEA6C5C4C
:1011B00000F02980BCF1FF3F08BF40F0804070473D
:1011C000130C06BF12044FF0100C4FF0000C130E5E
:1011D00004BF12020CF1080C130F04BF12010CF132
:1011E000040C930F04BF92000CF1020CD30F04BF48
:1011F00052000CF1010C11464FF00002A0F11F004B
:10120000A0EB0C00704711F0004F08BF704731F0A1
:1012100000413FF4D5AF0B0C06BF09044FF0100C92
:101220004FF0000C0B0E04BF09020CF1080C0B0F61
:1012300004BF09010CF1040C8B0F04BF89000CF1F1
:10124000020CCB0F04BF49000CF1010CCCF12003C0
:10125000A0EB0C0022FA03F302FA0CF241EA0301BC
:1012600000F10100704720F07F4C80EA030023F07A
:101270007F47ACEB070303F57C5300F0004003F11C
:10128000FF032DE980494FEA154B09B44FEA144397
:1012900025EA0B4E24EA03480FF2042606EB132737
:1012A00049083E785FEA320203FB0667C7F500078C
:1012B00007FB06F64FEA54374FEAD64606F1020618
:1012C00007FB066CCCF1005C4FEA1C472CEA074C8C
:1012D00007FB06F40CFB06F504EB15464FEA9616E1
:1012E00034BF00204FF000404FEAD13706FB07FC27
:1012F0004FEA1C4C0CFB0BF7D21B03FB0CF761EB0A
:1013000007010CFB0EF7B0EB074072EB17420CFB2A
:1013100008F734BFA2EB0742B2EB074261EB17417B
:101320004FEA0C444FEA910706FB07FC4FEA1C4CBE
:101330000CFB0BF7B0EBC74072EB573203FB0CF71B
:1013400034BFA2EBC742B2EBC74261EB57310CFB93
:101350000EF7B0EBC70072EB57720CFB08F734BF07
:10136000A2EBC702B2EBC70261EB5771039F4FEAD2
:10137000816141EA921104EBCC044FEAD1374FEA84
:10138000826206FB07FC42EA90124FEA80604FEA55
:101390001C4C0CFB0BF7D21B03FB0CF761EB07019A
:1013A0000CFB0EF7B0EB074072EB17420CFB08F793
:1013B00034BFA2EB0742B2EB074261EB17414FEAA1
:1013C0008C554FEA910704EB9C2406FB07FC4FEA7F
:1013D0001C4C0CFB0BF7B0EBC74072EB573203FB16
:1013E0000CF734BFA2EBC742B2EBC74261EB5731F7
:1013F0000CFB0EF7B0EBC70072EB57720CFB08F753
:1014000034BFA2EBC702B2EBC70261EB577115EB19
:101410004C254FEA816141EA92114FEA82624FEA1C
:10142000D13742EA901206FB07FC44F100044FEA70
:1014300080604FEA1C4C0CFB0BF7D21B03FB0CF734
:1014400061EB07010CFB0EF7B0EB074072EB1742A4
:101450000CFB08F734BFA2EB0742B2EB074261EB8B
:10146000174115EB1C154FEA813141EA92414FEAD1
:10147000823242EA90424FEA80304FEA0C7644F1E1
:10148000000448EA03434EEA0B484FF0000EB2EB6B
:10149000080C71EB030724BF624639464EEB0E0E73
:1014A0004FF0000B0018524149414BEB0B0BB2EBD4
:1014B000080C71EB03077BF1000B24BF6246394631
:1014C0004EEB0E0E4FF0000B0018524149414BEB12
:1014D0000B0BB2EB080C71EB03077BF1000B24BF85
:1014E000624639464EEB0E0E51EA020718BF46F02F
:1014F000010616EB0E7655F1000254F1000103D5FA
:10150000BDE88901BDE80088BDE88901BDE8004863
:10151000B619524141EB0101A3F1010370478080EC
:101520007F7E7D7C7B7A797877767675747372713D
:1015300071706F6E6E6D6C6C6B6A6A6968686766F5
:1015400066656464636362616160605F5F5E5E5D87
:101550005D5C5C5B5B5A5A595958585757565655FB
:1015600055555454535352525251515050504F4F5D
:101570004F4E4E4D4D4D4C4C4C4B4B4B4A4A4A49AD
:1015800049494848484747474746464645454544F0
:101590004444444343434342424242414141002B7D
:1015A0009C4630D477002BD01CB54FEA370703B4E4
:1015B0004FF010004FF01001BAF1000F06D0BCF14F
:1015C000000FDCBF40F0080040F008014FF00000C1
:1015D0000FBCBDE810400BF1010BBBF1010F08BFC0
:1015E0005FEA170722BF12F1010211F101014FF06A
:1015F000004143F1000300F0004043EA000070475F
:10160000F9D35708D0E746EA064613F1400F4FEAF0
:1016100016461FDD13F1200FDFBF16430A460021D7
:1016200020335B42BED0C3F1200746EA064602FAE9
:1016300007F74FEA164646EA0706C3F1200722FAE3
:1016400003F201FA07F721FA03F14FF0000342EA2F
:101650000702A7E746EA020646EA06464FEA1646AA
:1016600046EA0106BCBF46EA0646360C4FF00003C8
:101670004FF000024FF0000194E72DE9804C9A46AC
:10168000934670B491E8380007C831EA400C48BF6F
:1016900034EA430C03D5FFF7E6FDFFF780FFF0BC0B
:1016A000BDE8008C2DE9804C9A46934670B491E8D1
:1016B000380007C810F0804F08BF13F0804F03D1E7
:1016C00000F005F8FFF76BFFF0BCBDE8008C20F0E0
:1016D0007F4780EA030023F07F4C07EB0C03A3F560
:1016E0007C5300F00040A3F1FE0392F0000F00F0E5
:1016F000B38095F0000F00F077802DE901494FEAA3
:1017000011404FEA144621EA004800FB06FC24EA97
:10171000064708FB06F607FB08F800FB07F718EB7F
:1017200006484CEB164C4FEA124B18EB07484FEAB1
:1017300015464CEB174022EA0B4E0BFB06FC25EA44
:1017400006470EFB06F607FB0EFE0BFB07F71EEB2C
:10175000064E4CEB164C4FF000061EEB074E4CEBC2
:10176000174B18EB0B0840F1000018EB0E0B58EB71
:10177000000840F100008F1A4FF000013CBFC94340
:10178000661B14BFB5EB040C00213CBFC943F61B1C
:101790004FEA17444EEA8E0E27EA04454FEA1C47EB
:1017A00004FB07622CEA074C05FB07F70CFB05F668
:1017B00004FB0CFC16EB074642EB174216EB0C46FB
:1017C00042EB1C421BEB060658EB0202414146EA83
:1017D0009E0601D5BDE80189B619524141EB0101D0
:1017E000A3F10103BDE801894FEA14454FEA11470F
:1017F00024EA054621EA074C05FB07F406FB07F738
:101800000CFB06F105FB0CFC11EB074144EB174404
:101810004FEA124711EB0C4144EB1C4422EA074CFF
:1018200005FB07F206FB07F70CFB06F605FB0CFCB5
:1018300016EB074642EB174216EB0C4642EB1C45F3
:101840006A1854F1000148BF7047B619524141EB84
:101850000101A3F10103704795F0000F37D04FEA63
:1018600011424FEA144721EA024624EA074C02FBE0
:1018700007F106FB07F70CFB06F402FB0CFC14EB6C
:10188000074441EB17414FEA154714EB0C4441EB79
:101890001C4125EA074C02FB07F506FB07F70CFB8A
:1018A00006F602FB0CFC16EB074645EB174516EB5C
:1018B0000C4645EB1C42121951F1000148BF70471C
:1018C000B619524141EB0101A3F1010370474FEA00
:1018D00014454FEA114724EA054621EA074C05FB67
:1018E00007F106FB07F70CFB06F24FF0000605FBBD
:1018F0000CFC12EB074241EB174112EB0C4251EB8F
:101900001C4148BF7047921841EB0101A3F101034C
:10191000704700002DE9F0419CB001210F023846CC
:101920000FF0F4FB012188050FF0C6FB202601967D
:1019300003258DF8085000248DF80B40DFF85C81FA
:1019400001A9404604F058FB402001908DF8085052
:101950008DF80B4001A9404604F04EFB1020019089
:101960008DF808508DF80B40DFF8348101A940460E
:1019700004F042FB01968DF808508DF80B4001A948
:10198000404604F039FB012601968DF808508DF889
:101990000B40DFF8108101A9404604F02DFB022026
:1019A00001908DF808508DF80B4001A9404604F0D5
:1019B00023FB03943C4804903C48059006944FF464
:1019C000967007900894B002099040000A90800039
:1019D0000B900C9700010D900E940F96109411949B
:1019E000334D03A9284602F03FFC0121284602F0AE
:1019F00015FC01221021284602F01CFC02F0D0FB4D
:101A0000294D01214C3D284600F084FA129413948C
:101A10001494159412A800F069FA16948DF85C607D
:101A20008DF85D6019941A9406208DF86C0016A943
:101A3000284600F087FA042301220521284600F0F9
:101A4000A7FA002302220621284600F0A1FA00236B
:101A500003220821284600F09BFA002304220921D2
:101A6000284600F095FA002305220E21284600F0B2
:101A70008FFA002306220F21284600F089FA01215F
:101A8000284600F026FA284600F0BCFA0121284634
:101A900000F04CFA1CB0BDE8F081000000000240EC
:101AA00000080240000402404C200140740900205C
:101AB000106402402DE9FE4F4FF00008CDF8088079
:101AC000FF494FF0060901F5167301F5487401F559
:101AD000617501F57A7601F52F77FA4801F24C4CE1
:101AE0004FF4967E7AE0BDF80820B2FBF9FA09FBC4
:101AF0001A2242B3BDF80820B2FBF9FA09FB1A22F8
:101B0000012A2CD0BDF80820B2FBF9FA09FB1A22F1
:101B1000022A30D0BDF80820B2FBF9FA09FB1A22DC
:101B2000032A34D0BDF80820B2FBF9FA09FB1A22C7
:101B3000042A38D0BDF80820B2FBF9FA09FB1A22B2
:101B4000052A3CD046E0BDF8082031F812B090F8E4
:101B500000A00AF10102027023F81AB03AE0BDF8C1
:101B6000082031F812B090F801A00AF10102427089
:101B70002CF81AB02EE0BDF8082031F812B090F819
:101B800002A00AF10102827024F81AB022E0BDF826
:101B9000082031F812B090F803A00AF10102C270D7
:101BA00027F81AB016E0BDF8082031F812B090F806
:101BB00004A00AF10102027126F81AB00AE0BDF889
:101BC000082031F812B090F805A00AF10102427124
:101BD00025F81AB0BDF80820521C0292BDF8082062
:101BE000724580D380F8008080F8018080F8028000
:101BF00080F8038080F8048080F80580CDF80080AC
:101C0000CDF804800AE09DF8041033F81110009A12
:101C1000114400919DF80410491C01919DF8041095
:101C20003229F0D390F80790A74901233222B9F165
:101C3000280F0AD2DDF8009090F807A0B9FBF2F95E
:101C400021F81A90CDF8008021E0CDF800800193B2
:101C50000EE09DF8049031F81990DDF800A0D14411
:101C6000CDF800909DF8049009F10109CDF8049099
:101C70009DF80490B9F1270FEBD300994FF0270995
:101C8000B1FBF9F14182CDF8008080F80780C1797D
:101C9000491CC171CDF804800BE09DF8041034F8A4
:101CA0001110DDF80090494400919DF80410491C82
:101CB00001919DF804103229EFD3847982494FF0C5
:101CC00012092839142C09D2009C90F806A0B4FB04
:101CD000F2F421F81A40CDF800801BE0CDF8008026
:101CE00001930BE09DF8044031F81440DDF800A0AA
:101CF000544400949DF80440641C01949DF80440F1
:101D0000132CEFD30099B1FBF9F1C181CDF800801C
:101D100080F806808179491C8171CDF804800AE041
:101D20009DF8041035F81110009C214400919DF895
:101D30000410491C01919DF804103229F0D3447A13
:101D400061491325A031142C09D2009C90F809A0F8
:101D5000B4FBF2F421F81A40CDF800801BE0CDF876
:101D6000008001930BE09DF8044031F81440DDF849
:101D700000A0544400949DF80440641C01949DF814
:101D80000440132CEFD30099B1FBF5F10182CDF89B
:101D9000008080F80980417A491C4172CDF80480A6
:101DA0000AE09DF8041036F81110009C21440091BF
:101DB0009DF80410491C01919DF804103229F0D3BC
:101DC000047A41497831142C08D2009C057AB4FB7E
:101DD000F2F421F81540CDF800801AE0CDF800802B
:101DE00001930AE09DF8044031F81440009E344409
:101DF00000949DF80440641C01949DF80440132C49
:101E0000F0D30099B1FBF5F1C182CDF8008080F8E4
:101E10000880017A491C0172CDF804800AE09DF81F
:101E2000041037F81110009C214400919DF8041013
:101E3000491C01919DF804103229F0D3847A22497B
:101E40005031142C08D2009B847AB3FBF2F321F8B2
:101E50001430CDF800801AE0CDF8008001930AE03C
:101E60009DF8043031F81330009C234400939DF812
:101E700004305B1C01939DF80430132BF0D30099C0
:101E8000B1FBF9F18182CDF8008080F80A80817A77
:101E9000491C8172CDF804800AE09DF804103CF8DA
:101EA0001110009B194400919DF80410491C0191E8
:101EB0009DF804103229F0D30099B1FBF2F105E04E
:101EC000740900204A0000204C0E00208181BDE8EA
:101ED000FE8F002904D0816841F0010181607047C4
:101EE000816821F0010181607047000010B5074C46
:101EF000226807490A40D0E900131943D0E90230AB
:101F0000034319431143216010BD00000423014025
:101F1000E030FCFF002904D0816841F480718160C9
:101F20007047816821F4807181607047002904D076
:101F3000816841F4007181607047816821F400710B
:101F40008160704730B542680F4B1A400C790B68BE
:101F500042EA04221343436083680C4A1340D1E9E8
:101F6000034222434D798C6844EA450422431A43D4
:101F70008260C26A22F47002097D491EC9B242EA37
:101F80000151C16230BD0000FFFEFFFCFDF7FFC044
:101F900070B5072609290AD9C568A1F10A0404EB1E
:101FA0004404A640B543A3401D43C56007E005694E
:101FB00001EB4104A640B543A3401D4305611F2327
:101FC000072A09D2446B521E02EB820293409C43C3
:101FD00091400C43446370BD0D2A09D2046BD21F9B
:101FE00002EB820293409C4391400C43046370BD1A
:101FF000C46A0D3A02EB820293409C4391400C4329
:10200000C46270BD816841F08041816070470028E2
:1020100000DC404270474178007841EA0020704778
:1020200005484FF4006100780206044801D404F02A
:102030003AB804F036B80000340000200004024032
:102040000549086840F00400044B00221A8020F083
:102050008000086070470000340000206A00002003
:1020600038B5456804460146284613F0D3FD0028DC
:102070002AD02068304A0F2819D006DC0B2824D03B
:102080000C2810D00E2851D12FE0112802D028287A
:102090004CD145E09268002A16D02146284601B06E
:1020A000BDE830401047214628465268F7E72846E9
:1020B00004F040FF0090406E0468684604F084FF1E
:1020C000002C01D02846A04738BD284604F032FF36
:1020D0000090683004F096FE009803216C3004F004
:1020E00099FE684604F070FF20E0E16848680968DE
:1020F0000D2902D0202913D105E0002810DD284643
:102100001AF03AFD06E0002804DD2846BDE8384014
:102110001AF032BD2846BDE8384002211AF042BD0F
:10212000E06818B90021284600F097F92046BDE87C
:10213000384014F0E3B9000044020020F0B5044632
:1021400085B08069B4F90850668A0027CDE9026538
:10215000CDE900170490B4F90C00B4F91060C1186F
:10216000B4F90A00B4F90E50104433462A4600F080
:1021700007F80546616800F079F905B02846F0BD1A
:10218000F0B585B00C46DDE90D514C31DFF850C09B
:10219000DDE90A67CDE902C12146CDE9006714F007
:1021A000FDF8040018D004F0C5FE10222946049062
:1021B00013F054FF049830220A493430FEF781FAB4
:1021C000084D04990C3D2868486604A804F0FCFEFC
:1021D000286841682046884705B02046F0BD0000C9
:1021E0006120000850020020F0B5044680688B4949
:1021F00089B051F82050606800287DD0052804D0AF
:1022000006287AD0122879D1AEE0E86900284FD0AC
:1022100095E80E008DE80F0004F110010FC907F0DA
:10222000FBF9002655F8260006F060FAA169E86976
:102230000A1A216901446069304405F0FDFBA16977
:10224000E8690A1A21690144E069801B05F0F4FB82
:10225000E169E8690A1A616901442069304405F0BE
:102260008BFCE169E8690A1A61690144A069801B75
:1022700005F082FC761C022ED4DBA86806F036FA44
:10228000E069E9696669431A20694218521E3144BF
:10229000801C05F0DBFCE169E869A2690B1A616941
:1022A0000144101A401C921E05F0D0FCEE6913E0A8
:1022B0005FF0000655F8260006F018FAE069831B67
:1022C000A069821B606981192069304405F016FC01
:1022D000761C022EEEDB0226D5E90301CDE90001D2
:1022E0006169E06908444310A069891C821B206968
:1022F000304405F049FB02E089E012E08AE0D5E9CC
:102300000501CDE90001E36960690121184401EB91
:102310006001A0699B1E821B2069304405F034FBDC
:1023200078E0206804F006FE0490206815F016F9A5
:1023300040B1A06808B1002008E00498006F28B1FF
:10234000012003E00498406F00B10220049901EBE2
:102350008000C56E04A804F037FE00231A46284604
:10236000216805F0C3F855E0206804F0E3FD04900F
:10237000866EEEB3B0F95C70A168D1B3032942D088
:102380005FF0000100EB8101406D0C6C06F0B8F9C4
:10239000204606F0ABF905A805F0A8FCBDF814101E
:1023A000A88B0144ADF81410BDF81810081AADF848
:1023B0001800BDF81600801CADF81600BDF81A0014
:1023C000801EADF81A0004985E30B0F90220B0F912
:1023D000001005A806F0E8F804A804F0F5FD0220B6
:1023E00006F0CEF9304604F0A5FD3A4605A901E015
:1023F0000BE006E0079005F071F907A804F0E4FD92
:1024000008E00121BEE70221BCE704A8F6E7206846
:1024100014F068FD09B00020F0BD00003812040877
:10242000044A0349116004494A6A486210467047E9
:1024300080020020440200205002002038B50D46E2
:10244000040009D004F076FD00904565684604F06C
:10245000BBFD204614F049FB38BD4FF480720029C3
:10246000114601D013F060BC13F0B1BB2DE9FF4160
:102470000E4605004FF001041CD004F05BFD0190F6
:10248000876E01A8009704F09FFD3146684607F06B
:10249000A3FB78B100980024B84208D0284604F085
:1024A00049FD01900099816601A804F08DFD284640
:1024B00014F01BFB04B02046BDE8F081F8B51546CA
:1024C0000C4606000DD004F035FD0090032C02D21E
:1024D00000EB84000564684604F076FD304614F095
:1024E00004FBF8BDFEE700002DE9F05F7B4C21788E
:1024F0007B4840F66F0519396F1C82696FF0704692
:1025000040F6770840F6780940F6710A40F6790BF4
:102510000C2925D2DFE801F0062645642424242472
:1025200083A224C229460546104614F0F5F88046D9
:102530003146404611F008FE6FF07F41404611F0F1
:1025400055FE3946A86914F0E7F80546654928465E
:1025500011F0FAFD0021284611F048FE1A202070E3
:10256000BDE8F09F05463946104614F0D5F80746F9
:102570003146384611F0E8FD6FF07F41384611F0E2
:1025800035FE4146A86914F0C7F805465549284666
:1025900011F0DAFD0021284611F028FE1B202070E2
:1025A000DEE705464146104614F0B6F807463146C8
:1025B000384611F0C9FD6FF07F41384611F016FE24
:1025C0004946A86914F0A8F805464649284611F07E
:1025D000BBFD0021284611F009FE1C202070BFE73A
:1025E00005464946104614F097F8074631463846E6
:1025F00011F0AAFD6FF07F41384611F0F7FD51460A
:10260000A86914F089F805463649284611F09CFD62
:102610000021284611F0EAFD21202070A0E70546A0
:102620005146104614F078F807463146384611F006
:102630008BFD6FF07F41384611F0D8FD5946A869EF
:1026400014F06AF805462749284611F07DFD00215F
:10265000284611F0CBFD2220207081E7054659461F
:10266000104614F059F807463146384611F06CFD13
:102670006FF07F41384611F0B9FD40F67201A8694C
:1026800014F04AF805461749284611F05DFD00216F
:10269000284611F0ABFD2420207061E7074640F684
:1026A0007201104614F038F880463146404611F069
:1026B0004BFD6FF07F41404611F098FD2946B86907
:1026C00014F02AF805460749284611F03DFD00217F
:1026D000284611F08BFD1920207041E71D010020D4
:1026E00074010020FFFFBF002DE9F0412DED028BAA
:1026F00082B0FA480178FA4A00279FEDFA0AFB4DAA
:10270000F94C0126A869192943D0DFEDF90A1A29E5
:1027100077D0F84A1B2975D01C2935D1A97B40F602
:10272000780340F67C0802296DD0A97B01292BD1C2
:10273000D18800EE101AB8EE400A80EE208A1946C1
:1027400013F0EAFF0646207800287CD0EA4930469C
:1027500011F015FDE9A1304611F023FD4146A869AD
:1027600013F0DAFF044618EE100A24F045FF41EC9E
:10277000100BE5A153EC102B6846FDF7ABFD694645
:10278000204611F00EFDAF7302B0BDEC028BBDE828
:10279000F081E97A40F66F0340F67308012933D0DF
:1027A000E97A0229F0D1B2F8401000EE901AF8EE62
:1027B000600A80EE808A194613F0AEFF0746207843
:1027C000002858D0CC49384611F0D9FCD0A1384661
:1027D00011F0E7FC4146A86913F09EFF044618EE8D
:1027E000100A24F009FF41EC100BC7A153EC102B89
:1027F0006846FDF76FFD6946204611F0D2FCEE7287
:10280000C2E741E0B7E02BE1D18F00EE901AF8EE7D
:10281000600A80EE808A194613F07EFF0646207813
:1028200000B3B549304611F0AAFCBCA1304611F006
:10283000B8FC4146A86913F06FFF044618EE100A71
:1028400024F0DAFE00E040E141EC100BAEA153ECC5
:10285000102B6846FDF73EFD6946204611F0A1FCAD
:10286000EF7291E7B049304611F089FCAFA13046D4
:1028700011F097FCDDE7AC49384611F080FCAFA1C0
:10288000384611F08EFCA5E7297B4FF4076340F62C
:102890007408022930D0297B0129B1D1B2F8441043
:1028A00000EE101AB8EE400A80EE208A194613F0A6
:1028B00033FF06462078002854D08F49304611F067
:1028C0005EFCA2A1304611F06CFC4146A86913F0F1
:1028D00023FF044618EE100A24F08EFE41EC100B84
:1028E00089A153EC102B6846FDF7F4FC694620469D
:1028F00011F057FC2F7347E7B2F8461000EE101A9C
:10290000B8EE400A80EE208A194613F005FF07460C
:102910002078F0B17849384611F031FC8EA1384664
:1029200011F03FFC4146A86913F0F6FE044618EE8C
:10293000100A24F061FE41EC100B73A153EC102B34
:102940006846FDF7C7FC6946204611F02AFC2E7345
:102950001AE77549384611F012FC82A1384611F089
:1029600020FCDFE77049304611F009FC81A13046B8
:1029700011F017FCA9E7697B40F6770340F67B0866
:1029800002292FD0697B0129B5D1118800EE901A58
:10299000F8EE600A80EE808A194613F0BDFE064606
:1029A0002078002853D05449304611F0E8FB75A137
:1029B000304611F0F6FB4146A86913F0ADFE04461F
:1029C00018EE100A24F018FE41EC100B4EA153EC47
:1029D000102B6846FDF77EFC6946204611F0E1FBAE
:1029E0006F73D1E6518800EE901AF8EE600A80EE1F
:1029F000808A194613F090FE07462078F0B13E49D0
:102A0000384611F0BCFB62A1384611F0CAFB4146C2
:102A1000A86913F081FE044618EE100A24F0ECFDBC
:102A200041EC100B38A153EC102B6846FDF752FC1B
:102A30006946204611F0B5FB6E73A5E63A49384663
:102A400011F09DFB55A1384611F0ABFBDFE736498D
:102A5000304611F094FB55A1304611F0A2FBAAE7D5
:102A6000118900EE101AB8EE400A80EE208A19464D
:102A700013F052FE07462078F0B11F49384611F096
:102A80007EFB4EA1384611F08CFB4146A86913F03D
:102A900043FE044618EE100A24F0AEFD41EC100B84
:102AA00019A153EC102B6846FDF714FC694620462B
:102AB00011F077FBAE7367E61B49384611F05FFBF8
:102AC00041A1384611F06DFBDFE71749304611F0A0
:102AD00056FB41A1304611F064FB3FE61D0100208A
:102AE000580F00200000C8421C0100207401002083
:102AF00000007A44C487002098F003084375746F7F
:102B00006666204331000000252E3266000000007A
:102B10004F75747075742056320000004F757470D4
:102B200075742056310000000CD40308E8BE93E50C
:102B300087BAE794B5E58E8B31000000E8BE93E5D7
:102B400087BAE794B5E58E8B320000004C696D6959
:102B500074696E67204331004C696D6974696E67F2
:102B600020433200E99990E588B6E794B5E6B5814F
:102B700032000000E99990E588B6E794B5E6B581A2
:102B8000310000004375746F666620563100000006
:102B90004375746F6666205632000000E688AAE628
:102BA000ADA2E794B5E58E8B32000000E688AAE678
:102BB000ADA2E794B5E58E8B310000004375746FCC
:102BC0006666204332000000E688AAE6ADA2E794DC
:102BD000B5E6B58132000000E688AAE6ADA2E7942A
:102BE000B5E6B581310000002DE9F0412DED028BF5
:102BF00082B0FB480178FB4A9FEDFB0AFC4DFB4C81
:102C000001260227A869192943D0DFEDFA0A1A29FB
:102C100076D0F94A1B2974D01C2935D1A97B40F6FE
:102C2000780340F67C0800296DD0A97B01292BD1BF
:102C3000518900EE101AB8EE400A80EE208A19463B
:102C400013F06AFD0646207800287DD0EB49304617
:102C500011F095FAEAA1304611F0A3FA4146A869AD
:102C600013F05AFD044618EE100A24F0C5FC41EC9E
:102C7000100BE6A153EC102B6846FDF72BFB6946C1
:102C8000204611F08EFAAF7302B0BDEC028BBDE8A6
:102C9000F081E97A40F66F0340F6730891B3E97A60
:102CA0000129F1D1B2F8421000EE901AF8EE600A54
:102CB00080EE808A194613F02FFD06462078002802
:102CC0005AD0CE49304611F05AFAD2A1304611F00E
:102CD00068FA4146A86913F01FFD044618EE100A71
:102CE00024F08AFC41EC100BC8A153EC102B684671
:102CF000FDF7F0FA6946204611F053FAEF72C3E788
:102D000043E0B9E000E02CE1B2F8401000EE901A88
:102D1000F8EE600A80EE808A194613F0FDFC074643
:102D2000207800B3B549384611F029FABCA13846DD
:102D300011F037FA4146A86913F0EEFC044618EE8C
:102D4000100A24F059FC00E040E141EC100BAFA167
:102D500053EC102B6846FDF7BDFA6946204611F08A
:102D600020FAEE7290E7B149384611F008FAB0A1A6
:102D7000384611F016FADDE7AC49304611F0FFF99C
:102D8000AFA1304611F00DFAA3E7297B4FF407639A
:102D900040F6740881B3297B0129B0D1B2F84810FC
:102DA00000EE101AB8EE400A80EE208A194613F0A1
:102DB000B3FC06462078002855D09049304611F0E3
:102DC000DEF9A3A1304611F0ECF94146A86913F0F1
:102DD000A3FC044618EE100A24F00EFC41EC100B84
:102DE0008AA153EC102B6846FDF774FA6946204619
:102DF00011F0D7F92F7347E7FFE7B2F8461000EE5E
:102E0000101AB8EE400A80EE208A194613F084FCAE
:102E100007462078F0B17949384611F0B0F98FA112
:102E2000384611F0BEF94146A86913F075FC044616
:102E300018EE100A24F0E0FB41EC100B73A153ECE8
:102E4000102B6846FDF746FA6946204611F0A9F9AD
:102E50002E7319E77549384611F091F982A1384669
:102E600011F09FF9DFE77149304611F088F982A12E
:102E7000304611F096F9A8E7697B40F6770340F6F3
:102E80007B0879B3697B0129B5D1918800EE901A4E
:102E9000F8EE600A80EE808A194613F03DFC064683
:102EA0002078002854D05549304611F068F976A1B1
:102EB000304611F076F94146A86913F02DFC04461E
:102EC00018EE100A24F098FB41EC100B4FA153ECC4
:102ED000102B6846FDF7FEF96946204611F061F9AE
:102EE0006F73D1E6FFE7518800EE901AF8EE600AA2
:102EF00080EE808A194613F00FFC07462078F0B167
:102F00003E49384611F03BF962A1384611F049F9C3
:102F10004146A86913F000FC044618EE100A24F09C
:102F20006BFB41EC100B39A153EC102B6846FDF7FD
:102F3000D1F96946204611F034F96E73A4E63B4995
:102F4000384611F01CF956A1384611F02AF9DFE78E
:102F50003649304611F013F955A1304611F021F9E8
:102F6000A9E7118900EE101AB8EE400A80EE208A17
:102F7000194613F0D1FB07462078F0B11F493846B7
:102F800011F0FDF84EA1384611F00BF94146A86941
:102F900013F0C2FB044618EE100A24F02DFB41EC9E
:102FA000100B1AA153EC102B6846FDF793F96946F4
:102FB000204611F0F6F8AE7366E61C49384611F06B
:102FC000DEF842A1384611F0ECF8DFE71749304649
:102FD00011F0D5F841A1304611F0E3F83EE60000CB
:102FE0001D010020580F00200000C8421C010020D5
:102FF0007401002000007A44C487002098F0030880
:103000004375746F6666204333000000252E3266D8
:10301000000000004F757470757420563300000076
:103020004F75747075742056320000000CD403087C
:10303000E8BE93E587BAE794B5E58E8B32000000D1
:10304000E8BE93E587BAE794B5E58E8B33000000C0
:103050004C696D6974696E67204333004C696D6912
:1030600074696E6720433200E99990E588B6E79469
:10307000B5E6B58132000000E99990E588B6E7949D
:10308000B5E6B581330000004375746F666620565F
:10309000330000004375746F6666205632000000EE
:1030A000E688AAE6ADA2E794B5E58E8B3200000073
:1030B000E688AAE6ADA2E794B5E58E8B3300000062
:1030C0004375746F6666204332000000E688AAE606
:1030D000ADA2E794B5E6B58132000000E688AAE625
:1030E000ADA2E794B5E6B581330000002DE9F05FAD
:1030F0007B4C21787B4840F66F056E1C1939F71D13
:1031000082696FF0704B40F6780840F6710940F61E
:10311000790A0C2926D2DFE801F006274665252525
:10312000252584A325C229460546104613F0F4FA46
:1031300006465946304611F007F86FF07F41304699
:1031400011F054F840F67201A86913F0E5FA05464B
:103150006549284610F0F8FF0021284611F046F88E
:1031600024202070BDE8F09F31460646104613F03B
:10317000D3FA07465946384610F0E6FF6FF07F4114
:10318000384611F033F82946B06913F0C5FA054600
:103190005549284610F0D8FF0021284611F026F89E
:1031A00019202070DEE705463946104613F0B4FAC0
:1031B00007465946384610F0C7FF6FF07F41384642
:1031C00011F014F83146A86913F0A6FA05464649ED
:1031D000284610F0B9FF0021284611F007F81A2000
:1031E0002070BFE705464146104613F095FA0646A3
:1031F0005946304610F0A8FF6FF07F41304610F07E
:10320000F5FF3946A86913F087FA0546364928467E
:1032100010F09AFF0021284610F0E8FF1B202070D4
:10322000A0E705464946104613F076FA0646594689
:10323000304610F089FF6FF07F41304610F0D6FF26
:103240004146A86913F068FA05462749284610F058
:103250007BFF0021284610F0C9FF1C20207081E769
:1032600005465146104613F057FA06465946304671
:1032700010F06AFF6FF07F41304610F0B7FF49460B
:10328000A86913F049FA05461749284610F05CFF73
:103290000021284610F0AAFF2120207062E7054691
:1032A00040F67201104613F037FA0646594630468A
:1032B00010F04AFF6FF07F41304610F097FF514603
:1032C000A86913F029FA05460749284610F03CFF83
:1032D0000021284610F08AFF2220207042E70000DB
:1032E0001D01002074010020FFFFBF002DE9F04FF9
:1032F0002DED068B83B0FE48408E00EE100AB8EE2E
:10330000400ADFEDFC0A80EE208AF948808E00EE4C
:10331000100AB8EE400ADFEDF70AC0EE208AF44842
:10332000C08E00EE100AB8EE400ADFEDF20AC0EEE1
:10333000209AEF48008F00EE100AB8EE400ADFED49
:10334000ED0A80EE20AAEC480178EC4D1939EC4EDC
:1033500040F66F0740F6730901244FF4076B9FEDA9
:10336000E99AEA48DFF8A0A340F6770880691029B7
:1033700038D2DFE801F00896EFEE3CC6EDECEBEA60
:10338000E9E8E7E6E5E43946E04E13F0C5F907461B
:103390006FF07041384610F0D7FE6FF07F4138462D
:1033A00010F024FF4946B06913F0B6F90646D84933
:1033B000304610F0C9FE0021304610F017FF002003
:1033C0000290D44A06E09DF8081050549DF8081069
:1033D000491C02919DF808100529F4D3C6491D2007
:1033E00008702C7003B0BDEC068BBDE8F08F494629
:1033F000DFF8188313F090F981466FF0704148466A
:1034000010F0A2FE6FF07F41484610F0EFFE98F8F2
:103410000B0040B198F80B00012808D098F80B0079
:10342000022809D00CE0B248C18F418008E0B048C2
:10343000B0F84010418003E0AD48B0F84210418040
:10344000AB48408800EE100AF8EE400A9FEDA91A3A
:1034500080EE810A10EE100A24F0CEF841EC100B39
:10346000ADA153EC102B6846FCF734FF6946484683
:1034700010F097FE3946D8F8180013F04DF90746BA
:10348000A349384610F060FE0021384610F0AEFE29
:103490009949192008702C700020307014F0BCFA83
:1034A000A0E75946994C13F037F905466FF0704183
:1034B000284610F049FE6FF07F41284610F096FE36
:1034C00000200290934A06E09DF8081050549DF8A1
:1034D0000810491C02919DF808100529F4D340F604
:1034E0007401A06913F018F904468949204610F0C8
:1034F0002BFE0021204610F079FE7F491E20087027
:1035000070E740F67401814F13F006F980466FF0C2
:103510007041404610F018FE6FF07F41404610F0B9
:1035200065FE387B30B1387B012814D0387B022807
:1035300016D019E06E48B0F84410818014E015E20E
:10354000ABE11EE174E0C4E2DFE175E144E2EDE2EB
:1035500073E2E5E03CE06648B0F84610818003E0A5
:103560006348B0F8481081806148828841F2883110
:103570008A4200D98180808800EE100AF8EE400A65
:1035800080EE890A10EE100A24F036F841EC100B98
:1035900061A153EC102B6846FCF79CFE694640463F
:1035A00010F0FFFD5946B86913F0B6F807465849C0
:1035B000384610F0C9FD0021384610F017FE4E497C
:1035C0001A2008702C700020307014F025FA09E7DA
:1035D00041464E4C13F0A0F805466FF07041284666
:1035E00010F0B2FD6FF07F41284610F0FFFD002083
:1035F0000290484A06E09DF8081050549DF80810C3
:10360000491C02919DF808100529F4D340F67B016E
:10361000A06913F081F804463D49204610F094FD5E
:103620000021204610F0E2FD334925200870D9E63C
:1036300040F67B01354F13F06FF881466FF0704113
:10364000484610F081FD6FF07F41484610F0CEFDF6
:10365000787B30B1787B01280ED0787B022816D099
:103660001FE0BAF80000DFED230A00EE100AB8EE02
:10367000400A80EE208A14E0BAF80200DFED1D0A4D
:1036800000EE100AB8EE400A80EE208A09E0BAF88F
:103690000400DFED180A00EE100AB8EE400A80EED2
:1036A000208A18EE100A23F0A7FF41EC100B1AA194
:1036B00053EC102B6846FCF70DFE6946484610F0A7
:1036C00070FD4146B86913F027F80746104938469F
:1036D00010F03AFD0021384610F088FD06491B2005
:1036E00008702C700020307014F096F97AE6000013
:1036F000580F00200000C8421D01002010010020CA
:103700001101002000007A44C487002074010020C9
:10371000FFFFBF004C010020252E32660000000094
:1037200040F67801FC4C12F0F7FF05466FF070414F
:10373000284610F009FD6FF07F41284610F056FD35
:1037400000200290F54A06E09DF8081050549DF8BC
:103750000810491C02919DF808100529F4D340F681
:103760007C01A06912F0D8FF0446ED49204610F014
:10377000EBFC0021204610F039FDEA4926200870B4
:1037800030E640F67C01E44F12F0C6FF80466FF051
:103790007041404610F0D8FC6FF07F41404610F079
:1037A00025FDB87B30B1B87B01280CD0B87B02284E
:1037B00012D019E0BAF8060000EE100AB8EE400A7E
:1037C000C0EE098A10E0BAF8080000EE100AB8EE60
:1037D000400AC0EE098A07E0BAF80A0000EE100AB3
:1037E000B8EE400AC0EE098A18EE900A23F004FFF2
:1037F00041EC100B53EC102BAFF2E4016846FCF7E0
:1038000069FD6946404610F0CCFC40F67801B86985
:1038100012F082FF0746C249384610F095FC00219D
:10382000384610F0E3FCBF491C2008702C700020C3
:10383000307014F0F1F8D5E540F67901B64C12F08D
:103840006BFF05466FF07041284610F07DFC6FF06D
:103850007F41284610F0CAFC00200290AF4A06E0E3
:103860009DF8081050549DF80810491C02919DF8CD
:1038700008100529F4D340F67D01A06912F04CFF31
:103880000446A749204610F05FFC0021204610F0B6
:10389000ADFCA44927200870A4E540F67D019E4FA9
:1038A00012F03AFF80466FF07041404610F04CFC39
:1038B0006FF07F41404610F099FC19EE900A23F01A
:1038C0009BFE41EC100B53EC102BAFF2B411684689
:1038D000FCF700FD6946404610F063FC40F67901B4
:1038E000B86912F019FF07468D49384610F02CFCD4
:1038F0000021384610F07AFC8A49222008702C708A
:103900000020307014F088F86CE540F67A01824CA3
:1039100012F002FF05466FF07041284610F014FCCB
:103920006FF07F41284610F061FC002002907B4A36
:1039300006E09DF8081050549DF80810491C0291AB
:103940009DF808100529F4D340F67E01A06912F015
:10395000E3FE04467249204610F0F6FB00212046A3
:1039600010F044FC6F49282008703BE540F67E01CA
:10397000694F12F0D1FE80466FF07041404610F062
:10398000E3FB6FF07F41404610F030FC1AEE100A66
:1039900023F032FE41EC100B53EC102BAFF28821D8
:1039A0006846FCF797FC6946404610F0FAFB40F683
:1039B0007A01B86912F0B0FE07465949384610F04E
:1039C000C3FB0021384610F011FC56492320087033
:1039D0002C700020307005E540F671014E4C12F05D
:1039E0009BFE05466FF07041284610F0ADFB6FF06E
:1039F0007F41284610F0FAFB00200290474A06E07B
:103A00009DF8081050549DF80810491C02919DF82B
:103A100008100529F4D340F67501A06912F07CFE68
:103A200004463F49204610F08FFB0021204610F04D
:103A3000DDFB3C491F200870D4E440F67501364F89
:103A400012F06AFE80466FF07041404610F07CFB39
:103A50006FF07F41404610F0C9FB3348B0F8521078
:103A60000181018940F2DC52914201D9002101819A
:103A7000008900EE100AF8EE400A1FEDE21A80EE0F
:103A8000810A10EE100A23F0B7FD41EC100B53EC45
:103A9000102BAFF27C316846FCF71CFC69464046AF
:103AA00010F07FFB40F67101B86912F035FE074651
:103AB0001B49384610F048FB0021384610F096FBB1
:103AC0001849212008702C700020307013F0A4FFDA
:103AD00088E440F67201104C12F01EFE05466FF0AD
:103AE0007041284610F030FB6FF07F41284610F0FF
:103AF0007DFB40F67601A06912F00EFE04460849EF
:103B0000204610F021FB0021204610F06FFB0549F4
:103B10002020087066E40000740100204C010020A1
:103B2000FFFFBF001D010020580F002040F6760166
:103B3000124F12F0F1FD80466FF07041404610F0D8
:103B400003FB6FF07F41404610F050FB40F67201DE
:103B5000B86912F0E1FD07460949384610F0F4FA59
:103B60000021384610F042FB0649242008702C70D2
:103B70000020307013F050FF34E400007401002086
:103B8000FFFFBF001D01002070B5124C6279204676
:103B9000114D806940F69901012A0ED012F0BCFD4A
:103BA00006466FF07041304610F0CEFA2946304696
:103BB00010F01CFB2F20207070BD12F0ADFD0446EC
:103BC0002946204610F0C0FA0021204610F00EFBD6
:103BD00070BD000098010020FFFFBF002DE9FF47E6
:103BE0000446006810B113F0B9FC68B100223148F6
:103BF00050F8221060680A2841D007DCF0B306288C
:103C00000DD0072854D106E00122F0E712280AD08F
:103C100019284DD137E0204614F0AEFE48E020468A
:103C200016F038F844E0206803F084F90290B0F907
:103C3000548090F85650476C466B02A803F0C4F9C4
:103C4000206800F039F88146684612F03DFDBDF865
:103C5000001009EB05000844ADF80000246A304666
:103C600004F04EFD022004F08BFD384604F03EFDCA
:103C700042466946204603F031FD19E007E0204640
:103C800016F0F4FA14E0886904B0BDE8F087206803
:103C900013F028F9206803F04DF90390B0F90610ED
:103CA000B0F90220891A491CC16703A803F08CF9F6
:103CB0000020E9E74812040838B503F03BF900900A
:103CC000C46F684603F080F9204638BD044A0349B2
:103CD00011600449CA69C861104670470C0300208E
:103CE000D4060020D806002000B589B024216846FB
:103CF000FCF721FD192001900348006880684168A5
:103D00006846884709B000BDD406002070B5FF2280
:103D1000FF23084D05F5807605E010F8014B54406F
:103D20002A5D5A40335D491E89B2F6D243EA022029
:103D300070BD0000F27602081CB51B490120087016
:103D40001A4A192111701A4900240C701949087077
:103D50001948C18F4180B0F844108180B0F85210EA
:103D6000018116480470164804707021682010F014
:103D7000BCFF4FF48051134802F093F94FF4005107
:103D8000114802F08EF90221104802F08CF912F06D
:103D9000B7FC034600940E4A27210E48019403F015
:103DA000C1FA0D4988611CBD120100201D010020CF
:103DB000700000207A000020580F002054010020DD
:103DC00008010020000C02400004024000080240EC
:103DD0005525020848800208740100201CB50E48D1
:103DE000002404700D4804700D4804707021682090
:103DF00010F07BFF4FF480510A4802F052F912F0A4
:103E00007FFC03460094084A07210848019403F008
:103E100089FA074908601CBD120100207A000020C1
:103E200070000020000C02401D210208847F02085F
:103E3000600100207CB5134D132068730320A87027
:103E40001149087000242C72104804701048047046
:103E50004FF400510F4802F024F902210E4802F0FD
:103E600022F90E48818D01810D48047012F048FC42
:103E7000034600940B4A1A210B48019403F052FAAE
:103E8000A8627CBD100100207A00002054010020AF
:103E9000080100200004024000080240580F0020E2
:103EA00070000020910A0208EC7A02081CB515493E
:103EB0000520087014480024047014480470702110
:103EC000682010F012FF12480470124804704FF47A
:103ED0008051114802F0E5F84FF400510F4802F00C
:103EE000E0F802210E4802F0DEF812F009FC034669
:103EF00000940C4A20210C48019403F013FA0B495A
:103F000048601CBD120100201D010020700000202F
:103F10005401002008010020000C0240000402406F
:103F200000080240014302088C840208900100202E
:103F30001CB512F0E5FB0346002000900190044AF6
:103F40000121044803F0EEF9034948601CBD00005C
:103F500041580208048A0208C00100201CB5174914
:103F60000220087016490870164909200870164882
:103F700000240470154804701548B0F850104180B2
:103F8000B0F8541081807021682010F0AEFE4FF41C
:103F90008051104802F085F802210F4802F083F8A2
:103FA00012F0AEFB034600940C4A12210C48019417
:103FB00003F0B8F90B4948601CBD00001201002055
:103FC0007A0000201D010020700000205401002014
:103FD000580F0020000C0240000802403502020881
:103FE000F4780208080100201CB516490420087066
:103FF000154908701549172008701548B0F84A107F
:1040000001811448002404704FF40051124802F05A
:1040100048F8124804707021682010F066FE4FF4D2
:1040200080510F4802F03DF812F06AFB03460094FD
:104030000C4A10210C48019403F074F90B494860B4
:104040001CBD0000120100207A0000201D0100208C
:10405000580F0020080100200004024070000020DA
:10406000000C0240C1580208C47D0208540100201F
:104070007CB512F045FB0024034600940C4A122143
:104080000C48019403F04EF90B4DA8610B480470E5
:104090000B49072008700B4804700B4800784FF458
:1040A00000510A4801F0FDFF2F202870A8697CBD4F
:1040B0008D5102080C880208980100207000002031
:1040C00012010020540100200801002000040240D9
:1040D0000122064B8240002903D018681043186063
:1040E00070471868904318607047000000740040E3
:1040F00010B586B0012148070CF0FAFF102000909F
:1041000003208DF8040000248DF8074069460C4810
:1041100001F072FF029403944FF430600490022087
:10412000059002A9002000F00DF801210020FFF702
:10413000CFFF0121002000F023F806B010BD0000E1
:104140000000024030B5084C236840F6FE72824001
:104150009343D1E900252A43D1E902510D432A4373
:1041600082401A43226030BD0074004008B5034A03
:104170001044083000900098016008BD00740040B1
:1041800002090120054B9040002903D01968014322
:1041900019607047196881431960704704740040C2
:1041A00008B538208DF8000003208DF801008DF847
:1041B000020001208DF8030068460AF085FC08BD66
:1041C00001480068704700005803002010B50549F9
:1041D000054800F00DF80548016841F00201016052
:1041E00010BD000020800010106402403400002048
:1041F000074A904201D2074801E005481038064AB4
:104200008B0001EA020101D5C160704781607047EF
:1042100010640240006002407D0F7D0F002904D031
:10422000016841F0010101607047016821F001015E
:10423000016070470B0609D522B1436943F0800342
:10424000436103E0436923F080034361802905D083
:1042500001F01E011AB102680A4302607047026849
:104260008A4302607047000030B50368124A134069
:10427000CC680A682243D1E905452C432243CC6926
:1042800022430C6A22434C6A22438C6A22434C6BC1
:1042900022438C6B22431A430260426922F00703D7
:1042A000D1E90B2422431A4342610A6942604A68F9
:1042B00082608968C16030BD3F801CF0F8B505465A
:1042C000006802F037FE0090448ED0F8886068469F
:1042D00002F07AFE06B1012604F00104286813F00A
:1042E0003DF90EB1002006E00CB1012003E008B159
:1042F000022000E003201B4951F82010686858B3E1
:1043000002280CD0052802D0122828D103E0284624
:1043100014F05EFB23E0284616F03DFC1FE06A69BE
:10432000E8694FF0FF33801AA0F1080203EB620442
:10433000421CAB69001B4510A3EB6206C86904F080
:10434000D5F906E03219311B284603F075FB641ECF
:104350006D1C002CF6DA02E0286812F0C3FD002084
:10436000F8BD0000A8120408044A0349116004497A
:104370000A6B0863104670475C0300201407002096
:104380001807002038B50D46002402F0D3FD009038
:10439000C06B294602F0B0FE0546684602F014FEE6
:1043A0001DB1284602F0C6FD0446204638BD7047C0
:1043B00011B54FF47A7402E0204600F006F8BDF81B
:1043C00000104A1E0092F7D218BD01B582B000203D
:1043D0000190042110E0009100BF00BF00BF00BFAA
:1043E00000BFBDF80000401E0004000C0090F3D197
:1043F000BDF80400401C0190BDF80400BDF8082081
:104400009042E8D30EBD000010B52DED028B24497B
:104410000A78244CB2EE048A022AE0681FD0097898
:10442000032939D1204991ED000A20EE080ABDEE9A
:10443000C00A10EE101A09B201F00CFF1B4890EDF3
:10444000000A20EE080ABDEEC00A10EE100A01B202
:104450002069BDEC028BBDE8104001F0FBBE1449A1
:1044600091ED000A20EE080ABDEEC00A10EE101A07
:1044700009B201F0EFFE0F4890ED000A20EE080AA5
:10448000BDEEC00A10EE100A01B22069BDEC028B2D
:10449000BDE8104001F0DEBEBDEC028B10BD000097
:1044A0007B00002060010020280000203000002058
:1044B000240000202C00002031B521F06FFFA02047
:1044C00021F034FF21F09AFF70B99DF8000021F02F
:1044D0002DFF21F093FF38B921F060FFA12021F0DA
:1044E00025FF21F08BFF18B121F074FF002038BDAB
:1044F00021F0F0FE034C207021F0D4FE21F06AFF81
:10450000207838BD6800002070B50120FFF7D4FF87
:10451000FE4C20602068000220600220FFF7CCFFE4
:104520002168084420602068000220600320FFF713
:10453000C3FF216808442060206800022060042036
:10454000FFF7BAFF2168084420604020FFF7B4FF5E
:104550002062206A000220624120FFF7ADFF216A3D
:1045600008442062206A000220624220FFF7A4FF74
:10457000216A08442062206A000220624320FFF77B
:104580009BFF216A084420620520FFF795FF6060C9
:104590006068000260600620FFF78EFF61680844D3
:1045A00060606068000260600720FFF785FF616857
:1045B000084460606068000260600820FFF77CFFCC
:1045C0006168084460603320FFF776FFA060A06850
:1045D0000002A0603420FFF76FFFA1680844A060CC
:1045E000A0680002A0603520FFF766FFA1680844BC
:1045F000A060A0680002A0603620FFF75DFFA16800
:104600000844A0600920FFF757FFE060E06800025F
:10461000E0600A20FFF750FFE1680844E060E068CE
:104620000002E0600B20FFF747FFE1680844E0600C
:10463000E0680002E0600C20FFF73EFFE1680844FC
:10464000E0609420FFF738FF6062606A00026062F9
:104650009520FFF731FF616A08446062606A0002DA
:1046600060629620FFF728FF616A08446062606A12
:10467000000260629720FFF71FFF616A08446062D2
:104680000D20FFF719FFA24D288028884FF6FF76EE
:1046900006EA002028800E20FFF70EFF2988084434
:1046A00028804420FFF708FF2883288B06EA002093
:1046B00028834520FFF700FF298B084428830F201B
:1046C000FFF7FAFE6880688806EA002068801020FC
:1046D000FFF7F2FE6988084468803720FFF7ECFE98
:1046E000A880A88806EA0020A8803820FFF7E4FE0A
:1046F000A9880844A8801120FFF7DEFEE880E8883A
:1047000006EA0020E8801220FFF7D6FEE988084478
:10471000E8809820FFF7D0FE6883688B06EA0020C7
:1047200068839920FFF7C8FE698B084468831320CB
:10473000FFF7C2FE28814620FFF7BEFEE882142064
:10474000FFF7BAFE20612069000220611520FFF703
:10475000B3FE21690844206120690002206116200F
:10476000FFF7AAFE21690844206120690002206148
:104770001720FFF7A1FE2169084420611820FFF7E8
:104780009BFE60616069000260611920FFF794FE82
:104790006169084460616069000260611A20FFF786
:1047A0008BFE6169084460616069000260611B20E2
:1047B000FFF782FE6169084460613920FFF77CFEE3
:1047C000A061A0690002A0613A20FFF775FEA1690F
:1047D0000844A061A0690002A0613B20FFF76CFEC5
:1047E000A1690844A061A0690002A0613C20FFF714
:1047F00063FEA1690844A0611C20FFF75DFE68818B
:10480000688906EA002068811D20FFF755FE698946
:10481000084468811E20FFF74FFEA881A88906EA98
:104820000020A8811F20FFF747FEA9890844A8811E
:104830003D20FFF741FEE881E88906EA0020E88193
:104840003E20FFF739FEE9890844E8812020FFF780
:1048500033FE68822120FFF72FFE2882288A06EA8D
:10486000002028822220FFF727FE298A0844288278
:104870002320FFF721FEE061E0690002E0612420CF
:10488000FFF71AFEE1690844E061E0690002E061B7
:104890002520FFF711FEE1690844E061E0690002AC
:1048A000E0612620FFF708FEE1690844E061272067
:1048B000FFF702FEA8822A20FFF7FEFD154C20809C
:1048C000208806EA002020802B20FFF7F5FD2188B4
:1048D000084420802C20FFF7EFFDA080A08806EA86
:1048E0000020A0802D20FFF7E7FDA1880844A080CC
:1048F000503C2820FFF7E0FD074D2880288806EA75
:10490000002028802920FFF7D7FD07E0300F002086
:10491000140F0020A80F0020C6000020298808449A
:1049200028802F20FFF7C8FDE94908705620FFF7BF
:10493000C3FDE84908705520FFF7BEFDE649087041
:104940007420FFF7B9FDE54908705720FFF7B4FD63
:10495000E34908705820FFF7AFFDE249087059207D
:10496000FFF7AAFDE04908705A20FFF7A5FDDF49CF
:1049700008805B20FFF7A0FDDD4908805C20FFF781
:104980009BFDDC4908805D20FFF796FDDA49088031
:104990005E20FFF791FDD94908705F20FFF78CFD7D
:1049A000D74908706020FFF787FDD649087061205D
:1049B000FFF782FDD44908706220FFF77DFDD349DF
:1049C00008706320FFF778FDD14908706420FFF775
:1049D00073FDD04908706520FFF76EFDCE49087061
:1049E0006620FFF769FDCD4908706720FFF764FD79
:1049F000CB4908706820FFF75FFDCA49087069203D
:104A0000FFF75AFDC84908707520FFF755FDC749E3
:104A100008803020FFF750FDC54908703120FFF7AE
:104A20004BFDC44908703220FFF746FDC2490870AB
:104A300008780A2801D9002008704720FFF73CFDBC
:104A400024F81C0F208806EA002020804820FFF769
:104A500033FD2188084420804920FFF72DFD608028
:104A6000608806EA002060804A20FFF725FD618803
:104A7000084460804B20FFF71FFDA080A08806EA55
:104A80000020A0804C20FFF717FDA1880844A080DB
:104A90004D20FFF711FDE080E08806EA0020E0806D
:104AA0004E20FFF709FDE1880844E0804F20FFF722
:104AB00003FD2081208906EA002020815020FFF795
:104AC000FBFC2189084420815120FFF7F5FC60811F
:104AD000608906EA002060815220FFF7EDFC6189C1
:104AE000084460815320FFF7E7FCE085E08D06EA8B
:104AF0000020E0855420FFF7DFFCE18D0844E085CD
:104B00007020FFF7D9FC2082208A06EA002020824C
:104B10007120FFF7D1FC218A084420827220FFF720
:104B2000CBFC6082608A06EA002060827320FFF777
:104B3000C3FC618A084460827620FFF7BDFC608474
:104B4000608C06EA002060847720FFF7B5FC618C5A
:104B5000084460847C20FFF7AFFCA084A08C06EAA8
:104B60000020A0847D20FFF7A7FCA18C0844A0842E
:104B70007E20FFF7A1FCE084E08C06EA0020E084C0
:104B80007F20FFF799FCE18C0844E0848620FFF742
:104B900093FC6A4D2880288806EA00202880872018
:104BA000FFF78AFC2988084428808820FFF784FCC6
:104BB0006880688806EA002068808920FFF77CFC0E
:104BC0006988084468808A20FFF776FCA880A88856
:104BD00006EA0020A8808B20FFF76EFCA988084415
:104BE000A8807820FFF768FC2085208D06EA002049
:104BF00020857920FFF760FC218D084420858020E6
:104C0000FFF75AFC6085608D06EA002060858120F0
:104C1000FFF752FC618D084460858220FFF74CFC51
:104C2000A085A08D06EA0020A0858320FFF744FC24
:104C3000A18D0844A0858C20FFF73EFCE880E88821
:104C400006EA0020E8808D20FFF736FCE98808445A
:104C5000E8808E20FFF730FC2881288906EA0020B2
:104C600028818F20FFF728FC29890844288190207B
:104C7000FFF722FC6881688906EA0020688191209C
:104C8000FFF71AFC6989084468818420FFF714FC47
:104C90002B4908707A20FFF70FFCE086E08E06EAC9
:104CA0000020E0867B20FFF707FCE18E0844E086C9
:104CB0009220FFF701FC6083608B06EA002060838E
:104CC0009320FFF7F9FB618B0844608370BD0000FF
:104CD0008D00002014010020130100201C01002081
:104CE00090010020910100201B010020A80100205C
:104CF000AA010020AC010020AE0100209901002093
:104D00009A0100209B0100209C0100209E010020B0
:104D10009F010020A0010020A1010020A20100208D
:104D2000A3010020A4010020A501002020010020F3
:104D30008E0000209200002090000020C4870020F8
:104D40007401002003B583B0BDF80C00019021F080
:104D500041FB002002900BE021F020FBA02021F07D
:104D6000E5FA21F04BFB38B1BDF80800401C029079
:104D7000BDF808006428EFD3BDF80800B0F57A7FCD
:104D800010D0BDF80400C0B221F0D0FA21F036FBFB
:104D900040B99DF8100021F0C9FA21F02FFB08B9A5
:104DA00021F018FB05B05DF804EB21F013BB000007
:104DB0002DE9F041044694B0006800F0B7F908B15D
:104DC000D94D01E0D84D2C35606815281ED00CDC7B
:104DD0000B281FD004DC00287ED005287DD12EE1D1
:104DE0000E287BD01228F9D141E1162806D01728C9
:104DF00008D0182808D01C28F0D109E0E86914B0C0
:104E0000BDE8F081286AFAE7686AF8E7A86AF6E779
:104E10006869F4E720680B901C200C90206802F071
:104E200089F80390016D0BA88847064603A802F095
:104E3000CBF8022E0EDB95E807008DE80700D4E9D9
:104E400004023346A16904F0B5FB20698719A06903
:104E5000801B2BE0286803F049FC2169E8690A18E7
:104E6000521E606902F0E8FDA269E869111A491C46
:104E7000606902F0E1FD676920697F1C394602F034
:104E80001DFE3946A06902F019FE686803F02EFC89
:104E900020693946401C02F011FEA0693946401EC7
:104EA00002F00CFE2769A069BF1C801E804628689E
:104EB00003F01CFC42463946606902F0BDFD68689B
:104EC00003F014FC60694246401C394602F0B4FD10
:104ED000686A02280FDD02E015E1AFE000E1A86892
:104EE00003F004FC61696A6A881C8B1801465B1E2A
:104EF0004246384627E0296AB14226DD6069022E23
:104F0000074600F1020801DB374401E007F1020720
:104F1000206901DB304401E000F1020022693B46D8
:104F20000A44A2F10102414602F090FE022E02DB89
:104F3000A069821B01E0A269921EA069E9693B4653
:104F4000401A401C414602F081FE022E02DB6069DD
:104F5000064401E06669B61CE76928687F1E03F015
:104F6000C5FB3A463146206902F006FE3A46314614
:104F7000A06902F001FEE7696868BF1E03F0B6FB96
:104F800020693A46401C314602F0F6FDA0693A46D7
:104F9000401E314602F0F0FDE869022802DC286A72
:104FA000022823DDA86A022802DDE1690F1A01E068
:104FB000E769BF1EA86803F099FBE969022909DDCA
:104FC00020693B46421800F1020C521E31466046F1
:104FD00002F03CFE286A022808DDA269E8693B4627
:104FE000101A401C921E314602F030FE286803F071
:104FF0007DFBD4E90620216902F01EFD686803F0FC
:1050000075FBA2692169E069521E491C401E02F02D
:1050100013FDA86A022811DD2669A169E469B61C9E
:10502000271AA1F102087F1CA41EA86803F05EFBEA
:10503000234642463946304602F008FE72E0208A96
:1050400006B2ADF81460A08A01B2ADF81610208B3C
:1050500002B2ADF81820A08B03B2ADF81A30D5E932
:105060000304CDE90004304602F08EFC5AE0208AA9
:10507000298B0844ADF81400A08AADF81600208BE7
:10508000298B401AADF81800A08BADF81A002068E3
:1050900001F050FF0390006FF0B1022003F070FBAD
:1050A000039991F87C00C0F3C00001EB8000006C14
:1050B00003F01CFB0398406B03F022FB0398006F86
:1050C00001F038FF03990A90B1F95A2005A902F0BE
:1050D00005FB0AA801F078FF03A801F075FF21E0A5
:1050E000208AADF81400A08AADF81600208BADF828
:1050F0001800A08BADF81A00A86803F0F7FA05A80D
:1051000002F0C8FD0EE0206801F014FF039030F8B3
:105110005A1F41F00C01018003A801F055FF2068DF
:1051200011F0E0FE00206AE62C04002038B50024CF
:1051300050B101F0FFFE009090F87C00000700D510
:105140000124684601F040FF204638BD30B50446D2
:105150008BB0006801F0EEFE009090F87C10246A9D
:10516000006FC1F3C00508B101F0E4FE0690E068ED
:10517000029020690390A088401EADF81000E089DD
:10518000ADF812002089401CADF81400608AADF81B
:105190001600BDF80800401CADF80800BDF80A0074
:1051A000401CADF80A00BDF80C00401EADF80C0024
:1051B0000098406B03F0A4FA009808AA02A9B0F97D
:1051C0005A30069803F07EFD009800EB8500806B56
:1051D00008F09EFD009800EB8500006C08F0D0FD03
:1051E00008AB02AA04A9069810F05EFE684601F01A
:1051F000EBFE069810B106A801F0E6FE0BB0002009
:1052000030BD0000074A0649054B1160064A083BBD
:10521000D16958601B68C2E9063008467047000033
:1052200020040020540700205807002038B50D4600
:10523000040009D001F07EFE00900566684601F08A
:10524000C3FE204611F051FC38BD2DE9F34F85B067
:1052500000270C46B846059801F06CFE0090C06D22
:105260000121856805982A68904782462A680321AB
:105270000598904704902A6802210598904703906A
:105280002A680021059890470646009811F0ECFF27
:105290008346009811F0EFFF8146009890F8321095
:1052A000890601D5B0F9588000F036F80546009817
:1052B000C06E10B111F04EFB074625806780A4F840
:1052C00004A0049AABEB020006EB0802401E2A443D
:1052D00020813A44E280039BA9EB0302521E6281C3
:1052E000A4F80CA020827019E681401E60826846F6
:1052F00001F06AFEB4F90C000190B4F910000290BC
:1053000002AA01A9059800F039F80198A081029835
:10531000208207B0BDE8F08F10B50146002091F85B
:105320003220920607D5B1F95400002803D1486B0A
:1053300002F02EFD801C10BD70B58AB00C460546EB
:1053400001F0F8FD0990C06D866809A801F03CFEE7
:10535000009534B1012C06D0022C0BD0032C04D1C3
:105360000AE0182000E0162001907168684688471E
:105370000AB070BD1520F7E71720F5E72DE9FC47C7
:1053800090468946044601F0D5FD0090C16D056840
:1053900068468E6801F018FE32680021204690476A
:1053A0000646204611F0C0F92F1404462DB227E01E
:1053B00001F0C0FD0190B0F90010B0F90420B0F97F
:1053C0000230491B521BDB1BB34212D190F828005C
:1053D000000607D5D8F8000088420ADB491EC8F845
:1053E000001006E0D9F80000904202DC521CC9F817
:1053F000002001A801F0E8FD204611F025FA04463E
:10540000002CD5D1BDE8FC878000A0F1C040002968
:1054100004D0016841F00101016070470168024A4F
:105420001140016070470000FEFF0F0010B5D0E989
:1054300001121143D0E903231A4311434269114376
:1054400082691143C2691143026A1143426A1143DE
:10545000826A1143C26A1143026B114302689200CF
:10546000A2F1C04211608168082907D10168890052
:10547000A1F1C0410A6842F040020A60416BD1E9E3
:10548000002342EA03128B688C891B0243EA04431F
:105490001A430B8A42EA03520B7D896942EA03628E
:1054A0000A430168491C8900A1F1C0410A60C16A30
:1054B000B1F5804F08D000686FF070418000A0F116
:1054C000C040C0F8041110BD816BD1E9002342EA4D
:1054D00003128B680C8A1B0243EA04531A430B7DA8
:1054E000896942EA036200680A438000A0F1C04073
:1054F000C0F8042110BD000038B5E54C2068000E4E
:1055000000909DF800100120FFF71CFC2068000CA3
:1055100000909DF800100220FFF714FC2068000A9C
:1055200000909DF800100320FFF70CFC2068C1B22A
:105530000420FFF707FC6068000E00909DF8001043
:105540000520FFF7FFFB6068000C00909DF800103D
:105550000620FFF7F7FB6068000A00909DF8001036
:105560000720FFF7EFFB6068C1B20820FFF7EAFBF6
:10557000A068000E00909DF800103320FFF7E2FBBA
:10558000A068000C00909DF800103420FFF7DAFBB3
:10559000A068000A00909DF800103520FFF7D2FBAC
:1055A000A068C1B23620FFF7CDFBE068000E009086
:1055B0009DF800100920FFF7C5FBE068000C009083
:1055C0009DF800100A20FFF7BDFBE068000A00907C
:1055D0009DF800100B20FFF7B5FBE068C1B20C206E
:1055E000FFF7B0FB606A000E00909DF80010942059
:1055F000FFF7A8FB606A000C00909DF80010952052
:10560000FFF7A0FB606A000A00909DF8001096204A
:10561000FFF798FB606AC1B29720FFF793FB206AFF
:10562000000E00909DF800104020FFF78BFB206AD1
:10563000000C00909DF800104120FFF783FB206ACA
:10564000000A00909DF800104220FFF77BFB206AC3
:10565000C1B24320FFF776FB8E4D2888000A0090E8
:105660009DF800100D20FFF76DFB2888C1B20E20B9
:10567000FFF768FB6888000A00909DF800100F2073
:10568000FFF760FB6888C1B21020FFF75BFBA888BA
:10569000000A00909DF800103720FFF753FBA88800
:1056A000C1B23820FFF74EFBE888000A00909DF851
:1056B00000101120FFF746FBE888C1B21220FFF767
:1056C00041FB688B000A00909DF800109820FFF7BE
:1056D00039FB688BC1B29920FFF734FB288B000A95
:1056E00000909DF800104420FFF72CFB288BC1B2DE
:1056F0004520FFF727FB2889C1B21320FFF722FBC3
:10570000E88AC1B24620FFF71DFB2069000E009019
:105710009DF800101420FFF715FB2069000C009085
:105720009DF800101520FFF70DFB2069000A00907E
:105730009DF800101620FFF705FB2069C1B2172065
:10574000FFF700FB6069000E00909DF80010182024
:10575000FFF7F8FA6069000C00909DF8001019201E
:10576000FFF7F0FA6069000A00909DF800101A2017
:10577000FFF7E8FA6069C1B21B20FFF7E3FAA069FE
:10578000000E00909DF800103920FFF7DBFAA069A9
:10579000000C00909DF800103A20FFF7D3FAA069A2
:1057A000000A00909DF800103B20FFF7CBFAA0699B
:1057B000C1B23C20FFF7C6FA6889000A00909DF844
:1057C00000101C20FFF7BEFA6889C1B21D20FFF748
:1057D000B9FAA889000A00909DF800101E20FFF772
:1057E000B1FAA889C1B21F20FFF7ACFAE889000A14
:1057F00000909DF800103D20FFF7A4FAE889C1B29F
:105800003E20FFF79FFA688AC1B22020FFF79AFA7C
:10581000288A000A00909DF800102120FFF792FAD4
:10582000288AC1B22220FFF78DFAE069000E0090AD
:105830009DF800102320FFF785FAE069000C009026
:105840009DF800102420FFF77DFAE069000A00901F
:105850009DF800102520FFF775FAE069C1B22620F7
:10586000FFF770FAA88AC1B22720FFF76BFA0A4C3B
:105870002088000A00909DF800102820FFF762FAA7
:105880002088BDE83840C1B22920FFF75BBA00008C
:10589000300F0020140F0020C60000202DE9F04337
:1058A0000446C56887B090468946002002F026FF6E
:1058B000064625B1287910B146F0020001E026F035
:1058C000020002F01BFF2069012558B1D4E9021241
:1058D0008DE826000395638822880468414648467F
:1058E000A0471EE0124F134B214638681B68427CCC
:1058F000E068984730B9E088012801D0002001E035
:105900003868806BA288E388A1680095CDE904100F
:10591000CDE902320195638822884146484607F066
:1059200019FE07B03046BDE8F04302F0E7BE0000C4
:10593000E4010020DC0100201CB50024019401AC2E
:10594000009400F0E7F81CBD2DE9FF4F83B08146BD
:1059500006988A46A0EB0A08109E00200090A2EB51
:1059600009043568934654EA080018D02046FCF72D
:105970004EFB07464046FCF74AFB87420BDA2046BF
:10598000444680464846D14682465846DDF818B01F
:10599000069001200090002C07DD204606E007B0AD
:1059A0004846BDE8F04F00F03BB96042A0420AD043
:1059B0004846D9466442C8F1000883464FF0FF3795
:1059C000DDF818A000E001275148B8F1000F11D010
:1059D00004EBD4714FEA610B01DACBF1000B4C48B8
:1059E0000068807E88B3002F02DA3068204430607F
:1059F00000257BE000990029016821D0897E11B142
:105A00000027804615E007B05A4649465046BDE893
:105A1000F04F07F003BF28466D1C19F0EBFB38B9B7
:105A2000D8F8000009EB0701C06E42685046904765
:105A30007F1CA742EFDD6D1E356007B0BDE8F08F1B
:105A40008A7E1AB10027804617E019E0C86E5A46D0
:105A50005146036807B04846BDE8F04F184728464E
:105A60006D1C19F0C7FB38B9D8F8001009EB070016
:105A7000C96E4A68514690477F1CA742EFDDDAE7BE
:105A800000250FE008FB05B090FBF4F101EB0A00E4
:105A9000009951B11E4A09EB05011268D26E526895
:105AA00090476D1CA542EDDDC7E7194909EB0503D9
:105AB0000968C96E4A6801461846F1E708FB05B057
:105AC00090FBF4F101EB0A0001903068384430603B
:105AD00019F090FB48B9009890B10D4809EB050109
