:020000040800F2
:10000000B88F002095020008BDE40008A99B0008F5
:100010005DE4000855230008914B01080000000032
:10002000000000000000000000000000952701080B
:100030003742000800000000F5090108E138010816
:10004000AF020008AF020008AF020008AF020008CC
:10005000AF020008AF020008AF020008AF020008BC
:10006000AF020008AF020008AF020008AF020008AC
:10007000AF020008AF020008AF020008AF0200089C
:10008000AF020008AF020008AF020008AF0200088C
:10009000AF020008AF020008AF020008AF0200087C
:1000A000AF020008AF020008AF020008AF0200086C
:1000B000AF020008F13D0108AF020008AF020008DE
:1000C000AF020008AF020008AF020008AF0200084C
:1000D000AF020008D9480108AF020008AF020008CB
:1000E000AF020008AF020008AF020008AF0200082C
:1000F000AF020008AF020008AF020008AF0200081C
:10010000AF020008AF020008AF020008AF0200080B
:10011000AF020008AF020008F1400108AF0200087A
:1001200059400008AF020008AF020008AF02000803
:10013000AF020008AF020008AF020008AF020008DB
:10014000AF020008AF020008AF0200089DEC0008F3
:10015000AF020008AF020008AF020008AF020008BB
:10016000AF020008AF020008AF020008AF020008AB
:10017000AF020008AF020008AF020008AF0200089B
:10018000AF020008AF02000800F002F800F072F8B9
:100190000AA090E8000C82448344AAF10107DA45E2
:1001A00001D100F067F8AFF2090EBAE80F0013F0C2
:1001B000010F18BFFB1A43F001031847CC350400A8
:1001C000EC3504000A444FF0000C10F8013B13F02A
:1001D000070408BF10F8014B1D1108BF10F8015BA0
:1001E000641E05D010F8016B641E01F8016BF9D193
:1001F00013F0080F1EBF10F8014BAD1C0C1B09D1EA
:100200006D1E58BF01F801CBFAD505E014F8016B5B
:1002100001F8016B6D1EF9D59142D6D370470000ED
:100220000023002400250026103A28BF78C1FBD8FF
:10023000520728BF30C148BF0B607047662926F0BF
:100240004682642900F08480002070471FB526F0A4
:1002500034FA00F0CFFD04000020002125F0EAFC74
:10026000401C60600020002125F0CEFCE0601FBD36
:1002700010B510BD00F00AFF1146FFF7E7FF25F0AB
:10028000F5F800F036FF03B4FFF7F2FF03BC00F00F
:1002900077FF00000948804709480047FEE7FEE76E
:1002A000FEE7FEE7FEE7FEE7FEE7FEE7FEE7FEE726
:1002B00004480549054A064B70470000A939010862
:1002C00089010008B8890020B88F0020B88B002071
:1002D000B88B00200FB41CB5074B06AA7B446946B7
:1002E0000090059800F0CBFC0020694600F0DAFC95
:1002F0001CBC5DF814FB0000C509000070B5044685
:1003000085690068C10601D5302600E02026C007B7
:1003100008D070BDD4E9012130469047206A00F131
:10032000010020626D1EF5D570BD70B5044685696B
:100330000068C00708D170BDD4E901212020904792
:10034000206A00F1010020626D1EF5D570BD00002D
:100350002DE9F0410746002510687529394616A495
:1003600011D0AFF30080002803DAC0F1000013A41D
:1003700007E039688A0701D511A402E0490704D5CE
:1003800010A4012501E0AFF3008000210A2307F14A
:10039000240607E0B0FBF3F203FB12003030705488
:1003A0001046491C0028F5D12B4622463846BDE8A8
:1003B000F04100F0F3B90000000000002D00000043
:1003C0002B000000200000002DE9F05F0446894664
:1003D0004FF0000ADFF828B1FB44C0F820A0204607
:1003E000E168884700287CD0252806D0D4E901217F
:1003F0009047206A401C2062F1E700255F462046B6
:10040000E16888472028064608DB312E06D207EB34
:10041000060010F8200C08B10543F0E7A80701D545
:1004200025F00405C4F81CA00027C4F818A02A2E43
:1004300009D0304624F0CCFE38B304EB8708303EB8
:10044000C8F8186019E059F8041B204604EB87022D
:100450009161E1688847012F064618D1E0690028BC
:1004600020DA25F020051DE0D8F8180000EB800008
:1004700006EB40003038C8F818002046E16888478D
:10048000064624F0A5FE0028EED1012F0AD02E2E1C
:1004900008D12046E16888477F1C0646022F45F0B8
:1004A0002005C4DBA069002803DA404245F00105BD
:1004B000A061E80701D025F0100596B1A6F1410032
:1004C000192802D8203645F400654A4631462046B0
:1004D00025604D46FFF7B2FE60B1012807D0ED1D43
:1004E00000E009E025F0070000F1080977E705F1D1
:1004F000040974E7304679E7206ABDE8F09F000000
:10050000D832040070B5064600F044F90468054688
:1005100030460A22002100F0CAFB2C6070BD40EA80
:100520000103024630B59B0710D14FF0013400E0C3
:1005300008C208C91D1B9D4315EAC41FF8D013F05B
:10054000FF0102F8011B0DD01B0AF8E711F8013B6F
:10055000002B02F8013B05D011F8013B002B02F8FB
:10056000013BF3D130BD10B5431C02E010F8011B74
:1005700071B18107FAD14FF0013202C88C1A8C4355
:1005800014EAC211F9D0C01A0A0603D0C01E10BD69
:10059000C01A10BD0A0401D0801E10BD0902FCD093
:1005A000401E10BD421E12F8013F002BFBD111F876
:1005B000013B002B02F8013BF9D17047032A40F2BE
:1005C000308010F0030C00F0158011F8013BBCF1F5
:1005D000020F624498BF11F801CB00F8013B38BF0D
:1005E00011F8013BA2F1040298BF00F801CB38BF1B
:1005F00000F8013B11F0030300F06780083AC0F0F7
:10060000088051F8043B083A51F804CBA0E80810E0
:10061000F5E7121D5CBF51F8043B40F8043BAFF313
:100620000080D20724BF11F8013B11F801CB48BF6D
:1006300011F8012B24BF00F8013B00F801CB48BFA3
:1006400000F8012B7047431A28BF9A427FF6B6AFD5
:10065000032A1044114440F2268010F0030F1EBFFD
:1006600011F8013D521E00F8013D10F0030F7FF418
:10067000F6AF11F0030300F06583083AC0F00B8079
:1006800051F8043D083A51F804CD40F8043D40F8D3
:1006900004CDFFF7F3BF121D5CBF51F8043D40F8D5
:1006A000043DAFF30080D20724BF11F8013D11F8DB
:1006B00001CD48BF11F8012C24BF00F8013D00F81E
:1006C00001CD48BF00F8012C704710B5203AC0F0AA
:1006D0000B80B1E81850203AA0E81850B1E8185043
:1006E000A0E81850BFF4F5AF5FEA027C24BFB1E880
:1006F0001850A0E8185044BF18C918C0BDE81040F1
:100700005FEA827C24BF51F8043B40F8043B08BFF9
:100710007047D20728BF31F8023B48BF11F8012BC0
:1007200028BF20F8023B48BF00F8012B704702F0B9
:10073000FF0343EA032242EA024200F02FBB4FF0DC
:10074000000200B5134694469646203922BFA0E821
:100750000C50A0E80C50B1F12001BFF4F7AF09072D
:1007600028BFA0E80C5048BF0CC05DF804EB89001E
:1007700028BF40F8042B08BF704748BF20F8022B61
:1007800011F0804F18BF00F8012B70477047704779
:100790007047000000487047548900202DE9F04759
:1007A0000D4604469246994600F1240801688806E1
:1007B00004D5E06921F01001216000E00120A84289
:1007C00002DDA0EB050700E00027A16907EB0502A9
:1007D00002EB0900A1EB0000A0612068C00602D472
:1007E0002046FFF78BFD002608E0D4E901211AF826
:1007F00006009047206A401C761C20624E45F4DBC0
:100800002068C0060AD52046FFF778FD06E0D4E947
:10081000012130209047206A401C2062381EA7F139
:100820000107F4DC07E0D4E9012118F8050090473E
:10083000206A401C2062281EA5F10105F3DC204639
:10084000FFF773FD2068000602D50220BDE8F0879F
:100850000120FBE770472DE9FF4F0C461E464FF085
:10086000FF378BB0D2E90001DDF860800A908A463C
:10087000C1F30A5505B93D46002108464FF0000076
:10088000BAF1000F00F4400005DA00EB80004FF4ED
:10089000400101EA50004FEA9059B9F1010F00DD23
:1008A000B9460A9850EA4A000FD044F61050A5F213
:1008B000FF3545432F14B8F1000F1FD07542291E94
:1008C0001FDD4846C9F100021CE0B8F1010F4FF0EE
:1008D000000001D1F24307E0302101E02154401C27
:1008E000B042FBDB30460022002121540B99C1F8B5
:1008F0000880C1E900200FB0BDE8F08FBD1B6D1C62
:10090000DDE74A4600DA694206A800F04DFB06AB77
:1009100007CB03AB07C350460A9900F038FC8DE8BB
:100920000700A0F500501F3800900398002D09DD46
:1009300042F21F014A46084403A90390684600F0AA
:1009400097FE08E0A0F500504A461F3803A903901F
:10095000684600F0A1FE8DE807000004000C03D0FB
:100960004FF0FF30410800E01046B8F1000F03D00F
:100970000022009215461FE0751E06D400F03EFAD4
:1009800002F1300262556D1EF8D5B34601220843CC
:1009900002D000227F1C04E02078302801D1002200
:1009A0007F1E002A099786D01DE0112D07DA00F07E
:1009B00025FA303262556D1C50EA0102F5D1084328
:1009C0000FD10021681E05E0235C625C6354491C62
:1009D0002254401E8142F7DBAB46A81B401E099003
:1009E00001E0009848B1002004F80B000B98099A28
:1009F000C0F80880C0E9002B7DE711264FF0000801
:100A000059E72DE9F04F88460446D21D22F0070130
:100A100091B0D1E90001CDE90A011EF02BFA02469E
:100A20000B98C00F01D02D2007E02068810701D569
:100A30002B2002E0202101EAC000032A099001D006
:100A4000072A05DB03464146204600F01DFA0EE169
:100A50002068800601D5E06900E00620B8F1650F46
:100A6000814606D0B8F1660F18D0B8F1670F72D181
:100A700032E00020B9F1110F009001DB112301E0F9
:100A800009F101030AAA01A90CA8FFF7E4FEDDE9B8
:100A90000C70002609F10105834648E001204B4611
:100AA00000904FF000470AAA01A90CA8FFF7D3FE57
:100AB000DDE90C050E990026AB4619B909F10101D3
:100AC00000EB0105B9EB050003D4C0F1FF3609F1D5
:100AD0000105A5EB09002BE0B9F1010F01DA4FF098
:100AE00001090020B9F1110F0090484601DD1123E2
:100AF00000E003460AAA01A90CA8FFF7ACFEDDE955
:100B00000C704D4600268346206800070AD4AB458A
:100B100000DA5D4601A8012D04DD411911F8011C20
:100B2000302907D04F4502DA17F1040F04DA01200B
:100B3000824610E06D1EEEE7002F02DCED1B3E4406
:100B400003E0781CA84200DD0546A7EB060000F193
:100B5000010A4FF000472068000703D4AA4501DBD3
:100B60004FF0FF3A0021B7F1004F0DF143088DF827
:100B7000431022D002202B23002F01DA7F422D23A5
:100B80000A22011EA0F1010000DC4FB197FBF2F137
:100B900002FB117C0F460CF1300C08F801CDF0E798
:100BA000A8F1010003702168090501D5452100E085
:100BB0006521A0F1010800F8011C09980FA9A1EB1B
:100BC000080707F1070700B1012000EB050101EB61
:100BD000EA70A1693844A1EB0000A0F10100A06116
:100BE0002068C00602D42046FFF788FB099830B180
:100BF000D4E901219047206A00F1010020622068B9
:100C0000C00620D52046FFF779FB1CE0002E04DB50
:100C1000B34502DD01A8805D00E03020D4E9012168
:100C20009047206A761C401CBAF1010A20620AD162
:100C300000F0E0F8C0680168405CD4E90121904709
:100C4000206A401C2062281EA5F10105DEDC07E0B9
:100C5000D4E9012118F8010B9047206A401C20625A
:100C6000381EA7F10107F3DC2046FFF75EFB0220E8
:100C700011B041E601694A1C02610878704700B56D
:100C80008FB0CDE901310021059105497944CDE9C5
:100C9000031011466846FFF797FB0FB000BD000038
:100CA000E5FFFFFF0A6802F8010B0A6070472DE9B3
:100CB000F0470F46914680460446002614F8015B33
:100CC0002DB100F08FF80068405DC007F6D12B2DE4
:100CD00002D02D2D18D0641E4A463946204600F019
:100CE00013F927B13968A14201D1C7F800804FF04C
:100CF000020471050BD54042002803DDFFF74AFDD1
:100D00000460A007BDE8F08746F48066E4E70028A9
:100D1000F8DAFFF73FFD04606FF00040F2E7431A96
:100D200028BF9A427FF6D1AC104410F0030F114453
:100D30001EBF11F8013D521E00F8013D10F0030FD7
:100D40007FF4F6AF103AC0F00A8010B531E91850C0
:100D5000103A20E91850BFF4F9AFBDE8104053072E
:100D600024BF31E9081020E9081044BF51F8043DC0
:100D700040F8043D12F0030F08BF7047D20728BFA8
:100D800031F8023D48BF11F8012C28BF20F8023D80
:100D900048BF00F8012C70474FF000020429C0F052
:100DA000128010F0030C3FF4CCACCCF1040CBCF17D
:100DB000020F18BF00F8012BA8BF20F8022BA1EBEF
:100DC0000C01FFF7BEBC5FEAC17C24BF00F8012B19
:100DD00000F8012B48BF00F8012B7047004870470E
:100DE0005489002010B500F005F8001D10BD00BFAB
:100DF000454E0200004870477489002030B5B0F1BC
:100E00000A024FEA900E71F100034EEA817EB0EBC8
:100E10000E0061EB91014FEA101E4EEA017E10EBCD
:100E20000E0041EB11114FEA102E4EEA016E10EB4D
:100E30000E0041EB11214FEA104E4EEA014E10EB2D
:100E40000E0041EB1141401841F100014FEAD00082
:100E500040EA41704FEAD10110EB80054FEA81046E
:100E600044EA907444EB01046D1944EB0404521BF2
:100E7000A3414FF0000348BF0A3200D530BD401CEB
:100E800041F1000130BD00002DE9F04104461F464C
:100E900003260168072A01F4006004DB08B116A5E7
:100EA00005E016A503E008B115A500E015A521F0A1
:100EB00010002060A069C01EA0610FB1401EA0619B
:100EC0002046FFF71BFA4FB1D4E90121384690477D
:100ED000206A401C2062C01C206206E0206AFAE7FB
:100EE000D4E9012115F8010B9047761EF8D220466F
:100EF000FFF71BFABDE8F0814E414E006E616E00B7
:100F0000494E4600696E66002DE9F05F82468B46C9
:100F1000154600270AF10104B9460078302801D0AF
:100F20009DB113E014F8010B0127782803D058284D
:100F300001D045B10AE00DB1102D07D1002714F8FA
:100F4000010B102502E0082500E00A250026B04626
:100F50000EE005FB080005FB06F101271FFA80F8EB
:100F600001EB1046B6F5803F00D3B94614F8010BEB
:100F7000294600F0B0F80028EBDABBF1000F05D0ED
:100F80000FB1641E00E05446CBF80040B9F1000FE9
:100F900006D0FFF7FFFB02210160C81EBDE8F09FED
:100FA00048EA0640FAE700002DE9F0478146164678
:100FB0008AB035487844D0E9002380680092CDE9B2
:100FC0000130314878440C38D0E90223006903929B
:100FD0004FF03702CDE9043041F69B30014491FBDC
:100FE000F2F0A0F1800502FB10141B3C02D5644214
:100FF000012000E00020DFF890A080460027FA449E
:10100000AAF1C60A0DE0E00709D03246684607EBB0
:1010100047010AEB810100F03FFB8DE807006410F7
:101020007F1C002CEFD1184F7F44B43F17E0E80736
:1010300013D007EB04100DF1180A90E80E00AAE88F
:101040000E00C068F04201D198190890324606A9F6
:1010500003A800F021FB03AB07C36D10641C002D37
:10106000E5D132466946B8F1000F03A802D000F07E
:10107000FFFA01E000F010FBC9E90001C9F80820FF
:101080000AB0BDE8F08700008C2704007546FFF722
:10109000A5FEAE4605006946534620F0070085468A
:1010A00018B020B5FFF704F9BDE820404FF0000666
:1010B0004FF000074FF000084FF0000B21F0070140
:1010C000AC46ACE8C009ACE8C009ACE8C009ACE883
:1010D000C0098D4670473A2800D2303820F02002EF
:1010E000412A01D3A2F13700884201D34FF0FF30EB
:1010F00070470446AFF300802046FFF7C4F80000B5
:101100004FF0013C50F8042B51F8043B9A4221D196
:10111000A2EB0C03934313EACC1317D150F8042B22
:1011200051F8043B9A4215D1A2EB0C03934313EA06
:10113000CC130BD150F8042B51F8043B9A4209D13F
:10114000A2EB0C03934313EACC13DBD04FF0000067
:10115000704700BFD01A01BAB1FA81F101F018014D
:1011600022FA01F0CB40C1F12001DBB2C0B2C01ABB
:101170002CFA01F3D11A914311EAC311E6D1704759
:1011800001491820ABBEFEE72600020070475FEA67
:10119000400C08BF91F0000F4FEA8C234FEAC122A8
:1011A00043EA51514FEA1C5018BF00F5F0404FEA96
:1011B000300018BF41F000415FEA6C5C00F029800C
:1011C000BCF1FF3F08BF40F080407047130C06BFE2
:1011D00012044FF0100C4FF0000C130E04BF12025B
:1011E0000CF1080C130F04BF12010CF1040C930F47
:1011F00004BF92000CF1020CD30F04BF52000CF19B
:10120000010C11464FF00002A0F11F00A0EB0C00F2
:10121000704711F0004F08BF704731F000413FF4B4
:10122000D5AF0B0C06BF09044FF0100C4FF0000CAB
:101230000B0E04BF09020CF1080C0B0F04BF0901CF
:101240000CF1040C8B0F04BF89000CF1020CCB0FC6
:1012500004BF49000CF1010CCCF12003A0EB0C0001
:1012600022FA03F302FA0CF241EA030100F1010051
:10127000704720F07F4C80EA030023F07F47ACEBFF
:10128000070303F57C5300F0004003F1FF032DE951
:1012900080494FEA154B09B44FEA144325EA0B4E37
:1012A00024EA03480FF2042606EB132749083E7888
:1012B0005FEA320203FB0667C7F5000707FB06F685
:1012C0004FEA54374FEAD64606F1020607FB066C92
:1012D000CCF1005C4FEA1C472CEA074C07FB06F4F4
:1012E0000CFB06F504EB15464FEA961634BF0020BA
:1012F0004FF000404FEAD13706FB07FC4FEA1C4C89
:101300000CFB0BF7D21B03FB0CF761EB07010CFB8B
:101310000EF7B0EB074072EB17420CFB08F734BF37
:10132000A2EB0742B2EB074261EB17414FEA0C44D4
:101330004FEA910706FB07FC4FEA1C4C0CFB0BF72E
:10134000B0EBC74072EB573203FB0CF734BFA2EB94
:10135000C742B2EBC74261EB57310CFB0EF7B0EB63
:10136000C70072EB57720CFB08F734BFA2EBC70241
:10137000B2EBC70261EB5771039F4FEA816141EA0B
:10138000921104EBCC044FEAD1374FEA826206FB9C
:1013900007FC42EA90124FEA80604FEA1C4C0CFBBB
:1013A0000BF7D21B03FB0CF761EB07010CFB0EF7ED
:1013B000B0EB074072EB17420CFB08F734BFA2EB0F
:1013C0000742B2EB074261EB17414FEA8C554FEAF7
:1013D000910704EB9C2406FB07FC4FEA1C4C0CFB1A
:1013E0000BF7B0EBC74072EB573203FB0CF734BF7F
:1013F000A2EBC742B2EBC74261EB57310CFB0EF7D1
:10140000B0EBC70072EB57720CFB08F734BFA2EBCE
:10141000C702B2EBC70261EB577115EB4C254FEADF
:10142000816141EA92114FEA82624FEAD13742EA82
:10143000901206FB07FC44F100044FEA80604FEA7B
:101440001C4C0CFB0BF7D21B03FB0CF761EB0701E9
:101450000CFB0EF7B0EB074072EB17420CFB08F7E2
:1014600034BFA2EB0742B2EB074261EB174115EB29
:101470001C154FEA813141EA92414FEA823242EA39
:1014800090424FEA80304FEA0C7644F1000448EA7B
:1014900003434EEA0B484FF0000EB2EB080C71EB21
:1014A000030724BF624639464EEB0E0E4FF0000B89
:1014B0000018524149414BEB0B0BB2EB080C71EB9E
:1014C00003077BF1000B24BF624639464EEB0E0E3C
:1014D0004FF0000B0018524149414BEB0B0BB2EBA4
:1014E000080C71EB03077BF1000B24BF6246394601
:1014F0004EEB0E0E51EA020718BF46F0010616EB3E
:101500000E7655F1000254F1000103D5BDE88901C2
:10151000BDE80088BDE88901BDE80048B619524120
:1015200041EB0101A3F10103704780807F7E7D7C48
:101530007B7A7978777676757473727171706F6E65
:101540006E6D6C6C6B6A6A69686867666665646410
:10155000636362616160605F5F5E5E5D5D5C5C5B9A
:101560005B5A5A5959585857575656555555545409
:10157000535352525251515050504F4F4F4E4E4D67
:101580004D4D4C4C4C4B4B4B4A4A4A4949494848B3
:1015900048474747474646464545454444444443F3
:1015A00043434342424242414141002B26D477000B
:1015B00021D01CB54FEA370703B44FF010004FF0AD
:1015C00010014FF000000FBCBDE810400BF1010B03
:1015D000BBF1010F08BF5FEA170722BF12F101023A
:1015E00011F101014FF0004143F1000300F0004010
:1015F00043EA00007047F9D35708DAE746EA06469F
:1016000013F1400F4FEA16461FDD13F1200FDFBF25
:1016100016430A46002120335B42C8D0C3F120079D
:1016200046EA064602FA07F74FEA164646EA070672
:10163000C3F1200722FA03F201FA07F721FA03F1B6
:101640004FF0000342EA0702B1E746EA020646EA23
:1016500006464FEA164646EA0106BCBF46EA06467B
:10166000360C4FF000034FF000024FF000019EE7F0
:101670002DE9C048934630B491E8380007C831EAF4
:10168000400C48BF34EA430C03D5FFF7F2FDFFF7E7
:101690008CFFF0BCBDE800882DE9C048934630B40B
:1016A00091E8380007C810F0804F08BF13F0804F52
:1016B00003D100F005F8FFF778FFF0BCBDE8008823
:1016C00020F07F4780EA030023F07F4C07EB0C03F8
:1016D000A3F57C5300F00040A3F1FE0392F0000F4D
:1016E00000F0B38095F0000F00F077802DE90149FC
:1016F0004FEA11404FEA144621EA004800FB06FC7D
:1017000024EA064708FB06F607FB08F800FB07F784
:1017100018EB06484CEB164C4FEA124B18EB0748F7
:101720004FEA15464CEB174022EA0B4E0BFB06FC2A
:1017300025EA06470EFB06F607FB0EFE0BFB07F736
:101740001EEB064E4CEB164C4FF000061EEB074E00
:101750004CEB174B18EB0B0840F1000018EB0E0B8D
:1017600058EB000840F100008F1A4FF000013CBF19
:10177000C943661B14BFB5EB040C00213CBFC94331
:10178000F61B4FEA17444EEA8E0E27EA04454FEA4D
:101790001C4704FB07622CEA074C05FB07F70CFB10
:1017A00005F604FB0CFC16EB074642EB174216EB62
:1017B0000C4642EB1C421BEB060658EB0202414171
:1017C00046EA9E0601D5BDE80189B619524141EBB2
:1017D0000101A3F10103BDE801894FEA14454FEA75
:1017E000114724EA054621EA074C05FB07F406FBEE
:1017F00007F70CFB06F105FB0CFC11EB074144EB72
:1018000017444FEA124711EB0C4144EB1C4422EA07
:10181000074C05FB07F206FB07F70CFB06F605FB7A
:101820000CFC16EB074642EB174216EB0C4642EB5C
:101830001C456A1854F1000148BF7047B61952415F
:1018400041EB0101A3F10103704795F0000F37D080
:101850004FEA11424FEA144721EA024624EA074CB4
:1018600002FB07F106FB07F70CFB06F402FB0CFC7E
:1018700014EB074441EB17414FEA154714EB0C44B6
:1018800041EB1C4125EA074C02FB07F506FB07F775
:101890000CFB06F602FB0CFC16EB074645EB174566
:1018A00016EB0C4645EB1C42121951F1000148BFE2
:1018B0007047B619524141EB0101A3F10103704792
:1018C0004FEA14454FEA114724EA054621EA074C3E
:1018D00005FB07F106FB07F70CFB06F24FF00006CD
:1018E00005FB0CFC12EB074241EB174112EB0C42DB
:1018F00051EB1C4148BF7047921841EB0101A3F125
:10190000010370472DE9F0419CB001210F023846D8
:101910000FF014F9012188050FF0ECF8202601964C
:1019200003258DF8085000248DF80B40DFF85C810A
:1019300001A9404604F0FEF9402001908DF80850BE
:101940008DF80B4001A9404604F0F4F910200190F5
:101950008DF808508DF80B40DFF8348101A940461E
:1019600004F0E8F901968DF808508DF80B4001A9B4
:10197000404604F0DFF9012601968DF808508DF8F5
:101980000B40DFF8108101A9404604F0D3F9022092
:1019900001908DF808508DF80B4001A9404604F0E5
:1019A000C9F903943C4804903C48059006944FF4D0
:1019B000967007900894B002099040000A90800049
:1019C0000B900C9700010D900E940F9610941194AB
:1019D000334D03A9284602F08BFB0121284602F073
:1019E00063FB01221021284602F069FB02F01EFB76
:1019F000294D01214C3D284600F0C6F9129413945C
:101A00001494159412A800F0A7F916948DF85C6050
:101A10008DF85D6019941A9406208DF86C0016A953
:101A2000284600F0C7F9042301220521284600F0CA
:101A3000E7F9002302220621284600F0E1F90023FD
:101A400003220821284600F0DBF9002304220921A3
:101A5000284600F0D5F9002305220E21284600F083
:101A6000CFF9002306220F21284600F0C9F90121F1
:101A7000284600F065F9284600F000FA01212846C2
:101A800000F08DF91CB0BDE8F081000000000240BC
:101A900000080240000402404C200140A808002039
:101AA000106402402DE9F04F0020A24A4FF00609D1
:101AB00002F5167402F5487502F5617602F57A773B
:101AC00002F52F7C9C4902F24C484FF4967E4CE084
:101AD000B0FBF9F309FB130353B1012B12D0022B16
:101AE0001AD0032B22D0042B2AD0052B32D03AE077
:101AF00032F810B091F800A00AF101030B7024F83D
:101B00001AB030E032F810B091F801A00AF10103E8
:101B10004B7028F81AB026E032F810B091F802A005
:101B20000AF101038B7025F81AB01CE032F810B0EE
:101B300091F803A00AF10103CB702CF81AB012E05F
:101B400032F810B091F804A00AF101030B7127F8E4
:101B50001AB008E032F810B091F805A00AF10103BC
:101B60004B7126F81AB0401C80B27045B0D30022E9
:101B70000A704A708A70CA700A714A7191460020D0
:101B800004E034F810309944401CC0B23228F8D335
:101B9000C879DFF8A8A13223282807D2B9FBF3F0CF
:101BA000CC792AF814004FF0000910E0002401203D
:101BB00004E03AF810904C44401CC0B22728F8D3F7
:101BC0002720B4FBF0F048824FF00009CA71C879B1
:101BD000401CC871002004E035F81040A144401CAE
:101BE000C0B23228F8D38879DFF850A11224AAF1C4
:101BF000280A142806D2B9FBF3F08D792AF81500CB
:101C000000250EE00025012004E03AF810904D4434
:101C1000401CC0B21328F8D3B5FBF4F0C8810025EE
:101C20008A718879401C8871002004E036F8109091
:101C30004D44401CC0B23228F8D3487ADFF8FC90FB
:101C4000132609F1A009142806D2B5FBF3F04D7A4A
:101C500029F8150000250EE00025012004E039F8E0
:101C600010A05544401CC0B21328F8D3B5FBF6F0C1
:101C7000088200254A72487A401C4872002004E01D
:101C800037F810904D44401CC0B23228F8D3087A7F
:101C90002A4F7837142806D2B5FBF3F00D7A27F8CF
:101CA000150000250EE00025012004E037F8109013
:101CB0004D44401CC0B21328F8D3B5FBF6F0C882DF
:101CC00000250A72087A401C0872002004E03CF8E3
:101CD00010603544401CC0B23228F8D3887A174EC1
:101CE0005036142806D2B5FBF3F08A7A26F8120093
:101CF00000240EE00025012004E036F810703D4479
:101D0000401CC0B21328F8D3B5FBF4F0888200243D
:101D10008A72887A401C8872002004E038F810200B
:101D20001444401CC0B23228F8D3B4FBF3F08881CD
:101D3000BDE8F08FA808002048000020800D00209A
:101D400021B1816841F0010181607047816821F013
:101D5000010181607047000010B5094C22680949F3
:101D600002EA0102D0E9001341EA0301D0E902309E
:101D700043EA000341EA030141EA0201216010BD88
:101D800004230140E030FCFF21B1816841F48071FF
:101D900081607047816821F480718160704721B152
:101DA000816841F4007181607047816821F400719D
:101DB0008160704730B542680F4B1A400C790B6850
:101DC00042EA04221343436083680C4A1340D1E97A
:101DD000034222434D798C6844EA450422431A4366
:101DE0008260C26A22F47002097D491EC9B242EAC9
:101DF0000151C16230BD0000FFFEFFFCFDF7FFC0D6
:101E000070B5072609290ED9D0F80CC0A1F10A0433
:101E100004EB4404A6402CEA060CA3404CEA030C55
:101E2000C0F80CC007E0056901EB4104A640B543CA
:101E3000A3401D4305611F23072A09D2446B521E8C
:101E400002EB820293409C4391400C43446370BD7B
:101E50000D2A09D2046BD21F02EB820293409C43ED
:101E600091400C43046370BDC46A0D3A02EB8202D8
:101E700093409C4391400C43C46270BD816841F023
:101E8000804181607047002800DC404270470000BC
:101E900005484FF4006100680206044801D403F0CD
:101EA0009FBF03F09BBF00003400002000040240ED
:101EB0000549086840F00400044B00221A8020F015
:101EC0008000086070470000340000206800002097
:101ED00038B5456804460146284612F07DFE0028C4
:101EE0002AD02068304A0F2819D006DC0B2824D0CD
:101EF0000C2810D00E2851D12FE0112802D028280C
:101F00004CD145E09268002A16D02146284601B0FF
:101F1000BDE830401047214628465268F7E728467A
:101F200004F0A6FE0090406E0468684604F0EAFEE5
:101F3000002C01D02846A04738BD284604F098FE62
:101F40000090683004F0FCFD009803216C3004F030
:101F5000FFFD684604F0D6FE20E0E16848680968A5
:101F60000D2902D0202913D105E0002810DD2846D4
:101F700019F098FD06E0002804DD2846BDE8384049
:101F800019F090BD2846BDE83840022119F0A0BDE7
:101F9000E06818B90021284600F097F92046BDE80E
:101FA000384013F08DBA00001C020020F0B5044642
:101FB00085B08069B4F90850668A0027CDE90265CA
:101FC000CDE900170490B4F90C00B4F91060C11801
:101FD000B4F90A00B4F90E50104433462A4600F012
:101FE00007F80546616800F079F905B02846F0BDAC
:101FF000F0B585B00C46DDE90D514C31DFF850C02D
:10200000DDE90A67CDE902C12146CDE9006713F099
:10201000A7F9040018D004F02BFE102229460490E2
:1020200012F0FEFF049830220A493430FEF74DFBCF
:10203000084D04990C3D2868486604A804F062FE27
:10204000286841682046884705B02046F0BD00005A
:10205000D11E000828020020F0B5044680688B4994
:1020600089B051F82050606800287DD0052804D040
:1020700006287AD0122879D1AEE0E86900284FD03E
:1020800095E80E008DE80F0004F110010FC907F06C
:1020900061F9002655F8260006F0C6F9A169E8693D
:1020A0000A1A216901446069304405F063FBA169A3
:1020B000E8690A1A21690144E069801B05F05AFBAE
:1020C000E169E8690A1A616901442069304405F050
:1020D000F1FBE169E8690A1A61690144A069801BA2
:1020E00005F0E8FB761C022ED4DBA86806F09CF90C
:1020F000E069E9696669431A20694218521E314451
:10210000801C05F041FCE169E869A2690B1A61696C
:102110000144101A401C921E05F036FCEE6913E0D3
:102120005FF0000655F8260006F07EF9E069831B93
:10213000A069821B606981192069304405F07CFB2D
:10214000761C022EEEDB0226D5E90301CDE9000163
:102150006169E06908444310A069891C821B2069F9
:10216000304405F0AFFA02E089E012E08AE0D5E9F8
:102170000501CDE90001E36960690121184401EB23
:102180006001A0699B1E821B2069304405F09AFA09
:1021900078E0206804F06CFD0490206814F0C0F929
:1021A00040B1A06808B1002008E00498006F28B191
:1021B000012003E00498406F00B10220049901EB74
:1021C0008000C56E04A804F09DFD00231A46284631
:1021D000216805F029F855E0206804F049FD0490D5
:1021E000866EEEB3B0F95C70A168D1B3032942D01A
:1021F0005FF0000100EB8101406D0C6C06F01EF9F0
:10220000204606F011F905A805F00EFCBDF81410E3
:10221000A88B0144ADF81410BDF81810081AADF8D9
:102220001800BDF81600801CADF81600BDF81A00A5
:10223000801EADF81A0004985E30B0F90220B0F9A3
:10224000001005A806F04EF804A804F05BFD02207B
:1022500006F034F9304604F00BFD3A4605A901E0DA
:102260000BE006E0079005F0D7F807A804F04AFD58
:1022700008E00121BEE70221BCE704A8F6E72068D8
:1022800013F012FE09B00020F0BD00001800040891
:10229000044A0349116004494A6A4862104670477B
:1022A000580200201C0200202802002038B50D46EC
:1022B000040009D004F0DCFC00904565684604F099
:1022C00021FD204613F0F3FB38BD4FF48072002946
:1022D000114601D012F00ABD12F05BBC2DE9FF419E
:1022E0000E4605004FF001041CD004F0C1FC019023
:1022F000876E01A8009704F005FD3146684607F097
:1023000009FB78B100980024B84208D0284604F0B0
:10231000AFFC01900099816601A804F0F3FC284607
:1023200013F0C5FB04B02046BDE8F081F8B51546B2
:102330000C4606000DD004F09BFC0090032C02D24A
:1023400000EB84000564684604F0DCFC304613F0C2
:10235000AEFBF8BDFEE700002DE9F05F7C4D29786B
:102360007C486FF0704619393711826940F66F0466
:102370004FF4076840F6770940F6780A40F6710B8B
:102380000C2925D2DFE801F0062645642424242404
:1023900083A324C481462146104613F09FF90446C6
:1023A0003146204611F0C8FB3946204611F016FC94
:1023B0004146D9F8180013F091F9044666492046C1
:1023C00011F0BAFB0021204611F008FC1A202870F9
:1023D000BDE8F09F41468046104613F07FF9044661
:1023E0003146204611F0A8FB3946204611F0F6FB95
:1023F0004946D8F8180013F071F9044656492046AA
:1024000011F09AFB0021204611F0E8FB1B202870F8
:10241000DEE780464946104613F060F9044631462F
:10242000204611F089FB3946204611F0D7FB514672
:10243000D8F8180013F052F904464749204611F025
:102440007BFB0021204611F0C9FB1C202870BFE750
:1024500080465146104613F041F904463146204665
:1024600011F06AFB3946204611F0B8FB5946D8F8FE
:10247000180013F033F904463749204611F05CFB8D
:102480000021204611F0AAFB21202870A0E78046F9
:102490005946104613F022F904463146204611F001
:1024A0004BFB3946204611F099FB40F67901D8F8EC
:1024B000180013F013F904462749204611F03CFB9D
:1024C0000021204611F08AFB2220287080E78046F8
:1024D00040F67901104613F001F9044631462046D2
:1024E00011F02AFB3946204611F078FB40F67201C4
:1024F000D8F8180013F0F2F804461749204611F0F6
:102500001BFB0021204611F069FB242028705FE7A7
:10251000814640F67201104613F0E0F880463146DD
:10252000404611F009FB3946404611F057FB214661
:10253000D9F8180013F0D2F804460749204611F0E4
:10254000FBFA0021204611F049FB192028703FE7D3
:10255000F600002054010020FFFFBF002DE9F043EA
:102560002DED028B83B0FD480178FD4A9FEDFD0AF9
:10257000DFF8F883FC4D00270126D8F81800192948
:1025800047D0DFEDFB0A1A297DD0FA4A1B297BD000
:102590001C2939D198F80E1040F6780340F67C09D2
:1025A000022972D098F80E1001292DD1D18800EEA1
:1025B000101AB8EE400A80EE208A194613F08EF801
:1025C0000446287800287DD0EB49204611F0CFFA48
:1025D000EAA1204611F0DDFA4946D8F8180013F0B8
:1025E0007DF8044618EE100A23F0F6FF41EC100BBC
:1025F000E5A153EC102B01A8FDF76CFE01A92046C4
:1026000011F0C7FA88F80E7003B0BDEC028BBDE87C
:10261000F08398F80B1040F66F0340F67309012918
:1026200037D098F80B100229EED1B2F8401000EE26
:10263000901AF8EE600A80EE808A194613F04EF880
:102640000446287800285DD0CB49204611F08FFA47
:10265000CFA1204611F09DFA4946D8F8180013F092
:102660003DF8044618EE100A23F0B6FF41EC100BBB
:10267000C5A153EC102B01A8FDF72CFE01A92046A3
:1026800011F087FA02E046E0C2E03AE188F80B6018
:10269000BAE7D18F00EE901AF8EE600A80EE808AD9
:1026A000194613F01BF80446287810B3B2492046A7
:1026B00011F05DFAB9A1204611F06BFA4946D8F83D
:1026C000180000E0CCE113F009F8044618EE100AF7
:1026D00023F082FF41EC100BABA153EC102B01A8AF
:1026E000FDF7F8FD01A9204611F053FA88F80B70A8
:1026F0008AE7AD49204611F03AFAACA1204611F024
:1027000048FADBE7A849204611F031FAABA1204690
:1027100011F03FFAA0E798F80C104FF4076340F669
:102720007409022933D098F80C100129B0D1B2F8FD
:10273000441000EE101AB8EE400A80EE208A1946C6
:1027400012F0CCFF04462878002858D08A49204649
:1027500011F00DFA9DA1204611F01BFA4946D8F858
:10276000180012F0BBFF044618EE100A23F034FFE5
:1027700041EC100B84A153EC102B01A8FDF7AAFD2E
:1027800001A9204611F005FA88F80C703CE7B2F870
:10279000461000EE101AB8EE400A80EE208A194664
:1027A00012F09CFF0446287800B37349204611F0CC
:1027B000DEF989A1204611F0ECF94946D8F8180055
:1027C00012F08CFF044618EE100A23F005FF41ECCE
:1027D000100B6DA153EC102B01A8FDF77BFD01A997
:1027E000204611F0D6F988F80C600DE76E492046B6
:1027F00011F0BDF97BA1204611F0CBF9DDE76A4964
:10280000204611F0B4F97BA1204611F0C2F9A5E7EA
:1028100098F80D3040F6770140F67B09022B31D055
:1028200098F80D30012BB1D1128800EE902AF8EE05
:10283000600A80EE808A12F051FF04462878002852
:1028400056D04D49204611F092F96EA1204611F064
:10285000A0F94946D8F8180012F040FF044618EED7
:10286000100A23F0B9FE41EC100B47A153EC102BDA
:1028700001A8FDF72FFD01A9204611F08AF988F87B
:102880000D70C1E6528800EE902AF8EE600A80EEE4
:10289000808A12F023FF0446287800B33649204688
:1028A00011F065F95AA1204611F073F94946D8F89C
:1028B000180012F013FF044618EE100A23F08CFEE5
:1028C00041EC100B30A153EC102B01A8FDF702FDD9
:1028D00001A9204611F05DF988F80D6094E63249AF
:1028E000204611F044F94DA1204611F052F9DDE7E0
:1028F0002D49204611F03BF94CA1204611F049F931
:10290000A7E7118900EE101AB8EE400A80EE208A7F
:10291000194612F0E3FE04462878F0B11649204625
:1029200011F025F945A1204611F033F94946D8F8B0
:10293000180012F0D3FE044618EE100A23F04CFEE5
:1029400041EC100B10A153EC102B01A8FDF7C2FCB9
:1029500001A9204611F01DF976E078E0F60000208C
:102960008C0E00200000C842F50000205401002019
:1029700000007A440887002078DE03084375746FEE
:102980006666204331000000252E326600000000FC
:102990004F75747075742056320000004F75747056
:1029A0007574205631000000ECC10308E8BE93E5C1
:1029B00087BAE794B5E58E8B31000000E8BE93E559
:1029C00087BAE794B5E58E8B320000004C696D69DB
:1029D00074696E67204331004C696D6974696E6774
:1029E00020433200E99990E588B6E794B5E6B581D1
:1029F00032000000E99990E588B6E794B5E6B58124
:102A0000310000004375746F666620563100000087
:102A10004375746F6666205632000000E688AAE6A9
:102A2000ADA2E794B5E58E8B32000000E688AAE6F9
:102A3000ADA2E794B5E58E8B310000004375746F4D
:102A4000666620433200000088F80E60DCE5094924
:102A5000204611F08CF808A1204611F09AF865E79D
:102A60000449204611F083F807A1204611F091F89F
:102A7000B2E50000ECC10308E688AAE6ADA2E7943F
:102A8000B5E6B58132000000E688AAE6ADA2E7947B
:102A9000B5E6B581310000002DE9F0432DED028B44
:102AA00083B0FD480178FD4A9FEDFD0ADFF8F88309
:102AB000FC4D01260227D8F81800192947D0DFED70
:102AC000FB0A1A297ED0FA4A1B297CD01C2939D14D
:102AD00098F80E1040F6780340F67C09002974D06F
:102AE00098F80E1001292DD1518900EE101AB8EE78
:102AF000400A80EE208A194612F0F0FD044628783C
:102B000000287DD0EB49204611F031F8EAA120469B
:102B100011F03FF84946D8F8180012F0DFFD0446DE
:102B200018EE100A23F058FD41EC100BE5A153EC10
:102B3000102B01A8FDF7CEFB01A9204611F029F8C2
:102B400088F80E7003B0BDEC028BBDE8F08398F8F6
:102B50000B1040F66F0340F67309A9B398F80B10F9
:102B60000129EFD1B2F8421000EE901AF8EE600A97
:102B700080EE808A194612F0B1FD044628780028BC
:102B80005ED0CC49204610F0F2FFD0A1204611F0D3
:102B900000F84946D8F8180012F0A0FD044618EED7
:102BA000100A23F019FD41EC100BC6A153EC102BB9
:102BB00001A8FDF78FFB01A9204610F0EAFF88F875
:102BC0000B70BFE745E0C1E000E038E1B2F840102B
:102BD00000EE901AF8EE600A80EE808A194612F034
:102BE0007DFD0446287810B3B249204610F0BFFF9F
:102BF000B9A1204610F0CDFF4946D8F8180000E0F2
:102C0000CCE112F06BFD044618EE100A23F0E4FC50
:102C100041EC100BABA153EC102B01A8FDF75AFBB4
:102C200001A9204610F0B5FF88F80B608AE7AD498E
:102C3000204610F09CFFACA1204610F0AAFFDBE775
:102C4000A849204610F093FFABA1204610F0A1FF49
:102C50009FE798F80C104FF4076340F6740999B396
:102C600098F80C100129ACD1B2F8481000EE101AF7
:102C7000B8EE400A80EE208A194612F02FFD044675
:102C80002878002859D08B49204610F070FF9EA16B
:102C9000204610F07EFF4946D8F8180012F01EFDBD
:102CA000044618EE100A23F097FC41EC100B85A1A6
:102CB00053EC102B01A8FDF70DFB01A9204610F0E5
:102CC00068FF88F80C703DE7FFE7B2F8461000EEA9
:102CD000101AB8EE400A80EE208A194612F0FEFC67
:102CE0000446287800B37349204610F040FF89A1BC
:102CF000204610F04EFF4946D8F8180012F0EEFCBE
:102D0000044618EE100A23F067FC41EC100B6DA18D
:102D100053EC102B01A8FDF7DDFA01A9204610F0B5
:102D200038FF88F80C600DE76E49204610F01FFF51
:102D30007BA1204610F02DFFDDE76A49204610F008
:102D400016FF7BA1204610F024FFA4E798F80D3071
:102D500040F6770140F67B098BB398F80D30012BD4
:102D6000B1D1928800EE902AF8EE600A80EE808A57
:102D700012F0B4FC04462878002857D04D4920466C
:102D800010F0F5FE6EA1204610F003FF4946D8F87A
:102D9000180012F0A3FC044618EE100A23F01CFCE5
:102DA00041EC100B47A153EC102B01A8FDF792FA50
:102DB00001A9204610F0EDFE88F80D70C2E6FFE78D
:102DC000528800EE902AF8EE600A80EE808A12F0B7
:102DD00085FC0446287800B33649204610F0C7FE2B
:102DE0005AA1204610F0D5FE4946D8F8180012F036
:102DF00075FC044618EE100A23F0EEFB41EC100BB4
:102E000030A153EC102B01A8FDF764FA01A920466C
:102E100010F0BFFE88F80D6094E63249204610F0AD
:102E2000A6FE4DA1204610F0B4FEDDE72D49204658
:102E300010F09DFE4CA1204610F0ABFEA6E71189D4
:102E400000EE101AB8EE400A80EE208A194612F001
:102E500045FC04462878F0B11649204610F087FE5C
:102E600045A1204610F095FE4946D8F8180012F00A
:102E700035FC044618EE100A23F0AEFB41EC100BB3
:102E800010A153EC102B01A8FDF724FA01A920464C
:102E900010F07FFE76E078E0F60000208C0E002037
:102EA0000000C842F50000205401002000007A44D0
:102EB0000887002078DE03084375746F6666204338
:102EC00033000000252E3266000000004F7574703C
:102ED00075742056330000004F7574707574205659
:102EE00032000000ECC10308E8BE93E587BAE7941E
:102EF000B5E58E8B32000000E8BE93E587BAE79413
:102F0000B5E58E8B330000004C696D6974696E679E
:102F1000204333004C696D6974696E672043320049
:102F2000E99990E588B6E794B5E6B58132000000EE
:102F3000E99990E588B6E794B5E6B58133000000DD
:102F40004375746F66662056330000004375746FD6
:102F50006666205632000000E688AAE6ADA2E79435
:102F6000B5E58E8B32000000E688AAE6ADA2E794B4
:102F7000B5E58E8B330000004375746F66662043A1
:102F80003200000088F80E60DCE50949204610F0A8
:102F9000EEFD08A1204610F0FCFD65E7044920463F
:102FA00010F0E5FD07A1204610F0F3FDB2E50000AA
:102FB000ECC10308E688AAE6ADA2E794B5E6B581C0
:102FC00032000000E688AAE6ADA2E794B5E6B58136
:102FD000330000002DE9F05F7D4D29787D481939D7
:102FE00040F66F0782696FF070464FF4076840F64D
:102FF000770940F6780A40F6710B40F679040C29FF
:1030000026D2DFE801F0062747662525252585A479
:1030100025C339460746104612F060FB0446314688
:10302000204610F089FD6FF07F41204610F0D6FD5C
:1030300040F67201B86912F051FB04466649204619
:1030400010F07AFD0021204610F0C8FD24202870E1
:10305000BDE8F09F41468046104612F03FFB044613
:103060003146204610F068FD6FF07F41204610F099
:10307000B5FD3946D8F8180012F030FB0446564921
:10308000204610F059FD0021204610F0A7FD192020
:103090002870DDE707464946104612F01FFB04463C
:1030A0003146204610F048FD6FF07F41204610F079
:1030B00095FD4146B86912F011FB04464649204689
:1030C00010F03AFD0021204610F088FD1A202870EB
:1030D000BEE707465146104612F000FB0446314653
:1030E000204610F029FD6FF07F41204610F076FD5C
:1030F0004946B86912F0F2FA04463749204610F002
:103100001BFD0021204610F069FD1B2028709FE761
:1031100007465946104612F0E1FA04463146204669
:1031200010F00AFD6FF07F41204610F057FD514628
:10313000B86912F0D3FA04462749204610F0FCFC87
:103140000021204610F04AFD1C20287080E7074629
:103150002146104612F0C2FA04463146204610F0CD
:10316000EBFC6FF07F41204610F038FD5946B869FE
:1031700012F0B4FA04461849204610F0DDFC002194
:10318000204610F02BFD2120287061E7804640F694
:103190007201104612F0A2FA07463146384610F086
:1031A000CBFC6FF07F41384610F018FD2146D8F86F
:1031B000180012F093FA04460749204610F0BCFCB0
:1031C0000021204610F00AFD2220287040E7000070
:1031D000F600002054010020FFFFBF002DE9F04F52
:1031E0002DED068B83B0F848408E00EE100AB8EE45
:1031F000400ADFEDF60A80EE208AF348808E00EE6A
:10320000100AB8EE400ADFEDF10AC0EE208AEE485F
:10321000C08E00EE100AB8EE400ADFEDEC0A80EE38
:10322000209AE948008F00EE100AB8EE400ADFED60
:10323000E70AC0EE209AE6480178E64D1939E64ED5
:1032400040F66F0840F6730901244FF4076A9FEDBA
:10325000E3AAE448E24F40F6770B8069102932D2A6
:10326000DFE801F00890FDFC36BAFBFAF9F8F7F652
:10327000F5F4F3F24146DB4F12F030FA06466FF0F8
:103280007041304610F058FC6FF07F41304610F02E
:10329000A5FC4946B86912F021FA0646D2493046E3
:1032A00010F04AFC0021304610F098FC0020CF4A74
:1032B000002102E01154401CC0B20528FAD3C449D1
:1032C0001D2008702C7003B0BDEC068BBDE8F08F9C
:1032D0004946DFF8109312F001FA07466FF070418B
:1032E000384610F029FC6FF07F41384610F076FC2C
:1032F00099F80B0040B199F80B00012808D099F813
:103300000B00022809D00CE0AF48C18F418008E0D3
:10331000AD48B0F84010418003E0AB48B0F842102F
:103320004180A948408800EE100AF8EE400A9FED5F
:10333000A71A80EE810A10EE100A23F04DF941EC35
:10334000100BABA153EC102B01A8FCF7C3FF01A994
:10335000384610F01EFC4146D9F8180012F0BEF9AC
:103360000746A149384610F0E7FB0021384610F027
:1033700035FC9749192008702C700020307013F02C
:103380002DFBA0E75146974D12F0A8F904466FF0C7
:103390007041204610F0D0FB6FF07F41204610F0C6
:1033A0001DFC0020914A002102E01154401CC0B2D3
:1033B0000528FAD340F67401A86912F08FF9044683
:1033C0008949204610F0B8FB0021204610F006FC89
:1033D0007F491E20087076E740F67401DFF804820A
:1033E00012F07CF907466FF07041384610F0A4FBEC
:1033F0006FF07F41384610F0F1FB98F80C0040B1B7
:1034000098F80C00012809D098F80C0002280AD07E
:103410000DE06D48B0F84410818008E06A48B0F8CB
:103420004610818003E06848B0F848108180664803
:10343000828841F288318A4200D98180808800EEFA
:10344000100AF8EE400A0BE0EEE188E1FFE05AE0F6
:103450009BE2BEE158E11FE2B9E248E2CCE028E09D
:1034600080EE8A0A10EE100A23F0B6F841EC100B39
:103470005FA153EC102B01A8FCF72CFF01A93846E3
:1034800010F087FB5146D8F8180012F027F90746CC
:103490005549384610F050FB0021384610F09EFB8D
:1034A0004B491A2008702C700020307013F096FAE7
:1034B00009E759464B4D12F011F904466FF070417F
:1034C000204610F039FB6FF07F41204610F086FB5C
:1034D00000204649002202E00A54401CC0B20528E0
:1034E000FAD340F67B01A86912F0F8F804463E4989
:1034F000204610F021FB0021204610F06FFB3449DC
:1035000025200870DFE640F67B01DFF8D88012F056
:10351000E5F881466FF07041484610F00DFB6FF002
:103520007F41484610F05AFB98F80D0040B198F8DA
:103530000D0001280ED098F80D00022814D01CE0D0
:103540003888DFED220A00EE100AB8EE400A80EE5D
:10355000208A12E07888DFED1D0A00EE100AB8EE2E
:10356000400A80EE208A08E0B888DFED180A00EEF5
:10357000100AB8EE400A80EE208A18EE100A23F0F6
:103580002BF841EC100B1AA153EC102B01A8FCF7FF
:10359000A1FE01A9484610F0FCFA5946D8F81800D7
:1035A00012F09CF807461049384610F0C5FA002181
:1035B000384610F013FB06491B2008702C700020C1
:1035C000307013F00BFA7EE68C0E00200000C8422B
:1035D000F6000020E8000020E900002000007A4406
:1035E0000887002054010020FFFFBF0024010020B5
:1035F000252E32660000000040F67801FE4D12F0E4
:103600006DF804466FF07041204610F095FA6FF0A7
:103610007F41204610F0E2FA0020F849002202E043
:103620000A54401CC0B20528FAD340F67C01A869B0
:1036300012F054F80446F249204610F07DFA0021B9
:10364000204610F0CBFAEF49262008703BE640F602
:103650007C01DFF8A49312F041F880466FF07041CE
:10366000404610F069FA6FF07F41404610F0B6FA1C
:1036700099F80E0040B199F80E0001280CD099F885
:103680000E00022810D016E0F88800EE100AB8EEFE
:10369000400AC0EE0A8A0EE0388900EE100AB8EE41
:1036A000400AC0EE0A8A06E0788900EE100AB8EEF9
:1036B000400AC0EE0A8A18EE900A22F08DFF41EC13
:1036C000100B53EC102BAFF2D80101A8FCF702FE4F
:1036D00001A9404610F05DFA40F67801D9F81800CB
:1036E00011F0FCFF0746C649384610F025FA0021C4
:1036F000384610F073FAC3491C2008702C70002063
:10370000307013F06BF9DEE540F67901BA4D11F037
:10371000E5FF04466FF07041204610F00DFA6FF09F
:103720007F41204610F05AFA0020B44A002102E0FE
:103730001154401CC0B20528FAD340F67D01A86997
:1037400011F0CCFF0446AE49204610F0F5F90021F7
:10375000204610F043FAAB4927200870B3E540F645
:103760007D01DFF8948211F0B9FF07466FF07041D8
:10377000384610F0E1F96FF07F41384610F02EFA2C
:1037800019EE100A22F028FF41EC100B53EC102B1D
:10379000AFF2A41101A8FCF79DFD01A9384610F075
:1037A000F8F940F67901D8F8180011F097FF0746AC
:1037B0009349384610F0C0F90021384610F00EFA4F
:1037C0009049222008702C700020307013F006F908
:1037D00079E540F67A01884D11F080FF04466FF0DC
:1037E0007041204610F0A8F96FF07F41204610F09C
:1037F000F5F90020814A002102E01154401CC0B2BA
:103800000528FAD340F67E01A86911F067FF044647
:103810007B49204610F090F90021204610F0DEF997
:103820007849282008704EE540F67E01DFF8C8810F
:1038300011F054FF07466FF07041384610F07CF9E4
:103840006FF07F41384610F0C9F919EE900A22F066
:10385000C3FE41EC100B53EC102BAFF26C2101A80E
:10386000FCF738FD01A9384610F093F940F67A01CB
:10387000D8F8180011F032FF07466149384610F0B9
:103880005BF90021384610F0A9F95E492320087041
:103890002C700020307016E540F67101564D11F085
:1038A0001DFF04466FF07041204610F045F96FF09F
:1038B0007F41204610F092F90020504A002102E09A
:1038C0001154401CC0B20528FAD340F67501A8690E
:1038D00011F004FF04464A49204610F02DF900215A
:1038E000204610F07BF947491F200870EBE440F6B2
:1038F0007501DFF8048111F0F1FE07466FF07041A9
:10390000384610F019F96FF07F41384610F066F92B
:103910003D48B0F852100181018940F2DC529142D9
:1039200001D900210181008900EE100AF8EE400A59
:103930001FEDDA1A80EE810A10EE100A22F04CFE1A
:1039400041EC100B53EC102BAFF25C3101A8FCF7EB
:10395000C1FC01A9384610F01CF940F67101D8F8F5
:10396000180011F0BBFE07462549384610F0E4F870
:103970000021384610F032F92249212008702C70BD
:103980000020307013F02AF89DE440F672011A4DC1
:1039900011F0A4FE04466FF07041204610F0CCF800
:1039A0006FF07F41204610F019F940F67601A869C2
:1039B00011F094FE04461249204610F0BDF8002193
:1039C000204610F00BF90F49202008707BE440F6E8
:1039D0007601DFF8248011F081FE07466FF0704118
:1039E000384610F0A9F86FF07F41384610F0F6F82D
:1039F00040F672010AE0000054010020240100207A
:103A0000FFFFBF00F60000208C0E0020D8F8180041
:103A100011F064FE07460849384610F08DF8002181
:103A2000384610F0DBF80549242008702C7000207F
:103A3000307012F0D3FF46E4FFFFBF00F600002015
:103A400070B5134D69792846124E806940F6990287
:103A500001290FD0114611F041FE04466FF070416C
:103A6000204610F069F83146204610F0B7F82F20B4
:103A7000287070BD114611F031FE044631462046D3
:103A800010F05AF82046BDE87040002110F0A6B8AA
:103A900078010020FFFFBF002DE9FF4704460068C2
:103AA00010B112F03DFD68B10022314850F82210EB
:103AB00060680A2841D007DCF0B306280DD007283B
:103AC00054D106E00122F0E712280AD019284DD17E
:103AD00037E0204613F0E6FE48E0204615F070F887
:103AE00044E0206803F0C4F80290B0F9548090F8E4
:103AF0005650476C466B02A803F004F9206800F0AA
:103B000039F88146684611F0C1FDBDF8001009EB97
:103B100005000844ADF80000246A304604F08EFC2D
:103B2000022004F0CBFC384604F07EFC4246694695
:103B3000204603F071FC19E007E0204615F02CFB4D
:103B400014E0886904B0BDE8F087206812F0ACF991
:103B5000206803F08DF80390B0F90610B0F9022048
:103B6000891A491CC16703A803F0CCF80020E9E7D3
:103B70002800040838B503F07BF80090C46F68464D
:103B800003F0C0F8204638BD044A034911600449D7
:103B9000CA69C86110467047E4020020AC060020E4
:103BA000B006002000B589B024216846FCF7C7FDA7
:103BB000192001900348006880684168684688477A
:103BC00009B000BDAC0600201CB51B4901200870DF
:103BD0001A4A192111701A4900240C7019490870E9
:103BE0001948C18F4180B0F844108180B0F852105C
:103BF000018116480470164804707021682010F086
:103C0000B4FB4FF48051134802F0E8F84FF4005130
:103C1000114802F0E3F80221104802F0E1F811F037
:103C200051FD034600940E4A27210E48019403F0EB
:103C300017FA0D4988611CBDEA000020F60000203B
:103C4000700000207A0000208C0E00202C01002043
:103C5000E0000020000C0240000402400008024086
:103C600005160208105B0308540100201CB50E481D
:103C7000002404700D4804700D4804707021682001
:103C800010F073FB4FF480510A4802F0A7F811F0CE
:103C900019FD03460094084A07210848019403F0DF
:103CA000DFF9074908601CBDEA0000207A00002007
:103CB00070000020000C0240CD1102084C5A03088D
:103CC000400100207CB5134D1320A8730320A87079
:103CD0001149087000242C721048047010480470B8
:103CE0004FF400510F4802F079F802210E4802F01B
:103CF00077F80E48818D01810D48047011F0E2FCC7
:103D0000034600940B4A1A210B48019403F0A8F9CA
:103D1000A8627CBDE80000207A0000202C01002071
:103D2000E000002000040240000802408C0E002049
:103D30007000002091F90108CC6802081CB51549F3
:103D40000520087014480024047014480470702181
:103D5000682010F00AFB12480470124804704FF4F7
:103D60008051114802F03AF84FF400510F4802F028
:103D700035F802210E4802F033F811F0A3FC034697
:103D800000940C4A20210C48019403F069F90B4976
:103D900048601CBDEA000020F600002070000020F2
:103DA0002C010020E0000020000C02400004024032
:103DB00000080240B9330208545F03087001002074
:103DC0001CB508490620087011F07CFC0346002051
:103DD00000900190044A0121044803F041F904498C
:103DE00048601CBDEA0000204D110208646D020805
:103DF000380100201CB517490220087016490870C8
:103E000016490920087016480024047015480470EB
:103E10001548B0F850104180B0F8541081807021DE
:103E2000682010F0A2FA4FF48051104801F0D6FF3C
:103E300002210F4801F0D4FF11F044FC0346009426
:103E40000C4A12210C48019403F00AF90B4948600E
:103E50001CBD0000EA0000207A000020F6000020CF
:103E6000700000202C0100208C0E0020000C02406D
:103E70000008024065F10108D4660208E000002055
:103E80001CB51649042008701549087015491720FB
:103E900008701548B0F84A100181144800240470D5
:103EA0004FF40051124801F099FF1248047070213C
:103EB000682010F05AFA4FF480510F4801F08EFF3D
:103EC00011F000FC034600940C4A10210C480194A8
:103ED00003F0C6F80B4948601CBD0000EA00002052
:103EE0007A000020F60000208C0E0020E000002068
:103EF0000004024070000020000C0240F548020857
:103F0000A46B02082C0100207CB511F0DBFB00241F
:103F1000034600940C4A12210C48019403F0A0F8C7
:103F20000B4DA8610B4804700B49072008700B4823
:103F300004700B4800784FF400510A4801F04EFF1E
:103F40002F202870A8697CBD41420208D462030872
:103F50007801002070000020EA0000202C010020E1
:103F6000E000002000040240054B0122824019B10C
:103F700018681043186070471868904318607047BD
:103F80000074004010B586B0012148070CF0CAFD4E
:103F90001020009003208DF8040000248DF80740C5
:103FA00069460C4801F0C6FE029403944FF4306059
:103FB00004900220059002A9002000F00DF80121D4
:103FC0000020FFF7D1FF0121002000F01FF806B00C
:103FD00010BD00000000024030B5084C236840F6D8
:103FE000FE7282409343D1E900252A43D1E9025170
:103FF0000D432A4382401A43226030BD00740040C2
:10400000014A104481607047007400400209064B69
:104010000120904019B1196801431960704719686F
:1040200081431960704700000474004008B53820CF
:104030008DF8000003208DF801008DF802000120AA
:104040008DF8030068460AF03BFA08BD0148006895
:10405000704700003003002010B50549054800F006
:104060000DF80548016841F00201016010BD000033
:10407000208000101064024034000020074A904263
:1040800001D2074801E005481038064A8B0001EAD2
:10409000020101D5C1607047816070471064024021
:1040A000006002407D0F7D0F21B1016841F00101E8
:1040B00001607047016821F00101016070470B0643
:1040C00009D522B1436943F08003436103E04369AA
:1040D00023F080034361802905D001F01E011AB14D
:1040E00002680A430260704702688A4302607047B0
:1040F00030B50368124A1340CC680A682243D1E9FC
:1041000005452C432243CC6922430C6A22434C6A66
:1041100022438C6A22434C6B22438C6B22431A430A
:104120000260426922F00703D1E90B2422431A43BB
:1041300042610A6942604A6882608968C16030BD34
:104140003F801CF0F8B50546006802F091FD009034
:10415000448ED0F88860684602F0D4FD06B101268E
:1041600004F00104286812F0DBF90EB1002006E02B
:104170000CB1012003E008B1022000E003201B493C
:1041800051F82010686858B302280CD0052802D0D6
:10419000122828D103E0284613F0B0FB23E028467C
:1041A00015F08FFC1FE06A69E8694FF0FF33801A51
:1041B000A0F1080203EB6204421CAB69001B45102E
:1041C000A3EB6206C86904F02FF906E03219311B2F
:1041D000284603F0CFFA641E6D1C002CF6DA02E0CC
:1041E000286811F061FE0020F8BD00008800040876
:1041F000044A0349116004490A6B0863104670477A
:1042000034030020EC060020F006002038B50D46EF
:10421000002402F02DFD0090C06B294602F00AFE3A
:104220000546684602F06EFD1DB1284602F020FDED
:104230000446204638BD704730B504464FF47A75C1
:1042400002E0284600F006F82300A4F1010084B241
:10425000F7D130BD00220BE0042100BF00BF00BF3A
:1042600000BF00BF491E0904090CF6D1521C92B2CE
:104270008242F1D37047000010B52DED028B244926
:104280000A78244CB2EE048A022AE0681FD009782A
:10429000032939D1204991ED000A20EE080ABDEE2C
:1042A000C00A10EE101A09B201F072FE1B4890ED20
:1042B000000A20EE080ABDEEC00A10EE100A01B294
:1042C0002069BDEC028BBDE8104001F061BE1449CD
:1042D00091ED000A20EE080ABDEEC00A10EE101A99
:1042E00009B201F055FE0F4890ED000A20EE080AD1
:1042F000BDEEC00A10EE100A01B22069BDEC028BBF
:10430000BDE8104001F044BEBDEC028B10BD0000C2
:104310007B00002040010020280000203000002009
:10432000240000202C00002010B5044621F04EF897
:10433000A02021F01DF821F079F868B9204621F07D
:1043400017F821F073F838B921F040F8A12021F0D6
:104350000FF821F06BF818B121F054F8002010BDCF
:1043600020F0E4FF034C207020F0C8FF21F04AF851
:10437000207810BD6600002070B50120FFF7D4FF43
:10438000FE4C20602068000220600220FFF7CCFF76
:104390002168084420602068000220600320FFF7A5
:1043A000C3FF2168084420602068000220600420C8
:1043B000FFF7BAFF2168084420604020FFF7B4FFF0
:1043C0002062206A000220624120FFF7ADFF216ACF
:1043D00008442062206A000220624220FFF7A4FF06
:1043E000216A08442062206A000220624320FFF70D
:1043F0009BFF216A084420620520FFF795FF60605B
:104400006068000260600620FFF78EFF6168084464
:1044100060606068000260600720FFF785FF6168E8
:10442000084460606068000260600820FFF77CFF5D
:104430006168084460603320FFF776FFA060A068E1
:104440000002A0603420FFF76FFFA1680844A0605D
:10445000A0680002A0603520FFF766FFA16808444D
:10446000A060A0680002A0603620FFF75DFFA16891
:104470000844A0600920FFF757FFE060E0680002F1
:10448000E0600A20FFF750FFE1680844E060E06860
:104490000002E0600B20FFF747FFE1680844E0609E
:1044A000E0680002E0600C20FFF73EFFE16808448E
:1044B000E0609420FFF738FF6062606A000260628B
:1044C0009520FFF731FF616A08446062606A00026C
:1044D00060629620FFF728FF616A08446062606AA4
:1044E000000260629720FFF71FFF616A0844606264
:1044F0000D20FFF719FFA24D288028880002288090
:104500000E20FFF711FF2988084428804420FFF778
:104510000BFF2883288B000228834520FFF704FF28
:10452000298B084428830F20FFF7FEFE68806888E7
:10453000000268801020FFF7F7FE69880844688051
:104540003720FFF7F1FEA880A8880002A880382055
:10455000FFF7EAFEA9880844A8801120FFF7E4FECF
:10456000E880E8880002E8801220FFF7DDFEE98895
:104570000844E8809820FFF7D7FE6883688B000224
:1045800068839920FFF7D0FE698B08446883132065
:10459000FFF7CAFE28814620FFF7C6FEE8821420F6
:1045A000FFF7C2FE20612069000220611520FFF79D
:1045B000BBFE2169084420612069000220611620A9
:1045C000FFF7B2FE216908442061206900022061E2
:1045D0001720FFF7A9FE2169084420611820FFF782
:1045E000A3FE60616069000260611920FFF79CFE14
:1045F0006169084460616069000260611A20FFF728
:1046000093FE6169084460616069000260611B207B
:10461000FFF78AFE6169084460613920FFF784FE74
:10462000A061A0690002A0613A20FFF77DFEA169A8
:104630000844A061A0690002A0613B20FFF774FE5E
:10464000A1690844A061A0690002A0613C20FFF7B5
:104650006BFEA1690844A0611C20FFF765FE68811C
:104660006889000268811D20FFF75EFE69890844A1
:1046700068811E20FFF758FEA881A8890002A88142
:104680001F20FFF751FEA9890844A8813D20FFF7AC
:104690004BFEE881E8890002E8813E20FFF744FEF6
:1046A000E9890844E8812020FFF73EFE6882212046
:1046B000FFF73AFE2882288A000228822220FFF78C
:1046C00033FE298A084428822320FFF72DFEE0616B
:1046D000E0690002E0612420FFF726FEE16908445A
:1046E000E061E0690002E0612520FFF71DFEE1695D
:1046F0000844E061E0690002E0612620FFF714FE53
:10470000E1690844E0612720FFF70EFEA8822A2015
:10471000FFF70AFE1B4C20802088000220802B20FF
:10472000FFF702FE2188084420802C20FFF7FCFDC3
:10473000A080A0880002A0802D20FFF7F5FDA188B1
:104740000844A080A4F150044FF02800FFF7ECFDCE
:104750000D4D28802888000228802920FFF7E4FDDD
:104760002988084428802F20FFF7DEFD07490870BC
:104770005620FFF7D9FD064908700BE0640E0020B3
:10478000480E0020DC0E0020C20000208D0000201A
:10479000EC0000205520FFF7C7FDDC4908707420AD
:1047A000FFF7C2FDDA4908705720FFF7BDFDD94970
:1047B00008705820FFF7B8FDD74908705920FFF757
:1047C000B3FDD64908705A20FFF7AEFDD4490880E2
:1047D0005B20FFF7A9FDD34908805C20FFF7A4FD0B
:1047E000D14908805D20FFF79FFDD04908805E20F9
:1047F000FFF79AFDCE4908705F20FFF795FDCD4980
:1048000008706020FFF790FDCB4908706120FFF72A
:104810008BFDCA4908706220FFF786FDC849087001
:104820006320FFF781FDC74908706420FFF77CFD16
:10483000C54908706520FFF777FDC44908706620F8
:10484000FFF772FDC24908706720FFF76DFDC1498F
:1048500008706820FFF768FDBF4908706920FFF7FE
:1048600063FDBE4908707520FFF75EFDBC490880F6
:104870003020FFF759FDBB4908703120FFF754FD88
:10488000B94908703220FFF74FFDB8490870087821
:104890000A2801D9002008704720FFF745FD24F8B9
:1048A0001C0F2088000220804820FFF73DFD218852
:1048B000084420804920FFF737FD608060880002AF
:1048C00060804A20FFF730FD6188084460804B20FB
:1048D000FFF72AFDA080A0880002A0804C20FFF7EF
:1048E00023FDA1880844A0804D20FFF71DFDE08036
:1048F000E0880002E0804E20FFF716FDE1880844C2
:10490000E0804F20FFF710FD2081208900022081E8
:104910005020FFF709FD2189084420815120FFF72D
:1049200003FD60816089000260815220FFF7FCFC7A
:104930006189084460815320FFF7F6FCE085E08D33
:104940000002E0855420FFF7EFFCE18D0844E0858C
:104950007020FFF7E9FC2082208A0002208271206B
:10496000FFF7E2FC218A084420827220FFF7DCFC7A
:104970006082608A000260827320FFF7D5FC618A42
:10498000084460827620FFF7CFFC6084608C0002D0
:1049900060847720FFF7C8FC618C084460847C2029
:1049A000FFF7C2FCA084A08C0002A0847D20FFF74A
:1049B000BBFCA18C0844A0847E20FFF7B5FCE084FA
:1049C000E08C0002E0847F20FFF7AEFCE18C08441D
:1049D000E0848620FFF7A8FC654D28802888000227
:1049E00028808720FFF7A0FC298808442880882099
:1049F000FFF79AFC68806888000268808920FFF7CA
:104A000093FC6988084468808A20FFF78DFCA880A1
:104A1000A8880002A8808B20FFF786FCA98808449C
:104A2000A8807820FFF780FC2085208D000220855B
:104A30007920FFF779FC218D084420858020FFF73D
:104A400073FC6085608D000260858120FFF76CFC3F
:104A5000618D084460858220FFF766FCA085A08DEB
:104A60000002A0858320FFF75FFCA18D0844A0858C
:104A7000A4F11C044FF08C00FFF756FCE880E88896
:104A80000002E8808D20FFF74FFCE9880844E880A9
:104A90008E20FFF749FC28812889000228818F2079
:104AA000FFF742FC2989084428819020FFF73CFC4D
:104AB00068816889000268819120FFF735FC698967
:104AC000084468818420FFF72FFC2A4908707A2067
:104AD000FFF72AFC04F13604A083A08B4FEA0020E4
:104AE000A0834FF07B00FFF71FFCA18B0844A0833D
:104AF0009220FFF719FC208020880002208093205C
:104B0000FFF712FC21880844208070BDEB000020D4
:104B1000F50000207001002071010020F400002049
:104B2000880100208A0100208C0100208E010020D5
:104B3000790100207A0100207B0100207C01002007
:104B40007E0100207F0100208001002081010020E3
:104B500082010020830100208401002085010020C3
:104B6000F80000208E000020920000208F0000201E
:104B7000088700205401002070B505460E4620F03D
:104B800041FC002409E020F021FCA02020F0F0FBF3
:104B900020F04CFC18B1641CA4B2642CF3D3B4F51F
:104BA0007A7F0DD0E8B220F0E3FB20F03FFC38B96B
:104BB000304620F0DDFB20F039FC08B920F022FC63
:104BC000BDE8704020F01EBC2DE9F041044694B0D1
:104BD000006800F0B7F908B1D94D01E0D84D2C3587
:104BE000606815281ED00CDC0B281FD004DC0028C0
:104BF0007ED005287DD12EE10E287BD01228F9D158
:104C000041E1162806D0172808D0182808D01C28FB
:104C1000F0D109E0E86914B0BDE8F081286AFAE74C
:104C2000686AF8E7A86AF6E76869F4E720680B9015
:104C30001C200C90206802F01BF80390016D0BA85B
:104C40008847064603A802F05DF8022E0EDB95E8C1
:104C500007008DE80700D4E904023346A16904F097
:104C600047FB20698719A069801B2BE0286803F0A7
:104C7000DBFB2169E8690A18521E606902F07AFDBF
:104C8000A269E869111A491C606902F073FD67693D
:104C900020697F1C394602F0AFFD3946A06902F059
:104CA000ABFD686803F0C0FB20693946401C02F088
:104CB000A3FDA0693946401E02F09EFD2769A06948
:104CC000BF1C801E8046286803F0AEFB4246394672
:104CD000606902F04FFD686803F0A6FB6069424618
:104CE000401C394602F046FD686A02280FDD02E0EA
:104CF00015E1AFE000E1A86803F096FB61696A6A1C
:104D0000881C8B1801465B1E4246384627E0296AFC
:104D1000B14226DD6069022E074600F1020801DB80
:104D2000374401E007F10207206901DB304401E06C
:104D300000F1020022693B460A44A2F10102414609
:104D400002F022FE022E02DBA069821B01E0A269B2
:104D5000921EA069E9693B46401A401C414602F098
:104D600013FE022E02DB6069064401E06669B61C90
:104D7000E76928687F1E03F057FB3A4631462069F1
:104D800002F098FD3A463146A06902F093FDE769CA
:104D90006868BF1E03F048FB20693A46401C314654
:104DA00002F088FDA0693A46401E314602F082FDBD
:104DB000E869022802DC286A022823DDA86A0228A2
:104DC00002DDE1690F1A01E0E769BF1EA86803F080
:104DD0002BFBE969022909DD20693B46421800F1F5
:104DE000020C521E3146604602F0CEFD286A0228AF
:104DF00008DDA269E8693B46101A401C921E314644
:104E000002F0C2FD286803F00FFBD4E906202169F7
:104E100002F0B0FC686803F007FBA2692169E06951
:104E2000521E491C401E02F0A5FCA86A022811DD92
:104E30002669A169E469B61C271AA1F102087F1C42
:104E4000A41EA86803F0F0FA2346424639463046CD
:104E500002F09AFD72E0208A06B2ADF81460A08AD2
:104E600001B2ADF81610208B02B2ADF81820A08B5D
:104E700003B2ADF81A30D5E90304CDE90004304699
:104E800002F020FC5AE0208A298B0844ADF8140077
:104E9000A08AADF81600208B298B401AADF81800B7
:104EA000A08BADF81A00206801F0E2FE0390006FBD
:104EB000F0B1022003F002FB039991F87C00C0F3EB
:104EC000C00001EB8000006C03F0AEFA0398406B69
:104ED00003F0B4FA0398006F01F0CAFE03990A9038
:104EE000B1F95A2005A902F097FA0AA801F00AFFC1
:104EF00003A801F007FF21E0208AADF81400A08A82
:104F0000ADF81600208BADF81800A08BADF81A0094
:104F1000A86803F089FA05A802F05AFD0EE020689F
:104F200001F0A6FE039030F85A1F41F00C010180F9
:104F300003A801F0E7FE206810F0B6FF00206AE643
:104F40000404002038B5002450B101F091FE009017
:104F500090F87C00000700D50124684601F0D2FEDD
:104F6000204638BD30B504468BB0006801F080FEA5
:104F7000009090F87C10246A006FC1F3C00508B15E
:104F800001F076FE0690E068029020690390A08808
:104F9000401EADF81000E089ADF812002089401CD9
:104FA000ADF81400608AADF81600BDF80800401C8A
:104FB000ADF80800BDF80A00401CADF80A00BDF8C5
:104FC0000C00401EADF80C000098406B03F036FA60
:104FD000009808AA02A9B0F95A30069803F010FD0B
:104FE000009800EB8500806B08F0E2FC009800EB75
:104FF0008500006C08F014FD08AB02AA04A906980D
:105000000FF034FF684601F07DFE069810B106A847
:1050100001F078FE0BB0002030BD0000074A0649C1
:10502000054B1160064A083BD16958601B68C2E90C
:105030000630084670470000F80300202C070020C7
:105040003007002038B50D46040009D001F010FEED
:1050500000900566684601F055FE204610F027FDD9
:1050600038BD2DE9F34F85B000270C46B8460598AA
:1050700001F0FEFD0090C06D0121856805982A6849
:10508000904782462A6803210598904704902A6831
:1050900002210598904703902A68002105989047BF
:1050A0000646009811F0C2F88346009811F0C5F842
:1050B0008146009890F83210890601D5B0F95880E1
:1050C00000F036F805460098C06E10B110F024FCD0
:1050D000074625806780A4F804A0049AABEB020081
:1050E00006EB0802401E2A4420813A44E280039BDA
:1050F000A9EB0302521E6281A4F80CA02082701951
:10510000E681401E6082684601F0FCFDB4F90C00A7
:105110000190B4F91000029002AA01A9059800F0CC
:1051200039F80198A0810298208207B0BDE8F08F7D
:1051300010B50146002091F83220920607D5B1F94A
:105140005400002803D1486B02F0C0FC801C10BD45
:1051500070B58AB00C46054601F08AFD0990C06D15
:10516000866809A801F0CEFD009534B1012C06D067
:10517000022C0BD0032C04D10AE0182000E01620EA
:1051800001907168684688470AB070BD1520F7E73E
:105190001720F5E72DE9FC4790468946044601F0C3
:1051A00067FD0090C16D056868468E6801F0AAFD34
:1051B00032680021204690470646204610F096FAB5
:1051C0002F1404462DB227E001F052FD0190B0F9F2
:1051D0000010B0F90420B0F90230491B521BDB1B50
:1051E000B34212D190F82800000607D5D8F8000085
:1051F00088420ADB491EC8F8001006E0D9F8000012
:10520000904202DC521CC9F8002001A801F07AFD8E
:10521000204610F0FBFA0446002CD5D1BDE8FC87EF
:105220004FF0204202EB800021B1016841F0010102
:10523000016070470168024A114001607047000038
:10524000FEFF0F0030B5D0E901121143D0E903236E
:105250001A43114342690368114382691143C269C9
:105260001143026A1143426A1143826A1143C26ABE
:105270001143026B11434FF0204242F82310816822
:10528000082906D1016802EB81010B6843F0400355
:105290000B60416BD1E9003443EA04138C68CD689C
:1052A000240244EA054423430C6943EA04534C694D
:1052B000896943EA04630B430168491C42F82130C1
:1052C000C16AB1F5804F07D000686FF0704102EB02
:1052D0008000C0F8041130BD816B0068D1E9003452
:1052E00043EA04138C680D69240244EA05542343FD
:1052F0004C69896943EA046302EB80000B43C0F800
:10530000043130BD70B5B14C2068010E0120FFF7AB
:1053100033FC2068C0F307410220FFF72DFC206812
:10532000C0F307210320FFF727FC2068C1B2042047
:10533000FFF722FC6068010E0520FFF71DFC606886
:10534000C0F307410620FFF717FC6068C0F3072190
:105350000720FFF711FC6068C1B20820FFF70CFCC2
:10536000A068010E3320FFF707FCA068C0F30741D7
:105370003420FFF701FCA068C0F307213520FFF7B8
:10538000FBFBA068C1B23620FFF7F6FBE068010E18
:105390000920FFF7F1FBE068C0F307410A20FFF79F
:1053A000EBFBE068C0F307210B20FFF7E5FBE068AB
:1053B000C1B20C20FFF7E0FB606A010E9420FFF7FA
:1053C000DBFB606AC0F307419520FFF7D5FB606AFD
:1053D000C0F307219620FFF7CFFB606AC1B2972088
:1053E000FFF7CAFB206A010E4020FFF7C5FB206AC9
:1053F000C0F307414120FFF7BFFB206AC0F307213C
:105400004220FFF7B9FB206AC1B24320FFF7B4FB8B
:105410006F4D2888010A0D20FFF7AEFB2888C1B226
:105420000E20FFF7A9FB6888010A0F20FFF7A4FBF5
:105430006888C1B21020FFF79FFBA888010A3720B7
:10544000FFF79AFBA888C1B23820FFF795FBE888E0
:10545000010A1120FFF790FBE888C1B21220FFF784
:105460008BFB688B010A9820FFF786FB688BC1B223
:105470009920FFF781FB288B010A4420FFF77CFB72
:10548000288BC1B24520FFF777FB2889C1B21320D2
:10549000FFF772FBE88AC1B24620FFF76DFB206977
:1054A000010E1420FFF768FB2069C0F307411520A7
:1054B000FFF762FB2069C0F307211620FFF75CFBB2
:1054C0002069C1B21720FFF757FB6069010E182051
:1054D000FFF752FB6069C0F307411920FFF74CFB4F
:1054E0006069C0F307211A20FFF746FB6069C1B26B
:1054F0001B20FFF741FBA069010E3920FFF73CFBA1
:10550000A069C0F307413A20FFF736FBA069C0F35A
:1055100007213B20FFF730FBA069C1B23C20FFF719
:105520002BFB6889010A1C20FFF726FB6889C1B2A2
:105530001D20FFF721FBA889010A1E20FFF71CFB95
:10554000A889C1B21F20FFF717FBE889010A3D2097
:10555000FFF712FBE889C1B23E20FFF70DFB688A16
:10556000C1B22020FFF708FB288A010A2120FFF79B
:1055700003FB288AC1B22220FFF7FEFAE069010E80
:105580002320FFF7F9FAE069C0F307412420FFF771
:10559000F3FAE069C0F307212520FFF7EDFAE0698F
:1055A000C1B22620FFF7E8FAA88AC1B22720FFF788
:1055B000E3FA084C2088010A2820FFF7DDFA20884A
:1055C000BDE87040C1B22920FFF7D6BA640E0020B2
:1055D000480E0020C20000202DE9F0430446C568B3
:1055E00087B090468946002002F026FF064625B186
:1055F000287910B146F0020001E026F0020002F026
:105600001BFF2069012558B1D4E902128DE826005C
:10561000039563882288046841464846A0471EE0F7
:10562000124F134B214638681B68427CE06898474C
:1056300030B9E088012801D0002001E03868806B93
:10564000A288E388A1680095CDE90410CDE9023273
:105650000195638822884146484607F0CBFD07B094
:105660003046BDE8F04302F0E7BE0000BC01002078
:10567000B40100201CB50024019401AC009400F09A
:10568000E7F81CBD2DE9FF4F83B0814606988A4696
:10569000A0EB0A08109E00200090A2EB09043568D8
:1056A000934654EA080018D02046FCF7ECFB074666
:1056B0004046FCF7E8FB87420BDA2046444680462A
:1056C0004846D14682465846DDF818B0069001207B
:1056D0000090002C07DD204606E007B04846BDE8F4
:1056E000F04F00F03BB96042A0420AD04846D9468C
:1056F0006442C8F1000883464FF0FF37DDF818A078
:1057000000E001275148B8F1000F11D004EBD4712B
:105710004FEA610B01DACBF1000B4C480068807E48
:1057200088B3002F02DA30682044306000257BE027
:1057300000990029016821D0897E11B10027804697
:1057400015E007B05A4649465046BDE8F04F07F00D
:10575000B5BE28466D1C18F0E3FC38B9D8F8000037
:1057600009EB0701C06E4268504690477F1CA74274
:10577000EFDD6D1E356007B0BDE8F08F8A7E1AB18F
:105780000027804617E019E0C86E5A465146036864
:1057900007B04846BDE8F04F184728466D1C18F082
:1057A000BFFC38B9D8F8001009EB0700C96E4A6889
:1057B000514690477F1CA742EFDDDAE700250FE056
:1057C00008FB05B090FBF4F101EB0A00009951B120
:1057D0001E4A09EB05011268D26E526890476D1C93
:1057E000A542EDDDC7E7194909EB05030968C96E54
:1057F0004A6801461846F1E708FB05B090FBF4F152
:1058000001EB0A00019030683844306018F088FCE1
:1058100048B9009890B10D4809EB05010068C06EC9
:105820004268019890476D1CA542E5DD3068002F65
:1058300001DA20443060C01B30609CE7034909EB6B
:1058400005000968C96E4A680199EBE7BC010020B0
:105850002DE9FF470F4640491646804609680C98D7
:105860001D460A7E012A1CD0A8EB0600791B50EACF
:1058700001031CD0A2F1010919F02EFC00F5806093
:10588000824604F035F900FB09F4504604F034F97F
:1058900000FB09F1002C0CDAC4F5007080124042C4
:1058A0000AE00090324639464046FFF7EBFEBDE87D
:1058B000FF8704F50074A012002904DAC1F5007115
:1058C00089124C4202E001F500718C12002804DDBF
:1058D000411C01EBD171491003E000EBD07149107C
:1058E000401E00EBD0704210002C04DD601C00EB69
:1058F000D070401003E004EBD4704010641E04EB41
:10590000D47308EB0104ADF800403C18ADF8024038
:10591000A8EB02045B10B21AADF80440ADF8082001
:105920003144FC1AEA1AADF80C102844ADF80A20EC
:10593000ADF80E000023ADF806401A460421684673
:1059400000F07AF83946404613F0B8FF2946304651
:1059500013F0B4FFABE70000BC010020064A136857
:105960001A7E012A05D0521E02EBD272521000F0AC
:1059700005B8DA6E52681047BC0100202DE9F05FCF
:105980000646884640F2C32050434FF47A7190FB9C
:10599000F1F702FB02F002EBD27100EB610B25493B
:1059A00014467F1C09683244301BC96E0B6841469F
:1059B000984701253AE000BF05FB05F004FB040110
:1059C00059451CDDBC4219DD1A4B06EB050AA6EB56
:1059D00005091B68AAF1010208EB0401DB6E09F15D
:1059E00001001B689847134BAAF10102A8EB0401C0
:1059F0001B6809F10100DB6E1B689847641E0D48A7
:105A000006EB040AA6EB0409006808EB0501524600
:105A1000C06E0368484698470648A8EB0501524601
:105A20000068C06E0368484698476D1CBD42C3DDE0
:105A3000BDE8F09FBC0100202DE9FF4F40F6FF7448
:105A40000F46664283B09B46814600210BE000BFB3
:105A500009EB8100B0F90200A04200DA0446B0422E
:105A600000DD0646491CB942F2DB6848006840691F
:105A700000280DD0B0F906101A46A1EB0B01B14277
:105A800000DA0E46B0F90200801AA04200DD04469A
:105A9000B5E0DFF87CA100200546CAF8000089E0E7
:105AA000781E854201DA6B1C00E0002309EB850CAF
:105AB00009EB8302BCF90200B2F90210A04245D101
:105AC000A14215D139F92330059A39F9251003EB94
:105AD000020C4E4A05981268084404EB0B01D26E82
